{
  "_format": "hh-sol-artifact-1",
  "contractName": "RefundVaultEIP712",
  "sourceName": "contracts/refund/RefundVaultEIP712.sol",
  "abi": [
    {
      "inputs": [
        {
          "internalType": "address",
          "name": "_timelock",
          "type": "address"
        },
        {
          "internalType": "address",
          "name": "_signer",
          "type": "address"
        }
      ],
      "stateMutability": "nonpayable",
      "type": "constructor"
    },
    {
      "inputs": [
        {
          "internalType": "uint256",
          "name": "nowTs",
          "type": "uint256"
        },
        {
          "internalType": "uint256",
          "name": "expiry",
          "type": "uint256"
        }
      ],
      "name": "ExpiredSig",
      "type": "error"
    },
    {
      "inputs": [
        {
          "internalType": "uint256",
          "name": "expected",
          "type": "uint256"
        },
        {
          "internalType": "uint256",
          "name": "provided",
          "type": "uint256"
        }
      ],
      "name": "InvalidNonce",
      "type": "error"
    },
    {
      "inputs": [],
      "name": "InvalidShortString",
      "type": "error"
    },
    {
      "inputs": [],
      "name": "InvalidSig",
      "type": "error"
    },
    {
      "inputs": [],
      "name": "NotTimelock",
      "type": "error"
    },
    {
      "inputs": [
        {
          "internalType": "string",
          "name": "str",
          "type": "string"
        }
      ],
      "name": "StringTooLong",
      "type": "error"
    },
    {
      "inputs": [],
      "name": "TransferFailed",
      "type": "error"
    },
    {
      "anonymous": false,
      "inputs": [],
      "name": "EIP712DomainChanged",
      "type": "event"
    },
    {
      "anonymous": false,
      "inputs": [
        {
          "indexed": false,
          "internalType": "address",
          "name": "account",
          "type": "address"
        }
      ],
      "name": "Paused",
      "type": "event"
    },
    {
      "anonymous": false,
      "inputs": [
        {
          "indexed": true,
          "internalType": "address",
          "name": "beneficiary",
          "type": "address"
        },
        {
          "indexed": false,
          "internalType": "uint256",
          "name": "amount",
          "type": "uint256"
        },
        {
          "indexed": false,
          "internalType": "uint256",
          "name": "nonce",
          "type": "uint256"
        }
      ],
      "name": "Refunded",
      "type": "event"
    },
    {
      "anonymous": false,
      "inputs": [
        {
          "indexed": true,
          "internalType": "address",
          "name": "newSigner",
          "type": "address"
        }
      ],
      "name": "SignerUpdated",
      "type": "event"
    },
    {
      "anonymous": false,
      "inputs": [
        {
          "indexed": false,
          "internalType": "address",
          "name": "account",
          "type": "address"
        }
      ],
      "name": "Unpaused",
      "type": "event"
    },
    {
      "inputs": [
        {
          "internalType": "address",
          "name": "beneficiary",
          "type": "address"
        },
        {
          "internalType": "uint256",
          "name": "amount",
          "type": "uint256"
        },
        {
          "internalType": "uint256",
          "name": "nonce",
          "type": "uint256"
        },
        {
          "internalType": "uint256",
          "name": "expiry",
          "type": "uint256"
        },
        {
          "internalType": "bytes",
          "name": "sig",
          "type": "bytes"
        }
      ],
      "name": "claim",
      "outputs": [],
      "stateMutability": "nonpayable",
      "type": "function"
    },
    {
      "inputs": [],
      "name": "eip712Domain",
      "outputs": [
        {
          "internalType": "bytes1",
          "name": "fields",
          "type": "bytes1"
        },
        {
          "internalType": "string",
          "name": "name",
          "type": "string"
        },
        {
          "internalType": "string",
          "name": "version",
          "type": "string"
        },
        {
          "internalType": "uint256",
          "name": "chainId",
          "type": "uint256"
        },
        {
          "internalType": "address",
          "name": "verifyingContract",
          "type": "address"
        },
        {
          "internalType": "bytes32",
          "name": "salt",
          "type": "bytes32"
        },
        {
          "internalType": "uint256[]",
          "name": "extensions",
          "type": "uint256[]"
        }
      ],
      "stateMutability": "view",
      "type": "function"
    },
    {
      "inputs": [
        {
          "internalType": "address",
          "name": "",
          "type": "address"
        }
      ],
      "name": "nonces",
      "outputs": [
        {
          "internalType": "uint256",
          "name": "",
          "type": "uint256"
        }
      ],
      "stateMutability": "view",
      "type": "function"
    },
    {
      "inputs": [],
      "name": "pause",
      "outputs": [],
      "stateMutability": "nonpayable",
      "type": "function"
    },
    {
      "inputs": [],
      "name": "paused",
      "outputs": [
        {
          "internalType": "bool",
          "name": "",
          "type": "bool"
        }
      ],
      "stateMutability": "view",
      "type": "function"
    },
    {
      "inputs": [
        {
          "internalType": "address",
          "name": "_signer",
          "type": "address"
        }
      ],
      "name": "setSigner",
      "outputs": [],
      "stateMutability": "nonpayable",
      "type": "function"
    },
    {
      "inputs": [],
      "name": "signer",
      "outputs": [
        {
          "internalType": "address",
          "name": "",
          "type": "address"
        }
      ],
      "stateMutability": "view",
      "type": "function"
    },
    {
      "inputs": [],
      "name": "timelock",
      "outputs": [
        {
          "internalType": "address",
          "name": "",
          "type": "address"
        }
      ],
      "stateMutability": "view",
      "type": "function"
    },
    {
      "inputs": [],
      "name": "unpause",
      "outputs": [],
      "stateMutability": "nonpayable",
      "type": "function"
    },
    {
      "stateMutability": "payable",
      "type": "receive"
    }
  ],
  "bytecode": "0x610180346200026957620013c06001600160401b03601f38839003908101601f191684019082821185831017620002535780859160409586948552833981010312620002695762000050836200028a565b906200006060208095016200028a565b928051916200006f836200026e565b60108352858301946f14d959995c95995c9cd95499599d5b9960821b86528251966200009b886200026e565b60018852808801603160f81b8152620000b4866200029f565b97610120988952620000c68a62000472565b96610140978852519020988960e05251902061010098818a524660a052855191838301917f8b73c3c69bb8fe3d512ecc4cf759cc79239f7b179b0ffacaa9a75d522b39400f83528784015260608301524660808301523060a083015260a0825260c0820194828610908611176200025357848652815190206080523060c0526001600255600354936001600160a01b03918883161562000224575050821615620001f657506101609485526001600160a81b031990911660089190911b610100600160a81b03161760035551610da0949093908562000620863960805185610aa8015260a05185610b63015260c05185610a72015260e05185610af701525184610b1d01525183610384015251826103ae01525181818160a8015281816104a40152818161057e01526106710152f35b60649084519062461bcd60e51b82526004820152600860248201526707369676e65723d360c41b6044820152fd5b9069074696d656c6f636b3d360b41b6101046064938662461bcd60e51b855260c4820152600a60e48201520152fd5b634e487b7160e01b600052604160045260246000fd5b600080fd5b604081019081106001600160401b038211176200025357604052565b51906001600160a01b03821682036200026957565b805160209190828110156200033e575090601f825111620002dd5780825192015190808310620002ce57501790565b82600019910360031b1b161790565b90604051809263305a27a960e01b82528060048301528251908160248401526000935b82851062000324575050604492506000838284010152601f80199101168101030190fd5b848101820151868601604401529381019385935062000300565b6001600160401b03811162000253576000928354926001938481811c9116801562000467575b838210146200045357601f81116200041d575b5081601f8411600114620003b657509282939183928694620003aa575b50501b916000199060031b1c191617905560ff90565b01519250388062000394565b919083601f1981168780528488209488905b88838310620004025750505010620003e8575b505050811b01905560ff90565b015160001960f88460031b161c19169055388080620003db565b858701518855909601959485019487935090810190620003c8565b85805284601f848820920160051c820191601f860160051c015b8281106200044757505062000377565b87815501859062000437565b634e487b7160e01b86526022600452602486fd5b90607f169062000364565b805160209081811015620005005750601f8251116200049f5780825192015190808310620002ce57501790565b90604051809263305a27a960e01b82528060048301528251908160248401526000935b828510620004e6575050604492506000838284010152601f80199101168101030190fd5b8481018201518686016044015293810193859350620004c2565b9192916001600160401b038111620002535760019182548381811c9116801562000614575b82821014620005fe57601f8111620005c5575b5080601f8311600114620005785750819293946000926200056c575b5050600019600383901b1c191690821b17905560ff90565b01519050388062000554565b90601f198316958460005282600020926000905b888210620005ad5750508385969710620003e857505050811b01905560ff90565b8087859682949686015181550195019301906200058c565b8360005283601f83600020920160051c820191601f850160051c015b828110620005f157505062000538565b60008155018490620005e1565b634e487b7160e01b600052602260045260246000fd5b90607f16906200052556fe6080604081815260049182361015610022575b505050361561002057600080fd5b005b600092833560e01c918263238ac9331461071b575081633f4ba83a1461065d5781635c975abb146106395781636c19e783146105585781637ecebe00146105225781638456cb591461049057816384b0196e1461036c578163cf503460146100db575063d33219b4146100955780610012565b346100d757816003193601126100d757517f00000000000000000000000000000000000000000000000000000000000000006001600160a01b03168152602090f35b5080fd5b839150346100d75760a03660031901126100d7576100f7610743565b90602480359060443590606435936084359467ffffffffffffffff92838711610368573660238801121561036857868301359384116103685736818589010111610368576002978880541461032657888055610151610a2b565b82421161030a5760018060a01b0380911697888b526020958587528c8c2054948589036102ed5761022b93928d8f92848f958f8f8f988f958d938a916102239c6042958451938b8501957f2b424004f57a6edff502808299258efaa106ac49b796bd6e0255f20a831f1eed87528501526060840152608083015260a082015260a081526101dd8161079e565b5190206101e8610a6f565b8a519261190160f01b8452830152602282015220956102126102098461080e565b985198896107ec565b828852018387013784010152610b89565b929092610bc1565b8060035460081c169116036102dd57600182018092116102cc5750858852818352888820558680808087895af13d156102c7573d6102688161080e565b906102758b5192836107ec565b815288843d92013e5b156102b957509186917f2dc8e290002f06fc0085bbca9dfb8b415cf4d1178950c72ff9ee8f4d8878ee66936001979851928352820152a25580f35b87516312171d8360e31b8152fd5b61027e565b634e487b7160e01b89526011835288fd5b895163c90c66b560e01b81528390fd5b8d516306427aeb60e01b81528088018790528086018a9052604490fd5b5060449350895192633ad23de360e21b84524290840152820152fd5b8a5162461bcd60e51b8152602081860152601f818401527f5265656e7472616e637947756172643a207265656e7472616e742063616c6c006044820152606490fd5b8880fd5b9190503461048c578260031936011261048c576103a87f000000000000000000000000000000000000000000000000000000000000000061082a565b926103d27f0000000000000000000000000000000000000000000000000000000000000000610952565b90825192602092602085019585871067ffffffffffffffff881117610479575092602061042f838896610422998b9996528686528151998a99600f60f81b8b5260e0868c015260e08b019061075e565b91898303908a015261075e565b924660608801523060808801528460a088015286840360c088015251928381520193925b82811061046257505050500390f35b835185528695509381019392810192600101610453565b634e487b7160e01b845260419052602483fd5b8280fd5b90503461048c578260031936011261048c577f00000000000000000000000000000000000000000000000000000000000000006001600160a01b03163303610514575060207f62e78cea01bee320cd4e420270b5ea74000d11b0c9f74754ebdbfc544b05a258916104ff610a2b565b600160ff19600354161760035551338152a180f35b905163656a6d1560e11b8152fd5b90503461048c57602036600319011261048c5760209282916001600160a01b0361054a610743565b168252845220549051908152f35b90503461048c57602036600319011261048c57610573610743565b906001600160a01b037f00000000000000000000000000000000000000000000000000000000000000008116330361062a5782169283156105fc57505060038054610100600160a81b03191660089290921b610100600160a81b03169190911790557f5553331329228fbd4123164423717a4a7539f6dfa1c3279a923b98fd681a6c738280a280f35b906020606492519162461bcd60e51b8352820152600860248201526707369676e65723d360c41b6044820152fd5b50825163656a6d1560e11b8152fd5b5050346100d757816003193601126100d75760209060ff6003541690519015158152f35b90503461048c578260031936011261048c577f00000000000000000000000000000000000000000000000000000000000000006001600160a01b03163303610514576003549060ff8216156106e1575060ff1916600355513381527f5db9ee0a495bf2e6ff9c91a7834c1ba4fdd244a5e8aa4e537bd38aeae4b073aa90602090a180f35b606490602084519162461bcd60e51b8352820152601460248201527314185d5cd8589b194e881b9bdd081c185d5cd95960621b6044820152fd5b8490346100d757816003193601126100d75760035460081c6001600160a01b03168152602090f35b600435906001600160a01b038216820361075957565b600080fd5b919082519283825260005b84811061078a575050826000602080949584010152601f8019910116010190565b602081830181015184830182015201610769565b60c0810190811067ffffffffffffffff8211176107ba57604052565b634e487b7160e01b600052604160045260246000fd5b6040810190811067ffffffffffffffff8211176107ba57604052565b90601f8019910116810190811067ffffffffffffffff8211176107ba57604052565b67ffffffffffffffff81116107ba57601f01601f191660200190565b60ff81146108685760ff811690601f8211610856576040519161084c836107d0565b8252602082015290565b604051632cd44ac360e21b8152600490fd5b50604051600080549060018260011c9060018416938415610948575b6020948584108114610934578387528694939291811561091457506001146108b8575b50506108b5925003826107ec565b90565b60008080527f290decd9548b62a8d60345a988386fc84ba6bc95484008f6362f93160ef3e56395935091905b8183106108fc5750506108b5935082010138806108a7565b855487840185015294850194869450918301916108e4565b9150506108b594925060ff191682840152151560051b82010138806108a7565b634e487b7160e01b85526022600452602485fd5b91607f1691610884565b60ff81146109745760ff811690601f8211610856576040519161084c836107d0565b506040516000600190600154918260011c9060018416938415610a21575b6020948584108114610934578387528694939291811561091457506001146109c25750506108b5925003826107ec565b9093915060016000527fb10e2d527612073b26eecdfd717e6a320cf44b4afac2b0732d9fcbe2b7fa0cf6936000915b818310610a095750506108b5935082010138806108a7565b855487840185015294850194869450918301916109f1565b91607f1691610992565b60ff60035416610a3757565b60405162461bcd60e51b815260206004820152601060248201526f14185d5cd8589b194e881c185d5cd95960821b6044820152606490fd5b307f00000000000000000000000000000000000000000000000000000000000000006001600160a01b03161480610b60575b15610aca577f000000000000000000000000000000000000000000000000000000000000000090565b60405160208101907f8b73c3c69bb8fe3d512ecc4cf759cc79239f7b179b0ffacaa9a75d522b39400f82527f000000000000000000000000000000000000000000000000000000000000000060408201527f000000000000000000000000000000000000000000000000000000000000000060608201524660808201523060a082015260a08152610b5a8161079e565b51902090565b507f00000000000000000000000000000000000000000000000000000000000000004614610aa1565b906041815114600014610bb757610bb3916020820151906060604084015193015160001a90610cdb565b9091565b5050600090600290565b6005811015610cc55780610bd25750565b60018103610c1f5760405162461bcd60e51b815260206004820152601860248201527f45434453413a20696e76616c6964207369676e617475726500000000000000006044820152606490fd5b60028103610c6c5760405162461bcd60e51b815260206004820152601f60248201527f45434453413a20696e76616c6964207369676e6174757265206c656e677468006044820152606490fd5b600314610c7557565b60405162461bcd60e51b815260206004820152602260248201527f45434453413a20696e76616c6964207369676e6174757265202773272076616c604482015261756560f01b6064820152608490fd5b634e487b7160e01b600052602160045260246000fd5b9291907f7fffffffffffffffffffffffffffffff5d576e7357a4501ddfe92f46681b20a08311610d5e5791608094939160ff602094604051948552168484015260408301526060820152600093849182805260015afa15610d515781516001600160a01b03811615610d4b579190565b50600190565b50604051903d90823e3d90fd5b5050505060009060039056fea26469706673582212201250f6faafefdb3bb2566ecb896ee69f3c5a8c00167146b6442573d3ad51fc6564736f6c63430008180033",
  "linkReferences": {},
  "deployedLinkReferences": {}
}