{
  "_format": "hh-sol-artifact-1",
  "contractName": "BaronNFT",
  "sourceName": "contracts/nft/BaronNFT.sol",
  "abi": [
    {
      "inputs": [
        {
          "internalType": "address",
          "name": "admin",
          "type": "address"
        }
      ],
      "stateMutability": "nonpayable",
      "type": "constructor"
    },
    {
      "anonymous": false,
      "inputs": [
        {
          "indexed": true,
          "internalType": "address",
          "name": "owner",
          "type": "address"
        },
        {
          "indexed": true,
          "internalType": "address",
          "name": "approved",
          "type": "address"
        },
        {
          "indexed": true,
          "internalType": "uint256",
          "name": "tokenId",
          "type": "uint256"
        }
      ],
      "name": "Approval",
      "type": "event"
    },
    {
      "anonymous": false,
      "inputs": [
        {
          "indexed": true,
          "internalType": "address",
          "name": "owner",
          "type": "address"
        },
        {
          "indexed": true,
          "internalType": "address",
          "name": "operator",
          "type": "address"
        },
        {
          "indexed": false,
          "internalType": "bool",
          "name": "approved",
          "type": "bool"
        }
      ],
      "name": "ApprovalForAll",
      "type": "event"
    },
    {
      "anonymous": false,
      "inputs": [],
      "name": "BaseURIFrozen",
      "type": "event"
    },
    {
      "anonymous": false,
      "inputs": [
        {
          "indexed": false,
          "internalType": "string",
          "name": "newBaseURI",
          "type": "string"
        }
      ],
      "name": "BaseURISet",
      "type": "event"
    },
    {
      "anonymous": false,
      "inputs": [
        {
          "indexed": false,
          "internalType": "uint256",
          "name": "_fromTokenId",
          "type": "uint256"
        },
        {
          "indexed": false,
          "internalType": "uint256",
          "name": "_toTokenId",
          "type": "uint256"
        }
      ],
      "name": "BatchMetadataUpdate",
      "type": "event"
    },
    {
      "anonymous": false,
      "inputs": [
        {
          "indexed": false,
          "internalType": "uint256",
          "name": "_tokenId",
          "type": "uint256"
        }
      ],
      "name": "MetadataUpdate",
      "type": "event"
    },
    {
      "anonymous": false,
      "inputs": [
        {
          "indexed": true,
          "internalType": "bytes32",
          "name": "role",
          "type": "bytes32"
        },
        {
          "indexed": true,
          "internalType": "bytes32",
          "name": "previousAdminRole",
          "type": "bytes32"
        },
        {
          "indexed": true,
          "internalType": "bytes32",
          "name": "newAdminRole",
          "type": "bytes32"
        }
      ],
      "name": "RoleAdminChanged",
      "type": "event"
    },
    {
      "anonymous": false,
      "inputs": [
        {
          "indexed": true,
          "internalType": "bytes32",
          "name": "role",
          "type": "bytes32"
        },
        {
          "indexed": true,
          "internalType": "address",
          "name": "account",
          "type": "address"
        },
        {
          "indexed": true,
          "internalType": "address",
          "name": "sender",
          "type": "address"
        }
      ],
      "name": "RoleGranted",
      "type": "event"
    },
    {
      "anonymous": false,
      "inputs": [
        {
          "indexed": true,
          "internalType": "bytes32",
          "name": "role",
          "type": "bytes32"
        },
        {
          "indexed": true,
          "internalType": "address",
          "name": "account",
          "type": "address"
        },
        {
          "indexed": true,
          "internalType": "address",
          "name": "sender",
          "type": "address"
        }
      ],
      "name": "RoleRevoked",
      "type": "event"
    },
    {
      "anonymous": false,
      "inputs": [],
      "name": "RoyaltyFrozen",
      "type": "event"
    },
    {
      "anonymous": false,
      "inputs": [
        {
          "indexed": true,
          "internalType": "address",
          "name": "receiver",
          "type": "address"
        },
        {
          "indexed": false,
          "internalType": "uint96",
          "name": "feeNumerator",
          "type": "uint96"
        }
      ],
      "name": "RoyaltySet",
      "type": "event"
    },
    {
      "anonymous": false,
      "inputs": [
        {
          "indexed": true,
          "internalType": "address",
          "name": "from",
          "type": "address"
        },
        {
          "indexed": true,
          "internalType": "address",
          "name": "to",
          "type": "address"
        },
        {
          "indexed": true,
          "internalType": "uint256",
          "name": "tokenId",
          "type": "uint256"
        }
      ],
      "name": "Transfer",
      "type": "event"
    },
    {
      "inputs": [],
      "name": "DEFAULT_ADMIN_ROLE",
      "outputs": [
        {
          "internalType": "bytes32",
          "name": "",
          "type": "bytes32"
        }
      ],
      "stateMutability": "view",
      "type": "function"
    },
    {
      "inputs": [],
      "name": "MINTER_ROLE",
      "outputs": [
        {
          "internalType": "bytes32",
          "name": "",
          "type": "bytes32"
        }
      ],
      "stateMutability": "view",
      "type": "function"
    },
    {
      "inputs": [
        {
          "internalType": "address",
          "name": "to",
          "type": "address"
        },
        {
          "internalType": "uint256",
          "name": "tokenId",
          "type": "uint256"
        }
      ],
      "name": "approve",
      "outputs": [],
      "stateMutability": "nonpayable",
      "type": "function"
    },
    {
      "inputs": [
        {
          "internalType": "address",
          "name": "owner",
          "type": "address"
        }
      ],
      "name": "balanceOf",
      "outputs": [
        {
          "internalType": "uint256",
          "name": "",
          "type": "uint256"
        }
      ],
      "stateMutability": "view",
      "type": "function"
    },
    {
      "inputs": [],
      "name": "baseURIFrozen",
      "outputs": [
        {
          "internalType": "bool",
          "name": "",
          "type": "bool"
        }
      ],
      "stateMutability": "view",
      "type": "function"
    },
    {
      "inputs": [],
      "name": "freezeBaseURI",
      "outputs": [],
      "stateMutability": "nonpayable",
      "type": "function"
    },
    {
      "inputs": [],
      "name": "freezeRoyalty",
      "outputs": [],
      "stateMutability": "nonpayable",
      "type": "function"
    },
    {
      "inputs": [
        {
          "internalType": "uint256",
          "name": "tokenId",
          "type": "uint256"
        }
      ],
      "name": "getApproved",
      "outputs": [
        {
          "internalType": "address",
          "name": "",
          "type": "address"
        }
      ],
      "stateMutability": "view",
      "type": "function"
    },
    {
      "inputs": [
        {
          "internalType": "bytes32",
          "name": "role",
          "type": "bytes32"
        }
      ],
      "name": "getRoleAdmin",
      "outputs": [
        {
          "internalType": "bytes32",
          "name": "",
          "type": "bytes32"
        }
      ],
      "stateMutability": "view",
      "type": "function"
    },
    {
      "inputs": [
        {
          "internalType": "bytes32",
          "name": "role",
          "type": "bytes32"
        },
        {
          "internalType": "address",
          "name": "account",
          "type": "address"
        }
      ],
      "name": "grantRole",
      "outputs": [],
      "stateMutability": "nonpayable",
      "type": "function"
    },
    {
      "inputs": [
        {
          "internalType": "bytes32",
          "name": "role",
          "type": "bytes32"
        },
        {
          "internalType": "address",
          "name": "account",
          "type": "address"
        }
      ],
      "name": "hasRole",
      "outputs": [
        {
          "internalType": "bool",
          "name": "",
          "type": "bool"
        }
      ],
      "stateMutability": "view",
      "type": "function"
    },
    {
      "inputs": [
        {
          "internalType": "address",
          "name": "owner",
          "type": "address"
        },
        {
          "internalType": "address",
          "name": "operator",
          "type": "address"
        }
      ],
      "name": "isApprovedForAll",
      "outputs": [
        {
          "internalType": "bool",
          "name": "",
          "type": "bool"
        }
      ],
      "stateMutability": "view",
      "type": "function"
    },
    {
      "inputs": [
        {
          "internalType": "address",
          "name": "to",
          "type": "address"
        },
        {
          "internalType": "string",
          "name": "tokenURI_",
          "type": "string"
        }
      ],
      "name": "mint",
      "outputs": [
        {
          "internalType": "uint256",
          "name": "",
          "type": "uint256"
        }
      ],
      "stateMutability": "nonpayable",
      "type": "function"
    },
    {
      "inputs": [],
      "name": "name",
      "outputs": [
        {
          "internalType": "string",
          "name": "",
          "type": "string"
        }
      ],
      "stateMutability": "view",
      "type": "function"
    },
    {
      "inputs": [
        {
          "internalType": "uint256",
          "name": "tokenId",
          "type": "uint256"
        }
      ],
      "name": "ownerOf",
      "outputs": [
        {
          "internalType": "address",
          "name": "",
          "type": "address"
        }
      ],
      "stateMutability": "view",
      "type": "function"
    },
    {
      "inputs": [
        {
          "internalType": "bytes32",
          "name": "role",
          "type": "bytes32"
        },
        {
          "internalType": "address",
          "name": "account",
          "type": "address"
        }
      ],
      "name": "renounceRole",
      "outputs": [],
      "stateMutability": "nonpayable",
      "type": "function"
    },
    {
      "inputs": [
        {
          "internalType": "bytes32",
          "name": "role",
          "type": "bytes32"
        },
        {
          "internalType": "address",
          "name": "account",
          "type": "address"
        }
      ],
      "name": "revokeRole",
      "outputs": [],
      "stateMutability": "nonpayable",
      "type": "function"
    },
    {
      "inputs": [],
      "name": "royaltyFrozen",
      "outputs": [
        {
          "internalType": "bool",
          "name": "",
          "type": "bool"
        }
      ],
      "stateMutability": "view",
      "type": "function"
    },
    {
      "inputs": [
        {
          "internalType": "uint256",
          "name": "tokenId",
          "type": "uint256"
        },
        {
          "internalType": "uint256",
          "name": "salePrice",
          "type": "uint256"
        }
      ],
      "name": "royaltyInfo",
      "outputs": [
        {
          "internalType": "address",
          "name": "",
          "type": "address"
        },
        {
          "internalType": "uint256",
          "name": "",
          "type": "uint256"
        }
      ],
      "stateMutability": "view",
      "type": "function"
    },
    {
      "inputs": [
        {
          "internalType": "address",
          "name": "from",
          "type": "address"
        },
        {
          "internalType": "address",
          "name": "to",
          "type": "address"
        },
        {
          "internalType": "uint256",
          "name": "tokenId",
          "type": "uint256"
        }
      ],
      "name": "safeTransferFrom",
      "outputs": [],
      "stateMutability": "nonpayable",
      "type": "function"
    },
    {
      "inputs": [
        {
          "internalType": "address",
          "name": "from",
          "type": "address"
        },
        {
          "internalType": "address",
          "name": "to",
          "type": "address"
        },
        {
          "internalType": "uint256",
          "name": "tokenId",
          "type": "uint256"
        },
        {
          "internalType": "bytes",
          "name": "data",
          "type": "bytes"
        }
      ],
      "name": "safeTransferFrom",
      "outputs": [],
      "stateMutability": "nonpayable",
      "type": "function"
    },
    {
      "inputs": [
        {
          "internalType": "address",
          "name": "operator",
          "type": "address"
        },
        {
          "internalType": "bool",
          "name": "approved",
          "type": "bool"
        }
      ],
      "name": "setApprovalForAll",
      "outputs": [],
      "stateMutability": "nonpayable",
      "type": "function"
    },
    {
      "inputs": [
        {
          "internalType": "string",
          "name": "newBaseURI",
          "type": "string"
        }
      ],
      "name": "setBaseURI",
      "outputs": [],
      "stateMutability": "nonpayable",
      "type": "function"
    },
    {
      "inputs": [
        {
          "internalType": "address",
          "name": "receiver",
          "type": "address"
        },
        {
          "internalType": "uint96",
          "name": "feeNumerator",
          "type": "uint96"
        }
      ],
      "name": "setDefaultRoyalty",
      "outputs": [],
      "stateMutability": "nonpayable",
      "type": "function"
    },
    {
      "inputs": [
        {
          "internalType": "bytes4",
          "name": "interfaceId",
          "type": "bytes4"
        }
      ],
      "name": "supportsInterface",
      "outputs": [
        {
          "internalType": "bool",
          "name": "",
          "type": "bool"
        }
      ],
      "stateMutability": "view",
      "type": "function"
    },
    {
      "inputs": [],
      "name": "symbol",
      "outputs": [
        {
          "internalType": "string",
          "name": "",
          "type": "string"
        }
      ],
      "stateMutability": "view",
      "type": "function"
    },
    {
      "inputs": [
        {
          "internalType": "uint256",
          "name": "tokenId",
          "type": "uint256"
        }
      ],
      "name": "tokenURI",
      "outputs": [
        {
          "internalType": "string",
          "name": "",
          "type": "string"
        }
      ],
      "stateMutability": "view",
      "type": "function"
    },
    {
      "inputs": [
        {
          "internalType": "address",
          "name": "from",
          "type": "address"
        },
        {
          "internalType": "address",
          "name": "to",
          "type": "address"
        },
        {
          "internalType": "uint256",
          "name": "tokenId",
          "type": "uint256"
        }
      ],
      "name": "transferFrom",
      "outputs": [],
      "stateMutability": "nonpayable",
      "type": "function"
    }
  ],
  "bytecode": "0x60803462000485576200299a90813803601f1991601f91838382011682019460018060401b0391838710838811176200046f57808492604098895283396020938491810103126200048557516001600160a01b03811694908590036200048557620000696200048a565b90600982526810985c9bdb8813919560ba1b84830152620000896200048a565b94600386526221292760e91b858701528251958487116200046f576000968754946001958681811c9116801562000464575b898210146200045057908185849311620003fd575b5088908583116001146200039c578a9262000390575b5050600019600383901b1c191690851b1787555b8051928584116200037c5784548581811c9116801562000371575b888210146200035d57908184869594931162000306575b5087928411600114620002a55750879262000299575b5050600019600383901b1c191690821b1781555b84156200026b5783805260098352858420858552835260ff86852054161562000233575b7f9f2df0fed2c77648de5860a4cc508cd0818c85b8b8a1ab4ceeef8d981c8956a680855260098452868520868652845260ff878620541615620001fa575b50600a5584519081860190811182821017620001e65785528381520152600755516124cf9081620004ab8239f35b634e487b7160e01b84526041600452602484fd5b8085526009845286852086865284528685208260ff198254161790558533916000805160206200297a8339815191528780a438620001b8565b838052600983528584208585528352858420805460ff1916821790553385856000805160206200297a8339815191528180a46200017a565b855162461bcd60e51b8152600481018490526007602482015266061646d696e3d360cc1b6044820152606490fd5b01519050388062000142565b85895287892086959093929116895b89828210620002ef5750508411620002d5575b505050811b01815562000156565b015160001960f88460031b161c19169055388080620002c7565b8385015186558897909501949384019301620002b4565b90919293508589528789208480870160051c8201928a881062000353575b9187968992969594930160051c01915b828110620003445750506200012c565b8b815587965088910162000334565b9250819262000324565b634e487b7160e01b89526022600452602489fd5b90607f169062000115565b634e487b7160e01b88526041600452602488fd5b015190503880620000e6565b9086889416918b80528a8c20928c5b8c828210620003e65750508411620003cc575b505050811b018755620000fa565b015160001960f88460031b161c19169055388080620003be565b8385015186558b97909501949384019301620003ab565b909150898052888a208580850160051c8201928b861062000446575b918991869594930160051c01915b82811062000437575050620000d0565b8c815585945089910162000427565b9250819262000419565b634e487b7160e01b8a52602260045260248afd5b90607f1690620000bb565b634e487b7160e01b600052604160045260246000fd5b600080fd5b60408051919082016001600160401b038111838210176200046f5760405256fe608060408181526004918236101561001657600080fd5b600092833560e01c91826301ffc9a7146114715750816304634d8d146112f557816306fdde0314611244578163081812fc14611224578163095ea7b3146110b657816323b872dd14611091578163248a9ca3146110665781632a55205a14610faa5781632f2ff15d14610efd57816336568abe14610e6b57816342842e0e14610e375781634db6a33414610e1357816355f804b314610bdb5781636352211e14610baa57816370a0823114610b145781638e15385914610ac757816391d1485414610a8057816395d89b4114610995578163a217fddf1461097a578163a22cb465146108aa578163b88d4fde14610824578163c87b56dd146107ec578163d0def5211461029a578163d53913931461025f578163d547741f1461021c57508063e7bc8208146101cc578063e985e9c51461017f5763fb565bfd1461015957600080fd5b3461017b578160031936011261017b5760209060ff600b541690519015158152f35b5080fd5b503461017b578060031936011261017b5760ff8160209361019e61152a565b6101a6611545565b6001600160a01b0391821683526005875283832091168252855220549151911615158152f35b82346102195780600319360112610219576101e56118c9565b600160ff19600b541617600b557fcb8ee1250825b65fb9f9db82cf9039335db3185b4258fa3f81453f21741b42518180a180f35b80fd5b9190503461025b578060031936011261025b5761025891356102536001610241611545565b93838752600960205286200154611a97565b611d7c565b80f35b8280fd5b50503461017b578160031936011261017b57602090517f9f2df0fed2c77648de5860a4cc508cd0818c85b8b8a1ab4ceeef8d981c8956a68152f35b9190503461025b578060031936011261025b576102b561152a565b91602467ffffffffffffffff81358181116107e857366023820112156107e8576102e790369084818701359101611680565b917f9f2df0fed2c77648de5860a4cc508cd0818c85b8b8a1ab4ceeef8d981c8956a69687815260209760098952868220338352895260ff8783205416156106235750600a54966000199283891461061257600191828a01600a5588519061034d8261160a565b8482526001600160a01b03811680156105d257918b61040b92818f958e60026104109861039861039286600052600260205260018060a01b0360406000205416151590565b1561244d565b6000858152600260205260409020546103bb906001600160a01b03161515610392565b838d5260038152828d2080548d019055848d52528a2080546001600160a01b03191682179055897fddf252ad1be2c89b69c2b068fc378daa952ba7f163c4a11628f55a4df523b3ef8180a4612173565b611e45565b6000898152600260205260409020546001600160a01b03161561057a5788835260068a5287832096865195861161056957505061044d86546116b7565b601f8111610523575b508892601f85116001146104c25750509061048693836104b7575b50508160011b916000199060031b1c19161790565b90555b7ff8e1a15aba9398e019f0b49df1a4fde98ee17ae345cb5f6b5e2c27f5033e8ce7838251848152a151908152f35b015190503880610471565b9192909484601f1981168886528b8620955b8c8983831061050c57505050106104f4575b50505050811b019055610489565b01519060f88460031b161c19169055388080806104e6565b8686015189559097019694850194889350016104d4565b868352898320601f860160051c8101918b871061055f575b601f0160051c019082905b828110610554575050610456565b848155018290610546565b909150819061053b565b634e487b7160e01b84526041905282fd5b86602e6084928c8b519362461bcd60e51b85528401528201527f45524337323155524953746f726167653a2055524920736574206f66206e6f6e60448201526d32bc34b9ba32b73a103a37b5b2b760911b6064820152fd5b60648a8e86818f519362461bcd60e51b85528401528201527f4552433732313a206d696e7420746f20746865207a65726f20616464726573736044820152fd5b634e487b7160e01b83526011875282fd5b9186899387936106323361233d565b9183519061063f82611626565b604282528782019260603685378251156107d65760308453825190600191600110156107c45790607860218501536041915b81831161075b5750505061071b576048610717959385936106ff936106f0975197889376020b1b1b2b9b9a1b7b73a3937b61d1030b1b1b7bab73a1604d1b8d8601526106c78d825192839160378901910161155b565b8401917001034b99036b4b9b9b4b733903937b6329607d1b60378401525180938684019061155b565b01036028810186520184611642565b5194859462461bcd60e51b865285015283019061157e565b0390fd5b60648688878188519362461bcd60e51b85528401528201527f537472696e67733a20686578206c656e67746820696e73756666696369656e746044820152fd5b909192600f811660108110156107b2576f181899199a1a9b1b9c1cb0b131b232b360811b901a61078b8587612316565b53891c9280156107a057600019019190610671565b634e487b7160e01b825260118a528882fd5b634e487b7160e01b835260328b528983fd5b634e487b7160e01b8152603289528790fd5b634e487b7160e01b8152603288528690fd5b8680fd5b828434610219576020366003190112610219575061080d6108209235611e65565b905191829160208352602083019061157e565b0390f35b83903461017b57608036600319011261017b5761083f61152a565b90610848611545565b916044356064359367ffffffffffffffff85116108a657366023860112156108a65761088361040b9486602461025898369301359101611680565b926108966108918433611ba3565b6117f5565b6108a1838383611c6b565b61228d565b8580fd5b9190503461025b578060031936011261025b576108c561152a565b9060243591821515809303610976576001600160a01b0316923384146109345750338452600560205280842083855260205280842060ff1981541660ff8416179055519081527f17307eab39ab6107e8899845ad3d59bd9653f200f220920489ca2b5937696c3160203392a380f35b6020606492519162461bcd60e51b8352820152601960248201527f4552433732313a20617070726f766520746f2063616c6c6572000000000000006044820152fd5b8480fd5b50503461017b578160031936011261017b5751908152602090f35b8284346102195780600319360112610219578151918282600193600154946109bc866116b7565b9182855260209687600182169182600014610a595750506001146109fd575b50505061082092916109ee910385611642565b5192828493845283019061157e565b9190869350600183527fb10e2d527612073b26eecdfd717e6a320cf44b4afac2b0732d9fcbe2b7fa0cf65b828410610a4157505050820101816109ee6108206109db565b8054848a018601528895508794909301928101610a28565b60ff19168782015293151560051b860190930193508492506109ee915061082090506109db565b90503461025b578160031936011261025b578160209360ff92610aa1611545565b90358252600986528282206001600160a01b039091168252855220549151911615158152f35b8334610219578060031936011261021957610ae06118c9565b600160ff19600d541617600d557f10eea802bfc159e62a10401715430ffb6d4e6ccb3cf1e933728e0607be9594728180a180f35b8391503461017b57602036600319011261017b576001600160a01b03610b3861152a565b16908115610b555760208480858581526003845220549051908152f35b608490602085519162461bcd60e51b8352820152602960248201527f4552433732313a2061646472657373207a65726f206973206e6f7420612076616044820152683634b21037bbb732b960b91b6064820152fd5b8284346102195760203660031901126102195750610bca602092356118a3565b90516001600160a01b039091168152f35b8391503461017b576020928360031936011261025b5781359367ffffffffffffffff928386116109765736602387011215610976578581013593841161097657602490368286890101116108a657610c316118c9565b60ff600b5416610dea5750610c47600c546116b7565b601f8111610d88575b5084601f8511600114610cde57818697610ca58780809681967ff9c7803e94e0d3c02900d8a90893a6d5e90dd04d32a4cfe825520f82bf9f32f69c92610cd15750508160011b916000199060031b1c19161790565b600c555b855196858896875286015201848401378181018301869052601f01601f19168101030190a180f35b850101359050848d610471565b600c8652957fdf6966c971051c3d54ec59162606531493a51404a002842f56009d7e5cf4a8c7601f198616875b818110610d6f5750918693917ff9c7803e94e0d3c02900d8a90893a6d5e90dd04d32a4cfe825520f82bf9f32f6989985809510610d53575b5050600183811b01600c55610ca9565b8201830135600019600386901b60f8161c191690558980610d43565b838a018501358355988501986001909201918501610d0b565b600c86527fdf6966c971051c3d54ec59162606531493a51404a002842f56009d7e5cf4a8c7601f860160051c810191848710610de0575b601f0160051c01905b818110610dd55750610c50565b868155600101610dc8565b9091508190610dbf565b60066064928486519362461bcd60e51b855284015282015265333937bd32b760d11b6044820152fd5b50503461017b578160031936011261017b5760209060ff600d541690519015158152f35b50503461017b5761040b61025891610e4e366115a3565b91925192610e5b8461160a565b8684526108966108918433611ba3565b8391503461017b578260031936011261017b57610e86611545565b90336001600160a01b03831603610ea257906102589135611d7c565b608490602085519162461bcd60e51b8352820152602f60248201527f416363657373436f6e74726f6c3a2063616e206f6e6c792072656e6f756e636560448201526e103937b632b9903337b91039b2b63360891b6064820152fd5b90503461025b578160031936011261025b573590610f19611545565b908284526009602052610f3160018286200154611a97565b828452600960209081528185206001600160a01b039093168086529290528084205460ff1615610f5f578380f35b82845260096020528084208285526020528320600160ff1982541617905533917f2f8788117e7eff1d82e926ec794901d17c78024a50270940304540a733656f0d8480a43880808380f35b8284346102195781600319360112610219576024359083358152600860205282812090835191610fd9836115d8565b546001600160a01b0380821680855260a09290921c602085015292919015611043575b6001600160601b03602083015116938481029481860414901517156110305750518351911681526127109091046020820152f35b634e487b7160e01b815260118652602490fd5b90508351611050816115d8565b600754838116825260a01c602082015290610ffc565b90503461025b57602036600319011261025b5781602093600192358152600985522001549051908152f35b8334610219576102586110a3366115a3565b916110b16108918433611ba3565b611c6b565b90503461025b578160031936011261025b576110d061152a565b6024359290916001600160a01b03919082806110eb876118a3565b169416938085146111d7578033149081156111b8575b501561115057848652602052842080546001600160a01b03191683179055611128836118a3565b167f8c5be1e5ebec7d5bd14f71427d1e84f3dd0314c0f7b2291e5b200ac8c7c3b9258480a480f35b6020608492519162461bcd60e51b8352820152603d60248201527f4552433732313a20617070726f76652063616c6c6572206973206e6f7420746f60448201527f6b656e206f776e6572206f7220617070726f76656420666f7220616c6c0000006064820152fd5b90508652600560205281862033875260205260ff828720541638611101565b506020608492519162461bcd60e51b8352820152602160248201527f4552433732313a20617070726f76616c20746f2063757272656e74206f776e656044820152603960f91b6064820152fd5b8284346102195760203660031901126102195750610bca602092356117b7565b82843461021957806003193601126102195781519182828354611266816116b7565b9081845260209560019187600182169182600014610a5957505060011461129a5750505061082092916109ee910385611642565b91908693508280527f290decd9548b62a8d60345a988386fc84ba6bc95484008f6362f93160ef3e5635b8284106112dd57505050820101816109ee6108206109db565b8054848a0186015288955087949093019281016112c4565b9190503461025b578060031936011261025b5761131061152a565b906024356001600160601b038116928382036108a65761132e6118c9565b60ff600d541661143d5761271084116113e7576001600160a01b03169384156113a4575091817f23813f5ad446622633cb58c75ceef768a2111751b0f30477a63e06fcaedcff6093826020809551611385816115d8565b888152015260a01b6001600160a01b031916851760075551908152a280f35b606490602084519162461bcd60e51b8352820152601960248201527f455243323938313a20696e76616c6964207265636569766572000000000000006044820152fd5b825162461bcd60e51b8152602081870152602a60248201527f455243323938313a20726f79616c7479206665652077696c6c206578636565646044820152692073616c65507269636560b01b6064820152608490fd5b825162461bcd60e51b8152602081870152600e60248201526d3937bcb0b63a3c96b33937bd32b760911b6044820152606490fd5b84913461025b57602036600319011261025b573563ffffffff60e01b811680910361025b5760209250637965db0b60e01b81149081156114b3575b5015158152f35b63152a902d60e11b8114915081156114cd575b50836114ac565b632483248360e11b8114915081156114e7575b50836114c6565b6380ac58cd60e01b811491508115611519575b8115611508575b50836114e0565b6301ffc9a760e01b14905083611501565b635b5e139f60e01b811491506114fa565b600435906001600160a01b038216820361154057565b600080fd5b602435906001600160a01b038216820361154057565b60005b83811061156e5750506000910152565b818101518382015260200161155e565b906020916115978151809281855285808601910161155b565b601f01601f1916010190565b6060906003190112611540576001600160a01b0390600435828116810361154057916024359081168103611540579060443590565b6040810190811067ffffffffffffffff8211176115f457604052565b634e487b7160e01b600052604160045260246000fd5b6020810190811067ffffffffffffffff8211176115f457604052565b6080810190811067ffffffffffffffff8211176115f457604052565b90601f8019910116810190811067ffffffffffffffff8211176115f457604052565b67ffffffffffffffff81116115f457601f01601f191660200190565b92919261168c82611664565b9161169a6040519384611642565b829481845281830111611540578281602093846000960137010152565b90600182811c921680156116e7575b60208310146116d157565b634e487b7160e01b600052602260045260246000fd5b91607f16916116c6565b60405190600082600c5491611705836116b7565b808352926020906001908181169081156117935750600114611732575b505061173092500383611642565b565b915092600c6000527fdf6966c971051c3d54ec59162606531493a51404a002842f56009d7e5cf4a8c7936000925b82841061177b57506117309450505081016020013880611722565b85548885018301529485019487945092810192611760565b9150506020925061173094915060ff191682840152151560051b8201013880611722565b6000818152600260205260409020546117da906001600160a01b03161515611857565b6000908152600460205260409020546001600160a01b031690565b156117fc57565b60405162461bcd60e51b815260206004820152602d60248201527f4552433732313a2063616c6c6572206973206e6f7420746f6b656e206f776e6560448201526c1c881bdc88185c1c1c9bdd9959609a1b6064820152608490fd5b1561185e57565b60405162461bcd60e51b815260206004820152601860248201527f4552433732313a20696e76616c696420746f6b656e20494400000000000000006044820152606490fd5b6000908152600260205260409020546001600160a01b03166118c6811515611857565b90565b3360009081527fec8156718a8372b1db44bb411437d0870f3e3790d4a08526d024ce1b0b668f6b602090815260408083205490929060ff161561190b57505050565b6119143361233d565b908084519061192282611626565b60428252848201926060368537825115611a83576030845382519060019160011015611a835790607860218501536041915b818311611a15575050506119d35760486107179386936119b7936119a8985198899376020b1b1b2b9b9a1b7b73a3937b61d1030b1b1b7bab73a1604d1b8a8601526106c7815180928c60378901910161155b565b01036028810187520185611642565b5192839262461bcd60e51b84526004840152602483019061157e565b60648486519062461bcd60e51b825280600483015260248201527f537472696e67733a20686578206c656e67746820696e73756666696369656e746044820152fd5b909192600f81166010811015611a6f576f181899199a1a9b1b9c1cb0b131b232b360811b901a611a458587612316565b5360041c928015611a5b57600019019190611954565b634e487b7160e01b82526011600452602482fd5b634e487b7160e01b83526032600452602483fd5b634e487b7160e01b81526032600452602490fd5b60009080825260209060098252604092838120338252835260ff848220541615611ac15750505050565b611aca3361233d565b91845190611ad782611626565b60428252848201926060368537825115611a83576030845382519060019160011015611a835790607860218501536041915b818311611b5d575050506119d35760486107179386936119b7936119a8985198899376020b1b1b2b9b9a1b7b73a3937b61d1030b1b1b7bab73a1604d1b8a8601526106c7815180928c60378901910161155b565b909192600f81166010811015611a6f576f181899199a1a9b1b9c1cb0b131b232b360811b901a611b8d8587612316565b5360041c928015611a5b57600019019190611b09565b906001600160a01b038080611bb7846118a3565b16931691838314938415611bea575b508315611bd4575b50505090565b611be0919293506117b7565b1614388080611bce565b909350600052600560205260406000208260005260205260ff604060002054169238611bc6565b15611c1857565b60405162461bcd60e51b815260206004820152602560248201527f4552433732313a207472616e736665722066726f6d20696e636f72726563742060448201526437bbb732b960d91b6064820152608490fd5b90611c9391611c79846118a3565b6001600160a01b0393918416928492909183168414611c11565b16918215611d2b5781611cb091611ca9866118a3565b1614611c11565b7fddf252ad1be2c89b69c2b068fc378daa952ba7f163c4a11628f55a4df523b3ef60008481526004602052604081206001600160601b0360a01b9081815416905583825260036020526040822060001981540190558482526040822060018154019055858252600260205284604083209182541617905580a4565b60405162461bcd60e51b8152602060048201526024808201527f4552433732313a207472616e7366657220746f20746865207a65726f206164646044820152637265737360e01b6064820152608490fd5b906000918083526009602052604083209160018060a01b03169182845260205260ff604084205416611dad57505050565b8083526009602052604083208284526020526040832060ff1981541690557ff6391f5c32d9c69d2a47ea670b442974b53935d1edc7fd64eb21e047a839171b339380a4565b60809060208152603260208201527f4552433732313a207472616e7366657220746f206e6f6e20455243373231526560408201527131b2b4bb32b91034b6b83632b6b2b73a32b960711b60608201520190565b15611e4c57565b60405162461bcd60e51b81528061071760048201611df2565b600081815260026020526040902054611e88906001600160a01b03161515611857565b600081815260209060068252604090818120918051829380549482611eac876116b7565b91828252888201936001988a600182169182600014612155575050600114612117575b50611edc92500383611642565b611ee46116f1565b90815192831561210b5780516120e757505050600086815260026020526040902054611f1b91506001600160a01b03161515611857565b611f236116f1565b8051909390156120d15785869184977a184f03e93ff9f4daa797ed6e38ed64bf6a1f01000000000000000090818110156120c2575b50506d04ee2d6d415b85acef8100000000808410156120b4575b50662386f26fc10000808410156120a5575b506305f5e10080841015612096575b5061271080841015612087575b506064831015612077575b600a8093101561206d575b9081602160018a0199611fe0611fcb8c611664565b9b611fd889519d8e611642565b808d52611664565b8b8b019890601f1901368a37508a0101905b612037575b505050509061202b946118c694939251958361201c889551809288808901910161155b565b8401915180938684019061155b565b01038084520182611642565b600019019083906f181899199a1a9b1b9c1cb0b131b232b360811b8282061a83530491821561206857919082611ff2565b611ff7565b9660010196611fb6565b9691606460029104920196611fab565b60049198930492019638611fa0565b60089198930492019638611f93565b60109198930492019638611f84565b879198930492019638611f72565b94985088940492503880611f58565b50925092505051906120e28261160a565b815290565b929750926118c696955061202b91945061201c88915198899688808901910161155b565b97505050505050505090565b915050855282878087208888915b85831061213c575050611edc935082010138611ecf565b8091929450548385890101520191018890888693612125565b60ff19168752611edc95151560051b8501019250389150611ecf9050565b91929091803b15612284576121c0936040519081630a85bd0160e11b9384825233600483015260009687602484015260448301526080606483015281878160209a8b96608483019061157e565b03926001600160a01b03165af1849181612244575b50612233575050503d60001461222b573d6121ef81611664565b906121fd6040519283611642565b81528091833d92013e5b805191826122285760405162461bcd60e51b81528061071760048201611df2565b01fd5b506060612207565b6001600160e01b0319161492509050565b9091508581813d831161227d575b61225c8183611642565b8101031261097657516001600160e01b0319811681036109765790386121d5565b503d612252565b50915050600190565b9293919290803b1561230c576122e19460018060a01b039460405192839187630a85bd0160e11b9687855233600486015216602484015260448301526080606483015281806020998a95608483019061157e565b03916000988991165af18491816122445750612233575050503d60001461222b573d6121ef81611664565b5050915050600190565b908151811015612327570160200190565b634e487b7160e01b600052603260045260246000fd5b604051906060820182811067ffffffffffffffff8211176115f457604052602a8252602082016040368237825115612327576030905381516001906001101561232757607860218401536029905b8082116123df57505061239b5790565b606460405162461bcd60e51b815260206004820152602060248201527f537472696e67733a20686578206c656e67746820696e73756666696369656e746044820152fd5b9091600f81166010811015612438576f181899199a1a9b1b9c1cb0b131b232b360811b901a61240e8486612316565b5360041c91801561242357600019019061238b565b60246000634e487b7160e01b81526011600452fd5b60246000634e487b7160e01b81526032600452fd5b1561245457565b60405162461bcd60e51b815260206004820152601c60248201527f4552433732313a20746f6b656e20616c7265616479206d696e746564000000006044820152606490fdfea2646970667358221220eaa8734dc3148bd67c1ad2010fd6a12fce15da8e40b03781c08b032ecce3621864736f6c634300081800332f8788117e7eff1d82e926ec794901d17c78024a50270940304540a733656f0d",
  "linkReferences": {},
  "deployedLinkReferences": {}
}