{
  "_format": "hh-sol-artifact-1",
  "contractName": "BaronNFT",
  "sourceName": "contracts/nft/BaronNFT.sol",
  "abi": [
    {
      "inputs": [
        {
          "internalType": "address",
          "name": "admin",
          "type": "address"
        }
      ],
      "stateMutability": "nonpayable",
      "type": "constructor"
    },
    {
      "anonymous": false,
      "inputs": [
        {
          "indexed": true,
          "internalType": "address",
          "name": "owner",
          "type": "address"
        },
        {
          "indexed": true,
          "internalType": "address",
          "name": "approved",
          "type": "address"
        },
        {
          "indexed": true,
          "internalType": "uint256",
          "name": "tokenId",
          "type": "uint256"
        }
      ],
      "name": "Approval",
      "type": "event"
    },
    {
      "anonymous": false,
      "inputs": [
        {
          "indexed": true,
          "internalType": "address",
          "name": "owner",
          "type": "address"
        },
        {
          "indexed": true,
          "internalType": "address",
          "name": "operator",
          "type": "address"
        },
        {
          "indexed": false,
          "internalType": "bool",
          "name": "approved",
          "type": "bool"
        }
      ],
      "name": "ApprovalForAll",
      "type": "event"
    },
    {
      "anonymous": false,
      "inputs": [
        {
          "indexed": false,
          "internalType": "uint256",
          "name": "_fromTokenId",
          "type": "uint256"
        },
        {
          "indexed": false,
          "internalType": "uint256",
          "name": "_toTokenId",
          "type": "uint256"
        }
      ],
      "name": "BatchMetadataUpdate",
      "type": "event"
    },
    {
      "anonymous": false,
      "inputs": [
        {
          "indexed": false,
          "internalType": "uint256",
          "name": "_tokenId",
          "type": "uint256"
        }
      ],
      "name": "MetadataUpdate",
      "type": "event"
    },
    {
      "anonymous": false,
      "inputs": [
        {
          "indexed": true,
          "internalType": "bytes32",
          "name": "role",
          "type": "bytes32"
        },
        {
          "indexed": true,
          "internalType": "bytes32",
          "name": "previousAdminRole",
          "type": "bytes32"
        },
        {
          "indexed": true,
          "internalType": "bytes32",
          "name": "newAdminRole",
          "type": "bytes32"
        }
      ],
      "name": "RoleAdminChanged",
      "type": "event"
    },
    {
      "anonymous": false,
      "inputs": [
        {
          "indexed": true,
          "internalType": "bytes32",
          "name": "role",
          "type": "bytes32"
        },
        {
          "indexed": true,
          "internalType": "address",
          "name": "account",
          "type": "address"
        },
        {
          "indexed": true,
          "internalType": "address",
          "name": "sender",
          "type": "address"
        }
      ],
      "name": "RoleGranted",
      "type": "event"
    },
    {
      "anonymous": false,
      "inputs": [
        {
          "indexed": true,
          "internalType": "bytes32",
          "name": "role",
          "type": "bytes32"
        },
        {
          "indexed": true,
          "internalType": "address",
          "name": "account",
          "type": "address"
        },
        {
          "indexed": true,
          "internalType": "address",
          "name": "sender",
          "type": "address"
        }
      ],
      "name": "RoleRevoked",
      "type": "event"
    },
    {
      "anonymous": false,
      "inputs": [
        {
          "indexed": true,
          "internalType": "address",
          "name": "from",
          "type": "address"
        },
        {
          "indexed": true,
          "internalType": "address",
          "name": "to",
          "type": "address"
        },
        {
          "indexed": true,
          "internalType": "uint256",
          "name": "tokenId",
          "type": "uint256"
        }
      ],
      "name": "Transfer",
      "type": "event"
    },
    {
      "inputs": [],
      "name": "DEFAULT_ADMIN_ROLE",
      "outputs": [
        {
          "internalType": "bytes32",
          "name": "",
          "type": "bytes32"
        }
      ],
      "stateMutability": "view",
      "type": "function"
    },
    {
      "inputs": [],
      "name": "MINTER_ROLE",
      "outputs": [
        {
          "internalType": "bytes32",
          "name": "",
          "type": "bytes32"
        }
      ],
      "stateMutability": "view",
      "type": "function"
    },
    {
      "inputs": [
        {
          "internalType": "address",
          "name": "to",
          "type": "address"
        },
        {
          "internalType": "uint256",
          "name": "tokenId",
          "type": "uint256"
        }
      ],
      "name": "approve",
      "outputs": [],
      "stateMutability": "nonpayable",
      "type": "function"
    },
    {
      "inputs": [
        {
          "internalType": "address",
          "name": "owner",
          "type": "address"
        }
      ],
      "name": "balanceOf",
      "outputs": [
        {
          "internalType": "uint256",
          "name": "",
          "type": "uint256"
        }
      ],
      "stateMutability": "view",
      "type": "function"
    },
    {
      "inputs": [
        {
          "internalType": "uint256",
          "name": "tokenId",
          "type": "uint256"
        }
      ],
      "name": "getApproved",
      "outputs": [
        {
          "internalType": "address",
          "name": "",
          "type": "address"
        }
      ],
      "stateMutability": "view",
      "type": "function"
    },
    {
      "inputs": [
        {
          "internalType": "bytes32",
          "name": "role",
          "type": "bytes32"
        }
      ],
      "name": "getRoleAdmin",
      "outputs": [
        {
          "internalType": "bytes32",
          "name": "",
          "type": "bytes32"
        }
      ],
      "stateMutability": "view",
      "type": "function"
    },
    {
      "inputs": [
        {
          "internalType": "bytes32",
          "name": "role",
          "type": "bytes32"
        },
        {
          "internalType": "address",
          "name": "account",
          "type": "address"
        }
      ],
      "name": "grantRole",
      "outputs": [],
      "stateMutability": "nonpayable",
      "type": "function"
    },
    {
      "inputs": [
        {
          "internalType": "bytes32",
          "name": "role",
          "type": "bytes32"
        },
        {
          "internalType": "address",
          "name": "account",
          "type": "address"
        }
      ],
      "name": "hasRole",
      "outputs": [
        {
          "internalType": "bool",
          "name": "",
          "type": "bool"
        }
      ],
      "stateMutability": "view",
      "type": "function"
    },
    {
      "inputs": [
        {
          "internalType": "address",
          "name": "owner",
          "type": "address"
        },
        {
          "internalType": "address",
          "name": "operator",
          "type": "address"
        }
      ],
      "name": "isApprovedForAll",
      "outputs": [
        {
          "internalType": "bool",
          "name": "",
          "type": "bool"
        }
      ],
      "stateMutability": "view",
      "type": "function"
    },
    {
      "inputs": [
        {
          "internalType": "address",
          "name": "to",
          "type": "address"
        },
        {
          "internalType": "string",
          "name": "tokenURI_",
          "type": "string"
        }
      ],
      "name": "mint",
      "outputs": [
        {
          "internalType": "uint256",
          "name": "",
          "type": "uint256"
        }
      ],
      "stateMutability": "nonpayable",
      "type": "function"
    },
    {
      "inputs": [],
      "name": "name",
      "outputs": [
        {
          "internalType": "string",
          "name": "",
          "type": "string"
        }
      ],
      "stateMutability": "view",
      "type": "function"
    },
    {
      "inputs": [
        {
          "internalType": "uint256",
          "name": "tokenId",
          "type": "uint256"
        }
      ],
      "name": "ownerOf",
      "outputs": [
        {
          "internalType": "address",
          "name": "",
          "type": "address"
        }
      ],
      "stateMutability": "view",
      "type": "function"
    },
    {
      "inputs": [
        {
          "internalType": "bytes32",
          "name": "role",
          "type": "bytes32"
        },
        {
          "internalType": "address",
          "name": "account",
          "type": "address"
        }
      ],
      "name": "renounceRole",
      "outputs": [],
      "stateMutability": "nonpayable",
      "type": "function"
    },
    {
      "inputs": [
        {
          "internalType": "bytes32",
          "name": "role",
          "type": "bytes32"
        },
        {
          "internalType": "address",
          "name": "account",
          "type": "address"
        }
      ],
      "name": "revokeRole",
      "outputs": [],
      "stateMutability": "nonpayable",
      "type": "function"
    },
    {
      "inputs": [
        {
          "internalType": "address",
          "name": "from",
          "type": "address"
        },
        {
          "internalType": "address",
          "name": "to",
          "type": "address"
        },
        {
          "internalType": "uint256",
          "name": "tokenId",
          "type": "uint256"
        }
      ],
      "name": "safeTransferFrom",
      "outputs": [],
      "stateMutability": "nonpayable",
      "type": "function"
    },
    {
      "inputs": [
        {
          "internalType": "address",
          "name": "from",
          "type": "address"
        },
        {
          "internalType": "address",
          "name": "to",
          "type": "address"
        },
        {
          "internalType": "uint256",
          "name": "tokenId",
          "type": "uint256"
        },
        {
          "internalType": "bytes",
          "name": "data",
          "type": "bytes"
        }
      ],
      "name": "safeTransferFrom",
      "outputs": [],
      "stateMutability": "nonpayable",
      "type": "function"
    },
    {
      "inputs": [
        {
          "internalType": "address",
          "name": "operator",
          "type": "address"
        },
        {
          "internalType": "bool",
          "name": "approved",
          "type": "bool"
        }
      ],
      "name": "setApprovalForAll",
      "outputs": [],
      "stateMutability": "nonpayable",
      "type": "function"
    },
    {
      "inputs": [
        {
          "internalType": "bytes4",
          "name": "interfaceId",
          "type": "bytes4"
        }
      ],
      "name": "supportsInterface",
      "outputs": [
        {
          "internalType": "bool",
          "name": "",
          "type": "bool"
        }
      ],
      "stateMutability": "view",
      "type": "function"
    },
    {
      "inputs": [],
      "name": "symbol",
      "outputs": [
        {
          "internalType": "string",
          "name": "",
          "type": "string"
        }
      ],
      "stateMutability": "view",
      "type": "function"
    },
    {
      "inputs": [
        {
          "internalType": "uint256",
          "name": "tokenId",
          "type": "uint256"
        }
      ],
      "name": "tokenURI",
      "outputs": [
        {
          "internalType": "string",
          "name": "",
          "type": "string"
        }
      ],
      "stateMutability": "view",
      "type": "function"
    },
    {
      "inputs": [
        {
          "internalType": "address",
          "name": "from",
          "type": "address"
        },
        {
          "internalType": "address",
          "name": "to",
          "type": "address"
        },
        {
          "internalType": "uint256",
          "name": "tokenId",
          "type": "uint256"
        }
      ],
      "name": "transferFrom",
      "outputs": [],
      "stateMutability": "nonpayable",
      "type": "function"
    }
  ],
  "bytecode": "0x6080346200045757601f62001f7338819003828101601f1990811685019490926001600160401b0392838711838810176200044157808392604098895283396020928391810103126200045757516001600160a01b038116929083900362000457576200006b6200045c565b94600986526810985c9bdb8813919560ba1b838701526200008b6200045c565b600381526221292760e91b8482015286519583871162000441576000968754986001998a81811c9116801562000436575b888210146200042257908186849311620003cf575b5087908683116001146200036e578a9262000362575b5050600019600383901b1c191690891b1787555b81519384116200034e5787548881811c9116801562000343575b868210146200032f579081848695949311620002d8575b508592841160011462000277575086926200026b575b5050600019600383901b1c191690851b1784555b81156200023e5782805260078152848320828452815260ff85842054161562000206575b7f9f2df0fed2c77648de5860a4cc508cd0818c85b8b8a1ab4ceeef8d981c8956a69081845260078152858420838552815260ff868520541615620001cc575b858560085551611ad690816200047d8239f35b8184526007815285842090838552528483208460ff1982541617905560008051602062001f53833981519152339380a438808080620001b9565b828052600781528483208284528152848320805460ff19168517905533828460008051602062001f538339815191528180a46200017a565b60649085519062461bcd60e51b825260048201526007602482015266061646d696e3d360cc1b6044820152fd5b01519050388062000142565b88885285882089959093929116885b87828210620002c15750508411620002a7575b505050811b01845562000156565b015160001960f88460031b161c1916905538808062000299565b8385015186558b9790950194938401930162000286565b90919293508888528588208480870160051c82019288881062000325575b9187968c92969594930160051c01915b828110620003165750506200012c565b8a81558796508b910162000306565b92508192620002f6565b634e487b7160e01b88526022600452602488fd5b90607f169062000115565b634e487b7160e01b87526041600452602487fd5b015190503880620000e7565b90848c9416918b8052898c20928c5b8b828210620003b857505084116200039e575b505050811b018755620000fb565b015160001960f88460031b161c1916905538808062000390565b8385015186558f979095019493840193016200037d565b909150898052878a208680850160051c8201928a861062000418575b918d91869594930160051c01915b82811062000409575050620000d1565b8c81558594508d9101620003f9565b92508192620003eb565b634e487b7160e01b8a52602260045260248afd5b90607f1690620000bc565b634e487b7160e01b600052604160045260246000fd5b600080fd5b60408051919082016001600160401b03811183821017620004415760405256fe608060408181526004918236101561001657600080fd5b600092833560e01c91826301ffc9a714610fa25750816306fdde0314610ef1578163081812fc14610ed1578163095ea7b314610d6357816323b872dd14610d3e578163248a9ca314610d135781632f2ff15d14610c6657816336568abe14610bd457816342842e0e14610ba05781636352211e14610b6f57816370a0823114610ad957816391d1485414610a9257816395d89b41146109a4578163a217fddf14610989578163a22cb465146108b9578163b88d4fde14610833578163c87b56dd14610723578163d0def521146101da578163d53913931461019f578163d547741f1461015c575063e985e9c51461010c57600080fd5b3461015857806003193601126101585760ff8160209361012a611089565b6101326110a4565b6001600160a01b0391821683526005875283832091168252855220549151911615158152f35b5080fd5b9190503461019b578060031936011261019b57610198913561019360016101816110a4565b938387526007602052862001546114dc565b611691565b80f35b8280fd5b505034610158578160031936011261015857602090517f9f2df0fed2c77648de5860a4cc508cd0818c85b8b8a1ab4ceeef8d981c8956a68152f35b9190503461019b578060031936011261019b576101f5611089565b6024929067ffffffffffffffff843581811161071f573660238201121561071f576102289036908781870135910161117b565b947f9f2df0fed2c77648de5860a4cc508cd0818c85b8b8a1ab4ceeef8d981c8956a69687815260209760078952868220338352895260ff87832054161561055a5750600854966000199283891461054957600195868a0160085588519061028e826110ef565b8482526001600160a01b038116801561050957918b61034e92818f958e6002610353988f838e6102dc6102d689600052600260205260018060a01b0360406000205416151590565b15611a54565b6000888152600260205260409020546102ff906001600160a01b031615156102d6565b868152600384522080549091019055848d52528a2080546001600160a01b03191682179055897fddf252ad1be2c89b69c2b068fc378daa952ba7f163c4a11628f55a4df523b3ef8180a461177a565b61175a565b6000898152600260205260409020546001600160a01b0316156104b15788835260068a528783209682519586116104a057505061039086546111b2565b601f811161045a575b508891601f85116001146103fa57918495918593956103ef575b50501b9260031b1c19161790555b7ff8e1a15aba9398e019f0b49df1a4fde98ee17ae345cb5f6b5e2c27f5033e8ce7838251848152a151908152f35b0151935038806103b3565b92919084601f1981168886528b8620955b8c89838310610443575050501061042b575b50505050811b0190556103c1565b01519060f88460031b161c191690553880808061041d565b86860151895590970196948501948893500161040b565b868352898320601f860160051c8101918b8710610496575b601f0160051c019086905b82811061048b575050610399565b84815501869061047d565b9091508190610472565b634e487b7160e01b84526041905282fd5b86602e6084928c8b519362461bcd60e51b85528401528201527f45524337323155524953746f726167653a2055524920736574206f66206e6f6e60448201526d32bc34b9ba32b73a103a37b5b2b760911b6064820152fd5b60648a8e86818f519362461bcd60e51b85528401528201527f4552433732313a206d696e7420746f20746865207a65726f20616464726573736044820152fd5b634e487b7160e01b83526011875282fd5b91868993879361056933611944565b9183519061057682611121565b6042825287820192606036853782511561070d5760308453825190600191600110156106fb5790607860218501536041915b8183116106925750505061065257604861064e9593859361063693610627975197889376020b1b1b2b9b9a1b7b73a3937b61d1030b1b1b7bab73a1604d1b8d8601526105fe8d8251928391603789019101611041565b8401917001034b99036b4b9b9b4b733903937b6329607d1b603784015251809386840190611041565b0103602881018652018461113d565b5194859462461bcd60e51b8652850152830190611064565b0390fd5b60648688878188519362461bcd60e51b85528401528201527f537472696e67733a20686578206c656e67746820696e73756666696369656e746044820152fd5b909192600f811660108110156106e9576f181899199a1a9b1b9c1cb0b131b232b360811b901a6106c2858761191d565b53891c9280156106d7576000190191906105a8565b634e487b7160e01b825260118a528882fd5b634e487b7160e01b835260328b528983fd5b634e487b7160e01b8152603289528790fd5b634e487b7160e01b8152603288528690fd5b8680fd5b9190503461019b576020918260031936011261082f573560008181526002602052604090205461075d906001600160a01b0316151561128c565b835260068252808320928151809482908054610778816111b2565b91828552600191886001821691826000146108085750506001146107ca575b5050506107c69392916107ab91038661113d565b81516107b6816110ef565b5251928284938452830190611064565b0390f35b8552868520879350859291905b8284106107f057505050820101816107ab6107c6610797565b8054848b0186015289955088949093019281016107d7565b60ff19168782015293151560051b860190930193508492506107ab91506107c69050610797565b8380fd5b8390346101585760803660031901126101585761084e611089565b906108576110a4565b916044356064359367ffffffffffffffff85116108b557366023860112156108b55761089261034e948660246101989836930135910161117b565b926108a56108a084336112fe565b61122a565b6108b08383836113c6565b611894565b8580fd5b9190503461019b578060031936011261019b576108d4611089565b9060243591821515809303610985576001600160a01b0316923384146109435750338452600560205280842083855260205280842060ff1981541660ff8416179055519081527f17307eab39ab6107e8899845ad3d59bd9653f200f220920489ca2b5937696c3160203392a380f35b6020606492519162461bcd60e51b8352820152601960248201527f4552433732313a20617070726f766520746f2063616c6c6572000000000000006044820152fd5b8480fd5b50503461015857816003193601126101585751908152602090f35b828434610a8f5780600319360112610a8f578151918282600193600154946109cb866111b2565b9182855260209687600182169182600014610a68575050600114610a0c575b5050506107c692916109fd91038561113d565b51928284938452830190611064565b9190869350600183527fb10e2d527612073b26eecdfd717e6a320cf44b4afac2b0732d9fcbe2b7fa0cf65b828410610a5057505050820101816109fd6107c66109ea565b8054848a018601528895508794909301928101610a37565b60ff19168782015293151560051b860190930193508492506109fd91506107c690506109ea565b80fd5b90503461019b578160031936011261019b578160209360ff92610ab36110a4565b90358252600786528282206001600160a01b039091168252855220549151911615158152f35b83915034610158576020366003190112610158576001600160a01b03610afd611089565b16908115610b1a5760208480858581526003845220549051908152f35b608490602085519162461bcd60e51b8352820152602960248201527f4552433732313a2061646472657373207a65726f206973206e6f7420612076616044820152683634b21037bbb732b960b91b6064820152fd5b828434610a8f576020366003190112610a8f5750610b8f602092356112d8565b90516001600160a01b039091168152f35b5050346101585761034e61019891610bb7366110ba565b91925192610bc4846110ef565b8684526108a56108a084336112fe565b83915034610158578260031936011261015857610bef6110a4565b90336001600160a01b03831603610c0b57906101989135611691565b608490602085519162461bcd60e51b8352820152602f60248201527f416363657373436f6e74726f6c3a2063616e206f6e6c792072656e6f756e636560448201526e103937b632b9903337b91039b2b63360891b6064820152fd5b90503461019b578160031936011261019b573590610c826110a4565b908284526007602052610c9a600182862001546114dc565b828452600760209081528185206001600160a01b039093168086529290528084205460ff1615610cc8578380f35b82845260076020528084208285526020528320600160ff1982541617905533917f2f8788117e7eff1d82e926ec794901d17c78024a50270940304540a733656f0d8480a43880808380f35b90503461019b57602036600319011261019b5781602093600192358152600785522001549051908152f35b8334610a8f57610198610d50366110ba565b91610d5e6108a084336112fe565b6113c6565b90503461019b578160031936011261019b57610d7d611089565b6024359290916001600160a01b0391908280610d98876112d8565b16941693808514610e8457803314908115610e65575b5015610dfd57848652602052842080546001600160a01b03191683179055610dd5836112d8565b167f8c5be1e5ebec7d5bd14f71427d1e84f3dd0314c0f7b2291e5b200ac8c7c3b9258480a480f35b6020608492519162461bcd60e51b8352820152603d60248201527f4552433732313a20617070726f76652063616c6c6572206973206e6f7420746f60448201527f6b656e206f776e6572206f7220617070726f76656420666f7220616c6c0000006064820152fd5b90508652600560205281862033875260205260ff828720541638610dae565b506020608492519162461bcd60e51b8352820152602160248201527f4552433732313a20617070726f76616c20746f2063757272656e74206f776e656044820152603960f91b6064820152fd5b828434610a8f576020366003190112610a8f5750610b8f602092356111ec565b828434610a8f5780600319360112610a8f5781519182828354610f13816111b2565b9081845260209560019187600182169182600014610a68575050600114610f47575050506107c692916109fd91038561113d565b91908693508280527f290decd9548b62a8d60345a988386fc84ba6bc95484008f6362f93160ef3e5635b828410610f8a57505050820101816109fd6107c66109ea565b8054848a018601528895508794909301928101610f71565b84913461019b57602036600319011261019b573563ffffffff60e01b811680910361019b5760209250637965db0b60e01b8114908115610fe4575b5015158152f35b632483248360e11b811491508115610ffe575b5083610fdd565b6380ac58cd60e01b811491508115611030575b811561101f575b5083610ff7565b6301ffc9a760e01b14905083611018565b635b5e139f60e01b81149150611011565b60005b8381106110545750506000910152565b8181015183820152602001611044565b9060209161107d81518092818552858086019101611041565b601f01601f1916010190565b600435906001600160a01b038216820361109f57565b600080fd5b602435906001600160a01b038216820361109f57565b606090600319011261109f576001600160a01b0390600435828116810361109f5791602435908116810361109f579060443590565b6020810190811067ffffffffffffffff82111761110b57604052565b634e487b7160e01b600052604160045260246000fd5b6080810190811067ffffffffffffffff82111761110b57604052565b90601f8019910116810190811067ffffffffffffffff82111761110b57604052565b67ffffffffffffffff811161110b57601f01601f191660200190565b9291926111878261115f565b91611195604051938461113d565b82948184528183011161109f578281602093846000960137010152565b90600182811c921680156111e2575b60208310146111cc57565b634e487b7160e01b600052602260045260246000fd5b91607f16916111c1565b60008181526002602052604090205461120f906001600160a01b0316151561128c565b6000908152600460205260409020546001600160a01b031690565b1561123157565b60405162461bcd60e51b815260206004820152602d60248201527f4552433732313a2063616c6c6572206973206e6f7420746f6b656e206f776e6560448201526c1c881bdc88185c1c1c9bdd9959609a1b6064820152608490fd5b1561129357565b60405162461bcd60e51b815260206004820152601860248201527f4552433732313a20696e76616c696420746f6b656e20494400000000000000006044820152606490fd5b6000908152600260205260409020546001600160a01b03166112fb81151561128c565b90565b906001600160a01b038080611312846112d8565b16931691838314938415611345575b50831561132f575b50505090565b61133b919293506111ec565b1614388080611329565b909350600052600560205260406000208260005260205260ff604060002054169238611321565b1561137357565b60405162461bcd60e51b815260206004820152602560248201527f4552433732313a207472616e736665722066726f6d20696e636f72726563742060448201526437bbb732b960d91b6064820152608490fd5b906113ee916113d4846112d8565b6001600160a01b039391841692849290918316841461136c565b1691821561148b578161140b91611404866112d8565b161461136c565b7fddf252ad1be2c89b69c2b068fc378daa952ba7f163c4a11628f55a4df523b3ef60008481526004602052604081206bffffffffffffffffffffffff60a01b9081815416905583825260036020526040822060001981540190558482526040822060018154019055858252600260205284604083209182541617905580a4565b60405162461bcd60e51b8152602060048201526024808201527f4552433732313a207472616e7366657220746f20746865207a65726f206164646044820152637265737360e01b6064820152608490fd5b60009080825260209060078252604092838120338252835260ff8482205416156115065750505050565b61150f33611944565b9184519061151c82611121565b6042825284820192606036853782511561167d57603084538251906001916001101561167d5790607860218501536041915b81831161160f575050506115cd57604861064e9386936115b1936115a2985198899376020b1b1b2b9b9a1b7b73a3937b61d1030b1b1b7bab73a1604d1b8a8601526105fe815180928c603789019101611041565b0103602881018752018561113d565b5192839262461bcd60e51b845260048401526024830190611064565b60648486519062461bcd60e51b825280600483015260248201527f537472696e67733a20686578206c656e67746820696e73756666696369656e746044820152fd5b909192600f81166010811015611669576f181899199a1a9b1b9c1cb0b131b232b360811b901a61163f858761191d565b5360041c9280156116555760001901919061154e565b634e487b7160e01b82526011600452602482fd5b634e487b7160e01b83526032600452602483fd5b634e487b7160e01b81526032600452602490fd5b906000918083526007602052604083209160018060a01b03169182845260205260ff6040842054166116c257505050565b8083526007602052604083208284526020526040832060ff1981541690557ff6391f5c32d9c69d2a47ea670b442974b53935d1edc7fd64eb21e047a839171b339380a4565b60809060208152603260208201527f4552433732313a207472616e7366657220746f206e6f6e20455243373231526560408201527131b2b4bb32b91034b6b83632b6b2b73a32b960711b60608201520190565b1561176157565b60405162461bcd60e51b81528061064e60048201611707565b91929091803b1561188b576117c7936040519081630a85bd0160e11b9384825233600483015260009687602484015260448301526080606483015281878160209a8b966084830190611064565b03926001600160a01b03165af184918161184b575b5061183a575050503d600014611832573d6117f68161115f565b90611804604051928361113d565b81528091833d92013e5b8051918261182f5760405162461bcd60e51b81528061064e60048201611707565b01fd5b50606061180e565b6001600160e01b0319161492509050565b9091508581813d8311611884575b611863818361113d565b8101031261098557516001600160e01b0319811681036109855790386117dc565b503d611859565b50915050600190565b9293919290803b15611913576118e89460018060a01b039460405192839187630a85bd0160e11b9687855233600486015216602484015260448301526080606483015281806020998a956084830190611064565b03916000988991165af184918161184b575061183a575050503d600014611832573d6117f68161115f565b5050915050600190565b90815181101561192e570160200190565b634e487b7160e01b600052603260045260246000fd5b604051906060820182811067ffffffffffffffff82111761110b57604052602a825260208201604036823782511561192e576030905381516001906001101561192e57607860218401536029905b8082116119e65750506119a25790565b606460405162461bcd60e51b815260206004820152602060248201527f537472696e67733a20686578206c656e67746820696e73756666696369656e746044820152fd5b9091600f81166010811015611a3f576f181899199a1a9b1b9c1cb0b131b232b360811b901a611a15848661191d565b5360041c918015611a2a576000190190611992565b60246000634e487b7160e01b81526011600452fd5b60246000634e487b7160e01b81526032600452fd5b15611a5b57565b60405162461bcd60e51b815260206004820152601c60248201527f4552433732313a20746f6b656e20616c7265616479206d696e746564000000006044820152606490fdfea264697066735822122045668dc066d9e58f8a04b2b4030041082debe11e039111f6aaf923cac0432e8c64736f6c634300081800332f8788117e7eff1d82e926ec794901d17c78024a50270940304540a733656f0d",
  "linkReferences": {},
  "deployedLinkReferences": {}
}