{"contracts/MyContract.sol":{"MyContract":{"abi":[{"inputs":[],"name":"message","outputs":[{"internalType":"string","name":"","type":"string"}],"stateMutability":"view","type":"function"},{"inputs":[{"internalType":"string","name":"_msg","type":"string"}],"name":"setMessage","outputs":[],"stateMutability":"nonpayable","type":"function"}],"evm":{"bytecode":{"linkReferences":{},"object":"608080604052346100a95760008054600190600181811c9116801561009f575b602082101461008b57601f8111610062575b50507f48656c6c6f205365666572566572736521000000000000000000000000000022905561037590816100af8239f35b828052601f60208420910160051c8101905b8181106100815750610031565b8381558201610074565b634e487b7160e01b83526022600452602483fd5b90607f169061001f565b600080fdfe604060808152600436101561001357600080fd5b600090813560e01c8063368b8772146101745763e21f37ce1461003557600080fd5b34610170578160031936011261017057805190829183549361005685610305565b938483526020809660019060018116908160001461015157506001146100fc575b505082939450601f801994859203011682019482861067ffffffffffffffff8711176100e85785929391838652818452845191828186015281955b8387106100d05750508394508582601f949501015201168101030190f35b868101820151898801890152958101958895506100b2565b634e487b7160e01b82526041600452602482fd5b83805290915082907f290decd9548b62a8d60345a988386fc84ba6bc95484008f6362f93160ef3e5635b87831061013e57509495508594508301018538610077565b8054868401850152918301918101610126565b60ff191683870152509495869550151560051b84010190508538610077565b5080fd5b82346103025760209060206003193601126103025767ffffffffffffffff6004358181116102fe57366023820112156102fe5780600401359182116102fe5760249036602484830101116102fa576101cc8454610305565b601f811161029b575b508391601f84116001146102145750838394955092610206575b50508160011b916000199060031b1c191617815580f35b6024925001013583806101ef565b91947f290decd9548b62a8d60345a988386fc84ba6bc95484008f6362f93160ef3e56392601f1985169186915b83831061027f5750505094836001959610610262575b505050811b01815580f35b0160240135600019600384901b60f8161c19169055838080610257565b908060018a978483969c89010135815501960198019190610241565b7f290decd9548b62a8d60345a988386fc84ba6bc95484008f6362f93160ef3e563601f850160051c810191602086106102f0575b601f0160051c01905b8181106102e557506101d5565b8581556001016102d8565b90915081906102cf565b8380fd5b8280fd5b80fd5b90600182811c92168015610335575b602083101461031f57565b634e487b7160e01b600052602260045260246000fd5b91607f169161031456fea26469706673582212209ae181746f9a73cb86e1e52f283e89cdb2bb526265f8637d07c1bba9066b158e64736f6c63430008180033","opcodes":"PUSH1 0x80 DUP1 PUSH1 0x40 MSTORE CALLVALUE PUSH2 0xA9 JUMPI PUSH1 0x0 DUP1 SLOAD PUSH1 0x1 SWAP1 PUSH1 0x1 DUP2 DUP2 SHR SWAP2 AND DUP1 ISZERO PUSH2 0x9F JUMPI JUMPDEST PUSH1 0x20 DUP3 LT EQ PUSH2 0x8B JUMPI PUSH1 0x1F DUP2 GT PUSH2 0x62 JUMPI JUMPDEST POP POP PUSH32 0x48656C6C6F205365666572566572736521000000000000000000000000000022 SWAP1 SSTORE PUSH2 0x375 SWAP1 DUP2 PUSH2 0xAF DUP3 CODECOPY RETURN JUMPDEST DUP3 DUP1 MSTORE PUSH1 0x1F PUSH1 0x20 DUP5 KECCAK256 SWAP2 ADD PUSH1 0x5 SHR DUP2 ADD SWAP1 JUMPDEST DUP2 DUP2 LT PUSH2 0x81 JUMPI POP PUSH2 0x31 JUMP JUMPDEST DUP4 DUP2 SSTORE DUP3 ADD PUSH2 0x74 JUMP JUMPDEST PUSH4 0x4E487B71 PUSH1 0xE0 SHL DUP4 MSTORE PUSH1 0x22 PUSH1 0x4 MSTORE PUSH1 0x24 DUP4 REVERT JUMPDEST SWAP1 PUSH1 0x7F AND SWAP1 PUSH2 0x1F JUMP JUMPDEST PUSH1 0x0 DUP1 REVERT INVALID PUSH1 0x40 PUSH1 0x80 DUP2 MSTORE PUSH1 0x4 CALLDATASIZE LT ISZERO PUSH2 0x13 JUMPI PUSH1 0x0 DUP1 REVERT JUMPDEST PUSH1 0x0 SWAP1 DUP2 CALLDATALOAD PUSH1 0xE0 SHR DUP1 PUSH4 0x368B8772 EQ PUSH2 0x174 JUMPI PUSH4 0xE21F37CE EQ PUSH2 0x35 JUMPI PUSH1 0x0 DUP1 REVERT JUMPDEST CALLVALUE PUSH2 0x170 JUMPI DUP2 PUSH1 0x3 NOT CALLDATASIZE ADD SLT PUSH2 0x170 JUMPI DUP1 MLOAD SWAP1 DUP3 SWAP2 DUP4 SLOAD SWAP4 PUSH2 0x56 DUP6 PUSH2 0x305 JUMP JUMPDEST SWAP4 DUP5 DUP4 MSTORE PUSH1 0x20 DUP1 SWAP7 PUSH1 0x1 SWAP1 PUSH1 0x1 DUP2 AND SWAP1 DUP2 PUSH1 0x0 EQ PUSH2 0x151 JUMPI POP PUSH1 0x1 EQ PUSH2 0xFC JUMPI JUMPDEST POP POP DUP3 SWAP4 SWAP5 POP PUSH1 0x1F DUP1 NOT SWAP5 DUP6 SWAP3 SUB ADD AND DUP3 ADD SWAP5 DUP3 DUP7 LT PUSH8 0xFFFFFFFFFFFFFFFF DUP8 GT OR PUSH2 0xE8 JUMPI DUP6 SWAP3 SWAP4 SWAP2 DUP4 DUP7 MSTORE DUP2 DUP5 MSTORE DUP5 MLOAD SWAP2 DUP3 DUP2 DUP7 ADD MSTORE DUP2 SWAP6 JUMPDEST DUP4 DUP8 LT PUSH2 0xD0 JUMPI POP POP DUP4 SWAP5 POP DUP6 DUP3 PUSH1 0x1F SWAP5 SWAP6 ADD ADD MSTORE ADD AND DUP2 ADD SUB ADD SWAP1 RETURN JUMPDEST DUP7 DUP2 ADD DUP3 ADD MLOAD DUP10 DUP9 ADD DUP10 ADD MSTORE SWAP6 DUP2 ADD SWAP6 DUP9 SWAP6 POP PUSH2 0xB2 JUMP JUMPDEST PUSH4 0x4E487B71 PUSH1 0xE0 SHL DUP3 MSTORE PUSH1 0x41 PUSH1 0x4 MSTORE PUSH1 0x24 DUP3 REVERT JUMPDEST DUP4 DUP1 MSTORE SWAP1 SWAP2 POP DUP3 SWAP1 PUSH32 0x290DECD9548B62A8D60345A988386FC84BA6BC95484008F6362F93160EF3E563 JUMPDEST DUP8 DUP4 LT PUSH2 0x13E JUMPI POP SWAP5 SWAP6 POP DUP6 SWAP5 POP DUP4 ADD ADD DUP6 CODESIZE PUSH2 0x77 JUMP JUMPDEST DUP1 SLOAD DUP7 DUP5 ADD DUP6 ADD MSTORE SWAP2 DUP4 ADD SWAP2 DUP2 ADD PUSH2 0x126 JUMP JUMPDEST PUSH1 0xFF NOT AND DUP4 DUP8 ADD MSTORE POP SWAP5 SWAP6 DUP7 SWAP6 POP ISZERO ISZERO PUSH1 0x5 SHL DUP5 ADD ADD SWAP1 POP DUP6 CODESIZE PUSH2 0x77 JUMP JUMPDEST POP DUP1 REVERT JUMPDEST DUP3 CALLVALUE PUSH2 0x302 JUMPI PUSH1 0x20 SWAP1 PUSH1 0x20 PUSH1 0x3 NOT CALLDATASIZE ADD SLT PUSH2 0x302 JUMPI PUSH8 0xFFFFFFFFFFFFFFFF PUSH1 0x4 CALLDATALOAD DUP2 DUP2 GT PUSH2 0x2FE JUMPI CALLDATASIZE PUSH1 0x23 DUP3 ADD SLT ISZERO PUSH2 0x2FE JUMPI DUP1 PUSH1 0x4 ADD CALLDATALOAD SWAP2 DUP3 GT PUSH2 0x2FE JUMPI PUSH1 0x24 SWAP1 CALLDATASIZE PUSH1 0x24 DUP5 DUP4 ADD ADD GT PUSH2 0x2FA JUMPI PUSH2 0x1CC DUP5 SLOAD PUSH2 0x305 JUMP JUMPDEST PUSH1 0x1F DUP2 GT PUSH2 0x29B JUMPI JUMPDEST POP DUP4 SWAP2 PUSH1 0x1F DUP5 GT PUSH1 0x1 EQ PUSH2 0x214 JUMPI POP DUP4 DUP4 SWAP5 SWAP6 POP SWAP3 PUSH2 0x206 JUMPI JUMPDEST POP POP DUP2 PUSH1 0x1 SHL SWAP2 PUSH1 0x0 NOT SWAP1 PUSH1 0x3 SHL SHR NOT AND OR DUP2 SSTORE DUP1 RETURN JUMPDEST PUSH1 0x24 SWAP3 POP ADD ADD CALLDATALOAD DUP4 DUP1 PUSH2 0x1EF JUMP JUMPDEST SWAP2 SWAP5 PUSH32 0x290DECD9548B62A8D60345A988386FC84BA6BC95484008F6362F93160EF3E563 SWAP3 PUSH1 0x1F NOT DUP6 AND SWAP2 DUP7 SWAP2 JUMPDEST DUP4 DUP4 LT PUSH2 0x27F JUMPI POP POP POP SWAP5 DUP4 PUSH1 0x1 SWAP6 SWAP7 LT PUSH2 0x262 JUMPI JUMPDEST POP POP POP DUP2 SHL ADD DUP2 SSTORE DUP1 RETURN JUMPDEST ADD PUSH1 0x24 ADD CALLDATALOAD PUSH1 0x0 NOT PUSH1 0x3 DUP5 SWAP1 SHL PUSH1 0xF8 AND SHR NOT AND SWAP1 SSTORE DUP4 DUP1 DUP1 PUSH2 0x257 JUMP JUMPDEST SWAP1 DUP1 PUSH1 0x1 DUP11 SWAP8 DUP5 DUP4 SWAP7 SWAP13 DUP10 ADD ADD CALLDATALOAD DUP2 SSTORE ADD SWAP7 ADD SWAP9 ADD SWAP2 SWAP1 PUSH2 0x241 JUMP JUMPDEST PUSH32 0x290DECD9548B62A8D60345A988386FC84BA6BC95484008F6362F93160EF3E563 PUSH1 0x1F DUP6 ADD PUSH1 0x5 SHR DUP2 ADD SWAP2 PUSH1 0x20 DUP7 LT PUSH2 0x2F0 JUMPI JUMPDEST PUSH1 0x1F ADD PUSH1 0x5 SHR ADD SWAP1 JUMPDEST DUP2 DUP2 LT PUSH2 0x2E5 JUMPI POP PUSH2 0x1D5 JUMP JUMPDEST DUP6 DUP2 SSTORE PUSH1 0x1 ADD PUSH2 0x2D8 JUMP JUMPDEST SWAP1 SWAP2 POP DUP2 SWAP1 PUSH2 0x2CF JUMP JUMPDEST DUP4 DUP1 REVERT JUMPDEST DUP3 DUP1 REVERT JUMPDEST DUP1 REVERT JUMPDEST SWAP1 PUSH1 0x1 DUP3 DUP2 SHR SWAP3 AND DUP1 ISZERO PUSH2 0x335 JUMPI JUMPDEST PUSH1 0x20 DUP4 LT EQ PUSH2 0x31F JUMPI JUMP JUMPDEST PUSH4 0x4E487B71 PUSH1 0xE0 SHL PUSH1 0x0 MSTORE PUSH1 0x22 PUSH1 0x4 MSTORE PUSH1 0x24 PUSH1 0x0 REVERT JUMPDEST SWAP2 PUSH1 0x7F AND SWAP2 PUSH2 0x314 JUMP INVALID LOG2 PUSH5 0x6970667358 0x22 SLT KECCAK256 SWAP11 0xE1 DUP2 PUSH21 0x6F9A73CB86E1E52F283E89CDB2BB526265F8637D07 0xC1 0xBB 0xA9 MOD PUSH12 0x158E64736F6C634300081800 CALLER "},"methodIdentifiers":{"message()":"e21f37ce","setMessage(string)":"368b8772"}},"storageLayout":{"storage":[{"astId":4,"contract":"contracts/MyContract.sol:MyContract","label":"message","offset":0,"slot":"0","type":"t_string_storage"}],"types":{"t_string_storage":{"encoding":"bytes","label":"string","numberOfBytes":"32"}}}}}}