{"contracts/SeferVerseDAO.sol":{"SeferVerseDAO":{"abi":[{"inputs":[{"internalType":"string","name":"_name","type":"string"}],"stateMutability":"nonpayable","type":"constructor"},{"anonymous":false,"inputs":[{"indexed":false,"internalType":"string","name":"oldName","type":"string"},{"indexed":false,"internalType":"string","name":"newName","type":"string"}],"name":"NameChanged","type":"event"},{"anonymous":false,"inputs":[{"indexed":true,"internalType":"address","name":"previousOwner","type":"address"},{"indexed":true,"internalType":"address","name":"newOwner","type":"address"}],"name":"OwnershipTransferred","type":"event"},{"inputs":[],"name":"name","outputs":[{"internalType":"string","name":"","type":"string"}],"stateMutability":"view","type":"function"},{"inputs":[],"name":"owner","outputs":[{"internalType":"address","name":"","type":"address"}],"stateMutability":"view","type":"function"},{"inputs":[{"internalType":"string","name":"_name","type":"string"}],"name":"setName","outputs":[],"stateMutability":"nonpayable","type":"function"},{"inputs":[{"internalType":"address","name":"newOwner","type":"address"}],"name":"transferOwnership","outputs":[],"stateMutability":"nonpayable","type":"function"}],"evm":{"bytecode":{"linkReferences":{},"object":"608060405234610200576107528038038061001981610205565b92833981019060209081818403126102005780516001600160401b0391828211610200570191601f908482850112156102005783518381116101d657601f199461006882850187168401610205565b9682885283838301011161020057829060005b8381106101ec5750506000918701015284519283116101d657600054936001948581811c911680156101cc575b838210146101b657838111610170575b5081928411600114610110575050819293600092610105575b5050600019600383901b1c191690821b176000555b80546001600160a01b03191633179055604051610527908161022b8239f35b0151905038806100d1565b6000808052828120918516969193925b87821061015957505083859610610140575b505050811b016000556100e6565b015160001960f88460031b161c19169055388080610132565b808785968294968601518155019501930190610120565b60008052826000208480870160051c8201928588106101ad575b0160051c019086905b8281106101a15750506100b8565b60008155018690610193565b9250819261018a565b634e487b7160e01b600052602260045260246000fd5b90607f16906100a8565b634e487b7160e01b600052604160045260246000fd5b81810183015189820184015284920161007b565b600080fd5b6040519190601f01601f191682016001600160401b038111838210176101d65760405256fe6080604081815260048036101561001557600080fd5b600092833560e01c90816306fdde0314610329575080638da5cb5b146102fc578063c47f0027146101005763f2fde38b1461004f57600080fd5b346100fc5760203660031901126100fc576001600160a01b038135818116939192908490036100f8576001549283169161008a8333146104b9565b84156100c957505082907f8be0079c531659141344cd1fd0a4f28419497f9722a3daafe3b4186f6b6457e08580a36001600160a01b0319161760015580f35b906020606492519162461bcd60e51b835282015260096024820152682d32b9379030b2323960b91b6044820152fd5b8480fd5b8280fd5b50346100fc57602091826003193601126102f857813567ffffffffffffffff928382116102f457366023830112156102f4578101359283116100f857602436602485840101116102f45760019461016160018060a01b0387541633146104b9565b6101718451948086528501610405565b9380850382820152858552856024850183870137878287870101527f6c20b91d1723b78732eba64ff11ebd7966a6e4af568a00fa4f6b72c20f58b02a601f8701918381601f199889861601030190a16101ca88546103cb565b90601f8211610297575b50508693601f8611600114610215575050509282939183928694610207575b50501b916000199060031b1c191617815580f35b0160240135925038806101f3565b7f290decd9548b62a8d60345a988386fc84ba6bc95484008f6362f93160ef3e563949286929183169189915b8984841061027b57505050501061025e575b505050811b01815580f35b0160240135600019600384901b60f8161c19169055388080610253565b8787018201358955909701969481019488945091810191610241565b7f290decd9548b62a8d60345a988386fc84ba6bc95484008f6362f93160ef3e5639060051c8101918388106102ea575b601f0160051c019087905b8281106102df57506101d4565b8981550187906102d2565b90915081906102c7565b8580fd5b8380fd5b50503461032557816003193601126103255760015490516001600160a01b039091168152602090f35b5080fd5b8385849234610325578160031936011261032557601f199182601f8361034e81610405565b03011682019482861067ffffffffffffffff8711176103b85750918491928285526020906020845284519182602086015281955b8387106103a05750508394508582601f949501015201168101030190f35b86810182015189880189015295810195889550610382565b634e487b7160e01b825260419052602490fd5b90600182811c921680156103fb575b60208310146103e557565b634e487b7160e01b600052602260045260246000fd5b91607f16916103da565b9060009160005490610416826103cb565b808252916020906001908181169081156104945750600114610439575b50505050565b92939450600080527f290decd9548b62a8d60345a988386fc84ba6bc95484008f6362f93160ef3e563926000935b858510610481575050506020925001019038808080610433565b8054858501840152938201938101610467565b92505050602093945060ff929192191683830152151560051b01019038808080610433565b156104c057565b60405162461bcd60e51b81526020600482015260096024820152682737ba1037bbb732b960b91b6044820152606490fdfea2646970667358221220230ef60f85312726d05b2796d0b18c697cdb78a776e886f8c95935282d8d06c964736f6c63430008180033","opcodes":"PUSH1 0x80 PUSH1 0x40 MSTORE CALLVALUE PUSH2 0x200 JUMPI PUSH2 0x752 DUP1 CODESIZE SUB DUP1 PUSH2 0x19 DUP2 PUSH2 0x205 JUMP JUMPDEST SWAP3 DUP4 CODECOPY DUP2 ADD SWAP1 PUSH1 0x20 SWAP1 DUP2 DUP2 DUP5 SUB SLT PUSH2 0x200 JUMPI DUP1 MLOAD PUSH1 0x1 PUSH1 0x1 PUSH1 0x40 SHL SUB SWAP2 DUP3 DUP3 GT PUSH2 0x200 JUMPI ADD SWAP2 PUSH1 0x1F SWAP1 DUP5 DUP3 DUP6 ADD SLT ISZERO PUSH2 0x200 JUMPI DUP4 MLOAD DUP4 DUP2 GT PUSH2 0x1D6 JUMPI PUSH1 0x1F NOT SWAP5 PUSH2 0x68 DUP3 DUP6 ADD DUP8 AND DUP5 ADD PUSH2 0x205 JUMP JUMPDEST SWAP7 DUP3 DUP9 MSTORE DUP4 DUP4 DUP4 ADD ADD GT PUSH2 0x200 JUMPI DUP3 SWAP1 PUSH1 0x0 JUMPDEST DUP4 DUP2 LT PUSH2 0x1EC JUMPI POP POP PUSH1 0x0 SWAP2 DUP8 ADD ADD MSTORE DUP5 MLOAD SWAP3 DUP4 GT PUSH2 0x1D6 JUMPI PUSH1 0x0 SLOAD SWAP4 PUSH1 0x1 SWAP5 DUP6 DUP2 DUP2 SHR SWAP2 AND DUP1 ISZERO PUSH2 0x1CC JUMPI JUMPDEST DUP4 DUP3 LT EQ PUSH2 0x1B6 JUMPI DUP4 DUP2 GT PUSH2 0x170 JUMPI JUMPDEST POP DUP2 SWAP3 DUP5 GT PUSH1 0x1 EQ PUSH2 0x110 JUMPI POP POP DUP2 SWAP3 SWAP4 PUSH1 0x0 SWAP3 PUSH2 0x105 JUMPI JUMPDEST POP POP PUSH1 0x0 NOT PUSH1 0x3 DUP4 SWAP1 SHL SHR NOT AND SWAP1 DUP3 SHL OR PUSH1 0x0 SSTORE JUMPDEST DUP1 SLOAD PUSH1 0x1 PUSH1 0x1 PUSH1 0xA0 SHL SUB NOT AND CALLER OR SWAP1 SSTORE PUSH1 0x40 MLOAD PUSH2 0x527 SWAP1 DUP2 PUSH2 0x22B DUP3 CODECOPY RETURN JUMPDEST ADD MLOAD SWAP1 POP CODESIZE DUP1 PUSH2 0xD1 JUMP JUMPDEST PUSH1 0x0 DUP1 DUP1 MSTORE DUP3 DUP2 KECCAK256 SWAP2 DUP6 AND SWAP7 SWAP2 SWAP4 SWAP3 JUMPDEST DUP8 DUP3 LT PUSH2 0x159 JUMPI POP POP DUP4 DUP6 SWAP7 LT PUSH2 0x140 JUMPI JUMPDEST POP POP POP DUP2 SHL ADD PUSH1 0x0 SSTORE PUSH2 0xE6 JUMP JUMPDEST ADD MLOAD PUSH1 0x0 NOT PUSH1 0xF8 DUP5 PUSH1 0x3 SHL AND SHR NOT AND SWAP1 SSTORE CODESIZE DUP1 DUP1 PUSH2 0x132 JUMP JUMPDEST DUP1 DUP8 DUP6 SWAP7 DUP3 SWAP5 SWAP7 DUP7 ADD MLOAD DUP2 SSTORE ADD SWAP6 ADD SWAP4 ADD SWAP1 PUSH2 0x120 JUMP JUMPDEST PUSH1 0x0 DUP1 MSTORE DUP3 PUSH1 0x0 KECCAK256 DUP5 DUP1 DUP8 ADD PUSH1 0x5 SHR DUP3 ADD SWAP3 DUP6 DUP9 LT PUSH2 0x1AD JUMPI JUMPDEST ADD PUSH1 0x5 SHR ADD SWAP1 DUP7 SWAP1 JUMPDEST DUP3 DUP2 LT PUSH2 0x1A1 JUMPI POP POP PUSH2 0xB8 JUMP JUMPDEST PUSH1 0x0 DUP2 SSTORE ADD DUP7 SWAP1 PUSH2 0x193 JUMP JUMPDEST SWAP3 POP DUP2 SWAP3 PUSH2 0x18A JUMP JUMPDEST PUSH4 0x4E487B71 PUSH1 0xE0 SHL PUSH1 0x0 MSTORE PUSH1 0x22 PUSH1 0x4 MSTORE PUSH1 0x24 PUSH1 0x0 REVERT JUMPDEST SWAP1 PUSH1 0x7F AND SWAP1 PUSH2 0xA8 JUMP JUMPDEST PUSH4 0x4E487B71 PUSH1 0xE0 SHL PUSH1 0x0 MSTORE PUSH1 0x41 PUSH1 0x4 MSTORE PUSH1 0x24 PUSH1 0x0 REVERT JUMPDEST DUP2 DUP2 ADD DUP4 ADD MLOAD DUP10 DUP3 ADD DUP5 ADD MSTORE DUP5 SWAP3 ADD PUSH2 0x7B JUMP JUMPDEST PUSH1 0x0 DUP1 REVERT JUMPDEST PUSH1 0x40 MLOAD SWAP2 SWAP1 PUSH1 0x1F ADD PUSH1 0x1F NOT AND DUP3 ADD PUSH1 0x1 PUSH1 0x1 PUSH1 0x40 SHL SUB DUP2 GT DUP4 DUP3 LT OR PUSH2 0x1D6 JUMPI PUSH1 0x40 MSTORE JUMP INVALID PUSH1 0x80 PUSH1 0x40 DUP2 DUP2 MSTORE PUSH1 0x4 DUP1 CALLDATASIZE LT ISZERO PUSH2 0x15 JUMPI PUSH1 0x0 DUP1 REVERT JUMPDEST PUSH1 0x0 SWAP3 DUP4 CALLDATALOAD PUSH1 0xE0 SHR SWAP1 DUP2 PUSH4 0x6FDDE03 EQ PUSH2 0x329 JUMPI POP DUP1 PUSH4 0x8DA5CB5B EQ PUSH2 0x2FC JUMPI DUP1 PUSH4 0xC47F0027 EQ PUSH2 0x100 JUMPI PUSH4 0xF2FDE38B EQ PUSH2 0x4F JUMPI PUSH1 0x0 DUP1 REVERT JUMPDEST CALLVALUE PUSH2 0xFC JUMPI PUSH1 0x20 CALLDATASIZE PUSH1 0x3 NOT ADD SLT PUSH2 0xFC JUMPI PUSH1 0x1 PUSH1 0x1 PUSH1 0xA0 SHL SUB DUP2 CALLDATALOAD DUP2 DUP2 AND SWAP4 SWAP2 SWAP3 SWAP1 DUP5 SWAP1 SUB PUSH2 0xF8 JUMPI PUSH1 0x1 SLOAD SWAP3 DUP4 AND SWAP2 PUSH2 0x8A DUP4 CALLER EQ PUSH2 0x4B9 JUMP JUMPDEST DUP5 ISZERO PUSH2 0xC9 JUMPI POP POP DUP3 SWAP1 PUSH32 0x8BE0079C531659141344CD1FD0A4F28419497F9722A3DAAFE3B4186F6B6457E0 DUP6 DUP1 LOG3 PUSH1 0x1 PUSH1 0x1 PUSH1 0xA0 SHL SUB NOT AND OR PUSH1 0x1 SSTORE DUP1 RETURN JUMPDEST SWAP1 PUSH1 0x20 PUSH1 0x64 SWAP3 MLOAD SWAP2 PUSH3 0x461BCD PUSH1 0xE5 SHL DUP4 MSTORE DUP3 ADD MSTORE PUSH1 0x9 PUSH1 0x24 DUP3 ADD MSTORE PUSH9 0x2D32B9379030B23239 PUSH1 0xB9 SHL PUSH1 0x44 DUP3 ADD MSTORE REVERT JUMPDEST DUP5 DUP1 REVERT JUMPDEST DUP3 DUP1 REVERT JUMPDEST POP CALLVALUE PUSH2 0xFC JUMPI PUSH1 0x20 SWAP2 DUP3 PUSH1 0x3 NOT CALLDATASIZE ADD SLT PUSH2 0x2F8 JUMPI DUP2 CALLDATALOAD PUSH8 0xFFFFFFFFFFFFFFFF SWAP3 DUP4 DUP3 GT PUSH2 0x2F4 JUMPI CALLDATASIZE PUSH1 0x23 DUP4 ADD SLT ISZERO PUSH2 0x2F4 JUMPI DUP2 ADD CALLDATALOAD SWAP3 DUP4 GT PUSH2 0xF8 JUMPI PUSH1 0x24 CALLDATASIZE PUSH1 0x24 DUP6 DUP5 ADD ADD GT PUSH2 0x2F4 JUMPI PUSH1 0x1 SWAP5 PUSH2 0x161 PUSH1 0x1 DUP1 PUSH1 0xA0 SHL SUB DUP8 SLOAD AND CALLER EQ PUSH2 0x4B9 JUMP JUMPDEST PUSH2 0x171 DUP5 MLOAD SWAP5 DUP1 DUP7 MSTORE DUP6 ADD PUSH2 0x405 JUMP JUMPDEST SWAP4 DUP1 DUP6 SUB DUP3 DUP3 ADD MSTORE DUP6 DUP6 MSTORE DUP6 PUSH1 0x24 DUP6 ADD DUP4 DUP8 ADD CALLDATACOPY DUP8 DUP3 DUP8 DUP8 ADD ADD MSTORE PUSH32 0x6C20B91D1723B78732EBA64FF11EBD7966A6E4AF568A00FA4F6B72C20F58B02A PUSH1 0x1F DUP8 ADD SWAP2 DUP4 DUP2 PUSH1 0x1F NOT SWAP9 DUP10 DUP7 AND ADD SUB ADD SWAP1 LOG1 PUSH2 0x1CA DUP9 SLOAD PUSH2 0x3CB JUMP JUMPDEST SWAP1 PUSH1 0x1F DUP3 GT PUSH2 0x297 JUMPI JUMPDEST POP POP DUP7 SWAP4 PUSH1 0x1F DUP7 GT PUSH1 0x1 EQ PUSH2 0x215 JUMPI POP POP POP SWAP3 DUP3 SWAP4 SWAP2 DUP4 SWAP3 DUP7 SWAP5 PUSH2 0x207 JUMPI JUMPDEST POP POP SHL SWAP2 PUSH1 0x0 NOT SWAP1 PUSH1 0x3 SHL SHR NOT AND OR DUP2 SSTORE DUP1 RETURN JUMPDEST ADD PUSH1 0x24 ADD CALLDATALOAD SWAP3 POP CODESIZE DUP1 PUSH2 0x1F3 JUMP JUMPDEST PUSH32 0x290DECD9548B62A8D60345A988386FC84BA6BC95484008F6362F93160EF3E563 SWAP5 SWAP3 DUP7 SWAP3 SWAP2 DUP4 AND SWAP2 DUP10 SWAP2 JUMPDEST DUP10 DUP5 DUP5 LT PUSH2 0x27B JUMPI POP POP POP POP LT PUSH2 0x25E JUMPI JUMPDEST POP POP POP DUP2 SHL ADD DUP2 SSTORE DUP1 RETURN JUMPDEST ADD PUSH1 0x24 ADD CALLDATALOAD PUSH1 0x0 NOT PUSH1 0x3 DUP5 SWAP1 SHL PUSH1 0xF8 AND SHR NOT AND SWAP1 SSTORE CODESIZE DUP1 DUP1 PUSH2 0x253 JUMP JUMPDEST DUP8 DUP8 ADD DUP3 ADD CALLDATALOAD DUP10 SSTORE SWAP1 SWAP8 ADD SWAP7 SWAP5 DUP2 ADD SWAP5 DUP9 SWAP5 POP SWAP2 DUP2 ADD SWAP2 PUSH2 0x241 JUMP JUMPDEST PUSH32 0x290DECD9548B62A8D60345A988386FC84BA6BC95484008F6362F93160EF3E563 SWAP1 PUSH1 0x5 SHR DUP2 ADD SWAP2 DUP4 DUP9 LT PUSH2 0x2EA JUMPI JUMPDEST PUSH1 0x1F ADD PUSH1 0x5 SHR ADD SWAP1 DUP8 SWAP1 JUMPDEST DUP3 DUP2 LT PUSH2 0x2DF JUMPI POP PUSH2 0x1D4 JUMP JUMPDEST DUP10 DUP2 SSTORE ADD DUP8 SWAP1 PUSH2 0x2D2 JUMP JUMPDEST SWAP1 SWAP2 POP DUP2 SWAP1 PUSH2 0x2C7 JUMP JUMPDEST DUP6 DUP1 REVERT JUMPDEST DUP4 DUP1 REVERT JUMPDEST POP POP CALLVALUE PUSH2 0x325 JUMPI DUP2 PUSH1 0x3 NOT CALLDATASIZE ADD SLT PUSH2 0x325 JUMPI PUSH1 0x1 SLOAD SWAP1 MLOAD PUSH1 0x1 PUSH1 0x1 PUSH1 0xA0 SHL SUB SWAP1 SWAP2 AND DUP2 MSTORE PUSH1 0x20 SWAP1 RETURN JUMPDEST POP DUP1 REVERT JUMPDEST DUP4 DUP6 DUP5 SWAP3 CALLVALUE PUSH2 0x325 JUMPI DUP2 PUSH1 0x3 NOT CALLDATASIZE ADD SLT PUSH2 0x325 JUMPI PUSH1 0x1F NOT SWAP2 DUP3 PUSH1 0x1F DUP4 PUSH2 0x34E DUP2 PUSH2 0x405 JUMP JUMPDEST SUB ADD AND DUP3 ADD SWAP5 DUP3 DUP7 LT PUSH8 0xFFFFFFFFFFFFFFFF DUP8 GT OR PUSH2 0x3B8 JUMPI POP SWAP2 DUP5 SWAP2 SWAP3 DUP3 DUP6 MSTORE PUSH1 0x20 SWAP1 PUSH1 0x20 DUP5 MSTORE DUP5 MLOAD SWAP2 DUP3 PUSH1 0x20 DUP7 ADD MSTORE DUP2 SWAP6 JUMPDEST DUP4 DUP8 LT PUSH2 0x3A0 JUMPI POP POP DUP4 SWAP5 POP DUP6 DUP3 PUSH1 0x1F SWAP5 SWAP6 ADD ADD MSTORE ADD AND DUP2 ADD SUB ADD SWAP1 RETURN JUMPDEST DUP7 DUP2 ADD DUP3 ADD MLOAD DUP10 DUP9 ADD DUP10 ADD MSTORE SWAP6 DUP2 ADD SWAP6 DUP9 SWAP6 POP PUSH2 0x382 JUMP JUMPDEST PUSH4 0x4E487B71 PUSH1 0xE0 SHL DUP3 MSTORE PUSH1 0x41 SWAP1 MSTORE PUSH1 0x24 SWAP1 REVERT JUMPDEST SWAP1 PUSH1 0x1 DUP3 DUP2 SHR SWAP3 AND DUP1 ISZERO PUSH2 0x3FB JUMPI JUMPDEST PUSH1 0x20 DUP4 LT EQ PUSH2 0x3E5 JUMPI JUMP JUMPDEST PUSH4 0x4E487B71 PUSH1 0xE0 SHL PUSH1 0x0 MSTORE PUSH1 0x22 PUSH1 0x4 MSTORE PUSH1 0x24 PUSH1 0x0 REVERT JUMPDEST SWAP2 PUSH1 0x7F AND SWAP2 PUSH2 0x3DA JUMP JUMPDEST SWAP1 PUSH1 0x0 SWAP2 PUSH1 0x0 SLOAD SWAP1 PUSH2 0x416 DUP3 PUSH2 0x3CB JUMP JUMPDEST DUP1 DUP3 MSTORE SWAP2 PUSH1 0x20 SWAP1 PUSH1 0x1 SWAP1 DUP2 DUP2 AND SWAP1 DUP2 ISZERO PUSH2 0x494 JUMPI POP PUSH1 0x1 EQ PUSH2 0x439 JUMPI JUMPDEST POP POP POP POP JUMP JUMPDEST SWAP3 SWAP4 SWAP5 POP PUSH1 0x0 DUP1 MSTORE PUSH32 0x290DECD9548B62A8D60345A988386FC84BA6BC95484008F6362F93160EF3E563 SWAP3 PUSH1 0x0 SWAP4 JUMPDEST DUP6 DUP6 LT PUSH2 0x481 JUMPI POP POP POP PUSH1 0x20 SWAP3 POP ADD ADD SWAP1 CODESIZE DUP1 DUP1 DUP1 PUSH2 0x433 JUMP JUMPDEST DUP1 SLOAD DUP6 DUP6 ADD DUP5 ADD MSTORE SWAP4 DUP3 ADD SWAP4 DUP2 ADD PUSH2 0x467 JUMP JUMPDEST SWAP3 POP POP POP PUSH1 0x20 SWAP4 SWAP5 POP PUSH1 0xFF SWAP3 SWAP2 SWAP3 NOT AND DUP4 DUP4 ADD MSTORE ISZERO ISZERO PUSH1 0x5 SHL ADD ADD SWAP1 CODESIZE DUP1 DUP1 DUP1 PUSH2 0x433 JUMP JUMPDEST ISZERO PUSH2 0x4C0 JUMPI JUMP JUMPDEST PUSH1 0x40 MLOAD PUSH3 0x461BCD PUSH1 0xE5 SHL DUP2 MSTORE PUSH1 0x20 PUSH1 0x4 DUP3 ADD MSTORE PUSH1 0x9 PUSH1 0x24 DUP3 ADD MSTORE PUSH9 0x2737BA1037BBB732B9 PUSH1 0xB9 SHL PUSH1 0x44 DUP3 ADD MSTORE PUSH1 0x64 SWAP1 REVERT INVALID LOG2 PUSH5 0x6970667358 0x22 SLT KECCAK256 0x23 0xE 0xF6 0xF DUP6 BALANCE 0x27 0x26 0xD0 JUMPDEST 0x27 SWAP7 0xD0 0xB1 DUP13 PUSH10 0x7CDB78A776E886F8C959 CALLDATALOAD 0x28 0x2D DUP14 MOD 0xC9 PUSH5 0x736F6C6343 STOP ADDMOD XOR STOP CALLER "},"methodIdentifiers":{"name()":"06fdde03","owner()":"8da5cb5b","setName(string)":"c47f0027","transferOwnership(address)":"f2fde38b"}},"storageLayout":{"storage":[{"astId":42,"contract":"contracts/SeferVerseDAO.sol:SeferVerseDAO","label":"name","offset":0,"slot":"0","type":"t_string_storage"},{"astId":44,"contract":"contracts/SeferVerseDAO.sol:SeferVerseDAO","label":"owner","offset":0,"slot":"1","type":"t_address"}],"types":{"t_address":{"encoding":"inplace","label":"address","numberOfBytes":"20"},"t_string_storage":{"encoding":"bytes","label":"string","numberOfBytes":"32"}}}}}}