{"contracts/SeferVerse.sol":{"SeferVerse":{"abi":[{"inputs":[{"internalType":"string","name":"_name","type":"string"}],"stateMutability":"nonpayable","type":"constructor"},{"inputs":[],"name":"name","outputs":[{"internalType":"string","name":"","type":"string"}],"stateMutability":"view","type":"function"},{"inputs":[],"name":"owner","outputs":[{"internalType":"address","name":"","type":"address"}],"stateMutability":"view","type":"function"}],"evm":{"bytecode":{"linkReferences":{},"object":"6080604052346102005761042c8038038061001981610205565b92833981019060209081818403126102005780516001600160401b0391828211610200570191601f908482850112156102005783518381116101d657601f199461006882850187168401610205565b9682885283838301011161020057829060005b8381106101ec5750506000918701015284519283116101d657600054936001948581811c911680156101cc575b838210146101b657838111610170575b5081928411600114610110575050819293600092610105575b5050600019600383901b1c191690821b176000555b80546001600160a01b03191633179055604051610201908161022b8239f35b0151905038806100d1565b6000808052828120918516969193925b87821061015957505083859610610140575b505050811b016000556100e6565b015160001960f88460031b161c19169055388080610132565b808785968294968601518155019501930190610120565b60008052826000208480870160051c8201928588106101ad575b0160051c019086905b8281106101a15750506100b8565b60008155018690610193565b9250819261018a565b634e487b7160e01b600052602260045260246000fd5b90607f16906100a8565b634e487b7160e01b600052604160045260246000fd5b81810183015189820184015284920161007b565b600080fd5b6040519190601f01601f191682016001600160401b038111838210176101d65760405256fe60806040818152600436101561001457600080fd5b600091823560e01c90816306fdde03146100635750638da5cb5b1461003857600080fd5b3461005f578160031936011261005f5760015490516001600160a01b039091168152602090f35b5080fd5b919050346101c757826003193601126101c75782918354936001938560011c94600187169687156101bd575b60209788881081146101a957878652889291811561018a5750600114610135575b505082939450601f801994859203011682019482861067ffffffffffffffff8711176101215785929391838652818452845191828186015281955b8387106101095750508394508582601f949501015201168101030190f35b868101820151898801890152958101958895506100eb565b634e487b7160e01b82526041600452602482fd5b83805290915082907f290decd9548b62a8d60345a988386fc84ba6bc95484008f6362f93160ef3e5635b878310610177575094955085945083010185386100b0565b805486840185015291830191810161015f565b60ff191683870152509495869550151560051b840101905085386100b0565b634e487b7160e01b85526022600452602485fd5b95607f169561008f565b8280fdfea2646970667358221220b702daa0ff9e42d712e940f446ac591808239191adb0b1ff8f727c1ba982461c64736f6c63430008180033","opcodes":"PUSH1 0x80 PUSH1 0x40 MSTORE CALLVALUE PUSH2 0x200 JUMPI PUSH2 0x42C DUP1 CODESIZE SUB DUP1 PUSH2 0x19 DUP2 PUSH2 0x205 JUMP JUMPDEST SWAP3 DUP4 CODECOPY DUP2 ADD SWAP1 PUSH1 0x20 SWAP1 DUP2 DUP2 DUP5 SUB SLT PUSH2 0x200 JUMPI DUP1 MLOAD PUSH1 0x1 PUSH1 0x1 PUSH1 0x40 SHL SUB SWAP2 DUP3 DUP3 GT PUSH2 0x200 JUMPI ADD SWAP2 PUSH1 0x1F SWAP1 DUP5 DUP3 DUP6 ADD SLT ISZERO PUSH2 0x200 JUMPI DUP4 MLOAD DUP4 DUP2 GT PUSH2 0x1D6 JUMPI PUSH1 0x1F NOT SWAP5 PUSH2 0x68 DUP3 DUP6 ADD DUP8 AND DUP5 ADD PUSH2 0x205 JUMP JUMPDEST SWAP7 DUP3 DUP9 MSTORE DUP4 DUP4 DUP4 ADD ADD GT PUSH2 0x200 JUMPI DUP3 SWAP1 PUSH1 0x0 JUMPDEST DUP4 DUP2 LT PUSH2 0x1EC JUMPI POP POP PUSH1 0x0 SWAP2 DUP8 ADD ADD MSTORE DUP5 MLOAD SWAP3 DUP4 GT PUSH2 0x1D6 JUMPI PUSH1 0x0 SLOAD SWAP4 PUSH1 0x1 SWAP5 DUP6 DUP2 DUP2 SHR SWAP2 AND DUP1 ISZERO PUSH2 0x1CC JUMPI JUMPDEST DUP4 DUP3 LT EQ PUSH2 0x1B6 JUMPI DUP4 DUP2 GT PUSH2 0x170 JUMPI JUMPDEST POP DUP2 SWAP3 DUP5 GT PUSH1 0x1 EQ PUSH2 0x110 JUMPI POP POP DUP2 SWAP3 SWAP4 PUSH1 0x0 SWAP3 PUSH2 0x105 JUMPI JUMPDEST POP POP PUSH1 0x0 NOT PUSH1 0x3 DUP4 SWAP1 SHL SHR NOT AND SWAP1 DUP3 SHL OR PUSH1 0x0 SSTORE JUMPDEST DUP1 SLOAD PUSH1 0x1 PUSH1 0x1 PUSH1 0xA0 SHL SUB NOT AND CALLER OR SWAP1 SSTORE PUSH1 0x40 MLOAD PUSH2 0x201 SWAP1 DUP2 PUSH2 0x22B DUP3 CODECOPY RETURN JUMPDEST ADD MLOAD SWAP1 POP CODESIZE DUP1 PUSH2 0xD1 JUMP JUMPDEST PUSH1 0x0 DUP1 DUP1 MSTORE DUP3 DUP2 KECCAK256 SWAP2 DUP6 AND SWAP7 SWAP2 SWAP4 SWAP3 JUMPDEST DUP8 DUP3 LT PUSH2 0x159 JUMPI POP POP DUP4 DUP6 SWAP7 LT PUSH2 0x140 JUMPI JUMPDEST POP POP POP DUP2 SHL ADD PUSH1 0x0 SSTORE PUSH2 0xE6 JUMP JUMPDEST ADD MLOAD PUSH1 0x0 NOT PUSH1 0xF8 DUP5 PUSH1 0x3 SHL AND SHR NOT AND SWAP1 SSTORE CODESIZE DUP1 DUP1 PUSH2 0x132 JUMP JUMPDEST DUP1 DUP8 DUP6 SWAP7 DUP3 SWAP5 SWAP7 DUP7 ADD MLOAD DUP2 SSTORE ADD SWAP6 ADD SWAP4 ADD SWAP1 PUSH2 0x120 JUMP JUMPDEST PUSH1 0x0 DUP1 MSTORE DUP3 PUSH1 0x0 KECCAK256 DUP5 DUP1 DUP8 ADD PUSH1 0x5 SHR DUP3 ADD SWAP3 DUP6 DUP9 LT PUSH2 0x1AD JUMPI JUMPDEST ADD PUSH1 0x5 SHR ADD SWAP1 DUP7 SWAP1 JUMPDEST DUP3 DUP2 LT PUSH2 0x1A1 JUMPI POP POP PUSH2 0xB8 JUMP JUMPDEST PUSH1 0x0 DUP2 SSTORE ADD DUP7 SWAP1 PUSH2 0x193 JUMP JUMPDEST SWAP3 POP DUP2 SWAP3 PUSH2 0x18A JUMP JUMPDEST PUSH4 0x4E487B71 PUSH1 0xE0 SHL PUSH1 0x0 MSTORE PUSH1 0x22 PUSH1 0x4 MSTORE PUSH1 0x24 PUSH1 0x0 REVERT JUMPDEST SWAP1 PUSH1 0x7F AND SWAP1 PUSH2 0xA8 JUMP JUMPDEST PUSH4 0x4E487B71 PUSH1 0xE0 SHL PUSH1 0x0 MSTORE PUSH1 0x41 PUSH1 0x4 MSTORE PUSH1 0x24 PUSH1 0x0 REVERT JUMPDEST DUP2 DUP2 ADD DUP4 ADD MLOAD DUP10 DUP3 ADD DUP5 ADD MSTORE DUP5 SWAP3 ADD PUSH2 0x7B JUMP JUMPDEST PUSH1 0x0 DUP1 REVERT JUMPDEST PUSH1 0x40 MLOAD SWAP2 SWAP1 PUSH1 0x1F ADD PUSH1 0x1F NOT AND DUP3 ADD PUSH1 0x1 PUSH1 0x1 PUSH1 0x40 SHL SUB DUP2 GT DUP4 DUP3 LT OR PUSH2 0x1D6 JUMPI PUSH1 0x40 MSTORE JUMP INVALID PUSH1 0x80 PUSH1 0x40 DUP2 DUP2 MSTORE PUSH1 0x4 CALLDATASIZE LT ISZERO PUSH2 0x14 JUMPI PUSH1 0x0 DUP1 REVERT JUMPDEST PUSH1 0x0 SWAP2 DUP3 CALLDATALOAD PUSH1 0xE0 SHR SWAP1 DUP2 PUSH4 0x6FDDE03 EQ PUSH2 0x63 JUMPI POP PUSH4 0x8DA5CB5B EQ PUSH2 0x38 JUMPI PUSH1 0x0 DUP1 REVERT JUMPDEST CALLVALUE PUSH2 0x5F JUMPI DUP2 PUSH1 0x3 NOT CALLDATASIZE ADD SLT PUSH2 0x5F JUMPI PUSH1 0x1 SLOAD SWAP1 MLOAD PUSH1 0x1 PUSH1 0x1 PUSH1 0xA0 SHL SUB SWAP1 SWAP2 AND DUP2 MSTORE PUSH1 0x20 SWAP1 RETURN JUMPDEST POP DUP1 REVERT JUMPDEST SWAP2 SWAP1 POP CALLVALUE PUSH2 0x1C7 JUMPI DUP3 PUSH1 0x3 NOT CALLDATASIZE ADD SLT PUSH2 0x1C7 JUMPI DUP3 SWAP2 DUP4 SLOAD SWAP4 PUSH1 0x1 SWAP4 DUP6 PUSH1 0x1 SHR SWAP5 PUSH1 0x1 DUP8 AND SWAP7 DUP8 ISZERO PUSH2 0x1BD JUMPI JUMPDEST PUSH1 0x20 SWAP8 DUP9 DUP9 LT DUP2 EQ PUSH2 0x1A9 JUMPI DUP8 DUP7 MSTORE DUP9 SWAP3 SWAP2 DUP2 ISZERO PUSH2 0x18A JUMPI POP PUSH1 0x1 EQ PUSH2 0x135 JUMPI JUMPDEST POP POP DUP3 SWAP4 SWAP5 POP PUSH1 0x1F DUP1 NOT SWAP5 DUP6 SWAP3 SUB ADD AND DUP3 ADD SWAP5 DUP3 DUP7 LT PUSH8 0xFFFFFFFFFFFFFFFF DUP8 GT OR PUSH2 0x121 JUMPI DUP6 SWAP3 SWAP4 SWAP2 DUP4 DUP7 MSTORE DUP2 DUP5 MSTORE DUP5 MLOAD SWAP2 DUP3 DUP2 DUP7 ADD MSTORE DUP2 SWAP6 JUMPDEST DUP4 DUP8 LT PUSH2 0x109 JUMPI POP POP DUP4 SWAP5 POP DUP6 DUP3 PUSH1 0x1F SWAP5 SWAP6 ADD ADD MSTORE ADD AND DUP2 ADD SUB ADD SWAP1 RETURN JUMPDEST DUP7 DUP2 ADD DUP3 ADD MLOAD DUP10 DUP9 ADD DUP10 ADD MSTORE SWAP6 DUP2 ADD SWAP6 DUP9 SWAP6 POP PUSH2 0xEB JUMP JUMPDEST PUSH4 0x4E487B71 PUSH1 0xE0 SHL DUP3 MSTORE PUSH1 0x41 PUSH1 0x4 MSTORE PUSH1 0x24 DUP3 REVERT JUMPDEST DUP4 DUP1 MSTORE SWAP1 SWAP2 POP DUP3 SWAP1 PUSH32 0x290DECD9548B62A8D60345A988386FC84BA6BC95484008F6362F93160EF3E563 JUMPDEST DUP8 DUP4 LT PUSH2 0x177 JUMPI POP SWAP5 SWAP6 POP DUP6 SWAP5 POP DUP4 ADD ADD DUP6 CODESIZE PUSH2 0xB0 JUMP JUMPDEST DUP1 SLOAD DUP7 DUP5 ADD DUP6 ADD MSTORE SWAP2 DUP4 ADD SWAP2 DUP2 ADD PUSH2 0x15F JUMP JUMPDEST PUSH1 0xFF NOT AND DUP4 DUP8 ADD MSTORE POP SWAP5 SWAP6 DUP7 SWAP6 POP ISZERO ISZERO PUSH1 0x5 SHL DUP5 ADD ADD SWAP1 POP DUP6 CODESIZE PUSH2 0xB0 JUMP JUMPDEST PUSH4 0x4E487B71 PUSH1 0xE0 SHL DUP6 MSTORE PUSH1 0x22 PUSH1 0x4 MSTORE PUSH1 0x24 DUP6 REVERT JUMPDEST SWAP6 PUSH1 0x7F AND SWAP6 PUSH2 0x8F JUMP JUMPDEST DUP3 DUP1 REVERT INVALID LOG2 PUSH5 0x6970667358 0x22 SLT KECCAK256 0xB7 MUL 0xDA LOG0 SELFDESTRUCT SWAP15 TIMESTAMP 0xD7 SLT 0xE9 BLOCKHASH DELEGATECALL CHAINID 0xAC MSIZE XOR ADDMOD 0x23 SWAP2 SWAP2 0xAD 0xB0 0xB1 SELFDESTRUCT DUP16 PUSH19 0x7C1BA982461C64736F6C634300081800330000 "},"methodIdentifiers":{"name()":"06fdde03","owner()":"8da5cb5b"}},"storageLayout":{"storage":[{"astId":19,"contract":"contracts/SeferVerse.sol:SeferVerse","label":"name","offset":0,"slot":"0","type":"t_string_storage"},{"astId":21,"contract":"contracts/SeferVerse.sol:SeferVerse","label":"owner","offset":0,"slot":"1","type":"t_address"}],"types":{"t_address":{"encoding":"inplace","label":"address","numberOfBytes":"20"},"t_string_storage":{"encoding":"bytes","label":"string","numberOfBytes":"32"}}}}}}