{"contracts/refund/RefundVaultEIP712.sol":{"RefundVaultEIP712":{"abi":[{"inputs":[{"internalType":"address","name":"_timelock","type":"address"},{"internalType":"address","name":"_signer","type":"address"}],"stateMutability":"nonpayable","type":"constructor"},{"inputs":[{"internalType":"uint256","name":"nowTs","type":"uint256"},{"internalType":"uint256","name":"expiry","type":"uint256"}],"name":"ExpiredSig","type":"error"},{"inputs":[{"internalType":"uint256","name":"expected","type":"uint256"},{"internalType":"uint256","name":"provided","type":"uint256"}],"name":"InvalidNonce","type":"error"},{"inputs":[],"name":"InvalidShortString","type":"error"},{"inputs":[],"name":"InvalidSig","type":"error"},{"inputs":[],"name":"NotTimelock","type":"error"},{"inputs":[{"internalType":"string","name":"str","type":"string"}],"name":"StringTooLong","type":"error"},{"inputs":[],"name":"TransferFailed","type":"error"},{"anonymous":false,"inputs":[],"name":"EIP712DomainChanged","type":"event"},{"anonymous":false,"inputs":[{"indexed":false,"internalType":"address","name":"account","type":"address"}],"name":"Paused","type":"event"},{"anonymous":false,"inputs":[{"indexed":true,"internalType":"address","name":"beneficiary","type":"address"},{"indexed":false,"internalType":"uint256","name":"amount","type":"uint256"},{"indexed":false,"internalType":"uint256","name":"nonce","type":"uint256"}],"name":"Refunded","type":"event"},{"anonymous":false,"inputs":[{"indexed":true,"internalType":"address","name":"newSigner","type":"address"}],"name":"SignerUpdated","type":"event"},{"anonymous":false,"inputs":[{"indexed":false,"internalType":"address","name":"account","type":"address"}],"name":"Unpaused","type":"event"},{"inputs":[{"internalType":"address","name":"beneficiary","type":"address"},{"internalType":"uint256","name":"amount","type":"uint256"},{"internalType":"uint256","name":"nonce","type":"uint256"},{"internalType":"uint256","name":"expiry","type":"uint256"},{"internalType":"bytes","name":"sig","type":"bytes"}],"name":"claim","outputs":[],"stateMutability":"nonpayable","type":"function"},{"inputs":[],"name":"eip712Domain","outputs":[{"internalType":"bytes1","name":"fields","type":"bytes1"},{"internalType":"string","name":"name","type":"string"},{"internalType":"string","name":"version","type":"string"},{"internalType":"uint256","name":"chainId","type":"uint256"},{"internalType":"address","name":"verifyingContract","type":"address"},{"internalType":"bytes32","name":"salt","type":"bytes32"},{"internalType":"uint256[]","name":"extensions","type":"uint256[]"}],"stateMutability":"view","type":"function"},{"inputs":[{"internalType":"address","name":"","type":"address"}],"name":"nonces","outputs":[{"internalType":"uint256","name":"","type":"uint256"}],"stateMutability":"view","type":"function"},{"inputs":[],"name":"pause","outputs":[],"stateMutability":"nonpayable","type":"function"},{"inputs":[],"name":"paused","outputs":[{"internalType":"bool","name":"","type":"bool"}],"stateMutability":"view","type":"function"},{"inputs":[{"internalType":"address","name":"_signer","type":"address"}],"name":"setSigner","outputs":[],"stateMutability":"nonpayable","type":"function"},{"inputs":[],"name":"signer","outputs":[{"internalType":"address","name":"","type":"address"}],"stateMutability":"view","type":"function"},{"inputs":[],"name":"timelock","outputs":[{"internalType":"address","name":"","type":"address"}],"stateMutability":"view","type":"function"},{"inputs":[],"name":"unpause","outputs":[],"stateMutability":"nonpayable","type":"function"},{"stateMutability":"payable","type":"receive"}],"evm":{"bytecode":{"linkReferences":{},"object":"610180346200026957620013c06001600160401b03601f38839003908101601f191684019082821185831017620002535780859160409586948552833981010312620002695762000050836200028a565b906200006060208095016200028a565b928051916200006f836200026e565b60108352858301946f14d959995c95995c9cd95499599d5b9960821b86528251966200009b886200026e565b60018852808801603160f81b8152620000b4866200029f565b97610120988952620000c68a62000472565b96610140978852519020988960e05251902061010098818a524660a052855191838301917f8b73c3c69bb8fe3d512ecc4cf759cc79239f7b179b0ffacaa9a75d522b39400f83528784015260608301524660808301523060a083015260a0825260c0820194828610908611176200025357848652815190206080523060c0526001600255600354936001600160a01b03918883161562000224575050821615620001f657506101609485526001600160a81b031990911660089190911b610100600160a81b03161760035551610da0949093908562000620863960805185610aa8015260a05185610b63015260c05185610a72015260e05185610af701525184610b1d01525183610384015251826103ae01525181818160a8015281816104a40152818161057e01526106710152f35b60649084519062461bcd60e51b82526004820152600860248201526707369676e65723d360c41b6044820152fd5b9069074696d656c6f636b3d360b41b6101046064938662461bcd60e51b855260c4820152600a60e48201520152fd5b634e487b7160e01b600052604160045260246000fd5b600080fd5b604081019081106001600160401b038211176200025357604052565b51906001600160a01b03821682036200026957565b805160209190828110156200033e575090601f825111620002dd5780825192015190808310620002ce57501790565b82600019910360031b1b161790565b90604051809263305a27a960e01b82528060048301528251908160248401526000935b82851062000324575050604492506000838284010152601f80199101168101030190fd5b848101820151868601604401529381019385935062000300565b6001600160401b03811162000253576000928354926001938481811c9116801562000467575b838210146200045357601f81116200041d575b5081601f8411600114620003b657509282939183928694620003aa575b50501b916000199060031b1c191617905560ff90565b01519250388062000394565b919083601f1981168780528488209488905b88838310620004025750505010620003e8575b505050811b01905560ff90565b015160001960f88460031b161c19169055388080620003db565b858701518855909601959485019487935090810190620003c8565b85805284601f848820920160051c820191601f860160051c015b8281106200044757505062000377565b87815501859062000437565b634e487b7160e01b86526022600452602486fd5b90607f169062000364565b805160209081811015620005005750601f8251116200049f5780825192015190808310620002ce57501790565b90604051809263305a27a960e01b82528060048301528251908160248401526000935b828510620004e6575050604492506000838284010152601f80199101168101030190fd5b8481018201518686016044015293810193859350620004c2565b9192916001600160401b038111620002535760019182548381811c9116801562000614575b82821014620005fe57601f8111620005c5575b5080601f8311600114620005785750819293946000926200056c575b5050600019600383901b1c191690821b17905560ff90565b01519050388062000554565b90601f198316958460005282600020926000905b888210620005ad5750508385969710620003e857505050811b01905560ff90565b8087859682949686015181550195019301906200058c565b8360005283601f83600020920160051c820191601f850160051c015b828110620005f157505062000538565b60008155018490620005e1565b634e487b7160e01b600052602260045260246000fd5b90607f16906200052556fe6080604081815260049182361015610022575b505050361561002057600080fd5b005b600092833560e01c918263238ac9331461071b575081633f4ba83a1461065d5781635c975abb146106395781636c19e783146105585781637ecebe00146105225781638456cb591461049057816384b0196e1461036c578163cf503460146100db575063d33219b4146100955780610012565b346100d757816003193601126100d757517f00000000000000000000000000000000000000000000000000000000000000006001600160a01b03168152602090f35b5080fd5b839150346100d75760a03660031901126100d7576100f7610743565b90602480359060443590606435936084359467ffffffffffffffff92838711610368573660238801121561036857868301359384116103685736818589010111610368576002978880541461032657888055610151610a2b565b82421161030a5760018060a01b0380911697888b526020958587528c8c2054948589036102ed5761022b93928d8f92848f958f8f8f988f958d938a916102239c6042958451938b8501957f2b424004f57a6edff502808299258efaa106ac49b796bd6e0255f20a831f1eed87528501526060840152608083015260a082015260a081526101dd8161079e565b5190206101e8610a6f565b8a519261190160f01b8452830152602282015220956102126102098461080e565b985198896107ec565b828852018387013784010152610b89565b929092610bc1565b8060035460081c169116036102dd57600182018092116102cc5750858852818352888820558680808087895af13d156102c7573d6102688161080e565b906102758b5192836107ec565b815288843d92013e5b156102b957509186917f2dc8e290002f06fc0085bbca9dfb8b415cf4d1178950c72ff9ee8f4d8878ee66936001979851928352820152a25580f35b87516312171d8360e31b8152fd5b61027e565b634e487b7160e01b89526011835288fd5b895163c90c66b560e01b81528390fd5b8d516306427aeb60e01b81528088018790528086018a9052604490fd5b5060449350895192633ad23de360e21b84524290840152820152fd5b8a5162461bcd60e51b8152602081860152601f818401527f5265656e7472616e637947756172643a207265656e7472616e742063616c6c006044820152606490fd5b8880fd5b9190503461048c578260031936011261048c576103a87f000000000000000000000000000000000000000000000000000000000000000061082a565b926103d27f0000000000000000000000000000000000000000000000000000000000000000610952565b90825192602092602085019585871067ffffffffffffffff881117610479575092602061042f838896610422998b9996528686528151998a99600f60f81b8b5260e0868c015260e08b019061075e565b91898303908a015261075e565b924660608801523060808801528460a088015286840360c088015251928381520193925b82811061046257505050500390f35b835185528695509381019392810192600101610453565b634e487b7160e01b845260419052602483fd5b8280fd5b90503461048c578260031936011261048c577f00000000000000000000000000000000000000000000000000000000000000006001600160a01b03163303610514575060207f62e78cea01bee320cd4e420270b5ea74000d11b0c9f74754ebdbfc544b05a258916104ff610a2b565b600160ff19600354161760035551338152a180f35b905163656a6d1560e11b8152fd5b90503461048c57602036600319011261048c5760209282916001600160a01b0361054a610743565b168252845220549051908152f35b90503461048c57602036600319011261048c57610573610743565b906001600160a01b037f00000000000000000000000000000000000000000000000000000000000000008116330361062a5782169283156105fc57505060038054610100600160a81b03191660089290921b610100600160a81b03169190911790557f5553331329228fbd4123164423717a4a7539f6dfa1c3279a923b98fd681a6c738280a280f35b906020606492519162461bcd60e51b8352820152600860248201526707369676e65723d360c41b6044820152fd5b50825163656a6d1560e11b8152fd5b5050346100d757816003193601126100d75760209060ff6003541690519015158152f35b90503461048c578260031936011261048c577f00000000000000000000000000000000000000000000000000000000000000006001600160a01b03163303610514576003549060ff8216156106e1575060ff1916600355513381527f5db9ee0a495bf2e6ff9c91a7834c1ba4fdd244a5e8aa4e537bd38aeae4b073aa90602090a180f35b606490602084519162461bcd60e51b8352820152601460248201527314185d5cd8589b194e881b9bdd081c185d5cd95960621b6044820152fd5b8490346100d757816003193601126100d75760035460081c6001600160a01b03168152602090f35b600435906001600160a01b038216820361075957565b600080fd5b919082519283825260005b84811061078a575050826000602080949584010152601f8019910116010190565b602081830181015184830182015201610769565b60c0810190811067ffffffffffffffff8211176107ba57604052565b634e487b7160e01b600052604160045260246000fd5b6040810190811067ffffffffffffffff8211176107ba57604052565b90601f8019910116810190811067ffffffffffffffff8211176107ba57604052565b67ffffffffffffffff81116107ba57601f01601f191660200190565b60ff81146108685760ff811690601f8211610856576040519161084c836107d0565b8252602082015290565b604051632cd44ac360e21b8152600490fd5b50604051600080549060018260011c9060018416938415610948575b6020948584108114610934578387528694939291811561091457506001146108b8575b50506108b5925003826107ec565b90565b60008080527f290decd9548b62a8d60345a988386fc84ba6bc95484008f6362f93160ef3e56395935091905b8183106108fc5750506108b5935082010138806108a7565b855487840185015294850194869450918301916108e4565b9150506108b594925060ff191682840152151560051b82010138806108a7565b634e487b7160e01b85526022600452602485fd5b91607f1691610884565b60ff81146109745760ff811690601f8211610856576040519161084c836107d0565b506040516000600190600154918260011c9060018416938415610a21575b6020948584108114610934578387528694939291811561091457506001146109c25750506108b5925003826107ec565b9093915060016000527fb10e2d527612073b26eecdfd717e6a320cf44b4afac2b0732d9fcbe2b7fa0cf6936000915b818310610a095750506108b5935082010138806108a7565b855487840185015294850194869450918301916109f1565b91607f1691610992565b60ff60035416610a3757565b60405162461bcd60e51b815260206004820152601060248201526f14185d5cd8589b194e881c185d5cd95960821b6044820152606490fd5b307f00000000000000000000000000000000000000000000000000000000000000006001600160a01b03161480610b60575b15610aca577f000000000000000000000000000000000000000000000000000000000000000090565b60405160208101907f8b73c3c69bb8fe3d512ecc4cf759cc79239f7b179b0ffacaa9a75d522b39400f82527f000000000000000000000000000000000000000000000000000000000000000060408201527f000000000000000000000000000000000000000000000000000000000000000060608201524660808201523060a082015260a08152610b5a8161079e565b51902090565b507f00000000000000000000000000000000000000000000000000000000000000004614610aa1565b906041815114600014610bb757610bb3916020820151906060604084015193015160001a90610cdb565b9091565b5050600090600290565b6005811015610cc55780610bd25750565b60018103610c1f5760405162461bcd60e51b815260206004820152601860248201527f45434453413a20696e76616c6964207369676e617475726500000000000000006044820152606490fd5b60028103610c6c5760405162461bcd60e51b815260206004820152601f60248201527f45434453413a20696e76616c6964207369676e6174757265206c656e677468006044820152606490fd5b600314610c7557565b60405162461bcd60e51b815260206004820152602260248201527f45434453413a20696e76616c6964207369676e6174757265202773272076616c604482015261756560f01b6064820152608490fd5b634e487b7160e01b600052602160045260246000fd5b9291907f7fffffffffffffffffffffffffffffff5d576e7357a4501ddfe92f46681b20a08311610d5e5791608094939160ff602094604051948552168484015260408301526060820152600093849182805260015afa15610d515781516001600160a01b03811615610d4b579190565b50600190565b50604051903d90823e3d90fd5b5050505060009060039056fea26469706673582212201250f6faafefdb3bb2566ecb896ee69f3c5a8c00167146b6442573d3ad51fc6564736f6c63430008180033","opcodes":"PUSH2 0x180 CALLVALUE PUSH3 0x269 JUMPI PUSH3 0x13C0 PUSH1 0x1 PUSH1 0x1 PUSH1 0x40 SHL SUB PUSH1 0x1F CODESIZE DUP4 SWAP1 SUB SWAP1 DUP2 ADD PUSH1 0x1F NOT AND DUP5 ADD SWAP1 DUP3 DUP3 GT DUP6 DUP4 LT OR PUSH3 0x253 JUMPI DUP1 DUP6 SWAP2 PUSH1 0x40 SWAP6 DUP7 SWAP5 DUP6 MSTORE DUP4 CODECOPY DUP2 ADD SUB SLT PUSH3 0x269 JUMPI PUSH3 0x50 DUP4 PUSH3 0x28A JUMP JUMPDEST SWAP1 PUSH3 0x60 PUSH1 0x20 DUP1 SWAP6 ADD PUSH3 0x28A JUMP JUMPDEST SWAP3 DUP1 MLOAD SWAP2 PUSH3 0x6F DUP4 PUSH3 0x26E JUMP JUMPDEST PUSH1 0x10 DUP4 MSTORE DUP6 DUP4 ADD SWAP5 PUSH16 0x14D959995C95995C9CD95499599D5B99 PUSH1 0x82 SHL DUP7 MSTORE DUP3 MLOAD SWAP7 PUSH3 0x9B DUP9 PUSH3 0x26E JUMP JUMPDEST PUSH1 0x1 DUP9 MSTORE DUP1 DUP9 ADD PUSH1 0x31 PUSH1 0xF8 SHL DUP2 MSTORE PUSH3 0xB4 DUP7 PUSH3 0x29F JUMP JUMPDEST SWAP8 PUSH2 0x120 SWAP9 DUP10 MSTORE PUSH3 0xC6 DUP11 PUSH3 0x472 JUMP JUMPDEST SWAP7 PUSH2 0x140 SWAP8 DUP9 MSTORE MLOAD SWAP1 KECCAK256 SWAP9 DUP10 PUSH1 0xE0 MSTORE MLOAD SWAP1 KECCAK256 PUSH2 0x100 SWAP9 DUP2 DUP11 MSTORE CHAINID PUSH1 0xA0 MSTORE DUP6 MLOAD SWAP2 DUP4 DUP4 ADD SWAP2 PUSH32 0x8B73C3C69BB8FE3D512ECC4CF759CC79239F7B179B0FFACAA9A75D522B39400F DUP4 MSTORE DUP8 DUP5 ADD MSTORE PUSH1 0x60 DUP4 ADD MSTORE CHAINID PUSH1 0x80 DUP4 ADD MSTORE ADDRESS PUSH1 0xA0 DUP4 ADD MSTORE PUSH1 0xA0 DUP3 MSTORE PUSH1 0xC0 DUP3 ADD SWAP5 DUP3 DUP7 LT SWAP1 DUP7 GT OR PUSH3 0x253 JUMPI DUP5 DUP7 MSTORE DUP2 MLOAD SWAP1 KECCAK256 PUSH1 0x80 MSTORE ADDRESS PUSH1 0xC0 MSTORE PUSH1 0x1 PUSH1 0x2 SSTORE PUSH1 0x3 SLOAD SWAP4 PUSH1 0x1 PUSH1 0x1 PUSH1 0xA0 SHL SUB SWAP2 DUP9 DUP4 AND ISZERO PUSH3 0x224 JUMPI POP POP DUP3 AND ISZERO PUSH3 0x1F6 JUMPI POP PUSH2 0x160 SWAP5 DUP6 MSTORE PUSH1 0x1 PUSH1 0x1 PUSH1 0xA8 SHL SUB NOT SWAP1 SWAP2 AND PUSH1 0x8 SWAP2 SWAP1 SWAP2 SHL PUSH2 0x100 PUSH1 0x1 PUSH1 0xA8 SHL SUB AND OR PUSH1 0x3 SSTORE MLOAD PUSH2 0xDA0 SWAP5 SWAP1 SWAP4 SWAP1 DUP6 PUSH3 0x620 DUP7 CODECOPY PUSH1 0x80 MLOAD DUP6 PUSH2 0xAA8 ADD MSTORE PUSH1 0xA0 MLOAD DUP6 PUSH2 0xB63 ADD MSTORE PUSH1 0xC0 MLOAD DUP6 PUSH2 0xA72 ADD MSTORE PUSH1 0xE0 MLOAD DUP6 PUSH2 0xAF7 ADD MSTORE MLOAD DUP5 PUSH2 0xB1D ADD MSTORE MLOAD DUP4 PUSH2 0x384 ADD MSTORE MLOAD DUP3 PUSH2 0x3AE ADD MSTORE MLOAD DUP2 DUP2 DUP2 PUSH1 0xA8 ADD MSTORE DUP2 DUP2 PUSH2 0x4A4 ADD MSTORE DUP2 DUP2 PUSH2 0x57E ADD MSTORE PUSH2 0x671 ADD MSTORE RETURN JUMPDEST PUSH1 0x64 SWAP1 DUP5 MLOAD SWAP1 PUSH3 0x461BCD PUSH1 0xE5 SHL DUP3 MSTORE PUSH1 0x4 DUP3 ADD MSTORE PUSH1 0x8 PUSH1 0x24 DUP3 ADD MSTORE PUSH8 0x7369676E65723D3 PUSH1 0xC4 SHL PUSH1 0x44 DUP3 ADD MSTORE REVERT JUMPDEST SWAP1 PUSH10 0x74696D656C6F636B3D3 PUSH1 0xB4 SHL PUSH2 0x104 PUSH1 0x64 SWAP4 DUP7 PUSH3 0x461BCD PUSH1 0xE5 SHL DUP6 MSTORE PUSH1 0xC4 DUP3 ADD MSTORE PUSH1 0xA PUSH1 0xE4 DUP3 ADD MSTORE ADD MSTORE REVERT JUMPDEST PUSH4 0x4E487B71 PUSH1 0xE0 SHL PUSH1 0x0 MSTORE PUSH1 0x41 PUSH1 0x4 MSTORE PUSH1 0x24 PUSH1 0x0 REVERT JUMPDEST PUSH1 0x0 DUP1 REVERT JUMPDEST PUSH1 0x40 DUP2 ADD SWAP1 DUP2 LT PUSH1 0x1 PUSH1 0x1 PUSH1 0x40 SHL SUB DUP3 GT OR PUSH3 0x253 JUMPI PUSH1 0x40 MSTORE JUMP JUMPDEST MLOAD SWAP1 PUSH1 0x1 PUSH1 0x1 PUSH1 0xA0 SHL SUB DUP3 AND DUP3 SUB PUSH3 0x269 JUMPI JUMP JUMPDEST DUP1 MLOAD PUSH1 0x20 SWAP2 SWAP1 DUP3 DUP2 LT ISZERO PUSH3 0x33E JUMPI POP SWAP1 PUSH1 0x1F DUP3 MLOAD GT PUSH3 0x2DD JUMPI DUP1 DUP3 MLOAD SWAP3 ADD MLOAD SWAP1 DUP1 DUP4 LT PUSH3 0x2CE JUMPI POP OR SWAP1 JUMP JUMPDEST DUP3 PUSH1 0x0 NOT SWAP2 SUB PUSH1 0x3 SHL SHL AND OR SWAP1 JUMP JUMPDEST SWAP1 PUSH1 0x40 MLOAD DUP1 SWAP3 PUSH4 0x305A27A9 PUSH1 0xE0 SHL DUP3 MSTORE DUP1 PUSH1 0x4 DUP4 ADD MSTORE DUP3 MLOAD SWAP1 DUP2 PUSH1 0x24 DUP5 ADD MSTORE PUSH1 0x0 SWAP4 JUMPDEST DUP3 DUP6 LT PUSH3 0x324 JUMPI POP POP PUSH1 0x44 SWAP3 POP PUSH1 0x0 DUP4 DUP3 DUP5 ADD ADD MSTORE PUSH1 0x1F DUP1 NOT SWAP2 ADD AND DUP2 ADD SUB ADD SWAP1 REVERT JUMPDEST DUP5 DUP2 ADD DUP3 ADD MLOAD DUP7 DUP7 ADD PUSH1 0x44 ADD MSTORE SWAP4 DUP2 ADD SWAP4 DUP6 SWAP4 POP PUSH3 0x300 JUMP JUMPDEST PUSH1 0x1 PUSH1 0x1 PUSH1 0x40 SHL SUB DUP2 GT PUSH3 0x253 JUMPI PUSH1 0x0 SWAP3 DUP4 SLOAD SWAP3 PUSH1 0x1 SWAP4 DUP5 DUP2 DUP2 SHR SWAP2 AND DUP1 ISZERO PUSH3 0x467 JUMPI JUMPDEST DUP4 DUP3 LT EQ PUSH3 0x453 JUMPI PUSH1 0x1F DUP2 GT PUSH3 0x41D JUMPI JUMPDEST POP DUP2 PUSH1 0x1F DUP5 GT PUSH1 0x1 EQ PUSH3 0x3B6 JUMPI POP SWAP3 DUP3 SWAP4 SWAP2 DUP4 SWAP3 DUP7 SWAP5 PUSH3 0x3AA JUMPI JUMPDEST POP POP SHL SWAP2 PUSH1 0x0 NOT SWAP1 PUSH1 0x3 SHL SHR NOT AND OR SWAP1 SSTORE PUSH1 0xFF SWAP1 JUMP JUMPDEST ADD MLOAD SWAP3 POP CODESIZE DUP1 PUSH3 0x394 JUMP JUMPDEST SWAP2 SWAP1 DUP4 PUSH1 0x1F NOT DUP2 AND DUP8 DUP1 MSTORE DUP5 DUP9 KECCAK256 SWAP5 DUP9 SWAP1 JUMPDEST DUP9 DUP4 DUP4 LT PUSH3 0x402 JUMPI POP POP POP LT PUSH3 0x3E8 JUMPI JUMPDEST POP POP POP DUP2 SHL ADD SWAP1 SSTORE PUSH1 0xFF SWAP1 JUMP JUMPDEST ADD MLOAD PUSH1 0x0 NOT PUSH1 0xF8 DUP5 PUSH1 0x3 SHL AND SHR NOT AND SWAP1 SSTORE CODESIZE DUP1 DUP1 PUSH3 0x3DB JUMP JUMPDEST DUP6 DUP8 ADD MLOAD DUP9 SSTORE SWAP1 SWAP7 ADD SWAP6 SWAP5 DUP6 ADD SWAP5 DUP8 SWAP4 POP SWAP1 DUP2 ADD SWAP1 PUSH3 0x3C8 JUMP JUMPDEST DUP6 DUP1 MSTORE DUP5 PUSH1 0x1F DUP5 DUP9 KECCAK256 SWAP3 ADD PUSH1 0x5 SHR DUP3 ADD SWAP2 PUSH1 0x1F DUP7 ADD PUSH1 0x5 SHR ADD JUMPDEST DUP3 DUP2 LT PUSH3 0x447 JUMPI POP POP PUSH3 0x377 JUMP JUMPDEST DUP8 DUP2 SSTORE ADD DUP6 SWAP1 PUSH3 0x437 JUMP JUMPDEST PUSH4 0x4E487B71 PUSH1 0xE0 SHL DUP7 MSTORE PUSH1 0x22 PUSH1 0x4 MSTORE PUSH1 0x24 DUP7 REVERT JUMPDEST SWAP1 PUSH1 0x7F AND SWAP1 PUSH3 0x364 JUMP JUMPDEST DUP1 MLOAD PUSH1 0x20 SWAP1 DUP2 DUP2 LT ISZERO PUSH3 0x500 JUMPI POP PUSH1 0x1F DUP3 MLOAD GT PUSH3 0x49F JUMPI DUP1 DUP3 MLOAD SWAP3 ADD MLOAD SWAP1 DUP1 DUP4 LT PUSH3 0x2CE JUMPI POP OR SWAP1 JUMP JUMPDEST SWAP1 PUSH1 0x40 MLOAD DUP1 SWAP3 PUSH4 0x305A27A9 PUSH1 0xE0 SHL DUP3 MSTORE DUP1 PUSH1 0x4 DUP4 ADD MSTORE DUP3 MLOAD SWAP1 DUP2 PUSH1 0x24 DUP5 ADD MSTORE PUSH1 0x0 SWAP4 JUMPDEST DUP3 DUP6 LT PUSH3 0x4E6 JUMPI POP POP PUSH1 0x44 SWAP3 POP PUSH1 0x0 DUP4 DUP3 DUP5 ADD ADD MSTORE PUSH1 0x1F DUP1 NOT SWAP2 ADD AND DUP2 ADD SUB ADD SWAP1 REVERT JUMPDEST DUP5 DUP2 ADD DUP3 ADD MLOAD DUP7 DUP7 ADD PUSH1 0x44 ADD MSTORE SWAP4 DUP2 ADD SWAP4 DUP6 SWAP4 POP PUSH3 0x4C2 JUMP JUMPDEST SWAP2 SWAP3 SWAP2 PUSH1 0x1 PUSH1 0x1 PUSH1 0x40 SHL SUB DUP2 GT PUSH3 0x253 JUMPI PUSH1 0x1 SWAP2 DUP3 SLOAD DUP4 DUP2 DUP2 SHR SWAP2 AND DUP1 ISZERO PUSH3 0x614 JUMPI JUMPDEST DUP3 DUP3 LT EQ PUSH3 0x5FE JUMPI PUSH1 0x1F DUP2 GT PUSH3 0x5C5 JUMPI JUMPDEST POP DUP1 PUSH1 0x1F DUP4 GT PUSH1 0x1 EQ PUSH3 0x578 JUMPI POP DUP2 SWAP3 SWAP4 SWAP5 PUSH1 0x0 SWAP3 PUSH3 0x56C JUMPI JUMPDEST POP POP PUSH1 0x0 NOT PUSH1 0x3 DUP4 SWAP1 SHL SHR NOT AND SWAP1 DUP3 SHL OR SWAP1 SSTORE PUSH1 0xFF SWAP1 JUMP JUMPDEST ADD MLOAD SWAP1 POP CODESIZE DUP1 PUSH3 0x554 JUMP JUMPDEST SWAP1 PUSH1 0x1F NOT DUP4 AND SWAP6 DUP5 PUSH1 0x0 MSTORE DUP3 PUSH1 0x0 KECCAK256 SWAP3 PUSH1 0x0 SWAP1 JUMPDEST DUP9 DUP3 LT PUSH3 0x5AD JUMPI POP POP DUP4 DUP6 SWAP7 SWAP8 LT PUSH3 0x3E8 JUMPI POP POP POP DUP2 SHL ADD SWAP1 SSTORE PUSH1 0xFF SWAP1 JUMP JUMPDEST DUP1 DUP8 DUP6 SWAP7 DUP3 SWAP5 SWAP7 DUP7 ADD MLOAD DUP2 SSTORE ADD SWAP6 ADD SWAP4 ADD SWAP1 PUSH3 0x58C JUMP JUMPDEST DUP4 PUSH1 0x0 MSTORE DUP4 PUSH1 0x1F DUP4 PUSH1 0x0 KECCAK256 SWAP3 ADD PUSH1 0x5 SHR DUP3 ADD SWAP2 PUSH1 0x1F DUP6 ADD PUSH1 0x5 SHR ADD JUMPDEST DUP3 DUP2 LT PUSH3 0x5F1 JUMPI POP POP PUSH3 0x538 JUMP JUMPDEST PUSH1 0x0 DUP2 SSTORE ADD DUP5 SWAP1 PUSH3 0x5E1 JUMP JUMPDEST PUSH4 0x4E487B71 PUSH1 0xE0 SHL PUSH1 0x0 MSTORE PUSH1 0x22 PUSH1 0x4 MSTORE PUSH1 0x24 PUSH1 0x0 REVERT JUMPDEST SWAP1 PUSH1 0x7F AND SWAP1 PUSH3 0x525 JUMP INVALID PUSH1 0x80 PUSH1 0x40 DUP2 DUP2 MSTORE PUSH1 0x4 SWAP2 DUP3 CALLDATASIZE LT ISZERO PUSH2 0x22 JUMPI JUMPDEST POP POP POP CALLDATASIZE ISZERO PUSH2 0x20 JUMPI PUSH1 0x0 DUP1 REVERT JUMPDEST STOP JUMPDEST PUSH1 0x0 SWAP3 DUP4 CALLDATALOAD PUSH1 0xE0 SHR SWAP2 DUP3 PUSH4 0x238AC933 EQ PUSH2 0x71B JUMPI POP DUP2 PUSH4 0x3F4BA83A EQ PUSH2 0x65D JUMPI DUP2 PUSH4 0x5C975ABB EQ PUSH2 0x639 JUMPI DUP2 PUSH4 0x6C19E783 EQ PUSH2 0x558 JUMPI DUP2 PUSH4 0x7ECEBE00 EQ PUSH2 0x522 JUMPI DUP2 PUSH4 0x8456CB59 EQ PUSH2 0x490 JUMPI DUP2 PUSH4 0x84B0196E EQ PUSH2 0x36C JUMPI DUP2 PUSH4 0xCF503460 EQ PUSH2 0xDB JUMPI POP PUSH4 0xD33219B4 EQ PUSH2 0x95 JUMPI DUP1 PUSH2 0x12 JUMP JUMPDEST CALLVALUE PUSH2 0xD7 JUMPI DUP2 PUSH1 0x3 NOT CALLDATASIZE ADD SLT PUSH2 0xD7 JUMPI MLOAD PUSH32 0x0 PUSH1 0x1 PUSH1 0x1 PUSH1 0xA0 SHL SUB AND DUP2 MSTORE PUSH1 0x20 SWAP1 RETURN JUMPDEST POP DUP1 REVERT JUMPDEST DUP4 SWAP2 POP CALLVALUE PUSH2 0xD7 JUMPI PUSH1 0xA0 CALLDATASIZE PUSH1 0x3 NOT ADD SLT PUSH2 0xD7 JUMPI PUSH2 0xF7 PUSH2 0x743 JUMP JUMPDEST SWAP1 PUSH1 0x24 DUP1 CALLDATALOAD SWAP1 PUSH1 0x44 CALLDATALOAD SWAP1 PUSH1 0x64 CALLDATALOAD SWAP4 PUSH1 0x84 CALLDATALOAD SWAP5 PUSH8 0xFFFFFFFFFFFFFFFF SWAP3 DUP4 DUP8 GT PUSH2 0x368 JUMPI CALLDATASIZE PUSH1 0x23 DUP9 ADD SLT ISZERO PUSH2 0x368 JUMPI DUP7 DUP4 ADD CALLDATALOAD SWAP4 DUP5 GT PUSH2 0x368 JUMPI CALLDATASIZE DUP2 DUP6 DUP10 ADD ADD GT PUSH2 0x368 JUMPI PUSH1 0x2 SWAP8 DUP9 DUP1 SLOAD EQ PUSH2 0x326 JUMPI DUP9 DUP1 SSTORE PUSH2 0x151 PUSH2 0xA2B JUMP JUMPDEST DUP3 TIMESTAMP GT PUSH2 0x30A JUMPI PUSH1 0x1 DUP1 PUSH1 0xA0 SHL SUB DUP1 SWAP2 AND SWAP8 DUP9 DUP12 MSTORE PUSH1 0x20 SWAP6 DUP6 DUP8 MSTORE DUP13 DUP13 KECCAK256 SLOAD SWAP5 DUP6 DUP10 SUB PUSH2 0x2ED JUMPI PUSH2 0x22B SWAP4 SWAP3 DUP14 DUP16 SWAP3 DUP5 DUP16 SWAP6 DUP16 DUP16 DUP16 SWAP9 DUP16 SWAP6 DUP14 SWAP4 DUP11 SWAP2 PUSH2 0x223 SWAP13 PUSH1 0x42 SWAP6 DUP5 MLOAD SWAP4 DUP12 DUP6 ADD SWAP6 PUSH32 0x2B424004F57A6EDFF502808299258EFAA106AC49B796BD6E0255F20A831F1EED DUP8 MSTORE DUP6 ADD MSTORE PUSH1 0x60 DUP5 ADD MSTORE PUSH1 0x80 DUP4 ADD MSTORE PUSH1 0xA0 DUP3 ADD MSTORE PUSH1 0xA0 DUP2 MSTORE PUSH2 0x1DD DUP2 PUSH2 0x79E JUMP JUMPDEST MLOAD SWAP1 KECCAK256 PUSH2 0x1E8 PUSH2 0xA6F JUMP JUMPDEST DUP11 MLOAD SWAP3 PUSH2 0x1901 PUSH1 0xF0 SHL DUP5 MSTORE DUP4 ADD MSTORE PUSH1 0x22 DUP3 ADD MSTORE KECCAK256 SWAP6 PUSH2 0x212 PUSH2 0x209 DUP5 PUSH2 0x80E JUMP JUMPDEST SWAP9 MLOAD SWAP9 DUP10 PUSH2 0x7EC JUMP JUMPDEST DUP3 DUP9 MSTORE ADD DUP4 DUP8 ADD CALLDATACOPY DUP5 ADD ADD MSTORE PUSH2 0xB89 JUMP JUMPDEST SWAP3 SWAP1 SWAP3 PUSH2 0xBC1 JUMP JUMPDEST DUP1 PUSH1 0x3 SLOAD PUSH1 0x8 SHR AND SWAP2 AND SUB PUSH2 0x2DD JUMPI PUSH1 0x1 DUP3 ADD DUP1 SWAP3 GT PUSH2 0x2CC JUMPI POP DUP6 DUP9 MSTORE DUP2 DUP4 MSTORE DUP9 DUP9 KECCAK256 SSTORE DUP7 DUP1 DUP1 DUP1 DUP8 DUP10 GAS CALL RETURNDATASIZE ISZERO PUSH2 0x2C7 JUMPI RETURNDATASIZE PUSH2 0x268 DUP2 PUSH2 0x80E JUMP JUMPDEST SWAP1 PUSH2 0x275 DUP12 MLOAD SWAP3 DUP4 PUSH2 0x7EC JUMP JUMPDEST DUP2 MSTORE DUP9 DUP5 RETURNDATASIZE SWAP3 ADD RETURNDATACOPY JUMPDEST ISZERO PUSH2 0x2B9 JUMPI POP SWAP2 DUP7 SWAP2 PUSH32 0x2DC8E290002F06FC0085BBCA9DFB8B415CF4D1178950C72FF9EE8F4D8878EE66 SWAP4 PUSH1 0x1 SWAP8 SWAP9 MLOAD SWAP3 DUP4 MSTORE DUP3 ADD MSTORE LOG2 SSTORE DUP1 RETURN JUMPDEST DUP8 MLOAD PUSH4 0x12171D83 PUSH1 0xE3 SHL DUP2 MSTORE REVERT JUMPDEST PUSH2 0x27E JUMP JUMPDEST PUSH4 0x4E487B71 PUSH1 0xE0 SHL DUP10 MSTORE PUSH1 0x11 DUP4 MSTORE DUP9 REVERT JUMPDEST DUP10 MLOAD PUSH4 0xC90C66B5 PUSH1 0xE0 SHL DUP2 MSTORE DUP4 SWAP1 REVERT JUMPDEST DUP14 MLOAD PUSH4 0x6427AEB PUSH1 0xE0 SHL DUP2 MSTORE DUP1 DUP9 ADD DUP8 SWAP1 MSTORE DUP1 DUP7 ADD DUP11 SWAP1 MSTORE PUSH1 0x44 SWAP1 REVERT JUMPDEST POP PUSH1 0x44 SWAP4 POP DUP10 MLOAD SWAP3 PUSH4 0x3AD23DE3 PUSH1 0xE2 SHL DUP5 MSTORE TIMESTAMP SWAP1 DUP5 ADD MSTORE DUP3 ADD MSTORE REVERT JUMPDEST DUP11 MLOAD PUSH3 0x461BCD PUSH1 0xE5 SHL DUP2 MSTORE PUSH1 0x20 DUP2 DUP7 ADD MSTORE PUSH1 0x1F DUP2 DUP5 ADD MSTORE PUSH32 0x5265656E7472616E637947756172643A207265656E7472616E742063616C6C00 PUSH1 0x44 DUP3 ADD MSTORE PUSH1 0x64 SWAP1 REVERT JUMPDEST DUP9 DUP1 REVERT JUMPDEST SWAP2 SWAP1 POP CALLVALUE PUSH2 0x48C JUMPI DUP3 PUSH1 0x3 NOT CALLDATASIZE ADD SLT PUSH2 0x48C JUMPI PUSH2 0x3A8 PUSH32 0x0 PUSH2 0x82A JUMP JUMPDEST SWAP3 PUSH2 0x3D2 PUSH32 0x0 PUSH2 0x952 JUMP JUMPDEST SWAP1 DUP3 MLOAD SWAP3 PUSH1 0x20 SWAP3 PUSH1 0x20 DUP6 ADD SWAP6 DUP6 DUP8 LT PUSH8 0xFFFFFFFFFFFFFFFF DUP9 GT OR PUSH2 0x479 JUMPI POP SWAP3 PUSH1 0x20 PUSH2 0x42F DUP4 DUP9 SWAP7 PUSH2 0x422 SWAP10 DUP12 SWAP10 SWAP7 MSTORE DUP7 DUP7 MSTORE DUP2 MLOAD SWAP10 DUP11 SWAP10 PUSH1 0xF PUSH1 0xF8 SHL DUP12 MSTORE PUSH1 0xE0 DUP7 DUP13 ADD MSTORE PUSH1 0xE0 DUP12 ADD SWAP1 PUSH2 0x75E JUMP JUMPDEST SWAP2 DUP10 DUP4 SUB SWAP1 DUP11 ADD MSTORE PUSH2 0x75E JUMP JUMPDEST SWAP3 CHAINID PUSH1 0x60 DUP9 ADD MSTORE ADDRESS PUSH1 0x80 DUP9 ADD MSTORE DUP5 PUSH1 0xA0 DUP9 ADD MSTORE DUP7 DUP5 SUB PUSH1 0xC0 DUP9 ADD MSTORE MLOAD SWAP3 DUP4 DUP2 MSTORE ADD SWAP4 SWAP3 JUMPDEST DUP3 DUP2 LT PUSH2 0x462 JUMPI POP POP POP POP SUB SWAP1 RETURN JUMPDEST DUP4 MLOAD DUP6 MSTORE DUP7 SWAP6 POP SWAP4 DUP2 ADD SWAP4 SWAP3 DUP2 ADD SWAP3 PUSH1 0x1 ADD PUSH2 0x453 JUMP JUMPDEST PUSH4 0x4E487B71 PUSH1 0xE0 SHL DUP5 MSTORE PUSH1 0x41 SWAP1 MSTORE PUSH1 0x24 DUP4 REVERT JUMPDEST DUP3 DUP1 REVERT JUMPDEST SWAP1 POP CALLVALUE PUSH2 0x48C JUMPI DUP3 PUSH1 0x3 NOT CALLDATASIZE ADD SLT PUSH2 0x48C JUMPI PUSH32 0x0 PUSH1 0x1 PUSH1 0x1 PUSH1 0xA0 SHL SUB AND CALLER SUB PUSH2 0x514 JUMPI POP PUSH1 0x20 PUSH32 0x62E78CEA01BEE320CD4E420270B5EA74000D11B0C9F74754EBDBFC544B05A258 SWAP2 PUSH2 0x4FF PUSH2 0xA2B JUMP JUMPDEST PUSH1 0x1 PUSH1 0xFF NOT PUSH1 0x3 SLOAD AND OR PUSH1 0x3 SSTORE MLOAD CALLER DUP2 MSTORE LOG1 DUP1 RETURN JUMPDEST SWAP1 MLOAD PUSH4 0x656A6D15 PUSH1 0xE1 SHL DUP2 MSTORE REVERT JUMPDEST SWAP1 POP CALLVALUE PUSH2 0x48C JUMPI PUSH1 0x20 CALLDATASIZE PUSH1 0x3 NOT ADD SLT PUSH2 0x48C JUMPI PUSH1 0x20 SWAP3 DUP3 SWAP2 PUSH1 0x1 PUSH1 0x1 PUSH1 0xA0 SHL SUB PUSH2 0x54A PUSH2 0x743 JUMP JUMPDEST AND DUP3 MSTORE DUP5 MSTORE KECCAK256 SLOAD SWAP1 MLOAD SWAP1 DUP2 MSTORE RETURN JUMPDEST SWAP1 POP CALLVALUE PUSH2 0x48C JUMPI PUSH1 0x20 CALLDATASIZE PUSH1 0x3 NOT ADD SLT PUSH2 0x48C JUMPI PUSH2 0x573 PUSH2 0x743 JUMP JUMPDEST SWAP1 PUSH1 0x1 PUSH1 0x1 PUSH1 0xA0 SHL SUB PUSH32 0x0 DUP2 AND CALLER SUB PUSH2 0x62A JUMPI DUP3 AND SWAP3 DUP4 ISZERO PUSH2 0x5FC JUMPI POP POP PUSH1 0x3 DUP1 SLOAD PUSH2 0x100 PUSH1 0x1 PUSH1 0xA8 SHL SUB NOT AND PUSH1 0x8 SWAP3 SWAP1 SWAP3 SHL PUSH2 0x100 PUSH1 0x1 PUSH1 0xA8 SHL SUB AND SWAP2 SWAP1 SWAP2 OR SWAP1 SSTORE PUSH32 0x5553331329228FBD4123164423717A4A7539F6DFA1C3279A923B98FD681A6C73 DUP3 DUP1 LOG2 DUP1 RETURN JUMPDEST SWAP1 PUSH1 0x20 PUSH1 0x64 SWAP3 MLOAD SWAP2 PUSH3 0x461BCD PUSH1 0xE5 SHL DUP4 MSTORE DUP3 ADD MSTORE PUSH1 0x8 PUSH1 0x24 DUP3 ADD MSTORE PUSH8 0x7369676E65723D3 PUSH1 0xC4 SHL PUSH1 0x44 DUP3 ADD MSTORE REVERT JUMPDEST POP DUP3 MLOAD PUSH4 0x656A6D15 PUSH1 0xE1 SHL DUP2 MSTORE REVERT JUMPDEST POP POP CALLVALUE PUSH2 0xD7 JUMPI DUP2 PUSH1 0x3 NOT CALLDATASIZE ADD SLT PUSH2 0xD7 JUMPI PUSH1 0x20 SWAP1 PUSH1 0xFF PUSH1 0x3 SLOAD AND SWAP1 MLOAD SWAP1 ISZERO ISZERO DUP2 MSTORE RETURN JUMPDEST SWAP1 POP CALLVALUE PUSH2 0x48C JUMPI DUP3 PUSH1 0x3 NOT CALLDATASIZE ADD SLT PUSH2 0x48C JUMPI PUSH32 0x0 PUSH1 0x1 PUSH1 0x1 PUSH1 0xA0 SHL SUB AND CALLER SUB PUSH2 0x514 JUMPI PUSH1 0x3 SLOAD SWAP1 PUSH1 0xFF DUP3 AND ISZERO PUSH2 0x6E1 JUMPI POP PUSH1 0xFF NOT AND PUSH1 0x3 SSTORE MLOAD CALLER DUP2 MSTORE PUSH32 0x5DB9EE0A495BF2E6FF9C91A7834C1BA4FDD244A5E8AA4E537BD38AEAE4B073AA SWAP1 PUSH1 0x20 SWAP1 LOG1 DUP1 RETURN JUMPDEST PUSH1 0x64 SWAP1 PUSH1 0x20 DUP5 MLOAD SWAP2 PUSH3 0x461BCD PUSH1 0xE5 SHL DUP4 MSTORE DUP3 ADD MSTORE PUSH1 0x14 PUSH1 0x24 DUP3 ADD MSTORE PUSH20 0x14185D5CD8589B194E881B9BDD081C185D5CD959 PUSH1 0x62 SHL PUSH1 0x44 DUP3 ADD MSTORE REVERT JUMPDEST DUP5 SWAP1 CALLVALUE PUSH2 0xD7 JUMPI DUP2 PUSH1 0x3 NOT CALLDATASIZE ADD SLT PUSH2 0xD7 JUMPI PUSH1 0x3 SLOAD PUSH1 0x8 SHR PUSH1 0x1 PUSH1 0x1 PUSH1 0xA0 SHL SUB AND DUP2 MSTORE PUSH1 0x20 SWAP1 RETURN JUMPDEST PUSH1 0x4 CALLDATALOAD SWAP1 PUSH1 0x1 PUSH1 0x1 PUSH1 0xA0 SHL SUB DUP3 AND DUP3 SUB PUSH2 0x759 JUMPI JUMP JUMPDEST PUSH1 0x0 DUP1 REVERT JUMPDEST SWAP2 SWAP1 DUP3 MLOAD SWAP3 DUP4 DUP3 MSTORE PUSH1 0x0 JUMPDEST DUP5 DUP2 LT PUSH2 0x78A JUMPI POP POP DUP3 PUSH1 0x0 PUSH1 0x20 DUP1 SWAP5 SWAP6 DUP5 ADD ADD MSTORE PUSH1 0x1F DUP1 NOT SWAP2 ADD AND ADD ADD SWAP1 JUMP JUMPDEST PUSH1 0x20 DUP2 DUP4 ADD DUP2 ADD MLOAD DUP5 DUP4 ADD DUP3 ADD MSTORE ADD PUSH2 0x769 JUMP JUMPDEST PUSH1 0xC0 DUP2 ADD SWAP1 DUP2 LT PUSH8 0xFFFFFFFFFFFFFFFF DUP3 GT OR PUSH2 0x7BA JUMPI PUSH1 0x40 MSTORE JUMP JUMPDEST PUSH4 0x4E487B71 PUSH1 0xE0 SHL PUSH1 0x0 MSTORE PUSH1 0x41 PUSH1 0x4 MSTORE PUSH1 0x24 PUSH1 0x0 REVERT JUMPDEST PUSH1 0x40 DUP2 ADD SWAP1 DUP2 LT PUSH8 0xFFFFFFFFFFFFFFFF DUP3 GT OR PUSH2 0x7BA JUMPI PUSH1 0x40 MSTORE JUMP JUMPDEST SWAP1 PUSH1 0x1F DUP1 NOT SWAP2 ADD AND DUP2 ADD SWAP1 DUP2 LT PUSH8 0xFFFFFFFFFFFFFFFF DUP3 GT OR PUSH2 0x7BA JUMPI PUSH1 0x40 MSTORE JUMP JUMPDEST PUSH8 0xFFFFFFFFFFFFFFFF DUP2 GT PUSH2 0x7BA JUMPI PUSH1 0x1F ADD PUSH1 0x1F NOT AND PUSH1 0x20 ADD SWAP1 JUMP JUMPDEST PUSH1 0xFF DUP2 EQ PUSH2 0x868 JUMPI PUSH1 0xFF DUP2 AND SWAP1 PUSH1 0x1F DUP3 GT PUSH2 0x856 JUMPI PUSH1 0x40 MLOAD SWAP2 PUSH2 0x84C DUP4 PUSH2 0x7D0 JUMP JUMPDEST DUP3 MSTORE PUSH1 0x20 DUP3 ADD MSTORE SWAP1 JUMP JUMPDEST PUSH1 0x40 MLOAD PUSH4 0x2CD44AC3 PUSH1 0xE2 SHL DUP2 MSTORE PUSH1 0x4 SWAP1 REVERT JUMPDEST POP PUSH1 0x40 MLOAD PUSH1 0x0 DUP1 SLOAD SWAP1 PUSH1 0x1 DUP3 PUSH1 0x1 SHR SWAP1 PUSH1 0x1 DUP5 AND SWAP4 DUP5 ISZERO PUSH2 0x948 JUMPI JUMPDEST PUSH1 0x20 SWAP5 DUP6 DUP5 LT DUP2 EQ PUSH2 0x934 JUMPI DUP4 DUP8 MSTORE DUP7 SWAP5 SWAP4 SWAP3 SWAP2 DUP2 ISZERO PUSH2 0x914 JUMPI POP PUSH1 0x1 EQ PUSH2 0x8B8 JUMPI JUMPDEST POP POP PUSH2 0x8B5 SWAP3 POP SUB DUP3 PUSH2 0x7EC JUMP JUMPDEST SWAP1 JUMP JUMPDEST PUSH1 0x0 DUP1 DUP1 MSTORE PUSH32 0x290DECD9548B62A8D60345A988386FC84BA6BC95484008F6362F93160EF3E563 SWAP6 SWAP4 POP SWAP2 SWAP1 JUMPDEST DUP2 DUP4 LT PUSH2 0x8FC JUMPI POP POP PUSH2 0x8B5 SWAP4 POP DUP3 ADD ADD CODESIZE DUP1 PUSH2 0x8A7 JUMP JUMPDEST DUP6 SLOAD DUP8 DUP5 ADD DUP6 ADD MSTORE SWAP5 DUP6 ADD SWAP5 DUP7 SWAP5 POP SWAP2 DUP4 ADD SWAP2 PUSH2 0x8E4 JUMP JUMPDEST SWAP2 POP POP PUSH2 0x8B5 SWAP5 SWAP3 POP PUSH1 0xFF NOT AND DUP3 DUP5 ADD MSTORE ISZERO ISZERO PUSH1 0x5 SHL DUP3 ADD ADD CODESIZE DUP1 PUSH2 0x8A7 JUMP JUMPDEST PUSH4 0x4E487B71 PUSH1 0xE0 SHL DUP6 MSTORE PUSH1 0x22 PUSH1 0x4 MSTORE PUSH1 0x24 DUP6 REVERT JUMPDEST SWAP2 PUSH1 0x7F AND SWAP2 PUSH2 0x884 JUMP JUMPDEST PUSH1 0xFF DUP2 EQ PUSH2 0x974 JUMPI PUSH1 0xFF DUP2 AND SWAP1 PUSH1 0x1F DUP3 GT PUSH2 0x856 JUMPI PUSH1 0x40 MLOAD SWAP2 PUSH2 0x84C DUP4 PUSH2 0x7D0 JUMP JUMPDEST POP PUSH1 0x40 MLOAD PUSH1 0x0 PUSH1 0x1 SWAP1 PUSH1 0x1 SLOAD SWAP2 DUP3 PUSH1 0x1 SHR SWAP1 PUSH1 0x1 DUP5 AND SWAP4 DUP5 ISZERO PUSH2 0xA21 JUMPI JUMPDEST PUSH1 0x20 SWAP5 DUP6 DUP5 LT DUP2 EQ PUSH2 0x934 JUMPI DUP4 DUP8 MSTORE DUP7 SWAP5 SWAP4 SWAP3 SWAP2 DUP2 ISZERO PUSH2 0x914 JUMPI POP PUSH1 0x1 EQ PUSH2 0x9C2 JUMPI POP POP PUSH2 0x8B5 SWAP3 POP SUB DUP3 PUSH2 0x7EC JUMP JUMPDEST SWAP1 SWAP4 SWAP2 POP PUSH1 0x1 PUSH1 0x0 MSTORE PUSH32 0xB10E2D527612073B26EECDFD717E6A320CF44B4AFAC2B0732D9FCBE2B7FA0CF6 SWAP4 PUSH1 0x0 SWAP2 JUMPDEST DUP2 DUP4 LT PUSH2 0xA09 JUMPI POP POP PUSH2 0x8B5 SWAP4 POP DUP3 ADD ADD CODESIZE DUP1 PUSH2 0x8A7 JUMP JUMPDEST DUP6 SLOAD DUP8 DUP5 ADD DUP6 ADD MSTORE SWAP5 DUP6 ADD SWAP5 DUP7 SWAP5 POP SWAP2 DUP4 ADD SWAP2 PUSH2 0x9F1 JUMP JUMPDEST SWAP2 PUSH1 0x7F AND SWAP2 PUSH2 0x992 JUMP JUMPDEST PUSH1 0xFF PUSH1 0x3 SLOAD AND PUSH2 0xA37 JUMPI JUMP JUMPDEST PUSH1 0x40 MLOAD PUSH3 0x461BCD PUSH1 0xE5 SHL DUP2 MSTORE PUSH1 0x20 PUSH1 0x4 DUP3 ADD MSTORE PUSH1 0x10 PUSH1 0x24 DUP3 ADD MSTORE PUSH16 0x14185D5CD8589B194E881C185D5CD959 PUSH1 0x82 SHL PUSH1 0x44 DUP3 ADD MSTORE PUSH1 0x64 SWAP1 REVERT JUMPDEST ADDRESS PUSH32 0x0 PUSH1 0x1 PUSH1 0x1 PUSH1 0xA0 SHL SUB AND EQ DUP1 PUSH2 0xB60 JUMPI JUMPDEST ISZERO PUSH2 0xACA JUMPI PUSH32 0x0 SWAP1 JUMP JUMPDEST PUSH1 0x40 MLOAD PUSH1 0x20 DUP2 ADD SWAP1 PUSH32 0x8B73C3C69BB8FE3D512ECC4CF759CC79239F7B179B0FFACAA9A75D522B39400F DUP3 MSTORE PUSH32 0x0 PUSH1 0x40 DUP3 ADD MSTORE PUSH32 0x0 PUSH1 0x60 DUP3 ADD MSTORE CHAINID PUSH1 0x80 DUP3 ADD MSTORE ADDRESS PUSH1 0xA0 DUP3 ADD MSTORE PUSH1 0xA0 DUP2 MSTORE PUSH2 0xB5A DUP2 PUSH2 0x79E JUMP JUMPDEST MLOAD SWAP1 KECCAK256 SWAP1 JUMP JUMPDEST POP PUSH32 0x0 CHAINID EQ PUSH2 0xAA1 JUMP JUMPDEST SWAP1 PUSH1 0x41 DUP2 MLOAD EQ PUSH1 0x0 EQ PUSH2 0xBB7 JUMPI PUSH2 0xBB3 SWAP2 PUSH1 0x20 DUP3 ADD MLOAD SWAP1 PUSH1 0x60 PUSH1 0x40 DUP5 ADD MLOAD SWAP4 ADD MLOAD PUSH1 0x0 BYTE SWAP1 PUSH2 0xCDB JUMP JUMPDEST SWAP1 SWAP2 JUMP JUMPDEST POP POP PUSH1 0x0 SWAP1 PUSH1 0x2 SWAP1 JUMP JUMPDEST PUSH1 0x5 DUP2 LT ISZERO PUSH2 0xCC5 JUMPI DUP1 PUSH2 0xBD2 JUMPI POP JUMP JUMPDEST PUSH1 0x1 DUP2 SUB PUSH2 0xC1F JUMPI PUSH1 0x40 MLOAD PUSH3 0x461BCD PUSH1 0xE5 SHL DUP2 MSTORE PUSH1 0x20 PUSH1 0x4 DUP3 ADD MSTORE PUSH1 0x18 PUSH1 0x24 DUP3 ADD MSTORE PUSH32 0x45434453413A20696E76616C6964207369676E61747572650000000000000000 PUSH1 0x44 DUP3 ADD MSTORE PUSH1 0x64 SWAP1 REVERT JUMPDEST PUSH1 0x2 DUP2 SUB PUSH2 0xC6C JUMPI PUSH1 0x40 MLOAD PUSH3 0x461BCD PUSH1 0xE5 SHL DUP2 MSTORE PUSH1 0x20 PUSH1 0x4 DUP3 ADD MSTORE PUSH1 0x1F PUSH1 0x24 DUP3 ADD MSTORE PUSH32 0x45434453413A20696E76616C6964207369676E6174757265206C656E67746800 PUSH1 0x44 DUP3 ADD MSTORE PUSH1 0x64 SWAP1 REVERT JUMPDEST PUSH1 0x3 EQ PUSH2 0xC75 JUMPI JUMP JUMPDEST PUSH1 0x40 MLOAD PUSH3 0x461BCD PUSH1 0xE5 SHL DUP2 MSTORE PUSH1 0x20 PUSH1 0x4 DUP3 ADD MSTORE PUSH1 0x22 PUSH1 0x24 DUP3 ADD MSTORE PUSH32 0x45434453413A20696E76616C6964207369676E6174757265202773272076616C PUSH1 0x44 DUP3 ADD MSTORE PUSH2 0x7565 PUSH1 0xF0 SHL PUSH1 0x64 DUP3 ADD MSTORE PUSH1 0x84 SWAP1 REVERT JUMPDEST PUSH4 0x4E487B71 PUSH1 0xE0 SHL PUSH1 0x0 MSTORE PUSH1 0x21 PUSH1 0x4 MSTORE PUSH1 0x24 PUSH1 0x0 REVERT JUMPDEST SWAP3 SWAP2 SWAP1 PUSH32 0x7FFFFFFFFFFFFFFFFFFFFFFFFFFFFFFF5D576E7357A4501DDFE92F46681B20A0 DUP4 GT PUSH2 0xD5E JUMPI SWAP2 PUSH1 0x80 SWAP5 SWAP4 SWAP2 PUSH1 0xFF PUSH1 0x20 SWAP5 PUSH1 0x40 MLOAD SWAP5 DUP6 MSTORE AND DUP5 DUP5 ADD MSTORE PUSH1 0x40 DUP4 ADD MSTORE PUSH1 0x60 DUP3 ADD MSTORE PUSH1 0x0 SWAP4 DUP5 SWAP2 DUP3 DUP1 MSTORE PUSH1 0x1 GAS STATICCALL ISZERO PUSH2 0xD51 JUMPI DUP2 MLOAD PUSH1 0x1 PUSH1 0x1 PUSH1 0xA0 SHL SUB DUP2 AND ISZERO PUSH2 0xD4B JUMPI SWAP2 SWAP1 JUMP JUMPDEST POP PUSH1 0x1 SWAP1 JUMP JUMPDEST POP PUSH1 0x40 MLOAD SWAP1 RETURNDATASIZE SWAP1 DUP3 RETURNDATACOPY RETURNDATASIZE SWAP1 REVERT JUMPDEST POP POP POP POP PUSH1 0x0 SWAP1 PUSH1 0x3 SWAP1 JUMP INVALID LOG2 PUSH5 0x6970667358 0x22 SLT KECCAK256 SLT POP 0xF6 STATICCALL 0xAF 0xEF 0xDB EXTCODESIZE 0xB2 JUMP PUSH15 0xCB896EE69F3C5A8C00167146B64425 PUSH20 0xD3AD51FC6564736F6C6343000818003300000000 "},"methodIdentifiers":{"claim(address,uint256,uint256,uint256,bytes)":"cf503460","eip712Domain()":"84b0196e","nonces(address)":"7ecebe00","pause()":"8456cb59","paused()":"5c975abb","setSigner(address)":"6c19e783","signer()":"238ac933","timelock()":"d33219b4","unpause()":"3f4ba83a"}},"storageLayout":{"storage":[{"astId":1181,"contract":"contracts/refund/RefundVaultEIP712.sol:RefundVaultEIP712","label":"_nameFallback","offset":0,"slot":"0","type":"t_string_storage"},{"astId":1183,"contract":"contracts/refund/RefundVaultEIP712.sol:RefundVaultEIP712","label":"_versionFallback","offset":0,"slot":"1","type":"t_string_storage"},{"astId":143,"contract":"contracts/refund/RefundVaultEIP712.sol:RefundVaultEIP712","label":"_status","offset":0,"slot":"2","type":"t_uint256"},{"astId":42,"contract":"contracts/refund/RefundVaultEIP712.sol:RefundVaultEIP712","label":"_paused","offset":0,"slot":"3","type":"t_bool"},{"astId":2347,"contract":"contracts/refund/RefundVaultEIP712.sol:RefundVaultEIP712","label":"signer","offset":1,"slot":"3","type":"t_address"},{"astId":2351,"contract":"contracts/refund/RefundVaultEIP712.sol:RefundVaultEIP712","label":"nonces","offset":0,"slot":"4","type":"t_mapping(t_address,t_uint256)"}],"types":{"t_address":{"encoding":"inplace","label":"address","numberOfBytes":"20"},"t_bool":{"encoding":"inplace","label":"bool","numberOfBytes":"1"},"t_mapping(t_address,t_uint256)":{"encoding":"mapping","key":"t_address","label":"mapping(address => uint256)","numberOfBytes":"32","value":"t_uint256"},"t_string_storage":{"encoding":"bytes","label":"string","numberOfBytes":"32"},"t_uint256":{"encoding":"inplace","label":"uint256","numberOfBytes":"32"}}}}}}