{"contracts/nft/BaronNFT.sol":{"BaronNFT":{"abi":[{"inputs":[{"internalType":"address","name":"admin","type":"address"}],"stateMutability":"nonpayable","type":"constructor"},{"anonymous":false,"inputs":[{"indexed":true,"internalType":"address","name":"owner","type":"address"},{"indexed":true,"internalType":"address","name":"approved","type":"address"},{"indexed":true,"internalType":"uint256","name":"tokenId","type":"uint256"}],"name":"Approval","type":"event"},{"anonymous":false,"inputs":[{"indexed":true,"internalType":"address","name":"owner","type":"address"},{"indexed":true,"internalType":"address","name":"operator","type":"address"},{"indexed":false,"internalType":"bool","name":"approved","type":"bool"}],"name":"ApprovalForAll","type":"event"},{"anonymous":false,"inputs":[],"name":"BaseURIFrozen","type":"event"},{"anonymous":false,"inputs":[{"indexed":false,"internalType":"string","name":"newBaseURI","type":"string"}],"name":"BaseURISet","type":"event"},{"anonymous":false,"inputs":[{"indexed":false,"internalType":"uint256","name":"_fromTokenId","type":"uint256"},{"indexed":false,"internalType":"uint256","name":"_toTokenId","type":"uint256"}],"name":"BatchMetadataUpdate","type":"event"},{"anonymous":false,"inputs":[{"indexed":false,"internalType":"uint256","name":"_tokenId","type":"uint256"}],"name":"MetadataUpdate","type":"event"},{"anonymous":false,"inputs":[{"indexed":true,"internalType":"bytes32","name":"role","type":"bytes32"},{"indexed":true,"internalType":"bytes32","name":"previousAdminRole","type":"bytes32"},{"indexed":true,"internalType":"bytes32","name":"newAdminRole","type":"bytes32"}],"name":"RoleAdminChanged","type":"event"},{"anonymous":false,"inputs":[{"indexed":true,"internalType":"bytes32","name":"role","type":"bytes32"},{"indexed":true,"internalType":"address","name":"account","type":"address"},{"indexed":true,"internalType":"address","name":"sender","type":"address"}],"name":"RoleGranted","type":"event"},{"anonymous":false,"inputs":[{"indexed":true,"internalType":"bytes32","name":"role","type":"bytes32"},{"indexed":true,"internalType":"address","name":"account","type":"address"},{"indexed":true,"internalType":"address","name":"sender","type":"address"}],"name":"RoleRevoked","type":"event"},{"anonymous":false,"inputs":[],"name":"RoyaltyFrozen","type":"event"},{"anonymous":false,"inputs":[{"indexed":true,"internalType":"address","name":"receiver","type":"address"},{"indexed":false,"internalType":"uint96","name":"feeNumerator","type":"uint96"}],"name":"RoyaltySet","type":"event"},{"anonymous":false,"inputs":[{"indexed":true,"internalType":"address","name":"from","type":"address"},{"indexed":true,"internalType":"address","name":"to","type":"address"},{"indexed":true,"internalType":"uint256","name":"tokenId","type":"uint256"}],"name":"Transfer","type":"event"},{"inputs":[],"name":"DEFAULT_ADMIN_ROLE","outputs":[{"internalType":"bytes32","name":"","type":"bytes32"}],"stateMutability":"view","type":"function"},{"inputs":[],"name":"MINTER_ROLE","outputs":[{"internalType":"bytes32","name":"","type":"bytes32"}],"stateMutability":"view","type":"function"},{"inputs":[{"internalType":"address","name":"to","type":"address"},{"internalType":"uint256","name":"tokenId","type":"uint256"}],"name":"approve","outputs":[],"stateMutability":"nonpayable","type":"function"},{"inputs":[{"internalType":"address","name":"owner","type":"address"}],"name":"balanceOf","outputs":[{"internalType":"uint256","name":"","type":"uint256"}],"stateMutability":"view","type":"function"},{"inputs":[],"name":"baseURIFrozen","outputs":[{"internalType":"bool","name":"","type":"bool"}],"stateMutability":"view","type":"function"},{"inputs":[],"name":"freezeBaseURI","outputs":[],"stateMutability":"nonpayable","type":"function"},{"inputs":[],"name":"freezeRoyalty","outputs":[],"stateMutability":"nonpayable","type":"function"},{"inputs":[{"internalType":"uint256","name":"tokenId","type":"uint256"}],"name":"getApproved","outputs":[{"internalType":"address","name":"","type":"address"}],"stateMutability":"view","type":"function"},{"inputs":[{"internalType":"bytes32","name":"role","type":"bytes32"}],"name":"getRoleAdmin","outputs":[{"internalType":"bytes32","name":"","type":"bytes32"}],"stateMutability":"view","type":"function"},{"inputs":[{"internalType":"bytes32","name":"role","type":"bytes32"},{"internalType":"address","name":"account","type":"address"}],"name":"grantRole","outputs":[],"stateMutability":"nonpayable","type":"function"},{"inputs":[{"internalType":"bytes32","name":"role","type":"bytes32"},{"internalType":"address","name":"account","type":"address"}],"name":"hasRole","outputs":[{"internalType":"bool","name":"","type":"bool"}],"stateMutability":"view","type":"function"},{"inputs":[{"internalType":"address","name":"owner","type":"address"},{"internalType":"address","name":"operator","type":"address"}],"name":"isApprovedForAll","outputs":[{"internalType":"bool","name":"","type":"bool"}],"stateMutability":"view","type":"function"},{"inputs":[{"internalType":"address","name":"to","type":"address"},{"internalType":"string","name":"tokenURI_","type":"string"}],"name":"mint","outputs":[{"internalType":"uint256","name":"","type":"uint256"}],"stateMutability":"nonpayable","type":"function"},{"inputs":[],"name":"name","outputs":[{"internalType":"string","name":"","type":"string"}],"stateMutability":"view","type":"function"},{"inputs":[{"internalType":"uint256","name":"tokenId","type":"uint256"}],"name":"ownerOf","outputs":[{"internalType":"address","name":"","type":"address"}],"stateMutability":"view","type":"function"},{"inputs":[{"internalType":"bytes32","name":"role","type":"bytes32"},{"internalType":"address","name":"account","type":"address"}],"name":"renounceRole","outputs":[],"stateMutability":"nonpayable","type":"function"},{"inputs":[{"internalType":"bytes32","name":"role","type":"bytes32"},{"internalType":"address","name":"account","type":"address"}],"name":"revokeRole","outputs":[],"stateMutability":"nonpayable","type":"function"},{"inputs":[],"name":"royaltyFrozen","outputs":[{"internalType":"bool","name":"","type":"bool"}],"stateMutability":"view","type":"function"},{"inputs":[{"internalType":"uint256","name":"tokenId","type":"uint256"},{"internalType":"uint256","name":"salePrice","type":"uint256"}],"name":"royaltyInfo","outputs":[{"internalType":"address","name":"","type":"address"},{"internalType":"uint256","name":"","type":"uint256"}],"stateMutability":"view","type":"function"},{"inputs":[{"internalType":"address","name":"from","type":"address"},{"internalType":"address","name":"to","type":"address"},{"internalType":"uint256","name":"tokenId","type":"uint256"}],"name":"safeTransferFrom","outputs":[],"stateMutability":"nonpayable","type":"function"},{"inputs":[{"internalType":"address","name":"from","type":"address"},{"internalType":"address","name":"to","type":"address"},{"internalType":"uint256","name":"tokenId","type":"uint256"},{"internalType":"bytes","name":"data","type":"bytes"}],"name":"safeTransferFrom","outputs":[],"stateMutability":"nonpayable","type":"function"},{"inputs":[{"internalType":"address","name":"operator","type":"address"},{"internalType":"bool","name":"approved","type":"bool"}],"name":"setApprovalForAll","outputs":[],"stateMutability":"nonpayable","type":"function"},{"inputs":[{"internalType":"string","name":"newBaseURI","type":"string"}],"name":"setBaseURI","outputs":[],"stateMutability":"nonpayable","type":"function"},{"inputs":[{"internalType":"address","name":"receiver","type":"address"},{"internalType":"uint96","name":"feeNumerator","type":"uint96"}],"name":"setDefaultRoyalty","outputs":[],"stateMutability":"nonpayable","type":"function"},{"inputs":[{"internalType":"bytes4","name":"interfaceId","type":"bytes4"}],"name":"supportsInterface","outputs":[{"internalType":"bool","name":"","type":"bool"}],"stateMutability":"view","type":"function"},{"inputs":[],"name":"symbol","outputs":[{"internalType":"string","name":"","type":"string"}],"stateMutability":"view","type":"function"},{"inputs":[{"internalType":"uint256","name":"tokenId","type":"uint256"}],"name":"tokenURI","outputs":[{"internalType":"string","name":"","type":"string"}],"stateMutability":"view","type":"function"},{"inputs":[{"internalType":"address","name":"from","type":"address"},{"internalType":"address","name":"to","type":"address"},{"internalType":"uint256","name":"tokenId","type":"uint256"}],"name":"transferFrom","outputs":[],"stateMutability":"nonpayable","type":"function"}],"evm":{"bytecode":{"linkReferences":{},"object":"60803462000485576200299a90813803601f1991601f91838382011682019460018060401b0391838710838811176200046f57808492604098895283396020938491810103126200048557516001600160a01b03811694908590036200048557620000696200048a565b90600982526810985c9bdb8813919560ba1b84830152620000896200048a565b94600386526221292760e91b858701528251958487116200046f576000968754946001958681811c9116801562000464575b898210146200045057908185849311620003fd575b5088908583116001146200039c578a9262000390575b5050600019600383901b1c191690851b1787555b8051928584116200037c5784548581811c9116801562000371575b888210146200035d57908184869594931162000306575b5087928411600114620002a55750879262000299575b5050600019600383901b1c191690821b1781555b84156200026b5783805260098352858420858552835260ff86852054161562000233575b7f9f2df0fed2c77648de5860a4cc508cd0818c85b8b8a1ab4ceeef8d981c8956a680855260098452868520868652845260ff878620541615620001fa575b50600a5584519081860190811182821017620001e65785528381520152600755516124cf9081620004ab8239f35b634e487b7160e01b84526041600452602484fd5b8085526009845286852086865284528685208260ff198254161790558533916000805160206200297a8339815191528780a438620001b8565b838052600983528584208585528352858420805460ff1916821790553385856000805160206200297a8339815191528180a46200017a565b855162461bcd60e51b8152600481018490526007602482015266061646d696e3d360cc1b6044820152606490fd5b01519050388062000142565b85895287892086959093929116895b89828210620002ef5750508411620002d5575b505050811b01815562000156565b015160001960f88460031b161c19169055388080620002c7565b8385015186558897909501949384019301620002b4565b90919293508589528789208480870160051c8201928a881062000353575b9187968992969594930160051c01915b828110620003445750506200012c565b8b815587965088910162000334565b9250819262000324565b634e487b7160e01b89526022600452602489fd5b90607f169062000115565b634e487b7160e01b88526041600452602488fd5b015190503880620000e6565b9086889416918b80528a8c20928c5b8c828210620003e65750508411620003cc575b505050811b018755620000fa565b015160001960f88460031b161c19169055388080620003be565b8385015186558b97909501949384019301620003ab565b909150898052888a208580850160051c8201928b861062000446575b918991869594930160051c01915b82811062000437575050620000d0565b8c815585945089910162000427565b9250819262000419565b634e487b7160e01b8a52602260045260248afd5b90607f1690620000bb565b634e487b7160e01b600052604160045260246000fd5b600080fd5b60408051919082016001600160401b038111838210176200046f5760405256fe608060408181526004918236101561001657600080fd5b600092833560e01c91826301ffc9a7146114715750816304634d8d146112f557816306fdde0314611244578163081812fc14611224578163095ea7b3146110b657816323b872dd14611091578163248a9ca3146110665781632a55205a14610faa5781632f2ff15d14610efd57816336568abe14610e6b57816342842e0e14610e375781634db6a33414610e1357816355f804b314610bdb5781636352211e14610baa57816370a0823114610b145781638e15385914610ac757816391d1485414610a8057816395d89b4114610995578163a217fddf1461097a578163a22cb465146108aa578163b88d4fde14610824578163c87b56dd146107ec578163d0def5211461029a578163d53913931461025f578163d547741f1461021c57508063e7bc8208146101cc578063e985e9c51461017f5763fb565bfd1461015957600080fd5b3461017b578160031936011261017b5760209060ff600b541690519015158152f35b5080fd5b503461017b578060031936011261017b5760ff8160209361019e61152a565b6101a6611545565b6001600160a01b0391821683526005875283832091168252855220549151911615158152f35b82346102195780600319360112610219576101e56118c9565b600160ff19600b541617600b557fcb8ee1250825b65fb9f9db82cf9039335db3185b4258fa3f81453f21741b42518180a180f35b80fd5b9190503461025b578060031936011261025b5761025891356102536001610241611545565b93838752600960205286200154611a97565b611d7c565b80f35b8280fd5b50503461017b578160031936011261017b57602090517f9f2df0fed2c77648de5860a4cc508cd0818c85b8b8a1ab4ceeef8d981c8956a68152f35b9190503461025b578060031936011261025b576102b561152a565b91602467ffffffffffffffff81358181116107e857366023820112156107e8576102e790369084818701359101611680565b917f9f2df0fed2c77648de5860a4cc508cd0818c85b8b8a1ab4ceeef8d981c8956a69687815260209760098952868220338352895260ff8783205416156106235750600a54966000199283891461061257600191828a01600a5588519061034d8261160a565b8482526001600160a01b03811680156105d257918b61040b92818f958e60026104109861039861039286600052600260205260018060a01b0360406000205416151590565b1561244d565b6000858152600260205260409020546103bb906001600160a01b03161515610392565b838d5260038152828d2080548d019055848d52528a2080546001600160a01b03191682179055897fddf252ad1be2c89b69c2b068fc378daa952ba7f163c4a11628f55a4df523b3ef8180a4612173565b611e45565b6000898152600260205260409020546001600160a01b03161561057a5788835260068a5287832096865195861161056957505061044d86546116b7565b601f8111610523575b508892601f85116001146104c25750509061048693836104b7575b50508160011b916000199060031b1c19161790565b90555b7ff8e1a15aba9398e019f0b49df1a4fde98ee17ae345cb5f6b5e2c27f5033e8ce7838251848152a151908152f35b015190503880610471565b9192909484601f1981168886528b8620955b8c8983831061050c57505050106104f4575b50505050811b019055610489565b01519060f88460031b161c19169055388080806104e6565b8686015189559097019694850194889350016104d4565b868352898320601f860160051c8101918b871061055f575b601f0160051c019082905b828110610554575050610456565b848155018290610546565b909150819061053b565b634e487b7160e01b84526041905282fd5b86602e6084928c8b519362461bcd60e51b85528401528201527f45524337323155524953746f726167653a2055524920736574206f66206e6f6e60448201526d32bc34b9ba32b73a103a37b5b2b760911b6064820152fd5b60648a8e86818f519362461bcd60e51b85528401528201527f4552433732313a206d696e7420746f20746865207a65726f20616464726573736044820152fd5b634e487b7160e01b83526011875282fd5b9186899387936106323361233d565b9183519061063f82611626565b604282528782019260603685378251156107d65760308453825190600191600110156107c45790607860218501536041915b81831161075b5750505061071b576048610717959385936106ff936106f0975197889376020b1b1b2b9b9a1b7b73a3937b61d1030b1b1b7bab73a1604d1b8d8601526106c78d825192839160378901910161155b565b8401917001034b99036b4b9b9b4b733903937b6329607d1b60378401525180938684019061155b565b01036028810186520184611642565b5194859462461bcd60e51b865285015283019061157e565b0390fd5b60648688878188519362461bcd60e51b85528401528201527f537472696e67733a20686578206c656e67746820696e73756666696369656e746044820152fd5b909192600f811660108110156107b2576f181899199a1a9b1b9c1cb0b131b232b360811b901a61078b8587612316565b53891c9280156107a057600019019190610671565b634e487b7160e01b825260118a528882fd5b634e487b7160e01b835260328b528983fd5b634e487b7160e01b8152603289528790fd5b634e487b7160e01b8152603288528690fd5b8680fd5b828434610219576020366003190112610219575061080d6108209235611e65565b905191829160208352602083019061157e565b0390f35b83903461017b57608036600319011261017b5761083f61152a565b90610848611545565b916044356064359367ffffffffffffffff85116108a657366023860112156108a65761088361040b9486602461025898369301359101611680565b926108966108918433611ba3565b6117f5565b6108a1838383611c6b565b61228d565b8580fd5b9190503461025b578060031936011261025b576108c561152a565b9060243591821515809303610976576001600160a01b0316923384146109345750338452600560205280842083855260205280842060ff1981541660ff8416179055519081527f17307eab39ab6107e8899845ad3d59bd9653f200f220920489ca2b5937696c3160203392a380f35b6020606492519162461bcd60e51b8352820152601960248201527f4552433732313a20617070726f766520746f2063616c6c6572000000000000006044820152fd5b8480fd5b50503461017b578160031936011261017b5751908152602090f35b8284346102195780600319360112610219578151918282600193600154946109bc866116b7565b9182855260209687600182169182600014610a595750506001146109fd575b50505061082092916109ee910385611642565b5192828493845283019061157e565b9190869350600183527fb10e2d527612073b26eecdfd717e6a320cf44b4afac2b0732d9fcbe2b7fa0cf65b828410610a4157505050820101816109ee6108206109db565b8054848a018601528895508794909301928101610a28565b60ff19168782015293151560051b860190930193508492506109ee915061082090506109db565b90503461025b578160031936011261025b578160209360ff92610aa1611545565b90358252600986528282206001600160a01b039091168252855220549151911615158152f35b8334610219578060031936011261021957610ae06118c9565b600160ff19600d541617600d557f10eea802bfc159e62a10401715430ffb6d4e6ccb3cf1e933728e0607be9594728180a180f35b8391503461017b57602036600319011261017b576001600160a01b03610b3861152a565b16908115610b555760208480858581526003845220549051908152f35b608490602085519162461bcd60e51b8352820152602960248201527f4552433732313a2061646472657373207a65726f206973206e6f7420612076616044820152683634b21037bbb732b960b91b6064820152fd5b8284346102195760203660031901126102195750610bca602092356118a3565b90516001600160a01b039091168152f35b8391503461017b576020928360031936011261025b5781359367ffffffffffffffff928386116109765736602387011215610976578581013593841161097657602490368286890101116108a657610c316118c9565b60ff600b5416610dea5750610c47600c546116b7565b601f8111610d88575b5084601f8511600114610cde57818697610ca58780809681967ff9c7803e94e0d3c02900d8a90893a6d5e90dd04d32a4cfe825520f82bf9f32f69c92610cd15750508160011b916000199060031b1c19161790565b600c555b855196858896875286015201848401378181018301869052601f01601f19168101030190a180f35b850101359050848d610471565b600c8652957fdf6966c971051c3d54ec59162606531493a51404a002842f56009d7e5cf4a8c7601f198616875b818110610d6f5750918693917ff9c7803e94e0d3c02900d8a90893a6d5e90dd04d32a4cfe825520f82bf9f32f6989985809510610d53575b5050600183811b01600c55610ca9565b8201830135600019600386901b60f8161c191690558980610d43565b838a018501358355988501986001909201918501610d0b565b600c86527fdf6966c971051c3d54ec59162606531493a51404a002842f56009d7e5cf4a8c7601f860160051c810191848710610de0575b601f0160051c01905b818110610dd55750610c50565b868155600101610dc8565b9091508190610dbf565b60066064928486519362461bcd60e51b855284015282015265333937bd32b760d11b6044820152fd5b50503461017b578160031936011261017b5760209060ff600d541690519015158152f35b50503461017b5761040b61025891610e4e366115a3565b91925192610e5b8461160a565b8684526108966108918433611ba3565b8391503461017b578260031936011261017b57610e86611545565b90336001600160a01b03831603610ea257906102589135611d7c565b608490602085519162461bcd60e51b8352820152602f60248201527f416363657373436f6e74726f6c3a2063616e206f6e6c792072656e6f756e636560448201526e103937b632b9903337b91039b2b63360891b6064820152fd5b90503461025b578160031936011261025b573590610f19611545565b908284526009602052610f3160018286200154611a97565b828452600960209081528185206001600160a01b039093168086529290528084205460ff1615610f5f578380f35b82845260096020528084208285526020528320600160ff1982541617905533917f2f8788117e7eff1d82e926ec794901d17c78024a50270940304540a733656f0d8480a43880808380f35b8284346102195781600319360112610219576024359083358152600860205282812090835191610fd9836115d8565b546001600160a01b0380821680855260a09290921c602085015292919015611043575b6001600160601b03602083015116938481029481860414901517156110305750518351911681526127109091046020820152f35b634e487b7160e01b815260118652602490fd5b90508351611050816115d8565b600754838116825260a01c602082015290610ffc565b90503461025b57602036600319011261025b5781602093600192358152600985522001549051908152f35b8334610219576102586110a3366115a3565b916110b16108918433611ba3565b611c6b565b90503461025b578160031936011261025b576110d061152a565b6024359290916001600160a01b03919082806110eb876118a3565b169416938085146111d7578033149081156111b8575b501561115057848652602052842080546001600160a01b03191683179055611128836118a3565b167f8c5be1e5ebec7d5bd14f71427d1e84f3dd0314c0f7b2291e5b200ac8c7c3b9258480a480f35b6020608492519162461bcd60e51b8352820152603d60248201527f4552433732313a20617070726f76652063616c6c6572206973206e6f7420746f60448201527f6b656e206f776e6572206f7220617070726f76656420666f7220616c6c0000006064820152fd5b90508652600560205281862033875260205260ff828720541638611101565b506020608492519162461bcd60e51b8352820152602160248201527f4552433732313a20617070726f76616c20746f2063757272656e74206f776e656044820152603960f91b6064820152fd5b8284346102195760203660031901126102195750610bca602092356117b7565b82843461021957806003193601126102195781519182828354611266816116b7565b9081845260209560019187600182169182600014610a5957505060011461129a5750505061082092916109ee910385611642565b91908693508280527f290decd9548b62a8d60345a988386fc84ba6bc95484008f6362f93160ef3e5635b8284106112dd57505050820101816109ee6108206109db565b8054848a0186015288955087949093019281016112c4565b9190503461025b578060031936011261025b5761131061152a565b906024356001600160601b038116928382036108a65761132e6118c9565b60ff600d541661143d5761271084116113e7576001600160a01b03169384156113a4575091817f23813f5ad446622633cb58c75ceef768a2111751b0f30477a63e06fcaedcff6093826020809551611385816115d8565b888152015260a01b6001600160a01b031916851760075551908152a280f35b606490602084519162461bcd60e51b8352820152601960248201527f455243323938313a20696e76616c6964207265636569766572000000000000006044820152fd5b825162461bcd60e51b8152602081870152602a60248201527f455243323938313a20726f79616c7479206665652077696c6c206578636565646044820152692073616c65507269636560b01b6064820152608490fd5b825162461bcd60e51b8152602081870152600e60248201526d3937bcb0b63a3c96b33937bd32b760911b6044820152606490fd5b84913461025b57602036600319011261025b573563ffffffff60e01b811680910361025b5760209250637965db0b60e01b81149081156114b3575b5015158152f35b63152a902d60e11b8114915081156114cd575b50836114ac565b632483248360e11b8114915081156114e7575b50836114c6565b6380ac58cd60e01b811491508115611519575b8115611508575b50836114e0565b6301ffc9a760e01b14905083611501565b635b5e139f60e01b811491506114fa565b600435906001600160a01b038216820361154057565b600080fd5b602435906001600160a01b038216820361154057565b60005b83811061156e5750506000910152565b818101518382015260200161155e565b906020916115978151809281855285808601910161155b565b601f01601f1916010190565b6060906003190112611540576001600160a01b0390600435828116810361154057916024359081168103611540579060443590565b6040810190811067ffffffffffffffff8211176115f457604052565b634e487b7160e01b600052604160045260246000fd5b6020810190811067ffffffffffffffff8211176115f457604052565b6080810190811067ffffffffffffffff8211176115f457604052565b90601f8019910116810190811067ffffffffffffffff8211176115f457604052565b67ffffffffffffffff81116115f457601f01601f191660200190565b92919261168c82611664565b9161169a6040519384611642565b829481845281830111611540578281602093846000960137010152565b90600182811c921680156116e7575b60208310146116d157565b634e487b7160e01b600052602260045260246000fd5b91607f16916116c6565b60405190600082600c5491611705836116b7565b808352926020906001908181169081156117935750600114611732575b505061173092500383611642565b565b915092600c6000527fdf6966c971051c3d54ec59162606531493a51404a002842f56009d7e5cf4a8c7936000925b82841061177b57506117309450505081016020013880611722565b85548885018301529485019487945092810192611760565b9150506020925061173094915060ff191682840152151560051b8201013880611722565b6000818152600260205260409020546117da906001600160a01b03161515611857565b6000908152600460205260409020546001600160a01b031690565b156117fc57565b60405162461bcd60e51b815260206004820152602d60248201527f4552433732313a2063616c6c6572206973206e6f7420746f6b656e206f776e6560448201526c1c881bdc88185c1c1c9bdd9959609a1b6064820152608490fd5b1561185e57565b60405162461bcd60e51b815260206004820152601860248201527f4552433732313a20696e76616c696420746f6b656e20494400000000000000006044820152606490fd5b6000908152600260205260409020546001600160a01b03166118c6811515611857565b90565b3360009081527fec8156718a8372b1db44bb411437d0870f3e3790d4a08526d024ce1b0b668f6b602090815260408083205490929060ff161561190b57505050565b6119143361233d565b908084519061192282611626565b60428252848201926060368537825115611a83576030845382519060019160011015611a835790607860218501536041915b818311611a15575050506119d35760486107179386936119b7936119a8985198899376020b1b1b2b9b9a1b7b73a3937b61d1030b1b1b7bab73a1604d1b8a8601526106c7815180928c60378901910161155b565b01036028810187520185611642565b5192839262461bcd60e51b84526004840152602483019061157e565b60648486519062461bcd60e51b825280600483015260248201527f537472696e67733a20686578206c656e67746820696e73756666696369656e746044820152fd5b909192600f81166010811015611a6f576f181899199a1a9b1b9c1cb0b131b232b360811b901a611a458587612316565b5360041c928015611a5b57600019019190611954565b634e487b7160e01b82526011600452602482fd5b634e487b7160e01b83526032600452602483fd5b634e487b7160e01b81526032600452602490fd5b60009080825260209060098252604092838120338252835260ff848220541615611ac15750505050565b611aca3361233d565b91845190611ad782611626565b60428252848201926060368537825115611a83576030845382519060019160011015611a835790607860218501536041915b818311611b5d575050506119d35760486107179386936119b7936119a8985198899376020b1b1b2b9b9a1b7b73a3937b61d1030b1b1b7bab73a1604d1b8a8601526106c7815180928c60378901910161155b565b909192600f81166010811015611a6f576f181899199a1a9b1b9c1cb0b131b232b360811b901a611b8d8587612316565b5360041c928015611a5b57600019019190611b09565b906001600160a01b038080611bb7846118a3565b16931691838314938415611bea575b508315611bd4575b50505090565b611be0919293506117b7565b1614388080611bce565b909350600052600560205260406000208260005260205260ff604060002054169238611bc6565b15611c1857565b60405162461bcd60e51b815260206004820152602560248201527f4552433732313a207472616e736665722066726f6d20696e636f72726563742060448201526437bbb732b960d91b6064820152608490fd5b90611c9391611c79846118a3565b6001600160a01b0393918416928492909183168414611c11565b16918215611d2b5781611cb091611ca9866118a3565b1614611c11565b7fddf252ad1be2c89b69c2b068fc378daa952ba7f163c4a11628f55a4df523b3ef60008481526004602052604081206001600160601b0360a01b9081815416905583825260036020526040822060001981540190558482526040822060018154019055858252600260205284604083209182541617905580a4565b60405162461bcd60e51b8152602060048201526024808201527f4552433732313a207472616e7366657220746f20746865207a65726f206164646044820152637265737360e01b6064820152608490fd5b906000918083526009602052604083209160018060a01b03169182845260205260ff604084205416611dad57505050565b8083526009602052604083208284526020526040832060ff1981541690557ff6391f5c32d9c69d2a47ea670b442974b53935d1edc7fd64eb21e047a839171b339380a4565b60809060208152603260208201527f4552433732313a207472616e7366657220746f206e6f6e20455243373231526560408201527131b2b4bb32b91034b6b83632b6b2b73a32b960711b60608201520190565b15611e4c57565b60405162461bcd60e51b81528061071760048201611df2565b600081815260026020526040902054611e88906001600160a01b03161515611857565b600081815260209060068252604090818120918051829380549482611eac876116b7565b91828252888201936001988a600182169182600014612155575050600114612117575b50611edc92500383611642565b611ee46116f1565b90815192831561210b5780516120e757505050600086815260026020526040902054611f1b91506001600160a01b03161515611857565b611f236116f1565b8051909390156120d15785869184977a184f03e93ff9f4daa797ed6e38ed64bf6a1f01000000000000000090818110156120c2575b50506d04ee2d6d415b85acef8100000000808410156120b4575b50662386f26fc10000808410156120a5575b506305f5e10080841015612096575b5061271080841015612087575b506064831015612077575b600a8093101561206d575b9081602160018a0199611fe0611fcb8c611664565b9b611fd889519d8e611642565b808d52611664565b8b8b019890601f1901368a37508a0101905b612037575b505050509061202b946118c694939251958361201c889551809288808901910161155b565b8401915180938684019061155b565b01038084520182611642565b600019019083906f181899199a1a9b1b9c1cb0b131b232b360811b8282061a83530491821561206857919082611ff2565b611ff7565b9660010196611fb6565b9691606460029104920196611fab565b60049198930492019638611fa0565b60089198930492019638611f93565b60109198930492019638611f84565b879198930492019638611f72565b94985088940492503880611f58565b50925092505051906120e28261160a565b815290565b929750926118c696955061202b91945061201c88915198899688808901910161155b565b97505050505050505090565b915050855282878087208888915b85831061213c575050611edc935082010138611ecf565b8091929450548385890101520191018890888693612125565b60ff19168752611edc95151560051b8501019250389150611ecf9050565b91929091803b15612284576121c0936040519081630a85bd0160e11b9384825233600483015260009687602484015260448301526080606483015281878160209a8b96608483019061157e565b03926001600160a01b03165af1849181612244575b50612233575050503d60001461222b573d6121ef81611664565b906121fd6040519283611642565b81528091833d92013e5b805191826122285760405162461bcd60e51b81528061071760048201611df2565b01fd5b506060612207565b6001600160e01b0319161492509050565b9091508581813d831161227d575b61225c8183611642565b8101031261097657516001600160e01b0319811681036109765790386121d5565b503d612252565b50915050600190565b9293919290803b1561230c576122e19460018060a01b039460405192839187630a85bd0160e11b9687855233600486015216602484015260448301526080606483015281806020998a95608483019061157e565b03916000988991165af18491816122445750612233575050503d60001461222b573d6121ef81611664565b5050915050600190565b908151811015612327570160200190565b634e487b7160e01b600052603260045260246000fd5b604051906060820182811067ffffffffffffffff8211176115f457604052602a8252602082016040368237825115612327576030905381516001906001101561232757607860218401536029905b8082116123df57505061239b5790565b606460405162461bcd60e51b815260206004820152602060248201527f537472696e67733a20686578206c656e67746820696e73756666696369656e746044820152fd5b9091600f81166010811015612438576f181899199a1a9b1b9c1cb0b131b232b360811b901a61240e8486612316565b5360041c91801561242357600019019061238b565b60246000634e487b7160e01b81526011600452fd5b60246000634e487b7160e01b81526032600452fd5b1561245457565b60405162461bcd60e51b815260206004820152601c60248201527f4552433732313a20746f6b656e20616c7265616479206d696e746564000000006044820152606490fdfea2646970667358221220eaa8734dc3148bd67c1ad2010fd6a12fce15da8e40b03781c08b032ecce3621864736f6c634300081800332f8788117e7eff1d82e926ec794901d17c78024a50270940304540a733656f0d","opcodes":"PUSH1 0x80 CALLVALUE PUSH3 0x485 JUMPI PUSH3 0x299A SWAP1 DUP2 CODESIZE SUB PUSH1 0x1F NOT SWAP2 PUSH1 0x1F SWAP2 DUP4 DUP4 DUP3 ADD AND DUP3 ADD SWAP5 PUSH1 0x1 DUP1 PUSH1 0x40 SHL SUB SWAP2 DUP4 DUP8 LT DUP4 DUP9 GT OR PUSH3 0x46F JUMPI DUP1 DUP5 SWAP3 PUSH1 0x40 SWAP9 DUP10 MSTORE DUP4 CODECOPY PUSH1 0x20 SWAP4 DUP5 SWAP2 DUP2 ADD SUB SLT PUSH3 0x485 JUMPI MLOAD PUSH1 0x1 PUSH1 0x1 PUSH1 0xA0 SHL SUB DUP2 AND SWAP5 SWAP1 DUP6 SWAP1 SUB PUSH3 0x485 JUMPI PUSH3 0x69 PUSH3 0x48A JUMP JUMPDEST SWAP1 PUSH1 0x9 DUP3 MSTORE PUSH9 0x10985C9BDB88139195 PUSH1 0xBA SHL DUP5 DUP4 ADD MSTORE PUSH3 0x89 PUSH3 0x48A JUMP JUMPDEST SWAP5 PUSH1 0x3 DUP7 MSTORE PUSH3 0x212927 PUSH1 0xE9 SHL DUP6 DUP8 ADD MSTORE DUP3 MLOAD SWAP6 DUP5 DUP8 GT PUSH3 0x46F JUMPI PUSH1 0x0 SWAP7 DUP8 SLOAD SWAP5 PUSH1 0x1 SWAP6 DUP7 DUP2 DUP2 SHR SWAP2 AND DUP1 ISZERO PUSH3 0x464 JUMPI JUMPDEST DUP10 DUP3 LT EQ PUSH3 0x450 JUMPI SWAP1 DUP2 DUP6 DUP5 SWAP4 GT PUSH3 0x3FD JUMPI JUMPDEST POP DUP9 SWAP1 DUP6 DUP4 GT PUSH1 0x1 EQ PUSH3 0x39C JUMPI DUP11 SWAP3 PUSH3 0x390 JUMPI JUMPDEST POP POP PUSH1 0x0 NOT PUSH1 0x3 DUP4 SWAP1 SHL SHR NOT AND SWAP1 DUP6 SHL OR DUP8 SSTORE JUMPDEST DUP1 MLOAD SWAP3 DUP6 DUP5 GT PUSH3 0x37C JUMPI DUP5 SLOAD DUP6 DUP2 DUP2 SHR SWAP2 AND DUP1 ISZERO PUSH3 0x371 JUMPI JUMPDEST DUP9 DUP3 LT EQ PUSH3 0x35D JUMPI SWAP1 DUP2 DUP5 DUP7 SWAP6 SWAP5 SWAP4 GT PUSH3 0x306 JUMPI JUMPDEST POP DUP8 SWAP3 DUP5 GT PUSH1 0x1 EQ PUSH3 0x2A5 JUMPI POP DUP8 SWAP3 PUSH3 0x299 JUMPI JUMPDEST POP POP PUSH1 0x0 NOT PUSH1 0x3 DUP4 SWAP1 SHL SHR NOT AND SWAP1 DUP3 SHL OR DUP2 SSTORE JUMPDEST DUP5 ISZERO PUSH3 0x26B JUMPI DUP4 DUP1 MSTORE PUSH1 0x9 DUP4 MSTORE DUP6 DUP5 KECCAK256 DUP6 DUP6 MSTORE DUP4 MSTORE PUSH1 0xFF DUP7 DUP6 KECCAK256 SLOAD AND ISZERO PUSH3 0x233 JUMPI JUMPDEST PUSH32 0x9F2DF0FED2C77648DE5860A4CC508CD0818C85B8B8A1AB4CEEEF8D981C8956A6 DUP1 DUP6 MSTORE PUSH1 0x9 DUP5 MSTORE DUP7 DUP6 KECCAK256 DUP7 DUP7 MSTORE DUP5 MSTORE PUSH1 0xFF DUP8 DUP7 KECCAK256 SLOAD AND ISZERO PUSH3 0x1FA JUMPI JUMPDEST POP PUSH1 0xA SSTORE DUP5 MLOAD SWAP1 DUP2 DUP7 ADD SWAP1 DUP2 GT DUP3 DUP3 LT OR PUSH3 0x1E6 JUMPI DUP6 MSTORE DUP4 DUP2 MSTORE ADD MSTORE PUSH1 0x7 SSTORE MLOAD PUSH2 0x24CF SWAP1 DUP2 PUSH3 0x4AB DUP3 CODECOPY RETURN JUMPDEST PUSH4 0x4E487B71 PUSH1 0xE0 SHL DUP5 MSTORE PUSH1 0x41 PUSH1 0x4 MSTORE PUSH1 0x24 DUP5 REVERT JUMPDEST DUP1 DUP6 MSTORE PUSH1 0x9 DUP5 MSTORE DUP7 DUP6 KECCAK256 DUP7 DUP7 MSTORE DUP5 MSTORE DUP7 DUP6 KECCAK256 DUP3 PUSH1 0xFF NOT DUP3 SLOAD AND OR SWAP1 SSTORE DUP6 CALLER SWAP2 PUSH1 0x0 DUP1 MLOAD PUSH1 0x20 PUSH3 0x297A DUP4 CODECOPY DUP2 MLOAD SWAP2 MSTORE DUP8 DUP1 LOG4 CODESIZE PUSH3 0x1B8 JUMP JUMPDEST DUP4 DUP1 MSTORE PUSH1 0x9 DUP4 MSTORE DUP6 DUP5 KECCAK256 DUP6 DUP6 MSTORE DUP4 MSTORE DUP6 DUP5 KECCAK256 DUP1 SLOAD PUSH1 0xFF NOT AND DUP3 OR SWAP1 SSTORE CALLER DUP6 DUP6 PUSH1 0x0 DUP1 MLOAD PUSH1 0x20 PUSH3 0x297A DUP4 CODECOPY DUP2 MLOAD SWAP2 MSTORE DUP2 DUP1 LOG4 PUSH3 0x17A JUMP JUMPDEST DUP6 MLOAD PUSH3 0x461BCD PUSH1 0xE5 SHL DUP2 MSTORE PUSH1 0x4 DUP2 ADD DUP5 SWAP1 MSTORE PUSH1 0x7 PUSH1 0x24 DUP3 ADD MSTORE PUSH7 0x61646D696E3D3 PUSH1 0xCC SHL PUSH1 0x44 DUP3 ADD MSTORE PUSH1 0x64 SWAP1 REVERT JUMPDEST ADD MLOAD SWAP1 POP CODESIZE DUP1 PUSH3 0x142 JUMP JUMPDEST DUP6 DUP10 MSTORE DUP8 DUP10 KECCAK256 DUP7 SWAP6 SWAP1 SWAP4 SWAP3 SWAP2 AND DUP10 JUMPDEST DUP10 DUP3 DUP3 LT PUSH3 0x2EF JUMPI POP POP DUP5 GT PUSH3 0x2D5 JUMPI JUMPDEST POP POP POP DUP2 SHL ADD DUP2 SSTORE PUSH3 0x156 JUMP JUMPDEST ADD MLOAD PUSH1 0x0 NOT PUSH1 0xF8 DUP5 PUSH1 0x3 SHL AND SHR NOT AND SWAP1 SSTORE CODESIZE DUP1 DUP1 PUSH3 0x2C7 JUMP JUMPDEST DUP4 DUP6 ADD MLOAD DUP7 SSTORE DUP9 SWAP8 SWAP1 SWAP6 ADD SWAP5 SWAP4 DUP5 ADD SWAP4 ADD PUSH3 0x2B4 JUMP JUMPDEST SWAP1 SWAP2 SWAP3 SWAP4 POP DUP6 DUP10 MSTORE DUP8 DUP10 KECCAK256 DUP5 DUP1 DUP8 ADD PUSH1 0x5 SHR DUP3 ADD SWAP3 DUP11 DUP9 LT PUSH3 0x353 JUMPI JUMPDEST SWAP2 DUP8 SWAP7 DUP10 SWAP3 SWAP7 SWAP6 SWAP5 SWAP4 ADD PUSH1 0x5 SHR ADD SWAP2 JUMPDEST DUP3 DUP2 LT PUSH3 0x344 JUMPI POP POP PUSH3 0x12C JUMP JUMPDEST DUP12 DUP2 SSTORE DUP8 SWAP7 POP DUP9 SWAP2 ADD PUSH3 0x334 JUMP JUMPDEST SWAP3 POP DUP2 SWAP3 PUSH3 0x324 JUMP JUMPDEST PUSH4 0x4E487B71 PUSH1 0xE0 SHL DUP10 MSTORE PUSH1 0x22 PUSH1 0x4 MSTORE PUSH1 0x24 DUP10 REVERT JUMPDEST SWAP1 PUSH1 0x7F AND SWAP1 PUSH3 0x115 JUMP JUMPDEST PUSH4 0x4E487B71 PUSH1 0xE0 SHL DUP9 MSTORE PUSH1 0x41 PUSH1 0x4 MSTORE PUSH1 0x24 DUP9 REVERT JUMPDEST ADD MLOAD SWAP1 POP CODESIZE DUP1 PUSH3 0xE6 JUMP JUMPDEST SWAP1 DUP7 DUP9 SWAP5 AND SWAP2 DUP12 DUP1 MSTORE DUP11 DUP13 KECCAK256 SWAP3 DUP13 JUMPDEST DUP13 DUP3 DUP3 LT PUSH3 0x3E6 JUMPI POP POP DUP5 GT PUSH3 0x3CC JUMPI JUMPDEST POP POP POP DUP2 SHL ADD DUP8 SSTORE PUSH3 0xFA JUMP JUMPDEST ADD MLOAD PUSH1 0x0 NOT PUSH1 0xF8 DUP5 PUSH1 0x3 SHL AND SHR NOT AND SWAP1 SSTORE CODESIZE DUP1 DUP1 PUSH3 0x3BE JUMP JUMPDEST DUP4 DUP6 ADD MLOAD DUP7 SSTORE DUP12 SWAP8 SWAP1 SWAP6 ADD SWAP5 SWAP4 DUP5 ADD SWAP4 ADD PUSH3 0x3AB JUMP JUMPDEST SWAP1 SWAP2 POP DUP10 DUP1 MSTORE DUP9 DUP11 KECCAK256 DUP6 DUP1 DUP6 ADD PUSH1 0x5 SHR DUP3 ADD SWAP3 DUP12 DUP7 LT PUSH3 0x446 JUMPI JUMPDEST SWAP2 DUP10 SWAP2 DUP7 SWAP6 SWAP5 SWAP4 ADD PUSH1 0x5 SHR ADD SWAP2 JUMPDEST DUP3 DUP2 LT PUSH3 0x437 JUMPI POP POP PUSH3 0xD0 JUMP JUMPDEST DUP13 DUP2 SSTORE DUP6 SWAP5 POP DUP10 SWAP2 ADD PUSH3 0x427 JUMP JUMPDEST SWAP3 POP DUP2 SWAP3 PUSH3 0x419 JUMP JUMPDEST PUSH4 0x4E487B71 PUSH1 0xE0 SHL DUP11 MSTORE PUSH1 0x22 PUSH1 0x4 MSTORE PUSH1 0x24 DUP11 REVERT JUMPDEST SWAP1 PUSH1 0x7F AND SWAP1 PUSH3 0xBB JUMP JUMPDEST PUSH4 0x4E487B71 PUSH1 0xE0 SHL PUSH1 0x0 MSTORE PUSH1 0x41 PUSH1 0x4 MSTORE PUSH1 0x24 PUSH1 0x0 REVERT JUMPDEST PUSH1 0x0 DUP1 REVERT JUMPDEST PUSH1 0x40 DUP1 MLOAD SWAP2 SWAP1 DUP3 ADD PUSH1 0x1 PUSH1 0x1 PUSH1 0x40 SHL SUB DUP2 GT DUP4 DUP3 LT OR PUSH3 0x46F JUMPI PUSH1 0x40 MSTORE JUMP INVALID PUSH1 0x80 PUSH1 0x40 DUP2 DUP2 MSTORE PUSH1 0x4 SWAP2 DUP3 CALLDATASIZE LT ISZERO PUSH2 0x16 JUMPI PUSH1 0x0 DUP1 REVERT JUMPDEST PUSH1 0x0 SWAP3 DUP4 CALLDATALOAD PUSH1 0xE0 SHR SWAP2 DUP3 PUSH4 0x1FFC9A7 EQ PUSH2 0x1471 JUMPI POP DUP2 PUSH4 0x4634D8D EQ PUSH2 0x12F5 JUMPI DUP2 PUSH4 0x6FDDE03 EQ PUSH2 0x1244 JUMPI DUP2 PUSH4 0x81812FC EQ PUSH2 0x1224 JUMPI DUP2 PUSH4 0x95EA7B3 EQ PUSH2 0x10B6 JUMPI DUP2 PUSH4 0x23B872DD EQ PUSH2 0x1091 JUMPI DUP2 PUSH4 0x248A9CA3 EQ PUSH2 0x1066 JUMPI DUP2 PUSH4 0x2A55205A EQ PUSH2 0xFAA JUMPI DUP2 PUSH4 0x2F2FF15D EQ PUSH2 0xEFD JUMPI DUP2 PUSH4 0x36568ABE EQ PUSH2 0xE6B JUMPI DUP2 PUSH4 0x42842E0E EQ PUSH2 0xE37 JUMPI DUP2 PUSH4 0x4DB6A334 EQ PUSH2 0xE13 JUMPI DUP2 PUSH4 0x55F804B3 EQ PUSH2 0xBDB JUMPI DUP2 PUSH4 0x6352211E EQ PUSH2 0xBAA JUMPI DUP2 PUSH4 0x70A08231 EQ PUSH2 0xB14 JUMPI DUP2 PUSH4 0x8E153859 EQ PUSH2 0xAC7 JUMPI DUP2 PUSH4 0x91D14854 EQ PUSH2 0xA80 JUMPI DUP2 PUSH4 0x95D89B41 EQ PUSH2 0x995 JUMPI DUP2 PUSH4 0xA217FDDF EQ PUSH2 0x97A JUMPI DUP2 PUSH4 0xA22CB465 EQ PUSH2 0x8AA JUMPI DUP2 PUSH4 0xB88D4FDE EQ PUSH2 0x824 JUMPI DUP2 PUSH4 0xC87B56DD EQ PUSH2 0x7EC JUMPI DUP2 PUSH4 0xD0DEF521 EQ PUSH2 0x29A JUMPI DUP2 PUSH4 0xD5391393 EQ PUSH2 0x25F JUMPI DUP2 PUSH4 0xD547741F EQ PUSH2 0x21C JUMPI POP DUP1 PUSH4 0xE7BC8208 EQ PUSH2 0x1CC JUMPI DUP1 PUSH4 0xE985E9C5 EQ PUSH2 0x17F JUMPI PUSH4 0xFB565BFD EQ PUSH2 0x159 JUMPI PUSH1 0x0 DUP1 REVERT JUMPDEST CALLVALUE PUSH2 0x17B JUMPI DUP2 PUSH1 0x3 NOT CALLDATASIZE ADD SLT PUSH2 0x17B JUMPI PUSH1 0x20 SWAP1 PUSH1 0xFF PUSH1 0xB SLOAD AND SWAP1 MLOAD SWAP1 ISZERO ISZERO DUP2 MSTORE RETURN JUMPDEST POP DUP1 REVERT JUMPDEST POP CALLVALUE PUSH2 0x17B JUMPI DUP1 PUSH1 0x3 NOT CALLDATASIZE ADD SLT PUSH2 0x17B JUMPI PUSH1 0xFF DUP2 PUSH1 0x20 SWAP4 PUSH2 0x19E PUSH2 0x152A JUMP JUMPDEST PUSH2 0x1A6 PUSH2 0x1545 JUMP JUMPDEST PUSH1 0x1 PUSH1 0x1 PUSH1 0xA0 SHL SUB SWAP2 DUP3 AND DUP4 MSTORE PUSH1 0x5 DUP8 MSTORE DUP4 DUP4 KECCAK256 SWAP2 AND DUP3 MSTORE DUP6 MSTORE KECCAK256 SLOAD SWAP2 MLOAD SWAP2 AND ISZERO ISZERO DUP2 MSTORE RETURN JUMPDEST DUP3 CALLVALUE PUSH2 0x219 JUMPI DUP1 PUSH1 0x3 NOT CALLDATASIZE ADD SLT PUSH2 0x219 JUMPI PUSH2 0x1E5 PUSH2 0x18C9 JUMP JUMPDEST PUSH1 0x1 PUSH1 0xFF NOT PUSH1 0xB SLOAD AND OR PUSH1 0xB SSTORE PUSH32 0xCB8EE1250825B65FB9F9DB82CF9039335DB3185B4258FA3F81453F21741B4251 DUP2 DUP1 LOG1 DUP1 RETURN JUMPDEST DUP1 REVERT JUMPDEST SWAP2 SWAP1 POP CALLVALUE PUSH2 0x25B JUMPI DUP1 PUSH1 0x3 NOT CALLDATASIZE ADD SLT PUSH2 0x25B JUMPI PUSH2 0x258 SWAP2 CALLDATALOAD PUSH2 0x253 PUSH1 0x1 PUSH2 0x241 PUSH2 0x1545 JUMP JUMPDEST SWAP4 DUP4 DUP8 MSTORE PUSH1 0x9 PUSH1 0x20 MSTORE DUP7 KECCAK256 ADD SLOAD PUSH2 0x1A97 JUMP JUMPDEST PUSH2 0x1D7C JUMP JUMPDEST DUP1 RETURN JUMPDEST DUP3 DUP1 REVERT JUMPDEST POP POP CALLVALUE PUSH2 0x17B JUMPI DUP2 PUSH1 0x3 NOT CALLDATASIZE ADD SLT PUSH2 0x17B JUMPI PUSH1 0x20 SWAP1 MLOAD PUSH32 0x9F2DF0FED2C77648DE5860A4CC508CD0818C85B8B8A1AB4CEEEF8D981C8956A6 DUP2 MSTORE RETURN JUMPDEST SWAP2 SWAP1 POP CALLVALUE PUSH2 0x25B JUMPI DUP1 PUSH1 0x3 NOT CALLDATASIZE ADD SLT PUSH2 0x25B JUMPI PUSH2 0x2B5 PUSH2 0x152A JUMP JUMPDEST SWAP2 PUSH1 0x24 PUSH8 0xFFFFFFFFFFFFFFFF DUP2 CALLDATALOAD DUP2 DUP2 GT PUSH2 0x7E8 JUMPI CALLDATASIZE PUSH1 0x23 DUP3 ADD SLT ISZERO PUSH2 0x7E8 JUMPI PUSH2 0x2E7 SWAP1 CALLDATASIZE SWAP1 DUP5 DUP2 DUP8 ADD CALLDATALOAD SWAP2 ADD PUSH2 0x1680 JUMP JUMPDEST SWAP2 PUSH32 0x9F2DF0FED2C77648DE5860A4CC508CD0818C85B8B8A1AB4CEEEF8D981C8956A6 SWAP7 DUP8 DUP2 MSTORE PUSH1 0x20 SWAP8 PUSH1 0x9 DUP10 MSTORE DUP7 DUP3 KECCAK256 CALLER DUP4 MSTORE DUP10 MSTORE PUSH1 0xFF DUP8 DUP4 KECCAK256 SLOAD AND ISZERO PUSH2 0x623 JUMPI POP PUSH1 0xA SLOAD SWAP7 PUSH1 0x0 NOT SWAP3 DUP4 DUP10 EQ PUSH2 0x612 JUMPI PUSH1 0x1 SWAP2 DUP3 DUP11 ADD PUSH1 0xA SSTORE DUP9 MLOAD SWAP1 PUSH2 0x34D DUP3 PUSH2 0x160A JUMP JUMPDEST DUP5 DUP3 MSTORE PUSH1 0x1 PUSH1 0x1 PUSH1 0xA0 SHL SUB DUP2 AND DUP1 ISZERO PUSH2 0x5D2 JUMPI SWAP2 DUP12 PUSH2 0x40B SWAP3 DUP2 DUP16 SWAP6 DUP15 PUSH1 0x2 PUSH2 0x410 SWAP9 PUSH2 0x398 PUSH2 0x392 DUP7 PUSH1 0x0 MSTORE PUSH1 0x2 PUSH1 0x20 MSTORE PUSH1 0x1 DUP1 PUSH1 0xA0 SHL SUB PUSH1 0x40 PUSH1 0x0 KECCAK256 SLOAD AND ISZERO ISZERO SWAP1 JUMP JUMPDEST ISZERO PUSH2 0x244D JUMP JUMPDEST PUSH1 0x0 DUP6 DUP2 MSTORE PUSH1 0x2 PUSH1 0x20 MSTORE PUSH1 0x40 SWAP1 KECCAK256 SLOAD PUSH2 0x3BB SWAP1 PUSH1 0x1 PUSH1 0x1 PUSH1 0xA0 SHL SUB AND ISZERO ISZERO PUSH2 0x392 JUMP JUMPDEST DUP4 DUP14 MSTORE PUSH1 0x3 DUP2 MSTORE DUP3 DUP14 KECCAK256 DUP1 SLOAD DUP14 ADD SWAP1 SSTORE DUP5 DUP14 MSTORE MSTORE DUP11 KECCAK256 DUP1 SLOAD PUSH1 0x1 PUSH1 0x1 PUSH1 0xA0 SHL SUB NOT AND DUP3 OR SWAP1 SSTORE DUP10 PUSH32 0xDDF252AD1BE2C89B69C2B068FC378DAA952BA7F163C4A11628F55A4DF523B3EF DUP2 DUP1 LOG4 PUSH2 0x2173 JUMP JUMPDEST PUSH2 0x1E45 JUMP JUMPDEST PUSH1 0x0 DUP10 DUP2 MSTORE PUSH1 0x2 PUSH1 0x20 MSTORE PUSH1 0x40 SWAP1 KECCAK256 SLOAD PUSH1 0x1 PUSH1 0x1 PUSH1 0xA0 SHL SUB AND ISZERO PUSH2 0x57A JUMPI DUP9 DUP4 MSTORE PUSH1 0x6 DUP11 MSTORE DUP8 DUP4 KECCAK256 SWAP7 DUP7 MLOAD SWAP6 DUP7 GT PUSH2 0x569 JUMPI POP POP PUSH2 0x44D DUP7 SLOAD PUSH2 0x16B7 JUMP JUMPDEST PUSH1 0x1F DUP2 GT PUSH2 0x523 JUMPI JUMPDEST POP DUP9 SWAP3 PUSH1 0x1F DUP6 GT PUSH1 0x1 EQ PUSH2 0x4C2 JUMPI POP POP SWAP1 PUSH2 0x486 SWAP4 DUP4 PUSH2 0x4B7 JUMPI JUMPDEST POP POP DUP2 PUSH1 0x1 SHL SWAP2 PUSH1 0x0 NOT SWAP1 PUSH1 0x3 SHL SHR NOT AND OR SWAP1 JUMP JUMPDEST SWAP1 SSTORE JUMPDEST PUSH32 0xF8E1A15ABA9398E019F0B49DF1A4FDE98EE17AE345CB5F6B5E2C27F5033E8CE7 DUP4 DUP3 MLOAD DUP5 DUP2 MSTORE LOG1 MLOAD SWAP1 DUP2 MSTORE RETURN JUMPDEST ADD MLOAD SWAP1 POP CODESIZE DUP1 PUSH2 0x471 JUMP JUMPDEST SWAP2 SWAP3 SWAP1 SWAP5 DUP5 PUSH1 0x1F NOT DUP2 AND DUP9 DUP7 MSTORE DUP12 DUP7 KECCAK256 SWAP6 JUMPDEST DUP13 DUP10 DUP4 DUP4 LT PUSH2 0x50C JUMPI POP POP POP LT PUSH2 0x4F4 JUMPI JUMPDEST POP POP POP POP DUP2 SHL ADD SWAP1 SSTORE PUSH2 0x489 JUMP JUMPDEST ADD MLOAD SWAP1 PUSH1 0xF8 DUP5 PUSH1 0x3 SHL AND SHR NOT AND SWAP1 SSTORE CODESIZE DUP1 DUP1 DUP1 PUSH2 0x4E6 JUMP JUMPDEST DUP7 DUP7 ADD MLOAD DUP10 SSTORE SWAP1 SWAP8 ADD SWAP7 SWAP5 DUP6 ADD SWAP5 DUP9 SWAP4 POP ADD PUSH2 0x4D4 JUMP JUMPDEST DUP7 DUP4 MSTORE DUP10 DUP4 KECCAK256 PUSH1 0x1F DUP7 ADD PUSH1 0x5 SHR DUP2 ADD SWAP2 DUP12 DUP8 LT PUSH2 0x55F JUMPI JUMPDEST PUSH1 0x1F ADD PUSH1 0x5 SHR ADD SWAP1 DUP3 SWAP1 JUMPDEST DUP3 DUP2 LT PUSH2 0x554 JUMPI POP POP PUSH2 0x456 JUMP JUMPDEST DUP5 DUP2 SSTORE ADD DUP3 SWAP1 PUSH2 0x546 JUMP JUMPDEST SWAP1 SWAP2 POP DUP2 SWAP1 PUSH2 0x53B JUMP JUMPDEST PUSH4 0x4E487B71 PUSH1 0xE0 SHL DUP5 MSTORE PUSH1 0x41 SWAP1 MSTORE DUP3 REVERT JUMPDEST DUP7 PUSH1 0x2E PUSH1 0x84 SWAP3 DUP13 DUP12 MLOAD SWAP4 PUSH3 0x461BCD PUSH1 0xE5 SHL DUP6 MSTORE DUP5 ADD MSTORE DUP3 ADD MSTORE PUSH32 0x45524337323155524953746F726167653A2055524920736574206F66206E6F6E PUSH1 0x44 DUP3 ADD MSTORE PUSH14 0x32BC34B9BA32B73A103A37B5B2B7 PUSH1 0x91 SHL PUSH1 0x64 DUP3 ADD MSTORE REVERT JUMPDEST PUSH1 0x64 DUP11 DUP15 DUP7 DUP2 DUP16 MLOAD SWAP4 PUSH3 0x461BCD PUSH1 0xE5 SHL DUP6 MSTORE DUP5 ADD MSTORE DUP3 ADD MSTORE PUSH32 0x4552433732313A206D696E7420746F20746865207A65726F2061646472657373 PUSH1 0x44 DUP3 ADD MSTORE REVERT JUMPDEST PUSH4 0x4E487B71 PUSH1 0xE0 SHL DUP4 MSTORE PUSH1 0x11 DUP8 MSTORE DUP3 REVERT JUMPDEST SWAP2 DUP7 DUP10 SWAP4 DUP8 SWAP4 PUSH2 0x632 CALLER PUSH2 0x233D JUMP JUMPDEST SWAP2 DUP4 MLOAD SWAP1 PUSH2 0x63F DUP3 PUSH2 0x1626 JUMP JUMPDEST PUSH1 0x42 DUP3 MSTORE DUP8 DUP3 ADD SWAP3 PUSH1 0x60 CALLDATASIZE DUP6 CALLDATACOPY DUP3 MLOAD ISZERO PUSH2 0x7D6 JUMPI PUSH1 0x30 DUP5 MSTORE8 DUP3 MLOAD SWAP1 PUSH1 0x1 SWAP2 PUSH1 0x1 LT ISZERO PUSH2 0x7C4 JUMPI SWAP1 PUSH1 0x78 PUSH1 0x21 DUP6 ADD MSTORE8 PUSH1 0x41 SWAP2 JUMPDEST DUP2 DUP4 GT PUSH2 0x75B JUMPI POP POP POP PUSH2 0x71B JUMPI PUSH1 0x48 PUSH2 0x717 SWAP6 SWAP4 DUP6 SWAP4 PUSH2 0x6FF SWAP4 PUSH2 0x6F0 SWAP8 MLOAD SWAP8 DUP9 SWAP4 PUSH23 0x20B1B1B2B9B9A1B7B73A3937B61D1030B1B1B7BAB73A1 PUSH1 0x4D SHL DUP14 DUP7 ADD MSTORE PUSH2 0x6C7 DUP14 DUP3 MLOAD SWAP3 DUP4 SWAP2 PUSH1 0x37 DUP10 ADD SWAP2 ADD PUSH2 0x155B JUMP JUMPDEST DUP5 ADD SWAP2 PUSH17 0x1034B99036B4B9B9B4B733903937B6329 PUSH1 0x7D SHL PUSH1 0x37 DUP5 ADD MSTORE MLOAD DUP1 SWAP4 DUP7 DUP5 ADD SWAP1 PUSH2 0x155B JUMP JUMPDEST ADD SUB PUSH1 0x28 DUP2 ADD DUP7 MSTORE ADD DUP5 PUSH2 0x1642 JUMP JUMPDEST MLOAD SWAP5 DUP6 SWAP5 PUSH3 0x461BCD PUSH1 0xE5 SHL DUP7 MSTORE DUP6 ADD MSTORE DUP4 ADD SWAP1 PUSH2 0x157E JUMP JUMPDEST SUB SWAP1 REVERT JUMPDEST PUSH1 0x64 DUP7 DUP9 DUP8 DUP2 DUP9 MLOAD SWAP4 PUSH3 0x461BCD PUSH1 0xE5 SHL DUP6 MSTORE DUP5 ADD MSTORE DUP3 ADD MSTORE PUSH32 0x537472696E67733A20686578206C656E67746820696E73756666696369656E74 PUSH1 0x44 DUP3 ADD MSTORE REVERT JUMPDEST SWAP1 SWAP2 SWAP3 PUSH1 0xF DUP2 AND PUSH1 0x10 DUP2 LT ISZERO PUSH2 0x7B2 JUMPI PUSH16 0x181899199A1A9B1B9C1CB0B131B232B3 PUSH1 0x81 SHL SWAP1 BYTE PUSH2 0x78B DUP6 DUP8 PUSH2 0x2316 JUMP JUMPDEST MSTORE8 DUP10 SHR SWAP3 DUP1 ISZERO PUSH2 0x7A0 JUMPI PUSH1 0x0 NOT ADD SWAP2 SWAP1 PUSH2 0x671 JUMP JUMPDEST PUSH4 0x4E487B71 PUSH1 0xE0 SHL DUP3 MSTORE PUSH1 0x11 DUP11 MSTORE DUP9 DUP3 REVERT JUMPDEST PUSH4 0x4E487B71 PUSH1 0xE0 SHL DUP4 MSTORE PUSH1 0x32 DUP12 MSTORE DUP10 DUP4 REVERT JUMPDEST PUSH4 0x4E487B71 PUSH1 0xE0 SHL DUP2 MSTORE PUSH1 0x32 DUP10 MSTORE DUP8 SWAP1 REVERT JUMPDEST PUSH4 0x4E487B71 PUSH1 0xE0 SHL DUP2 MSTORE PUSH1 0x32 DUP9 MSTORE DUP7 SWAP1 REVERT JUMPDEST DUP7 DUP1 REVERT JUMPDEST DUP3 DUP5 CALLVALUE PUSH2 0x219 JUMPI PUSH1 0x20 CALLDATASIZE PUSH1 0x3 NOT ADD SLT PUSH2 0x219 JUMPI POP PUSH2 0x80D PUSH2 0x820 SWAP3 CALLDATALOAD PUSH2 0x1E65 JUMP JUMPDEST SWAP1 MLOAD SWAP2 DUP3 SWAP2 PUSH1 0x20 DUP4 MSTORE PUSH1 0x20 DUP4 ADD SWAP1 PUSH2 0x157E JUMP JUMPDEST SUB SWAP1 RETURN JUMPDEST DUP4 SWAP1 CALLVALUE PUSH2 0x17B JUMPI PUSH1 0x80 CALLDATASIZE PUSH1 0x3 NOT ADD SLT PUSH2 0x17B JUMPI PUSH2 0x83F PUSH2 0x152A JUMP JUMPDEST SWAP1 PUSH2 0x848 PUSH2 0x1545 JUMP JUMPDEST SWAP2 PUSH1 0x44 CALLDATALOAD PUSH1 0x64 CALLDATALOAD SWAP4 PUSH8 0xFFFFFFFFFFFFFFFF DUP6 GT PUSH2 0x8A6 JUMPI CALLDATASIZE PUSH1 0x23 DUP7 ADD SLT ISZERO PUSH2 0x8A6 JUMPI PUSH2 0x883 PUSH2 0x40B SWAP5 DUP7 PUSH1 0x24 PUSH2 0x258 SWAP9 CALLDATASIZE SWAP4 ADD CALLDATALOAD SWAP2 ADD PUSH2 0x1680 JUMP JUMPDEST SWAP3 PUSH2 0x896 PUSH2 0x891 DUP5 CALLER PUSH2 0x1BA3 JUMP JUMPDEST PUSH2 0x17F5 JUMP JUMPDEST PUSH2 0x8A1 DUP4 DUP4 DUP4 PUSH2 0x1C6B JUMP JUMPDEST PUSH2 0x228D JUMP JUMPDEST DUP6 DUP1 REVERT JUMPDEST SWAP2 SWAP1 POP CALLVALUE PUSH2 0x25B JUMPI DUP1 PUSH1 0x3 NOT CALLDATASIZE ADD SLT PUSH2 0x25B JUMPI PUSH2 0x8C5 PUSH2 0x152A JUMP JUMPDEST SWAP1 PUSH1 0x24 CALLDATALOAD SWAP2 DUP3 ISZERO ISZERO DUP1 SWAP4 SUB PUSH2 0x976 JUMPI PUSH1 0x1 PUSH1 0x1 PUSH1 0xA0 SHL SUB AND SWAP3 CALLER DUP5 EQ PUSH2 0x934 JUMPI POP CALLER DUP5 MSTORE PUSH1 0x5 PUSH1 0x20 MSTORE DUP1 DUP5 KECCAK256 DUP4 DUP6 MSTORE PUSH1 0x20 MSTORE DUP1 DUP5 KECCAK256 PUSH1 0xFF NOT DUP2 SLOAD AND PUSH1 0xFF DUP5 AND OR SWAP1 SSTORE MLOAD SWAP1 DUP2 MSTORE PUSH32 0x17307EAB39AB6107E8899845AD3D59BD9653F200F220920489CA2B5937696C31 PUSH1 0x20 CALLER SWAP3 LOG3 DUP1 RETURN JUMPDEST PUSH1 0x20 PUSH1 0x64 SWAP3 MLOAD SWAP2 PUSH3 0x461BCD PUSH1 0xE5 SHL DUP4 MSTORE DUP3 ADD MSTORE PUSH1 0x19 PUSH1 0x24 DUP3 ADD MSTORE PUSH32 0x4552433732313A20617070726F766520746F2063616C6C657200000000000000 PUSH1 0x44 DUP3 ADD MSTORE REVERT JUMPDEST DUP5 DUP1 REVERT JUMPDEST POP POP CALLVALUE PUSH2 0x17B JUMPI DUP2 PUSH1 0x3 NOT CALLDATASIZE ADD SLT PUSH2 0x17B JUMPI MLOAD SWAP1 DUP2 MSTORE PUSH1 0x20 SWAP1 RETURN JUMPDEST DUP3 DUP5 CALLVALUE PUSH2 0x219 JUMPI DUP1 PUSH1 0x3 NOT CALLDATASIZE ADD SLT PUSH2 0x219 JUMPI DUP2 MLOAD SWAP2 DUP3 DUP3 PUSH1 0x1 SWAP4 PUSH1 0x1 SLOAD SWAP5 PUSH2 0x9BC DUP7 PUSH2 0x16B7 JUMP JUMPDEST SWAP2 DUP3 DUP6 MSTORE PUSH1 0x20 SWAP7 DUP8 PUSH1 0x1 DUP3 AND SWAP2 DUP3 PUSH1 0x0 EQ PUSH2 0xA59 JUMPI POP POP PUSH1 0x1 EQ PUSH2 0x9FD JUMPI JUMPDEST POP POP POP PUSH2 0x820 SWAP3 SWAP2 PUSH2 0x9EE SWAP2 SUB DUP6 PUSH2 0x1642 JUMP JUMPDEST MLOAD SWAP3 DUP3 DUP5 SWAP4 DUP5 MSTORE DUP4 ADD SWAP1 PUSH2 0x157E JUMP JUMPDEST SWAP2 SWAP1 DUP7 SWAP4 POP PUSH1 0x1 DUP4 MSTORE PUSH32 0xB10E2D527612073B26EECDFD717E6A320CF44B4AFAC2B0732D9FCBE2B7FA0CF6 JUMPDEST DUP3 DUP5 LT PUSH2 0xA41 JUMPI POP POP POP DUP3 ADD ADD DUP2 PUSH2 0x9EE PUSH2 0x820 PUSH2 0x9DB JUMP JUMPDEST DUP1 SLOAD DUP5 DUP11 ADD DUP7 ADD MSTORE DUP9 SWAP6 POP DUP8 SWAP5 SWAP1 SWAP4 ADD SWAP3 DUP2 ADD PUSH2 0xA28 JUMP JUMPDEST PUSH1 0xFF NOT AND DUP8 DUP3 ADD MSTORE SWAP4 ISZERO ISZERO PUSH1 0x5 SHL DUP7 ADD SWAP1 SWAP4 ADD SWAP4 POP DUP5 SWAP3 POP PUSH2 0x9EE SWAP2 POP PUSH2 0x820 SWAP1 POP PUSH2 0x9DB JUMP JUMPDEST SWAP1 POP CALLVALUE PUSH2 0x25B JUMPI DUP2 PUSH1 0x3 NOT CALLDATASIZE ADD SLT PUSH2 0x25B JUMPI DUP2 PUSH1 0x20 SWAP4 PUSH1 0xFF SWAP3 PUSH2 0xAA1 PUSH2 0x1545 JUMP JUMPDEST SWAP1 CALLDATALOAD DUP3 MSTORE PUSH1 0x9 DUP7 MSTORE DUP3 DUP3 KECCAK256 PUSH1 0x1 PUSH1 0x1 PUSH1 0xA0 SHL SUB SWAP1 SWAP2 AND DUP3 MSTORE DUP6 MSTORE KECCAK256 SLOAD SWAP2 MLOAD SWAP2 AND ISZERO ISZERO DUP2 MSTORE RETURN JUMPDEST DUP4 CALLVALUE PUSH2 0x219 JUMPI DUP1 PUSH1 0x3 NOT CALLDATASIZE ADD SLT PUSH2 0x219 JUMPI PUSH2 0xAE0 PUSH2 0x18C9 JUMP JUMPDEST PUSH1 0x1 PUSH1 0xFF NOT PUSH1 0xD SLOAD AND OR PUSH1 0xD SSTORE PUSH32 0x10EEA802BFC159E62A10401715430FFB6D4E6CCB3CF1E933728E0607BE959472 DUP2 DUP1 LOG1 DUP1 RETURN JUMPDEST DUP4 SWAP2 POP CALLVALUE PUSH2 0x17B JUMPI PUSH1 0x20 CALLDATASIZE PUSH1 0x3 NOT ADD SLT PUSH2 0x17B JUMPI PUSH1 0x1 PUSH1 0x1 PUSH1 0xA0 SHL SUB PUSH2 0xB38 PUSH2 0x152A JUMP JUMPDEST AND SWAP1 DUP2 ISZERO PUSH2 0xB55 JUMPI PUSH1 0x20 DUP5 DUP1 DUP6 DUP6 DUP2 MSTORE PUSH1 0x3 DUP5 MSTORE KECCAK256 SLOAD SWAP1 MLOAD SWAP1 DUP2 MSTORE RETURN JUMPDEST PUSH1 0x84 SWAP1 PUSH1 0x20 DUP6 MLOAD SWAP2 PUSH3 0x461BCD PUSH1 0xE5 SHL DUP4 MSTORE DUP3 ADD MSTORE PUSH1 0x29 PUSH1 0x24 DUP3 ADD MSTORE PUSH32 0x4552433732313A2061646472657373207A65726F206973206E6F742061207661 PUSH1 0x44 DUP3 ADD MSTORE PUSH9 0x3634B21037BBB732B9 PUSH1 0xB9 SHL PUSH1 0x64 DUP3 ADD MSTORE REVERT JUMPDEST DUP3 DUP5 CALLVALUE PUSH2 0x219 JUMPI PUSH1 0x20 CALLDATASIZE PUSH1 0x3 NOT ADD SLT PUSH2 0x219 JUMPI POP PUSH2 0xBCA PUSH1 0x20 SWAP3 CALLDATALOAD PUSH2 0x18A3 JUMP JUMPDEST SWAP1 MLOAD PUSH1 0x1 PUSH1 0x1 PUSH1 0xA0 SHL SUB SWAP1 SWAP2 AND DUP2 MSTORE RETURN JUMPDEST DUP4 SWAP2 POP CALLVALUE PUSH2 0x17B JUMPI PUSH1 0x20 SWAP3 DUP4 PUSH1 0x3 NOT CALLDATASIZE ADD SLT PUSH2 0x25B JUMPI DUP2 CALLDATALOAD SWAP4 PUSH8 0xFFFFFFFFFFFFFFFF SWAP3 DUP4 DUP7 GT PUSH2 0x976 JUMPI CALLDATASIZE PUSH1 0x23 DUP8 ADD SLT ISZERO PUSH2 0x976 JUMPI DUP6 DUP2 ADD CALLDATALOAD SWAP4 DUP5 GT PUSH2 0x976 JUMPI PUSH1 0x24 SWAP1 CALLDATASIZE DUP3 DUP7 DUP10 ADD ADD GT PUSH2 0x8A6 JUMPI PUSH2 0xC31 PUSH2 0x18C9 JUMP JUMPDEST PUSH1 0xFF PUSH1 0xB SLOAD AND PUSH2 0xDEA JUMPI POP PUSH2 0xC47 PUSH1 0xC SLOAD PUSH2 0x16B7 JUMP JUMPDEST PUSH1 0x1F DUP2 GT PUSH2 0xD88 JUMPI JUMPDEST POP DUP5 PUSH1 0x1F DUP6 GT PUSH1 0x1 EQ PUSH2 0xCDE JUMPI DUP2 DUP7 SWAP8 PUSH2 0xCA5 DUP8 DUP1 DUP1 SWAP7 DUP2 SWAP7 PUSH32 0xF9C7803E94E0D3C02900D8A90893A6D5E90DD04D32A4CFE825520F82BF9F32F6 SWAP13 SWAP3 PUSH2 0xCD1 JUMPI POP POP DUP2 PUSH1 0x1 SHL SWAP2 PUSH1 0x0 NOT SWAP1 PUSH1 0x3 SHL SHR NOT AND OR SWAP1 JUMP JUMPDEST PUSH1 0xC SSTORE JUMPDEST DUP6 MLOAD SWAP7 DUP6 DUP9 SWAP7 DUP8 MSTORE DUP7 ADD MSTORE ADD DUP5 DUP5 ADD CALLDATACOPY DUP2 DUP2 ADD DUP4 ADD DUP7 SWAP1 MSTORE PUSH1 0x1F ADD PUSH1 0x1F NOT AND DUP2 ADD SUB ADD SWAP1 LOG1 DUP1 RETURN JUMPDEST DUP6 ADD ADD CALLDATALOAD SWAP1 POP DUP5 DUP14 PUSH2 0x471 JUMP JUMPDEST PUSH1 0xC DUP7 MSTORE SWAP6 PUSH32 0xDF6966C971051C3D54EC59162606531493A51404A002842F56009D7E5CF4A8C7 PUSH1 0x1F NOT DUP7 AND DUP8 JUMPDEST DUP2 DUP2 LT PUSH2 0xD6F JUMPI POP SWAP2 DUP7 SWAP4 SWAP2 PUSH32 0xF9C7803E94E0D3C02900D8A90893A6D5E90DD04D32A4CFE825520F82BF9F32F6 SWAP9 SWAP10 DUP6 DUP1 SWAP6 LT PUSH2 0xD53 JUMPI JUMPDEST POP POP PUSH1 0x1 DUP4 DUP2 SHL ADD PUSH1 0xC SSTORE PUSH2 0xCA9 JUMP JUMPDEST DUP3 ADD DUP4 ADD CALLDATALOAD PUSH1 0x0 NOT PUSH1 0x3 DUP7 SWAP1 SHL PUSH1 0xF8 AND SHR NOT AND SWAP1 SSTORE DUP10 DUP1 PUSH2 0xD43 JUMP JUMPDEST DUP4 DUP11 ADD DUP6 ADD CALLDATALOAD DUP4 SSTORE SWAP9 DUP6 ADD SWAP9 PUSH1 0x1 SWAP1 SWAP3 ADD SWAP2 DUP6 ADD PUSH2 0xD0B JUMP JUMPDEST PUSH1 0xC DUP7 MSTORE PUSH32 0xDF6966C971051C3D54EC59162606531493A51404A002842F56009D7E5CF4A8C7 PUSH1 0x1F DUP7 ADD PUSH1 0x5 SHR DUP2 ADD SWAP2 DUP5 DUP8 LT PUSH2 0xDE0 JUMPI JUMPDEST PUSH1 0x1F ADD PUSH1 0x5 SHR ADD SWAP1 JUMPDEST DUP2 DUP2 LT PUSH2 0xDD5 JUMPI POP PUSH2 0xC50 JUMP JUMPDEST DUP7 DUP2 SSTORE PUSH1 0x1 ADD PUSH2 0xDC8 JUMP JUMPDEST SWAP1 SWAP2 POP DUP2 SWAP1 PUSH2 0xDBF JUMP JUMPDEST PUSH1 0x6 PUSH1 0x64 SWAP3 DUP5 DUP7 MLOAD SWAP4 PUSH3 0x461BCD PUSH1 0xE5 SHL DUP6 MSTORE DUP5 ADD MSTORE DUP3 ADD MSTORE PUSH6 0x333937BD32B7 PUSH1 0xD1 SHL PUSH1 0x44 DUP3 ADD MSTORE REVERT JUMPDEST POP POP CALLVALUE PUSH2 0x17B JUMPI DUP2 PUSH1 0x3 NOT CALLDATASIZE ADD SLT PUSH2 0x17B JUMPI PUSH1 0x20 SWAP1 PUSH1 0xFF PUSH1 0xD SLOAD AND SWAP1 MLOAD SWAP1 ISZERO ISZERO DUP2 MSTORE RETURN JUMPDEST POP POP CALLVALUE PUSH2 0x17B JUMPI PUSH2 0x40B PUSH2 0x258 SWAP2 PUSH2 0xE4E CALLDATASIZE PUSH2 0x15A3 JUMP JUMPDEST SWAP2 SWAP3 MLOAD SWAP3 PUSH2 0xE5B DUP5 PUSH2 0x160A JUMP JUMPDEST DUP7 DUP5 MSTORE PUSH2 0x896 PUSH2 0x891 DUP5 CALLER PUSH2 0x1BA3 JUMP JUMPDEST DUP4 SWAP2 POP CALLVALUE PUSH2 0x17B JUMPI DUP3 PUSH1 0x3 NOT CALLDATASIZE ADD SLT PUSH2 0x17B JUMPI PUSH2 0xE86 PUSH2 0x1545 JUMP JUMPDEST SWAP1 CALLER PUSH1 0x1 PUSH1 0x1 PUSH1 0xA0 SHL SUB DUP4 AND SUB PUSH2 0xEA2 JUMPI SWAP1 PUSH2 0x258 SWAP2 CALLDATALOAD PUSH2 0x1D7C JUMP JUMPDEST PUSH1 0x84 SWAP1 PUSH1 0x20 DUP6 MLOAD SWAP2 PUSH3 0x461BCD PUSH1 0xE5 SHL DUP4 MSTORE DUP3 ADD MSTORE PUSH1 0x2F PUSH1 0x24 DUP3 ADD MSTORE PUSH32 0x416363657373436F6E74726F6C3A2063616E206F6E6C792072656E6F756E6365 PUSH1 0x44 DUP3 ADD MSTORE PUSH15 0x103937B632B9903337B91039B2B633 PUSH1 0x89 SHL PUSH1 0x64 DUP3 ADD MSTORE REVERT JUMPDEST SWAP1 POP CALLVALUE PUSH2 0x25B JUMPI DUP2 PUSH1 0x3 NOT CALLDATASIZE ADD SLT PUSH2 0x25B JUMPI CALLDATALOAD SWAP1 PUSH2 0xF19 PUSH2 0x1545 JUMP JUMPDEST SWAP1 DUP3 DUP5 MSTORE PUSH1 0x9 PUSH1 0x20 MSTORE PUSH2 0xF31 PUSH1 0x1 DUP3 DUP7 KECCAK256 ADD SLOAD PUSH2 0x1A97 JUMP JUMPDEST DUP3 DUP5 MSTORE PUSH1 0x9 PUSH1 0x20 SWAP1 DUP2 MSTORE DUP2 DUP6 KECCAK256 PUSH1 0x1 PUSH1 0x1 PUSH1 0xA0 SHL SUB SWAP1 SWAP4 AND DUP1 DUP7 MSTORE SWAP3 SWAP1 MSTORE DUP1 DUP5 KECCAK256 SLOAD PUSH1 0xFF AND ISZERO PUSH2 0xF5F JUMPI DUP4 DUP1 RETURN JUMPDEST DUP3 DUP5 MSTORE PUSH1 0x9 PUSH1 0x20 MSTORE DUP1 DUP5 KECCAK256 DUP3 DUP6 MSTORE PUSH1 0x20 MSTORE DUP4 KECCAK256 PUSH1 0x1 PUSH1 0xFF NOT DUP3 SLOAD AND OR SWAP1 SSTORE CALLER SWAP2 PUSH32 0x2F8788117E7EFF1D82E926EC794901D17C78024A50270940304540A733656F0D DUP5 DUP1 LOG4 CODESIZE DUP1 DUP1 DUP4 DUP1 RETURN JUMPDEST DUP3 DUP5 CALLVALUE PUSH2 0x219 JUMPI DUP2 PUSH1 0x3 NOT CALLDATASIZE ADD SLT PUSH2 0x219 JUMPI PUSH1 0x24 CALLDATALOAD SWAP1 DUP4 CALLDATALOAD DUP2 MSTORE PUSH1 0x8 PUSH1 0x20 MSTORE DUP3 DUP2 KECCAK256 SWAP1 DUP4 MLOAD SWAP2 PUSH2 0xFD9 DUP4 PUSH2 0x15D8 JUMP JUMPDEST SLOAD PUSH1 0x1 PUSH1 0x1 PUSH1 0xA0 SHL SUB DUP1 DUP3 AND DUP1 DUP6 MSTORE PUSH1 0xA0 SWAP3 SWAP1 SWAP3 SHR PUSH1 0x20 DUP6 ADD MSTORE SWAP3 SWAP2 SWAP1 ISZERO PUSH2 0x1043 JUMPI JUMPDEST PUSH1 0x1 PUSH1 0x1 PUSH1 0x60 SHL SUB PUSH1 0x20 DUP4 ADD MLOAD AND SWAP4 DUP5 DUP2 MUL SWAP5 DUP2 DUP7 DIV EQ SWAP1 ISZERO OR ISZERO PUSH2 0x1030 JUMPI POP MLOAD DUP4 MLOAD SWAP2 AND DUP2 MSTORE PUSH2 0x2710 SWAP1 SWAP2 DIV PUSH1 0x20 DUP3 ADD MSTORE RETURN JUMPDEST PUSH4 0x4E487B71 PUSH1 0xE0 SHL DUP2 MSTORE PUSH1 0x11 DUP7 MSTORE PUSH1 0x24 SWAP1 REVERT JUMPDEST SWAP1 POP DUP4 MLOAD PUSH2 0x1050 DUP2 PUSH2 0x15D8 JUMP JUMPDEST PUSH1 0x7 SLOAD DUP4 DUP2 AND DUP3 MSTORE PUSH1 0xA0 SHR PUSH1 0x20 DUP3 ADD MSTORE SWAP1 PUSH2 0xFFC JUMP JUMPDEST SWAP1 POP CALLVALUE PUSH2 0x25B JUMPI PUSH1 0x20 CALLDATASIZE PUSH1 0x3 NOT ADD SLT PUSH2 0x25B JUMPI DUP2 PUSH1 0x20 SWAP4 PUSH1 0x1 SWAP3 CALLDATALOAD DUP2 MSTORE PUSH1 0x9 DUP6 MSTORE KECCAK256 ADD SLOAD SWAP1 MLOAD SWAP1 DUP2 MSTORE RETURN JUMPDEST DUP4 CALLVALUE PUSH2 0x219 JUMPI PUSH2 0x258 PUSH2 0x10A3 CALLDATASIZE PUSH2 0x15A3 JUMP JUMPDEST SWAP2 PUSH2 0x10B1 PUSH2 0x891 DUP5 CALLER PUSH2 0x1BA3 JUMP JUMPDEST PUSH2 0x1C6B JUMP JUMPDEST SWAP1 POP CALLVALUE PUSH2 0x25B JUMPI DUP2 PUSH1 0x3 NOT CALLDATASIZE ADD SLT PUSH2 0x25B JUMPI PUSH2 0x10D0 PUSH2 0x152A JUMP JUMPDEST PUSH1 0x24 CALLDATALOAD SWAP3 SWAP1 SWAP2 PUSH1 0x1 PUSH1 0x1 PUSH1 0xA0 SHL SUB SWAP2 SWAP1 DUP3 DUP1 PUSH2 0x10EB DUP8 PUSH2 0x18A3 JUMP JUMPDEST AND SWAP5 AND SWAP4 DUP1 DUP6 EQ PUSH2 0x11D7 JUMPI DUP1 CALLER EQ SWAP1 DUP2 ISZERO PUSH2 0x11B8 JUMPI JUMPDEST POP ISZERO PUSH2 0x1150 JUMPI DUP5 DUP7 MSTORE PUSH1 0x20 MSTORE DUP5 KECCAK256 DUP1 SLOAD PUSH1 0x1 PUSH1 0x1 PUSH1 0xA0 SHL SUB NOT AND DUP4 OR SWAP1 SSTORE PUSH2 0x1128 DUP4 PUSH2 0x18A3 JUMP JUMPDEST AND PUSH32 0x8C5BE1E5EBEC7D5BD14F71427D1E84F3DD0314C0F7B2291E5B200AC8C7C3B925 DUP5 DUP1 LOG4 DUP1 RETURN JUMPDEST PUSH1 0x20 PUSH1 0x84 SWAP3 MLOAD SWAP2 PUSH3 0x461BCD PUSH1 0xE5 SHL DUP4 MSTORE DUP3 ADD MSTORE PUSH1 0x3D PUSH1 0x24 DUP3 ADD MSTORE PUSH32 0x4552433732313A20617070726F76652063616C6C6572206973206E6F7420746F PUSH1 0x44 DUP3 ADD MSTORE PUSH32 0x6B656E206F776E6572206F7220617070726F76656420666F7220616C6C000000 PUSH1 0x64 DUP3 ADD MSTORE REVERT JUMPDEST SWAP1 POP DUP7 MSTORE PUSH1 0x5 PUSH1 0x20 MSTORE DUP2 DUP7 KECCAK256 CALLER DUP8 MSTORE PUSH1 0x20 MSTORE PUSH1 0xFF DUP3 DUP8 KECCAK256 SLOAD AND CODESIZE PUSH2 0x1101 JUMP JUMPDEST POP PUSH1 0x20 PUSH1 0x84 SWAP3 MLOAD SWAP2 PUSH3 0x461BCD PUSH1 0xE5 SHL DUP4 MSTORE DUP3 ADD MSTORE PUSH1 0x21 PUSH1 0x24 DUP3 ADD MSTORE PUSH32 0x4552433732313A20617070726F76616C20746F2063757272656E74206F776E65 PUSH1 0x44 DUP3 ADD MSTORE PUSH1 0x39 PUSH1 0xF9 SHL PUSH1 0x64 DUP3 ADD MSTORE REVERT JUMPDEST DUP3 DUP5 CALLVALUE PUSH2 0x219 JUMPI PUSH1 0x20 CALLDATASIZE PUSH1 0x3 NOT ADD SLT PUSH2 0x219 JUMPI POP PUSH2 0xBCA PUSH1 0x20 SWAP3 CALLDATALOAD PUSH2 0x17B7 JUMP JUMPDEST DUP3 DUP5 CALLVALUE PUSH2 0x219 JUMPI DUP1 PUSH1 0x3 NOT CALLDATASIZE ADD SLT PUSH2 0x219 JUMPI DUP2 MLOAD SWAP2 DUP3 DUP3 DUP4 SLOAD PUSH2 0x1266 DUP2 PUSH2 0x16B7 JUMP JUMPDEST SWAP1 DUP2 DUP5 MSTORE PUSH1 0x20 SWAP6 PUSH1 0x1 SWAP2 DUP8 PUSH1 0x1 DUP3 AND SWAP2 DUP3 PUSH1 0x0 EQ PUSH2 0xA59 JUMPI POP POP PUSH1 0x1 EQ PUSH2 0x129A JUMPI POP POP POP PUSH2 0x820 SWAP3 SWAP2 PUSH2 0x9EE SWAP2 SUB DUP6 PUSH2 0x1642 JUMP JUMPDEST SWAP2 SWAP1 DUP7 SWAP4 POP DUP3 DUP1 MSTORE PUSH32 0x290DECD9548B62A8D60345A988386FC84BA6BC95484008F6362F93160EF3E563 JUMPDEST DUP3 DUP5 LT PUSH2 0x12DD JUMPI POP POP POP DUP3 ADD ADD DUP2 PUSH2 0x9EE PUSH2 0x820 PUSH2 0x9DB JUMP JUMPDEST DUP1 SLOAD DUP5 DUP11 ADD DUP7 ADD MSTORE DUP9 SWAP6 POP DUP8 SWAP5 SWAP1 SWAP4 ADD SWAP3 DUP2 ADD PUSH2 0x12C4 JUMP JUMPDEST SWAP2 SWAP1 POP CALLVALUE PUSH2 0x25B JUMPI DUP1 PUSH1 0x3 NOT CALLDATASIZE ADD SLT PUSH2 0x25B JUMPI PUSH2 0x1310 PUSH2 0x152A JUMP JUMPDEST SWAP1 PUSH1 0x24 CALLDATALOAD PUSH1 0x1 PUSH1 0x1 PUSH1 0x60 SHL SUB DUP2 AND SWAP3 DUP4 DUP3 SUB PUSH2 0x8A6 JUMPI PUSH2 0x132E PUSH2 0x18C9 JUMP JUMPDEST PUSH1 0xFF PUSH1 0xD SLOAD AND PUSH2 0x143D JUMPI PUSH2 0x2710 DUP5 GT PUSH2 0x13E7 JUMPI PUSH1 0x1 PUSH1 0x1 PUSH1 0xA0 SHL SUB AND SWAP4 DUP5 ISZERO PUSH2 0x13A4 JUMPI POP SWAP2 DUP2 PUSH32 0x23813F5AD446622633CB58C75CEEF768A2111751B0F30477A63E06FCAEDCFF60 SWAP4 DUP3 PUSH1 0x20 DUP1 SWAP6 MLOAD PUSH2 0x1385 DUP2 PUSH2 0x15D8 JUMP JUMPDEST DUP9 DUP2 MSTORE ADD MSTORE PUSH1 0xA0 SHL PUSH1 0x1 PUSH1 0x1 PUSH1 0xA0 SHL SUB NOT AND DUP6 OR PUSH1 0x7 SSTORE MLOAD SWAP1 DUP2 MSTORE LOG2 DUP1 RETURN JUMPDEST PUSH1 0x64 SWAP1 PUSH1 0x20 DUP5 MLOAD SWAP2 PUSH3 0x461BCD PUSH1 0xE5 SHL DUP4 MSTORE DUP3 ADD MSTORE PUSH1 0x19 PUSH1 0x24 DUP3 ADD MSTORE PUSH32 0x455243323938313A20696E76616C696420726563656976657200000000000000 PUSH1 0x44 DUP3 ADD MSTORE REVERT JUMPDEST DUP3 MLOAD PUSH3 0x461BCD PUSH1 0xE5 SHL DUP2 MSTORE PUSH1 0x20 DUP2 DUP8 ADD MSTORE PUSH1 0x2A PUSH1 0x24 DUP3 ADD MSTORE PUSH32 0x455243323938313A20726F79616C7479206665652077696C6C20657863656564 PUSH1 0x44 DUP3 ADD MSTORE PUSH10 0x2073616C655072696365 PUSH1 0xB0 SHL PUSH1 0x64 DUP3 ADD MSTORE PUSH1 0x84 SWAP1 REVERT JUMPDEST DUP3 MLOAD PUSH3 0x461BCD PUSH1 0xE5 SHL DUP2 MSTORE PUSH1 0x20 DUP2 DUP8 ADD MSTORE PUSH1 0xE PUSH1 0x24 DUP3 ADD MSTORE PUSH14 0x3937BCB0B63A3C96B33937BD32B7 PUSH1 0x91 SHL PUSH1 0x44 DUP3 ADD MSTORE PUSH1 0x64 SWAP1 REVERT JUMPDEST DUP5 SWAP2 CALLVALUE PUSH2 0x25B JUMPI PUSH1 0x20 CALLDATASIZE PUSH1 0x3 NOT ADD SLT PUSH2 0x25B JUMPI CALLDATALOAD PUSH4 0xFFFFFFFF PUSH1 0xE0 SHL DUP2 AND DUP1 SWAP2 SUB PUSH2 0x25B JUMPI PUSH1 0x20 SWAP3 POP PUSH4 0x7965DB0B PUSH1 0xE0 SHL DUP2 EQ SWAP1 DUP2 ISZERO PUSH2 0x14B3 JUMPI JUMPDEST POP ISZERO ISZERO DUP2 MSTORE RETURN JUMPDEST PUSH4 0x152A902D PUSH1 0xE1 SHL DUP2 EQ SWAP2 POP DUP2 ISZERO PUSH2 0x14CD JUMPI JUMPDEST POP DUP4 PUSH2 0x14AC JUMP JUMPDEST PUSH4 0x24832483 PUSH1 0xE1 SHL DUP2 EQ SWAP2 POP DUP2 ISZERO PUSH2 0x14E7 JUMPI JUMPDEST POP DUP4 PUSH2 0x14C6 JUMP JUMPDEST PUSH4 0x80AC58CD PUSH1 0xE0 SHL DUP2 EQ SWAP2 POP DUP2 ISZERO PUSH2 0x1519 JUMPI JUMPDEST DUP2 ISZERO PUSH2 0x1508 JUMPI JUMPDEST POP DUP4 PUSH2 0x14E0 JUMP JUMPDEST PUSH4 0x1FFC9A7 PUSH1 0xE0 SHL EQ SWAP1 POP DUP4 PUSH2 0x1501 JUMP JUMPDEST PUSH4 0x5B5E139F PUSH1 0xE0 SHL DUP2 EQ SWAP2 POP PUSH2 0x14FA JUMP JUMPDEST PUSH1 0x4 CALLDATALOAD SWAP1 PUSH1 0x1 PUSH1 0x1 PUSH1 0xA0 SHL SUB DUP3 AND DUP3 SUB PUSH2 0x1540 JUMPI JUMP JUMPDEST PUSH1 0x0 DUP1 REVERT JUMPDEST PUSH1 0x24 CALLDATALOAD SWAP1 PUSH1 0x1 PUSH1 0x1 PUSH1 0xA0 SHL SUB DUP3 AND DUP3 SUB PUSH2 0x1540 JUMPI JUMP JUMPDEST PUSH1 0x0 JUMPDEST DUP4 DUP2 LT PUSH2 0x156E JUMPI POP POP PUSH1 0x0 SWAP2 ADD MSTORE JUMP JUMPDEST DUP2 DUP2 ADD MLOAD DUP4 DUP3 ADD MSTORE PUSH1 0x20 ADD PUSH2 0x155E JUMP JUMPDEST SWAP1 PUSH1 0x20 SWAP2 PUSH2 0x1597 DUP2 MLOAD DUP1 SWAP3 DUP2 DUP6 MSTORE DUP6 DUP1 DUP7 ADD SWAP2 ADD PUSH2 0x155B JUMP JUMPDEST PUSH1 0x1F ADD PUSH1 0x1F NOT AND ADD ADD SWAP1 JUMP JUMPDEST PUSH1 0x60 SWAP1 PUSH1 0x3 NOT ADD SLT PUSH2 0x1540 JUMPI PUSH1 0x1 PUSH1 0x1 PUSH1 0xA0 SHL SUB SWAP1 PUSH1 0x4 CALLDATALOAD DUP3 DUP2 AND DUP2 SUB PUSH2 0x1540 JUMPI SWAP2 PUSH1 0x24 CALLDATALOAD SWAP1 DUP2 AND DUP2 SUB PUSH2 0x1540 JUMPI SWAP1 PUSH1 0x44 CALLDATALOAD SWAP1 JUMP JUMPDEST PUSH1 0x40 DUP2 ADD SWAP1 DUP2 LT PUSH8 0xFFFFFFFFFFFFFFFF DUP3 GT OR PUSH2 0x15F4 JUMPI PUSH1 0x40 MSTORE JUMP JUMPDEST PUSH4 0x4E487B71 PUSH1 0xE0 SHL PUSH1 0x0 MSTORE PUSH1 0x41 PUSH1 0x4 MSTORE PUSH1 0x24 PUSH1 0x0 REVERT JUMPDEST PUSH1 0x20 DUP2 ADD SWAP1 DUP2 LT PUSH8 0xFFFFFFFFFFFFFFFF DUP3 GT OR PUSH2 0x15F4 JUMPI PUSH1 0x40 MSTORE JUMP JUMPDEST PUSH1 0x80 DUP2 ADD SWAP1 DUP2 LT PUSH8 0xFFFFFFFFFFFFFFFF DUP3 GT OR PUSH2 0x15F4 JUMPI PUSH1 0x40 MSTORE JUMP JUMPDEST SWAP1 PUSH1 0x1F DUP1 NOT SWAP2 ADD AND DUP2 ADD SWAP1 DUP2 LT PUSH8 0xFFFFFFFFFFFFFFFF DUP3 GT OR PUSH2 0x15F4 JUMPI PUSH1 0x40 MSTORE JUMP JUMPDEST PUSH8 0xFFFFFFFFFFFFFFFF DUP2 GT PUSH2 0x15F4 JUMPI PUSH1 0x1F ADD PUSH1 0x1F NOT AND PUSH1 0x20 ADD SWAP1 JUMP JUMPDEST SWAP3 SWAP2 SWAP3 PUSH2 0x168C DUP3 PUSH2 0x1664 JUMP JUMPDEST SWAP2 PUSH2 0x169A PUSH1 0x40 MLOAD SWAP4 DUP5 PUSH2 0x1642 JUMP JUMPDEST DUP3 SWAP5 DUP2 DUP5 MSTORE DUP2 DUP4 ADD GT PUSH2 0x1540 JUMPI DUP3 DUP2 PUSH1 0x20 SWAP4 DUP5 PUSH1 0x0 SWAP7 ADD CALLDATACOPY ADD ADD MSTORE JUMP JUMPDEST SWAP1 PUSH1 0x1 DUP3 DUP2 SHR SWAP3 AND DUP1 ISZERO PUSH2 0x16E7 JUMPI JUMPDEST PUSH1 0x20 DUP4 LT EQ PUSH2 0x16D1 JUMPI JUMP JUMPDEST PUSH4 0x4E487B71 PUSH1 0xE0 SHL PUSH1 0x0 MSTORE PUSH1 0x22 PUSH1 0x4 MSTORE PUSH1 0x24 PUSH1 0x0 REVERT JUMPDEST SWAP2 PUSH1 0x7F AND SWAP2 PUSH2 0x16C6 JUMP JUMPDEST PUSH1 0x40 MLOAD SWAP1 PUSH1 0x0 DUP3 PUSH1 0xC SLOAD SWAP2 PUSH2 0x1705 DUP4 PUSH2 0x16B7 JUMP JUMPDEST DUP1 DUP4 MSTORE SWAP3 PUSH1 0x20 SWAP1 PUSH1 0x1 SWAP1 DUP2 DUP2 AND SWAP1 DUP2 ISZERO PUSH2 0x1793 JUMPI POP PUSH1 0x1 EQ PUSH2 0x1732 JUMPI JUMPDEST POP POP PUSH2 0x1730 SWAP3 POP SUB DUP4 PUSH2 0x1642 JUMP JUMPDEST JUMP JUMPDEST SWAP2 POP SWAP3 PUSH1 0xC PUSH1 0x0 MSTORE PUSH32 0xDF6966C971051C3D54EC59162606531493A51404A002842F56009D7E5CF4A8C7 SWAP4 PUSH1 0x0 SWAP3 JUMPDEST DUP3 DUP5 LT PUSH2 0x177B JUMPI POP PUSH2 0x1730 SWAP5 POP POP POP DUP2 ADD PUSH1 0x20 ADD CODESIZE DUP1 PUSH2 0x1722 JUMP JUMPDEST DUP6 SLOAD DUP9 DUP6 ADD DUP4 ADD MSTORE SWAP5 DUP6 ADD SWAP5 DUP8 SWAP5 POP SWAP3 DUP2 ADD SWAP3 PUSH2 0x1760 JUMP JUMPDEST SWAP2 POP POP PUSH1 0x20 SWAP3 POP PUSH2 0x1730 SWAP5 SWAP2 POP PUSH1 0xFF NOT AND DUP3 DUP5 ADD MSTORE ISZERO ISZERO PUSH1 0x5 SHL DUP3 ADD ADD CODESIZE DUP1 PUSH2 0x1722 JUMP JUMPDEST PUSH1 0x0 DUP2 DUP2 MSTORE PUSH1 0x2 PUSH1 0x20 MSTORE PUSH1 0x40 SWAP1 KECCAK256 SLOAD PUSH2 0x17DA SWAP1 PUSH1 0x1 PUSH1 0x1 PUSH1 0xA0 SHL SUB AND ISZERO ISZERO PUSH2 0x1857 JUMP JUMPDEST PUSH1 0x0 SWAP1 DUP2 MSTORE PUSH1 0x4 PUSH1 0x20 MSTORE PUSH1 0x40 SWAP1 KECCAK256 SLOAD PUSH1 0x1 PUSH1 0x1 PUSH1 0xA0 SHL SUB AND SWAP1 JUMP JUMPDEST ISZERO PUSH2 0x17FC JUMPI JUMP JUMPDEST PUSH1 0x40 MLOAD PUSH3 0x461BCD PUSH1 0xE5 SHL DUP2 MSTORE PUSH1 0x20 PUSH1 0x4 DUP3 ADD MSTORE PUSH1 0x2D PUSH1 0x24 DUP3 ADD MSTORE PUSH32 0x4552433732313A2063616C6C6572206973206E6F7420746F6B656E206F776E65 PUSH1 0x44 DUP3 ADD MSTORE PUSH13 0x1C881BDC88185C1C1C9BDD9959 PUSH1 0x9A SHL PUSH1 0x64 DUP3 ADD MSTORE PUSH1 0x84 SWAP1 REVERT JUMPDEST ISZERO PUSH2 0x185E JUMPI JUMP JUMPDEST PUSH1 0x40 MLOAD PUSH3 0x461BCD PUSH1 0xE5 SHL DUP2 MSTORE PUSH1 0x20 PUSH1 0x4 DUP3 ADD MSTORE PUSH1 0x18 PUSH1 0x24 DUP3 ADD MSTORE PUSH32 0x4552433732313A20696E76616C696420746F6B656E2049440000000000000000 PUSH1 0x44 DUP3 ADD MSTORE PUSH1 0x64 SWAP1 REVERT JUMPDEST PUSH1 0x0 SWAP1 DUP2 MSTORE PUSH1 0x2 PUSH1 0x20 MSTORE PUSH1 0x40 SWAP1 KECCAK256 SLOAD PUSH1 0x1 PUSH1 0x1 PUSH1 0xA0 SHL SUB AND PUSH2 0x18C6 DUP2 ISZERO ISZERO PUSH2 0x1857 JUMP JUMPDEST SWAP1 JUMP JUMPDEST CALLER PUSH1 0x0 SWAP1 DUP2 MSTORE PUSH32 0xEC8156718A8372B1DB44BB411437D0870F3E3790D4A08526D024CE1B0B668F6B PUSH1 0x20 SWAP1 DUP2 MSTORE PUSH1 0x40 DUP1 DUP4 KECCAK256 SLOAD SWAP1 SWAP3 SWAP1 PUSH1 0xFF AND ISZERO PUSH2 0x190B JUMPI POP POP POP JUMP JUMPDEST PUSH2 0x1914 CALLER PUSH2 0x233D JUMP JUMPDEST SWAP1 DUP1 DUP5 MLOAD SWAP1 PUSH2 0x1922 DUP3 PUSH2 0x1626 JUMP JUMPDEST PUSH1 0x42 DUP3 MSTORE DUP5 DUP3 ADD SWAP3 PUSH1 0x60 CALLDATASIZE DUP6 CALLDATACOPY DUP3 MLOAD ISZERO PUSH2 0x1A83 JUMPI PUSH1 0x30 DUP5 MSTORE8 DUP3 MLOAD SWAP1 PUSH1 0x1 SWAP2 PUSH1 0x1 LT ISZERO PUSH2 0x1A83 JUMPI SWAP1 PUSH1 0x78 PUSH1 0x21 DUP6 ADD MSTORE8 PUSH1 0x41 SWAP2 JUMPDEST DUP2 DUP4 GT PUSH2 0x1A15 JUMPI POP POP POP PUSH2 0x19D3 JUMPI PUSH1 0x48 PUSH2 0x717 SWAP4 DUP7 SWAP4 PUSH2 0x19B7 SWAP4 PUSH2 0x19A8 SWAP9 MLOAD SWAP9 DUP10 SWAP4 PUSH23 0x20B1B1B2B9B9A1B7B73A3937B61D1030B1B1B7BAB73A1 PUSH1 0x4D SHL DUP11 DUP7 ADD MSTORE PUSH2 0x6C7 DUP2 MLOAD DUP1 SWAP3 DUP13 PUSH1 0x37 DUP10 ADD SWAP2 ADD PUSH2 0x155B JUMP JUMPDEST ADD SUB PUSH1 0x28 DUP2 ADD DUP8 MSTORE ADD DUP6 PUSH2 0x1642 JUMP JUMPDEST MLOAD SWAP3 DUP4 SWAP3 PUSH3 0x461BCD PUSH1 0xE5 SHL DUP5 MSTORE PUSH1 0x4 DUP5 ADD MSTORE PUSH1 0x24 DUP4 ADD SWAP1 PUSH2 0x157E JUMP JUMPDEST PUSH1 0x64 DUP5 DUP7 MLOAD SWAP1 PUSH3 0x461BCD PUSH1 0xE5 SHL DUP3 MSTORE DUP1 PUSH1 0x4 DUP4 ADD MSTORE PUSH1 0x24 DUP3 ADD MSTORE PUSH32 0x537472696E67733A20686578206C656E67746820696E73756666696369656E74 PUSH1 0x44 DUP3 ADD MSTORE REVERT JUMPDEST SWAP1 SWAP2 SWAP3 PUSH1 0xF DUP2 AND PUSH1 0x10 DUP2 LT ISZERO PUSH2 0x1A6F JUMPI PUSH16 0x181899199A1A9B1B9C1CB0B131B232B3 PUSH1 0x81 SHL SWAP1 BYTE PUSH2 0x1A45 DUP6 DUP8 PUSH2 0x2316 JUMP JUMPDEST MSTORE8 PUSH1 0x4 SHR SWAP3 DUP1 ISZERO PUSH2 0x1A5B JUMPI PUSH1 0x0 NOT ADD SWAP2 SWAP1 PUSH2 0x1954 JUMP JUMPDEST PUSH4 0x4E487B71 PUSH1 0xE0 SHL DUP3 MSTORE PUSH1 0x11 PUSH1 0x4 MSTORE PUSH1 0x24 DUP3 REVERT JUMPDEST PUSH4 0x4E487B71 PUSH1 0xE0 SHL DUP4 MSTORE PUSH1 0x32 PUSH1 0x4 MSTORE PUSH1 0x24 DUP4 REVERT JUMPDEST PUSH4 0x4E487B71 PUSH1 0xE0 SHL DUP2 MSTORE PUSH1 0x32 PUSH1 0x4 MSTORE PUSH1 0x24 SWAP1 REVERT JUMPDEST PUSH1 0x0 SWAP1 DUP1 DUP3 MSTORE PUSH1 0x20 SWAP1 PUSH1 0x9 DUP3 MSTORE PUSH1 0x40 SWAP3 DUP4 DUP2 KECCAK256 CALLER DUP3 MSTORE DUP4 MSTORE PUSH1 0xFF DUP5 DUP3 KECCAK256 SLOAD AND ISZERO PUSH2 0x1AC1 JUMPI POP POP POP POP JUMP JUMPDEST PUSH2 0x1ACA CALLER PUSH2 0x233D JUMP JUMPDEST SWAP2 DUP5 MLOAD SWAP1 PUSH2 0x1AD7 DUP3 PUSH2 0x1626 JUMP JUMPDEST PUSH1 0x42 DUP3 MSTORE DUP5 DUP3 ADD SWAP3 PUSH1 0x60 CALLDATASIZE DUP6 CALLDATACOPY DUP3 MLOAD ISZERO PUSH2 0x1A83 JUMPI PUSH1 0x30 DUP5 MSTORE8 DUP3 MLOAD SWAP1 PUSH1 0x1 SWAP2 PUSH1 0x1 LT ISZERO PUSH2 0x1A83 JUMPI SWAP1 PUSH1 0x78 PUSH1 0x21 DUP6 ADD MSTORE8 PUSH1 0x41 SWAP2 JUMPDEST DUP2 DUP4 GT PUSH2 0x1B5D JUMPI POP POP POP PUSH2 0x19D3 JUMPI PUSH1 0x48 PUSH2 0x717 SWAP4 DUP7 SWAP4 PUSH2 0x19B7 SWAP4 PUSH2 0x19A8 SWAP9 MLOAD SWAP9 DUP10 SWAP4 PUSH23 0x20B1B1B2B9B9A1B7B73A3937B61D1030B1B1B7BAB73A1 PUSH1 0x4D SHL DUP11 DUP7 ADD MSTORE PUSH2 0x6C7 DUP2 MLOAD DUP1 SWAP3 DUP13 PUSH1 0x37 DUP10 ADD SWAP2 ADD PUSH2 0x155B JUMP JUMPDEST SWAP1 SWAP2 SWAP3 PUSH1 0xF DUP2 AND PUSH1 0x10 DUP2 LT ISZERO PUSH2 0x1A6F JUMPI PUSH16 0x181899199A1A9B1B9C1CB0B131B232B3 PUSH1 0x81 SHL SWAP1 BYTE PUSH2 0x1B8D DUP6 DUP8 PUSH2 0x2316 JUMP JUMPDEST MSTORE8 PUSH1 0x4 SHR SWAP3 DUP1 ISZERO PUSH2 0x1A5B JUMPI PUSH1 0x0 NOT ADD SWAP2 SWAP1 PUSH2 0x1B09 JUMP JUMPDEST SWAP1 PUSH1 0x1 PUSH1 0x1 PUSH1 0xA0 SHL SUB DUP1 DUP1 PUSH2 0x1BB7 DUP5 PUSH2 0x18A3 JUMP JUMPDEST AND SWAP4 AND SWAP2 DUP4 DUP4 EQ SWAP4 DUP5 ISZERO PUSH2 0x1BEA JUMPI JUMPDEST POP DUP4 ISZERO PUSH2 0x1BD4 JUMPI JUMPDEST POP POP POP SWAP1 JUMP JUMPDEST PUSH2 0x1BE0 SWAP2 SWAP3 SWAP4 POP PUSH2 0x17B7 JUMP JUMPDEST AND EQ CODESIZE DUP1 DUP1 PUSH2 0x1BCE JUMP JUMPDEST SWAP1 SWAP4 POP PUSH1 0x0 MSTORE PUSH1 0x5 PUSH1 0x20 MSTORE PUSH1 0x40 PUSH1 0x0 KECCAK256 DUP3 PUSH1 0x0 MSTORE PUSH1 0x20 MSTORE PUSH1 0xFF PUSH1 0x40 PUSH1 0x0 KECCAK256 SLOAD AND SWAP3 CODESIZE PUSH2 0x1BC6 JUMP JUMPDEST ISZERO PUSH2 0x1C18 JUMPI JUMP JUMPDEST PUSH1 0x40 MLOAD PUSH3 0x461BCD PUSH1 0xE5 SHL DUP2 MSTORE PUSH1 0x20 PUSH1 0x4 DUP3 ADD MSTORE PUSH1 0x25 PUSH1 0x24 DUP3 ADD MSTORE PUSH32 0x4552433732313A207472616E736665722066726F6D20696E636F727265637420 PUSH1 0x44 DUP3 ADD MSTORE PUSH5 0x37BBB732B9 PUSH1 0xD9 SHL PUSH1 0x64 DUP3 ADD MSTORE PUSH1 0x84 SWAP1 REVERT JUMPDEST SWAP1 PUSH2 0x1C93 SWAP2 PUSH2 0x1C79 DUP5 PUSH2 0x18A3 JUMP JUMPDEST PUSH1 0x1 PUSH1 0x1 PUSH1 0xA0 SHL SUB SWAP4 SWAP2 DUP5 AND SWAP3 DUP5 SWAP3 SWAP1 SWAP2 DUP4 AND DUP5 EQ PUSH2 0x1C11 JUMP JUMPDEST AND SWAP2 DUP3 ISZERO PUSH2 0x1D2B JUMPI DUP2 PUSH2 0x1CB0 SWAP2 PUSH2 0x1CA9 DUP7 PUSH2 0x18A3 JUMP JUMPDEST AND EQ PUSH2 0x1C11 JUMP JUMPDEST PUSH32 0xDDF252AD1BE2C89B69C2B068FC378DAA952BA7F163C4A11628F55A4DF523B3EF PUSH1 0x0 DUP5 DUP2 MSTORE PUSH1 0x4 PUSH1 0x20 MSTORE PUSH1 0x40 DUP2 KECCAK256 PUSH1 0x1 PUSH1 0x1 PUSH1 0x60 SHL SUB PUSH1 0xA0 SHL SWAP1 DUP2 DUP2 SLOAD AND SWAP1 SSTORE DUP4 DUP3 MSTORE PUSH1 0x3 PUSH1 0x20 MSTORE PUSH1 0x40 DUP3 KECCAK256 PUSH1 0x0 NOT DUP2 SLOAD ADD SWAP1 SSTORE DUP5 DUP3 MSTORE PUSH1 0x40 DUP3 KECCAK256 PUSH1 0x1 DUP2 SLOAD ADD SWAP1 SSTORE DUP6 DUP3 MSTORE PUSH1 0x2 PUSH1 0x20 MSTORE DUP5 PUSH1 0x40 DUP4 KECCAK256 SWAP2 DUP3 SLOAD AND OR SWAP1 SSTORE DUP1 LOG4 JUMP JUMPDEST PUSH1 0x40 MLOAD PUSH3 0x461BCD PUSH1 0xE5 SHL DUP2 MSTORE PUSH1 0x20 PUSH1 0x4 DUP3 ADD MSTORE PUSH1 0x24 DUP1 DUP3 ADD MSTORE PUSH32 0x4552433732313A207472616E7366657220746F20746865207A65726F20616464 PUSH1 0x44 DUP3 ADD MSTORE PUSH4 0x72657373 PUSH1 0xE0 SHL PUSH1 0x64 DUP3 ADD MSTORE PUSH1 0x84 SWAP1 REVERT JUMPDEST SWAP1 PUSH1 0x0 SWAP2 DUP1 DUP4 MSTORE PUSH1 0x9 PUSH1 0x20 MSTORE PUSH1 0x40 DUP4 KECCAK256 SWAP2 PUSH1 0x1 DUP1 PUSH1 0xA0 SHL SUB AND SWAP2 DUP3 DUP5 MSTORE PUSH1 0x20 MSTORE PUSH1 0xFF PUSH1 0x40 DUP5 KECCAK256 SLOAD AND PUSH2 0x1DAD JUMPI POP POP POP JUMP JUMPDEST DUP1 DUP4 MSTORE PUSH1 0x9 PUSH1 0x20 MSTORE PUSH1 0x40 DUP4 KECCAK256 DUP3 DUP5 MSTORE PUSH1 0x20 MSTORE PUSH1 0x40 DUP4 KECCAK256 PUSH1 0xFF NOT DUP2 SLOAD AND SWAP1 SSTORE PUSH32 0xF6391F5C32D9C69D2A47EA670B442974B53935D1EDC7FD64EB21E047A839171B CALLER SWAP4 DUP1 LOG4 JUMP JUMPDEST PUSH1 0x80 SWAP1 PUSH1 0x20 DUP2 MSTORE PUSH1 0x32 PUSH1 0x20 DUP3 ADD MSTORE PUSH32 0x4552433732313A207472616E7366657220746F206E6F6E204552433732315265 PUSH1 0x40 DUP3 ADD MSTORE PUSH18 0x31B2B4BB32B91034B6B83632B6B2B73A32B9 PUSH1 0x71 SHL PUSH1 0x60 DUP3 ADD MSTORE ADD SWAP1 JUMP JUMPDEST ISZERO PUSH2 0x1E4C JUMPI JUMP JUMPDEST PUSH1 0x40 MLOAD PUSH3 0x461BCD PUSH1 0xE5 SHL DUP2 MSTORE DUP1 PUSH2 0x717 PUSH1 0x4 DUP3 ADD PUSH2 0x1DF2 JUMP JUMPDEST PUSH1 0x0 DUP2 DUP2 MSTORE PUSH1 0x2 PUSH1 0x20 MSTORE PUSH1 0x40 SWAP1 KECCAK256 SLOAD PUSH2 0x1E88 SWAP1 PUSH1 0x1 PUSH1 0x1 PUSH1 0xA0 SHL SUB AND ISZERO ISZERO PUSH2 0x1857 JUMP JUMPDEST PUSH1 0x0 DUP2 DUP2 MSTORE PUSH1 0x20 SWAP1 PUSH1 0x6 DUP3 MSTORE PUSH1 0x40 SWAP1 DUP2 DUP2 KECCAK256 SWAP2 DUP1 MLOAD DUP3 SWAP4 DUP1 SLOAD SWAP5 DUP3 PUSH2 0x1EAC DUP8 PUSH2 0x16B7 JUMP JUMPDEST SWAP2 DUP3 DUP3 MSTORE DUP9 DUP3 ADD SWAP4 PUSH1 0x1 SWAP9 DUP11 PUSH1 0x1 DUP3 AND SWAP2 DUP3 PUSH1 0x0 EQ PUSH2 0x2155 JUMPI POP POP PUSH1 0x1 EQ PUSH2 0x2117 JUMPI JUMPDEST POP PUSH2 0x1EDC SWAP3 POP SUB DUP4 PUSH2 0x1642 JUMP JUMPDEST PUSH2 0x1EE4 PUSH2 0x16F1 JUMP JUMPDEST SWAP1 DUP2 MLOAD SWAP3 DUP4 ISZERO PUSH2 0x210B JUMPI DUP1 MLOAD PUSH2 0x20E7 JUMPI POP POP POP PUSH1 0x0 DUP7 DUP2 MSTORE PUSH1 0x2 PUSH1 0x20 MSTORE PUSH1 0x40 SWAP1 KECCAK256 SLOAD PUSH2 0x1F1B SWAP2 POP PUSH1 0x1 PUSH1 0x1 PUSH1 0xA0 SHL SUB AND ISZERO ISZERO PUSH2 0x1857 JUMP JUMPDEST PUSH2 0x1F23 PUSH2 0x16F1 JUMP JUMPDEST DUP1 MLOAD SWAP1 SWAP4 SWAP1 ISZERO PUSH2 0x20D1 JUMPI DUP6 DUP7 SWAP2 DUP5 SWAP8 PUSH27 0x184F03E93FF9F4DAA797ED6E38ED64BF6A1F010000000000000000 SWAP1 DUP2 DUP2 LT ISZERO PUSH2 0x20C2 JUMPI JUMPDEST POP POP PUSH14 0x4EE2D6D415B85ACEF8100000000 DUP1 DUP5 LT ISZERO PUSH2 0x20B4 JUMPI JUMPDEST POP PUSH7 0x2386F26FC10000 DUP1 DUP5 LT ISZERO PUSH2 0x20A5 JUMPI JUMPDEST POP PUSH4 0x5F5E100 DUP1 DUP5 LT ISZERO PUSH2 0x2096 JUMPI JUMPDEST POP PUSH2 0x2710 DUP1 DUP5 LT ISZERO PUSH2 0x2087 JUMPI JUMPDEST POP PUSH1 0x64 DUP4 LT ISZERO PUSH2 0x2077 JUMPI JUMPDEST PUSH1 0xA DUP1 SWAP4 LT ISZERO PUSH2 0x206D JUMPI JUMPDEST SWAP1 DUP2 PUSH1 0x21 PUSH1 0x1 DUP11 ADD SWAP10 PUSH2 0x1FE0 PUSH2 0x1FCB DUP13 PUSH2 0x1664 JUMP JUMPDEST SWAP12 PUSH2 0x1FD8 DUP10 MLOAD SWAP14 DUP15 PUSH2 0x1642 JUMP JUMPDEST DUP1 DUP14 MSTORE PUSH2 0x1664 JUMP JUMPDEST DUP12 DUP12 ADD SWAP9 SWAP1 PUSH1 0x1F NOT ADD CALLDATASIZE DUP11 CALLDATACOPY POP DUP11 ADD ADD SWAP1 JUMPDEST PUSH2 0x2037 JUMPI JUMPDEST POP POP POP POP SWAP1 PUSH2 0x202B SWAP5 PUSH2 0x18C6 SWAP5 SWAP4 SWAP3 MLOAD SWAP6 DUP4 PUSH2 0x201C DUP9 SWAP6 MLOAD DUP1 SWAP3 DUP9 DUP1 DUP10 ADD SWAP2 ADD PUSH2 0x155B JUMP JUMPDEST DUP5 ADD SWAP2 MLOAD DUP1 SWAP4 DUP7 DUP5 ADD SWAP1 PUSH2 0x155B JUMP JUMPDEST ADD SUB DUP1 DUP5 MSTORE ADD DUP3 PUSH2 0x1642 JUMP JUMPDEST PUSH1 0x0 NOT ADD SWAP1 DUP4 SWAP1 PUSH16 0x181899199A1A9B1B9C1CB0B131B232B3 PUSH1 0x81 SHL DUP3 DUP3 MOD BYTE DUP4 MSTORE8 DIV SWAP2 DUP3 ISZERO PUSH2 0x2068 JUMPI SWAP2 SWAP1 DUP3 PUSH2 0x1FF2 JUMP JUMPDEST PUSH2 0x1FF7 JUMP JUMPDEST SWAP7 PUSH1 0x1 ADD SWAP7 PUSH2 0x1FB6 JUMP JUMPDEST SWAP7 SWAP2 PUSH1 0x64 PUSH1 0x2 SWAP2 DIV SWAP3 ADD SWAP7 PUSH2 0x1FAB JUMP JUMPDEST PUSH1 0x4 SWAP2 SWAP9 SWAP4 DIV SWAP3 ADD SWAP7 CODESIZE PUSH2 0x1FA0 JUMP JUMPDEST PUSH1 0x8 SWAP2 SWAP9 SWAP4 DIV SWAP3 ADD SWAP7 CODESIZE PUSH2 0x1F93 JUMP JUMPDEST PUSH1 0x10 SWAP2 SWAP9 SWAP4 DIV SWAP3 ADD SWAP7 CODESIZE PUSH2 0x1F84 JUMP JUMPDEST DUP8 SWAP2 SWAP9 SWAP4 DIV SWAP3 ADD SWAP7 CODESIZE PUSH2 0x1F72 JUMP JUMPDEST SWAP5 SWAP9 POP DUP9 SWAP5 DIV SWAP3 POP CODESIZE DUP1 PUSH2 0x1F58 JUMP JUMPDEST POP SWAP3 POP SWAP3 POP POP MLOAD SWAP1 PUSH2 0x20E2 DUP3 PUSH2 0x160A JUMP JUMPDEST DUP2 MSTORE SWAP1 JUMP JUMPDEST SWAP3 SWAP8 POP SWAP3 PUSH2 0x18C6 SWAP7 SWAP6 POP PUSH2 0x202B SWAP2 SWAP5 POP PUSH2 0x201C DUP9 SWAP2 MLOAD SWAP9 DUP10 SWAP7 DUP9 DUP1 DUP10 ADD SWAP2 ADD PUSH2 0x155B JUMP JUMPDEST SWAP8 POP POP POP POP POP POP POP POP SWAP1 JUMP JUMPDEST SWAP2 POP POP DUP6 MSTORE DUP3 DUP8 DUP1 DUP8 KECCAK256 DUP9 DUP9 SWAP2 JUMPDEST DUP6 DUP4 LT PUSH2 0x213C JUMPI POP POP PUSH2 0x1EDC SWAP4 POP DUP3 ADD ADD CODESIZE PUSH2 0x1ECF JUMP JUMPDEST DUP1 SWAP2 SWAP3 SWAP5 POP SLOAD DUP4 DUP6 DUP10 ADD ADD MSTORE ADD SWAP2 ADD DUP9 SWAP1 DUP9 DUP7 SWAP4 PUSH2 0x2125 JUMP JUMPDEST PUSH1 0xFF NOT AND DUP8 MSTORE PUSH2 0x1EDC SWAP6 ISZERO ISZERO PUSH1 0x5 SHL DUP6 ADD ADD SWAP3 POP CODESIZE SWAP2 POP PUSH2 0x1ECF SWAP1 POP JUMP JUMPDEST SWAP2 SWAP3 SWAP1 SWAP2 DUP1 EXTCODESIZE ISZERO PUSH2 0x2284 JUMPI PUSH2 0x21C0 SWAP4 PUSH1 0x40 MLOAD SWAP1 DUP2 PUSH4 0xA85BD01 PUSH1 0xE1 SHL SWAP4 DUP5 DUP3 MSTORE CALLER PUSH1 0x4 DUP4 ADD MSTORE PUSH1 0x0 SWAP7 DUP8 PUSH1 0x24 DUP5 ADD MSTORE PUSH1 0x44 DUP4 ADD MSTORE PUSH1 0x80 PUSH1 0x64 DUP4 ADD MSTORE DUP2 DUP8 DUP2 PUSH1 0x20 SWAP11 DUP12 SWAP7 PUSH1 0x84 DUP4 ADD SWAP1 PUSH2 0x157E JUMP JUMPDEST SUB SWAP3 PUSH1 0x1 PUSH1 0x1 PUSH1 0xA0 SHL SUB AND GAS CALL DUP5 SWAP2 DUP2 PUSH2 0x2244 JUMPI JUMPDEST POP PUSH2 0x2233 JUMPI POP POP POP RETURNDATASIZE PUSH1 0x0 EQ PUSH2 0x222B JUMPI RETURNDATASIZE PUSH2 0x21EF DUP2 PUSH2 0x1664 JUMP JUMPDEST SWAP1 PUSH2 0x21FD PUSH1 0x40 MLOAD SWAP3 DUP4 PUSH2 0x1642 JUMP JUMPDEST DUP2 MSTORE DUP1 SWAP2 DUP4 RETURNDATASIZE SWAP3 ADD RETURNDATACOPY JUMPDEST DUP1 MLOAD SWAP2 DUP3 PUSH2 0x2228 JUMPI PUSH1 0x40 MLOAD PUSH3 0x461BCD PUSH1 0xE5 SHL DUP2 MSTORE DUP1 PUSH2 0x717 PUSH1 0x4 DUP3 ADD PUSH2 0x1DF2 JUMP JUMPDEST ADD REVERT JUMPDEST POP PUSH1 0x60 PUSH2 0x2207 JUMP JUMPDEST PUSH1 0x1 PUSH1 0x1 PUSH1 0xE0 SHL SUB NOT AND EQ SWAP3 POP SWAP1 POP JUMP JUMPDEST SWAP1 SWAP2 POP DUP6 DUP2 DUP2 RETURNDATASIZE DUP4 GT PUSH2 0x227D JUMPI JUMPDEST PUSH2 0x225C DUP2 DUP4 PUSH2 0x1642 JUMP JUMPDEST DUP2 ADD SUB SLT PUSH2 0x976 JUMPI MLOAD PUSH1 0x1 PUSH1 0x1 PUSH1 0xE0 SHL SUB NOT DUP2 AND DUP2 SUB PUSH2 0x976 JUMPI SWAP1 CODESIZE PUSH2 0x21D5 JUMP JUMPDEST POP RETURNDATASIZE PUSH2 0x2252 JUMP JUMPDEST POP SWAP2 POP POP PUSH1 0x1 SWAP1 JUMP JUMPDEST SWAP3 SWAP4 SWAP2 SWAP3 SWAP1 DUP1 EXTCODESIZE ISZERO PUSH2 0x230C JUMPI PUSH2 0x22E1 SWAP5 PUSH1 0x1 DUP1 PUSH1 0xA0 SHL SUB SWAP5 PUSH1 0x40 MLOAD SWAP3 DUP4 SWAP2 DUP8 PUSH4 0xA85BD01 PUSH1 0xE1 SHL SWAP7 DUP8 DUP6 MSTORE CALLER PUSH1 0x4 DUP7 ADD MSTORE AND PUSH1 0x24 DUP5 ADD MSTORE PUSH1 0x44 DUP4 ADD MSTORE PUSH1 0x80 PUSH1 0x64 DUP4 ADD MSTORE DUP2 DUP1 PUSH1 0x20 SWAP10 DUP11 SWAP6 PUSH1 0x84 DUP4 ADD SWAP1 PUSH2 0x157E JUMP JUMPDEST SUB SWAP2 PUSH1 0x0 SWAP9 DUP10 SWAP2 AND GAS CALL DUP5 SWAP2 DUP2 PUSH2 0x2244 JUMPI POP PUSH2 0x2233 JUMPI POP POP POP RETURNDATASIZE PUSH1 0x0 EQ PUSH2 0x222B JUMPI RETURNDATASIZE PUSH2 0x21EF DUP2 PUSH2 0x1664 JUMP JUMPDEST POP POP SWAP2 POP POP PUSH1 0x1 SWAP1 JUMP JUMPDEST SWAP1 DUP2 MLOAD DUP2 LT ISZERO PUSH2 0x2327 JUMPI ADD PUSH1 0x20 ADD SWAP1 JUMP JUMPDEST PUSH4 0x4E487B71 PUSH1 0xE0 SHL PUSH1 0x0 MSTORE PUSH1 0x32 PUSH1 0x4 MSTORE PUSH1 0x24 PUSH1 0x0 REVERT JUMPDEST PUSH1 0x40 MLOAD SWAP1 PUSH1 0x60 DUP3 ADD DUP3 DUP2 LT PUSH8 0xFFFFFFFFFFFFFFFF DUP3 GT OR PUSH2 0x15F4 JUMPI PUSH1 0x40 MSTORE PUSH1 0x2A DUP3 MSTORE PUSH1 0x20 DUP3 ADD PUSH1 0x40 CALLDATASIZE DUP3 CALLDATACOPY DUP3 MLOAD ISZERO PUSH2 0x2327 JUMPI PUSH1 0x30 SWAP1 MSTORE8 DUP2 MLOAD PUSH1 0x1 SWAP1 PUSH1 0x1 LT ISZERO PUSH2 0x2327 JUMPI PUSH1 0x78 PUSH1 0x21 DUP5 ADD MSTORE8 PUSH1 0x29 SWAP1 JUMPDEST DUP1 DUP3 GT PUSH2 0x23DF JUMPI POP POP PUSH2 0x239B JUMPI SWAP1 JUMP JUMPDEST PUSH1 0x64 PUSH1 0x40 MLOAD PUSH3 0x461BCD PUSH1 0xE5 SHL DUP2 MSTORE PUSH1 0x20 PUSH1 0x4 DUP3 ADD MSTORE PUSH1 0x20 PUSH1 0x24 DUP3 ADD MSTORE PUSH32 0x537472696E67733A20686578206C656E67746820696E73756666696369656E74 PUSH1 0x44 DUP3 ADD MSTORE REVERT JUMPDEST SWAP1 SWAP2 PUSH1 0xF DUP2 AND PUSH1 0x10 DUP2 LT ISZERO PUSH2 0x2438 JUMPI PUSH16 0x181899199A1A9B1B9C1CB0B131B232B3 PUSH1 0x81 SHL SWAP1 BYTE PUSH2 0x240E DUP5 DUP7 PUSH2 0x2316 JUMP JUMPDEST MSTORE8 PUSH1 0x4 SHR SWAP2 DUP1 ISZERO PUSH2 0x2423 JUMPI PUSH1 0x0 NOT ADD SWAP1 PUSH2 0x238B JUMP JUMPDEST PUSH1 0x24 PUSH1 0x0 PUSH4 0x4E487B71 PUSH1 0xE0 SHL DUP2 MSTORE PUSH1 0x11 PUSH1 0x4 MSTORE REVERT JUMPDEST PUSH1 0x24 PUSH1 0x0 PUSH4 0x4E487B71 PUSH1 0xE0 SHL DUP2 MSTORE PUSH1 0x32 PUSH1 0x4 MSTORE REVERT JUMPDEST ISZERO PUSH2 0x2454 JUMPI JUMP JUMPDEST PUSH1 0x40 MLOAD PUSH3 0x461BCD PUSH1 0xE5 SHL DUP2 MSTORE PUSH1 0x20 PUSH1 0x4 DUP3 ADD MSTORE PUSH1 0x1C PUSH1 0x24 DUP3 ADD MSTORE PUSH32 0x4552433732313A20746F6B656E20616C7265616479206D696E74656400000000 PUSH1 0x44 DUP3 ADD MSTORE PUSH1 0x64 SWAP1 REVERT INVALID LOG2 PUSH5 0x6970667358 0x22 SLT KECCAK256 0xEA 0xA8 PUSH20 0x4DC3148BD67C1AD2010FD6A12FCE15DA8E40B037 DUP2 0xC0 DUP12 SUB 0x2E 0xCC 0xE3 PUSH3 0x186473 PUSH16 0x6C634300081800332F8788117E7EFF1D DUP3 0xE9 0x26 0xEC PUSH26 0x4901D17C78024A50270940304540A733656F0D00000000000000 "},"methodIdentifiers":{"DEFAULT_ADMIN_ROLE()":"a217fddf","MINTER_ROLE()":"d5391393","approve(address,uint256)":"095ea7b3","balanceOf(address)":"70a08231","baseURIFrozen()":"fb565bfd","freezeBaseURI()":"e7bc8208","freezeRoyalty()":"8e153859","getApproved(uint256)":"081812fc","getRoleAdmin(bytes32)":"248a9ca3","grantRole(bytes32,address)":"2f2ff15d","hasRole(bytes32,address)":"91d14854","isApprovedForAll(address,address)":"e985e9c5","mint(address,string)":"d0def521","name()":"06fdde03","ownerOf(uint256)":"6352211e","renounceRole(bytes32,address)":"36568abe","revokeRole(bytes32,address)":"d547741f","royaltyFrozen()":"4db6a334","royaltyInfo(uint256,uint256)":"2a55205a","safeTransferFrom(address,address,uint256)":"42842e0e","safeTransferFrom(address,address,uint256,bytes)":"b88d4fde","setApprovalForAll(address,bool)":"a22cb465","setBaseURI(string)":"55f804b3","setDefaultRoyalty(address,uint96)":"04634d8d","supportsInterface(bytes4)":"01ffc9a7","symbol()":"95d89b41","tokenURI(uint256)":"c87b56dd","transferFrom(address,address,uint256)":"23b872dd"}},"storageLayout":{"storage":[{"astId":461,"contract":"contracts/nft/BaronNFT.sol:BaronNFT","label":"_name","offset":0,"slot":"0","type":"t_string_storage"},{"astId":463,"contract":"contracts/nft/BaronNFT.sol:BaronNFT","label":"_symbol","offset":0,"slot":"1","type":"t_string_storage"},{"astId":467,"contract":"contracts/nft/BaronNFT.sol:BaronNFT","label":"_owners","offset":0,"slot":"2","type":"t_mapping(t_uint256,t_address)"},{"astId":471,"contract":"contracts/nft/BaronNFT.sol:BaronNFT","label":"_balances","offset":0,"slot":"3","type":"t_mapping(t_address,t_uint256)"},{"astId":475,"contract":"contracts/nft/BaronNFT.sol:BaronNFT","label":"_tokenApprovals","offset":0,"slot":"4","type":"t_mapping(t_uint256,t_address)"},{"astId":481,"contract":"contracts/nft/BaronNFT.sol:BaronNFT","label":"_operatorApprovals","offset":0,"slot":"5","type":"t_mapping(t_address,t_mapping(t_address,t_bool))"},{"astId":1512,"contract":"contracts/nft/BaronNFT.sol:BaronNFT","label":"_tokenURIs","offset":0,"slot":"6","type":"t_mapping(t_uint256,t_string_storage)"},{"astId":1696,"contract":"contracts/nft/BaronNFT.sol:BaronNFT","label":"_defaultRoyaltyInfo","offset":0,"slot":"7","type":"t_struct(RoyaltyInfo)1693_storage"},{"astId":1701,"contract":"contracts/nft/BaronNFT.sol:BaronNFT","label":"_tokenRoyaltyInfo","offset":0,"slot":"8","type":"t_mapping(t_uint256,t_struct(RoyaltyInfo)1693_storage)"},{"astId":24,"contract":"contracts/nft/BaronNFT.sol:BaronNFT","label":"_roles","offset":0,"slot":"9","type":"t_mapping(t_bytes32,t_struct(RoleData)19_storage)"},{"astId":3499,"contract":"contracts/nft/BaronNFT.sol:BaronNFT","label":"_id","offset":0,"slot":"10","type":"t_uint256"},{"astId":3501,"contract":"contracts/nft/BaronNFT.sol:BaronNFT","label":"baseURIFrozen","offset":0,"slot":"11","type":"t_bool"},{"astId":3503,"contract":"contracts/nft/BaronNFT.sol:BaronNFT","label":"_baseTokenURI","offset":0,"slot":"12","type":"t_string_storage"},{"astId":3505,"contract":"contracts/nft/BaronNFT.sol:BaronNFT","label":"royaltyFrozen","offset":0,"slot":"13","type":"t_bool"}],"types":{"t_address":{"encoding":"inplace","label":"address","numberOfBytes":"20"},"t_bool":{"encoding":"inplace","label":"bool","numberOfBytes":"1"},"t_bytes32":{"encoding":"inplace","label":"bytes32","numberOfBytes":"32"},"t_mapping(t_address,t_bool)":{"encoding":"mapping","key":"t_address","label":"mapping(address => bool)","numberOfBytes":"32","value":"t_bool"},"t_mapping(t_address,t_mapping(t_address,t_bool))":{"encoding":"mapping","key":"t_address","label":"mapping(address => mapping(address => bool))","numberOfBytes":"32","value":"t_mapping(t_address,t_bool)"},"t_mapping(t_address,t_uint256)":{"encoding":"mapping","key":"t_address","label":"mapping(address => uint256)","numberOfBytes":"32","value":"t_uint256"},"t_mapping(t_bytes32,t_struct(RoleData)19_storage)":{"encoding":"mapping","key":"t_bytes32","label":"mapping(bytes32 => struct AccessControl.RoleData)","numberOfBytes":"32","value":"t_struct(RoleData)19_storage"},"t_mapping(t_uint256,t_address)":{"encoding":"mapping","key":"t_uint256","label":"mapping(uint256 => address)","numberOfBytes":"32","value":"t_address"},"t_mapping(t_uint256,t_string_storage)":{"encoding":"mapping","key":"t_uint256","label":"mapping(uint256 => string)","numberOfBytes":"32","value":"t_string_storage"},"t_mapping(t_uint256,t_struct(RoyaltyInfo)1693_storage)":{"encoding":"mapping","key":"t_uint256","label":"mapping(uint256 => struct ERC2981.RoyaltyInfo)","numberOfBytes":"32","value":"t_struct(RoyaltyInfo)1693_storage"},"t_string_storage":{"encoding":"bytes","label":"string","numberOfBytes":"32"},"t_struct(RoleData)19_storage":{"encoding":"inplace","label":"struct AccessControl.RoleData","members":[{"astId":16,"contract":"contracts/nft/BaronNFT.sol:BaronNFT","label":"members","offset":0,"slot":"0","type":"t_mapping(t_address,t_bool)"},{"astId":18,"contract":"contracts/nft/BaronNFT.sol:BaronNFT","label":"adminRole","offset":0,"slot":"1","type":"t_bytes32"}],"numberOfBytes":"64"},"t_struct(RoyaltyInfo)1693_storage":{"encoding":"inplace","label":"struct ERC2981.RoyaltyInfo","members":[{"astId":1690,"contract":"contracts/nft/BaronNFT.sol:BaronNFT","label":"receiver","offset":0,"slot":"0","type":"t_address"},{"astId":1692,"contract":"contracts/nft/BaronNFT.sol:BaronNFT","label":"royaltyFraction","offset":20,"slot":"0","type":"t_uint96"}],"numberOfBytes":"32"},"t_uint256":{"encoding":"inplace","label":"uint256","numberOfBytes":"32"},"t_uint96":{"encoding":"inplace","label":"uint96","numberOfBytes":"12"}}}}}}