{"contracts/refund/RefundManager.sol":{"RefundManager":{"abi":[{"inputs":[{"internalType":"address","name":"_timelock","type":"address"},{"internalType":"bytes32","name":"_root","type":"bytes32"}],"stateMutability":"nonpayable","type":"constructor"},{"inputs":[],"name":"AlreadyClaimed","type":"error"},{"inputs":[],"name":"BadProof","type":"error"},{"inputs":[],"name":"NotTimelock","type":"error"},{"inputs":[],"name":"TransferFailed","type":"error"},{"anonymous":false,"inputs":[{"indexed":true,"internalType":"bytes32","name":"root","type":"bytes32"}],"name":"MerkleRootUpdated","type":"event"},{"anonymous":false,"inputs":[{"indexed":false,"internalType":"address","name":"account","type":"address"}],"name":"Paused","type":"event"},{"anonymous":false,"inputs":[{"indexed":true,"internalType":"uint256","name":"index","type":"uint256"},{"indexed":true,"internalType":"address","name":"account","type":"address"},{"indexed":false,"internalType":"uint256","name":"amount","type":"uint256"}],"name":"Refunded","type":"event"},{"anonymous":false,"inputs":[{"indexed":false,"internalType":"address","name":"account","type":"address"}],"name":"Unpaused","type":"event"},{"inputs":[{"internalType":"uint256","name":"index","type":"uint256"},{"internalType":"address","name":"account","type":"address"},{"internalType":"uint256","name":"amount","type":"uint256"},{"internalType":"bytes32[]","name":"proof","type":"bytes32[]"}],"name":"claim","outputs":[],"stateMutability":"nonpayable","type":"function"},{"inputs":[{"internalType":"uint256","name":"index","type":"uint256"}],"name":"isClaimed","outputs":[{"internalType":"bool","name":"","type":"bool"}],"stateMutability":"view","type":"function"},{"inputs":[],"name":"merkleRoot","outputs":[{"internalType":"bytes32","name":"","type":"bytes32"}],"stateMutability":"view","type":"function"},{"inputs":[],"name":"pause","outputs":[],"stateMutability":"nonpayable","type":"function"},{"inputs":[],"name":"paused","outputs":[{"internalType":"bool","name":"","type":"bool"}],"stateMutability":"view","type":"function"},{"inputs":[{"internalType":"bytes32","name":"_root","type":"bytes32"}],"name":"setMerkleRoot","outputs":[],"stateMutability":"nonpayable","type":"function"},{"inputs":[],"name":"timelock","outputs":[{"internalType":"address","name":"","type":"address"}],"stateMutability":"view","type":"function"},{"inputs":[],"name":"unpause","outputs":[],"stateMutability":"nonpayable","type":"function"},{"stateMutability":"payable","type":"receive"}],"evm":{"bytecode":{"linkReferences":{},"object":"60a0346100ce57601f6107a138819003918201601f19168301916001600160401b038311848410176100d35780849260409485528339810103126100ce5780516001600160a01b038116918282036100ce576020015191600160005560ff19600154166001551561009c576080526002556040516106b790816100ea8239608051818181609801528181610121015281816101c301526102520152f35b60405162461bcd60e51b815260206004820152600a602482015269074696d656c6f636b3d360b41b6044820152606490fd5b600080fd5b634e487b7160e01b600052604160045260246000fdfe608080604052600436101561001d575b50361561001b57600080fd5b005b60003560e01c9081632e7ba6ef14610325575080632eb4a7ab146103075780633f4ba83a1461023f5780635c975abb1461021c5780637cb64759146101ad5780638456cb591461010e5780639e34070f146100cc5763d33219b414610082573861000f565b346100c75760003660031901126100c7576040517f00000000000000000000000000000000000000000000000000000000000000006001600160a01b03168152602090f35b600080fd5b346100c75760203660031901126100c75760206101046004358060081c6000526003602052600160ff60406000205492161b16151590565b6040519015158152f35b346100c75760003660031901126100c7577f00000000000000000000000000000000000000000000000000000000000000006001600160a01b0316330361019b5761015761063d565b600160ff198154161760015560206040513381527f62e78cea01bee320cd4e420270b5ea74000d11b0c9f74754ebdbfc544b05a258918291a16020604051338152a1005b60405163656a6d1560e11b8152600490fd5b346100c75760203660031901126100c7576004357f00000000000000000000000000000000000000000000000000000000000000006001600160a01b0316330361019b57806002557f90004c04698bc3322499a575ed3752dd4abf33e0a7294c06a787a0fe01bea941600080a2005b346100c75760003660031901126100c757602060ff600154166040519015158152f35b346100c75760003660031901126100c7577f00000000000000000000000000000000000000000000000000000000000000006001600160a01b0316330361019b5760015460ff8116156102cb5760ff191660015560206040513381527f5db9ee0a495bf2e6ff9c91a7834c1ba4fdd244a5e8aa4e537bd38aeae4b073aa918291a16020604051338152a1005b60405162461bcd60e51b815260206004820152601460248201527314185d5cd8589b194e881b9bdd081c185d5cd95960621b6044820152606490fd5b346100c75760003660031901126100c7576020600254604051908152f35b346100c75760803660031901126100c7576024356001600160a01b03811690036100c75767ffffffffffffffff606435116100c7573660236064350112156100c75767ffffffffffffffff60643560040135116100c7576005906064356004013560051b90366024836064350101116100c7576002600054146105d9575060026000556103b061063d565b6103d56004358060081c6000526003602052600160ff60406000205492161b16151590565b6105c7576040519160043560208401526bffffffffffffffffffffffff1960243560601b16604084015260443560548401526054835282608081011067ffffffffffffffff60808501111761058a57608083016040528251602084012060025492610446602082016080870161061b565b6064356004810135608087015260240160a086015b602483606435010182106105b757505050906000915b60808501518310156104b85782821b850160a0015190818110156104a557600052602052600160406000205b920191610471565b906000526020526001604060002061049d565b83036105a55760043560081c60005260036020526040600020600160ff600435161b8154179055600080808060443560018060a01b03602435165af13d156105a0573d67ffffffffffffffff811161058a5760405190610522601f8201601f19166020018361061b565b8152600060203d92013e5b156105785760405160443581526024356001600160a01b031690600435907f7ca5472b7ea78c2c0141c5a12ee6d170cf4ce8ed06be3d22c8252ddfc7a6a2c490602090a36001600055005b6040516312171d8360e31b8152600490fd5b634e487b7160e01b600052604160045260246000fd5b61052d565b604051637ca55c7760e01b8152600490fd5b813581526020918201910161045b565b604051630c8d9eab60e31b8152600490fd5b62461bcd60e51b815260206004820152601f60248201527f5265656e7472616e637947756172643a207265656e7472616e742063616c6c006044820152606490fd5b90601f8019910116810190811067ffffffffffffffff82111761058a57604052565b60ff6001541661064957565b60405162461bcd60e51b815260206004820152601060248201526f14185d5cd8589b194e881c185d5cd95960821b6044820152606490fdfea2646970667358221220073d0e6353b1bd8a29796d9f1d5eb9a1674f4c2786a588eed4dea4922d1df7d064736f6c63430008180033","opcodes":"PUSH1 0xA0 CALLVALUE PUSH2 0xCE JUMPI PUSH1 0x1F PUSH2 0x7A1 CODESIZE DUP2 SWAP1 SUB SWAP2 DUP3 ADD PUSH1 0x1F NOT AND DUP4 ADD SWAP2 PUSH1 0x1 PUSH1 0x1 PUSH1 0x40 SHL SUB DUP4 GT DUP5 DUP5 LT OR PUSH2 0xD3 JUMPI DUP1 DUP5 SWAP3 PUSH1 0x40 SWAP5 DUP6 MSTORE DUP4 CODECOPY DUP2 ADD SUB SLT PUSH2 0xCE JUMPI DUP1 MLOAD PUSH1 0x1 PUSH1 0x1 PUSH1 0xA0 SHL SUB DUP2 AND SWAP2 DUP3 DUP3 SUB PUSH2 0xCE JUMPI PUSH1 0x20 ADD MLOAD SWAP2 PUSH1 0x1 PUSH1 0x0 SSTORE PUSH1 0xFF NOT PUSH1 0x1 SLOAD AND PUSH1 0x1 SSTORE ISZERO PUSH2 0x9C JUMPI PUSH1 0x80 MSTORE PUSH1 0x2 SSTORE PUSH1 0x40 MLOAD PUSH2 0x6B7 SWAP1 DUP2 PUSH2 0xEA DUP3 CODECOPY PUSH1 0x80 MLOAD DUP2 DUP2 DUP2 PUSH1 0x98 ADD MSTORE DUP2 DUP2 PUSH2 0x121 ADD MSTORE DUP2 DUP2 PUSH2 0x1C3 ADD MSTORE PUSH2 0x252 ADD MSTORE RETURN JUMPDEST PUSH1 0x40 MLOAD PUSH3 0x461BCD PUSH1 0xE5 SHL DUP2 MSTORE PUSH1 0x20 PUSH1 0x4 DUP3 ADD MSTORE PUSH1 0xA PUSH1 0x24 DUP3 ADD MSTORE PUSH10 0x74696D656C6F636B3D3 PUSH1 0xB4 SHL PUSH1 0x44 DUP3 ADD MSTORE PUSH1 0x64 SWAP1 REVERT JUMPDEST PUSH1 0x0 DUP1 REVERT JUMPDEST PUSH4 0x4E487B71 PUSH1 0xE0 SHL PUSH1 0x0 MSTORE PUSH1 0x41 PUSH1 0x4 MSTORE PUSH1 0x24 PUSH1 0x0 REVERT INVALID PUSH1 0x80 DUP1 PUSH1 0x40 MSTORE PUSH1 0x4 CALLDATASIZE LT ISZERO PUSH2 0x1D JUMPI JUMPDEST POP CALLDATASIZE ISZERO PUSH2 0x1B JUMPI PUSH1 0x0 DUP1 REVERT JUMPDEST STOP JUMPDEST PUSH1 0x0 CALLDATALOAD PUSH1 0xE0 SHR SWAP1 DUP2 PUSH4 0x2E7BA6EF EQ PUSH2 0x325 JUMPI POP DUP1 PUSH4 0x2EB4A7AB EQ PUSH2 0x307 JUMPI DUP1 PUSH4 0x3F4BA83A EQ PUSH2 0x23F JUMPI DUP1 PUSH4 0x5C975ABB EQ PUSH2 0x21C JUMPI DUP1 PUSH4 0x7CB64759 EQ PUSH2 0x1AD JUMPI DUP1 PUSH4 0x8456CB59 EQ PUSH2 0x10E JUMPI DUP1 PUSH4 0x9E34070F EQ PUSH2 0xCC JUMPI PUSH4 0xD33219B4 EQ PUSH2 0x82 JUMPI CODESIZE PUSH2 0xF JUMP JUMPDEST CALLVALUE PUSH2 0xC7 JUMPI PUSH1 0x0 CALLDATASIZE PUSH1 0x3 NOT ADD SLT PUSH2 0xC7 JUMPI PUSH1 0x40 MLOAD PUSH32 0x0 PUSH1 0x1 PUSH1 0x1 PUSH1 0xA0 SHL SUB AND DUP2 MSTORE PUSH1 0x20 SWAP1 RETURN JUMPDEST PUSH1 0x0 DUP1 REVERT JUMPDEST CALLVALUE PUSH2 0xC7 JUMPI PUSH1 0x20 CALLDATASIZE PUSH1 0x3 NOT ADD SLT PUSH2 0xC7 JUMPI PUSH1 0x20 PUSH2 0x104 PUSH1 0x4 CALLDATALOAD DUP1 PUSH1 0x8 SHR PUSH1 0x0 MSTORE PUSH1 0x3 PUSH1 0x20 MSTORE PUSH1 0x1 PUSH1 0xFF PUSH1 0x40 PUSH1 0x0 KECCAK256 SLOAD SWAP3 AND SHL AND ISZERO ISZERO SWAP1 JUMP JUMPDEST PUSH1 0x40 MLOAD SWAP1 ISZERO ISZERO DUP2 MSTORE RETURN JUMPDEST CALLVALUE PUSH2 0xC7 JUMPI PUSH1 0x0 CALLDATASIZE PUSH1 0x3 NOT ADD SLT PUSH2 0xC7 JUMPI PUSH32 0x0 PUSH1 0x1 PUSH1 0x1 PUSH1 0xA0 SHL SUB AND CALLER SUB PUSH2 0x19B JUMPI PUSH2 0x157 PUSH2 0x63D JUMP JUMPDEST PUSH1 0x1 PUSH1 0xFF NOT DUP2 SLOAD AND OR PUSH1 0x1 SSTORE PUSH1 0x20 PUSH1 0x40 MLOAD CALLER DUP2 MSTORE PUSH32 0x62E78CEA01BEE320CD4E420270B5EA74000D11B0C9F74754EBDBFC544B05A258 SWAP2 DUP3 SWAP2 LOG1 PUSH1 0x20 PUSH1 0x40 MLOAD CALLER DUP2 MSTORE LOG1 STOP JUMPDEST PUSH1 0x40 MLOAD PUSH4 0x656A6D15 PUSH1 0xE1 SHL DUP2 MSTORE PUSH1 0x4 SWAP1 REVERT JUMPDEST CALLVALUE PUSH2 0xC7 JUMPI PUSH1 0x20 CALLDATASIZE PUSH1 0x3 NOT ADD SLT PUSH2 0xC7 JUMPI PUSH1 0x4 CALLDATALOAD PUSH32 0x0 PUSH1 0x1 PUSH1 0x1 PUSH1 0xA0 SHL SUB AND CALLER SUB PUSH2 0x19B JUMPI DUP1 PUSH1 0x2 SSTORE PUSH32 0x90004C04698BC3322499A575ED3752DD4ABF33E0A7294C06A787A0FE01BEA941 PUSH1 0x0 DUP1 LOG2 STOP JUMPDEST CALLVALUE PUSH2 0xC7 JUMPI PUSH1 0x0 CALLDATASIZE PUSH1 0x3 NOT ADD SLT PUSH2 0xC7 JUMPI PUSH1 0x20 PUSH1 0xFF PUSH1 0x1 SLOAD AND PUSH1 0x40 MLOAD SWAP1 ISZERO ISZERO DUP2 MSTORE RETURN JUMPDEST CALLVALUE PUSH2 0xC7 JUMPI PUSH1 0x0 CALLDATASIZE PUSH1 0x3 NOT ADD SLT PUSH2 0xC7 JUMPI PUSH32 0x0 PUSH1 0x1 PUSH1 0x1 PUSH1 0xA0 SHL SUB AND CALLER SUB PUSH2 0x19B JUMPI PUSH1 0x1 SLOAD PUSH1 0xFF DUP2 AND ISZERO PUSH2 0x2CB JUMPI PUSH1 0xFF NOT AND PUSH1 0x1 SSTORE PUSH1 0x20 PUSH1 0x40 MLOAD CALLER DUP2 MSTORE PUSH32 0x5DB9EE0A495BF2E6FF9C91A7834C1BA4FDD244A5E8AA4E537BD38AEAE4B073AA SWAP2 DUP3 SWAP2 LOG1 PUSH1 0x20 PUSH1 0x40 MLOAD CALLER DUP2 MSTORE LOG1 STOP JUMPDEST PUSH1 0x40 MLOAD PUSH3 0x461BCD PUSH1 0xE5 SHL DUP2 MSTORE PUSH1 0x20 PUSH1 0x4 DUP3 ADD MSTORE PUSH1 0x14 PUSH1 0x24 DUP3 ADD MSTORE PUSH20 0x14185D5CD8589B194E881B9BDD081C185D5CD959 PUSH1 0x62 SHL PUSH1 0x44 DUP3 ADD MSTORE PUSH1 0x64 SWAP1 REVERT JUMPDEST CALLVALUE PUSH2 0xC7 JUMPI PUSH1 0x0 CALLDATASIZE PUSH1 0x3 NOT ADD SLT PUSH2 0xC7 JUMPI PUSH1 0x20 PUSH1 0x2 SLOAD PUSH1 0x40 MLOAD SWAP1 DUP2 MSTORE RETURN JUMPDEST CALLVALUE PUSH2 0xC7 JUMPI PUSH1 0x80 CALLDATASIZE PUSH1 0x3 NOT ADD SLT PUSH2 0xC7 JUMPI PUSH1 0x24 CALLDATALOAD PUSH1 0x1 PUSH1 0x1 PUSH1 0xA0 SHL SUB DUP2 AND SWAP1 SUB PUSH2 0xC7 JUMPI PUSH8 0xFFFFFFFFFFFFFFFF PUSH1 0x64 CALLDATALOAD GT PUSH2 0xC7 JUMPI CALLDATASIZE PUSH1 0x23 PUSH1 0x64 CALLDATALOAD ADD SLT ISZERO PUSH2 0xC7 JUMPI PUSH8 0xFFFFFFFFFFFFFFFF PUSH1 0x64 CALLDATALOAD PUSH1 0x4 ADD CALLDATALOAD GT PUSH2 0xC7 JUMPI PUSH1 0x5 SWAP1 PUSH1 0x64 CALLDATALOAD PUSH1 0x4 ADD CALLDATALOAD PUSH1 0x5 SHL SWAP1 CALLDATASIZE PUSH1 0x24 DUP4 PUSH1 0x64 CALLDATALOAD ADD ADD GT PUSH2 0xC7 JUMPI PUSH1 0x2 PUSH1 0x0 SLOAD EQ PUSH2 0x5D9 JUMPI POP PUSH1 0x2 PUSH1 0x0 SSTORE PUSH2 0x3B0 PUSH2 0x63D JUMP JUMPDEST PUSH2 0x3D5 PUSH1 0x4 CALLDATALOAD DUP1 PUSH1 0x8 SHR PUSH1 0x0 MSTORE PUSH1 0x3 PUSH1 0x20 MSTORE PUSH1 0x1 PUSH1 0xFF PUSH1 0x40 PUSH1 0x0 KECCAK256 SLOAD SWAP3 AND SHL AND ISZERO ISZERO SWAP1 JUMP JUMPDEST PUSH2 0x5C7 JUMPI PUSH1 0x40 MLOAD SWAP2 PUSH1 0x4 CALLDATALOAD PUSH1 0x20 DUP5 ADD MSTORE PUSH12 0xFFFFFFFFFFFFFFFFFFFFFFFF NOT PUSH1 0x24 CALLDATALOAD PUSH1 0x60 SHL AND PUSH1 0x40 DUP5 ADD MSTORE PUSH1 0x44 CALLDATALOAD PUSH1 0x54 DUP5 ADD MSTORE PUSH1 0x54 DUP4 MSTORE DUP3 PUSH1 0x80 DUP2 ADD LT PUSH8 0xFFFFFFFFFFFFFFFF PUSH1 0x80 DUP6 ADD GT OR PUSH2 0x58A JUMPI PUSH1 0x80 DUP4 ADD PUSH1 0x40 MSTORE DUP3 MLOAD PUSH1 0x20 DUP5 ADD KECCAK256 PUSH1 0x2 SLOAD SWAP3 PUSH2 0x446 PUSH1 0x20 DUP3 ADD PUSH1 0x80 DUP8 ADD PUSH2 0x61B JUMP JUMPDEST PUSH1 0x64 CALLDATALOAD PUSH1 0x4 DUP2 ADD CALLDATALOAD PUSH1 0x80 DUP8 ADD MSTORE PUSH1 0x24 ADD PUSH1 0xA0 DUP7 ADD JUMPDEST PUSH1 0x24 DUP4 PUSH1 0x64 CALLDATALOAD ADD ADD DUP3 LT PUSH2 0x5B7 JUMPI POP POP POP SWAP1 PUSH1 0x0 SWAP2 JUMPDEST PUSH1 0x80 DUP6 ADD MLOAD DUP4 LT ISZERO PUSH2 0x4B8 JUMPI DUP3 DUP3 SHL DUP6 ADD PUSH1 0xA0 ADD MLOAD SWAP1 DUP2 DUP2 LT ISZERO PUSH2 0x4A5 JUMPI PUSH1 0x0 MSTORE PUSH1 0x20 MSTORE PUSH1 0x1 PUSH1 0x40 PUSH1 0x0 KECCAK256 JUMPDEST SWAP3 ADD SWAP2 PUSH2 0x471 JUMP JUMPDEST SWAP1 PUSH1 0x0 MSTORE PUSH1 0x20 MSTORE PUSH1 0x1 PUSH1 0x40 PUSH1 0x0 KECCAK256 PUSH2 0x49D JUMP JUMPDEST DUP4 SUB PUSH2 0x5A5 JUMPI PUSH1 0x4 CALLDATALOAD PUSH1 0x8 SHR PUSH1 0x0 MSTORE PUSH1 0x3 PUSH1 0x20 MSTORE PUSH1 0x40 PUSH1 0x0 KECCAK256 PUSH1 0x1 PUSH1 0xFF PUSH1 0x4 CALLDATALOAD AND SHL DUP2 SLOAD OR SWAP1 SSTORE PUSH1 0x0 DUP1 DUP1 DUP1 PUSH1 0x44 CALLDATALOAD PUSH1 0x1 DUP1 PUSH1 0xA0 SHL SUB PUSH1 0x24 CALLDATALOAD AND GAS CALL RETURNDATASIZE ISZERO PUSH2 0x5A0 JUMPI RETURNDATASIZE PUSH8 0xFFFFFFFFFFFFFFFF DUP2 GT PUSH2 0x58A JUMPI PUSH1 0x40 MLOAD SWAP1 PUSH2 0x522 PUSH1 0x1F DUP3 ADD PUSH1 0x1F NOT AND PUSH1 0x20 ADD DUP4 PUSH2 0x61B JUMP JUMPDEST DUP2 MSTORE PUSH1 0x0 PUSH1 0x20 RETURNDATASIZE SWAP3 ADD RETURNDATACOPY JUMPDEST ISZERO PUSH2 0x578 JUMPI PUSH1 0x40 MLOAD PUSH1 0x44 CALLDATALOAD DUP2 MSTORE PUSH1 0x24 CALLDATALOAD PUSH1 0x1 PUSH1 0x1 PUSH1 0xA0 SHL SUB AND SWAP1 PUSH1 0x4 CALLDATALOAD SWAP1 PUSH32 0x7CA5472B7EA78C2C0141C5A12EE6D170CF4CE8ED06BE3D22C8252DDFC7A6A2C4 SWAP1 PUSH1 0x20 SWAP1 LOG3 PUSH1 0x1 PUSH1 0x0 SSTORE STOP JUMPDEST PUSH1 0x40 MLOAD PUSH4 0x12171D83 PUSH1 0xE3 SHL DUP2 MSTORE PUSH1 0x4 SWAP1 REVERT JUMPDEST PUSH4 0x4E487B71 PUSH1 0xE0 SHL PUSH1 0x0 MSTORE PUSH1 0x41 PUSH1 0x4 MSTORE PUSH1 0x24 PUSH1 0x0 REVERT JUMPDEST PUSH2 0x52D JUMP JUMPDEST PUSH1 0x40 MLOAD PUSH4 0x7CA55C77 PUSH1 0xE0 SHL DUP2 MSTORE PUSH1 0x4 SWAP1 REVERT JUMPDEST DUP2 CALLDATALOAD DUP2 MSTORE PUSH1 0x20 SWAP2 DUP3 ADD SWAP2 ADD PUSH2 0x45B JUMP JUMPDEST PUSH1 0x40 MLOAD PUSH4 0xC8D9EAB PUSH1 0xE3 SHL DUP2 MSTORE PUSH1 0x4 SWAP1 REVERT JUMPDEST PUSH3 0x461BCD PUSH1 0xE5 SHL DUP2 MSTORE PUSH1 0x20 PUSH1 0x4 DUP3 ADD MSTORE PUSH1 0x1F PUSH1 0x24 DUP3 ADD MSTORE PUSH32 0x5265656E7472616E637947756172643A207265656E7472616E742063616C6C00 PUSH1 0x44 DUP3 ADD MSTORE PUSH1 0x64 SWAP1 REVERT JUMPDEST SWAP1 PUSH1 0x1F DUP1 NOT SWAP2 ADD AND DUP2 ADD SWAP1 DUP2 LT PUSH8 0xFFFFFFFFFFFFFFFF DUP3 GT OR PUSH2 0x58A JUMPI PUSH1 0x40 MSTORE JUMP JUMPDEST PUSH1 0xFF PUSH1 0x1 SLOAD AND PUSH2 0x649 JUMPI JUMP JUMPDEST PUSH1 0x40 MLOAD PUSH3 0x461BCD PUSH1 0xE5 SHL DUP2 MSTORE PUSH1 0x20 PUSH1 0x4 DUP3 ADD MSTORE PUSH1 0x10 PUSH1 0x24 DUP3 ADD MSTORE PUSH16 0x14185D5CD8589B194E881C185D5CD959 PUSH1 0x82 SHL PUSH1 0x44 DUP3 ADD MSTORE PUSH1 0x64 SWAP1 REVERT INVALID LOG2 PUSH5 0x6970667358 0x22 SLT KECCAK256 SMOD RETURNDATASIZE 0xE PUSH4 0x53B1BD8A 0x29 PUSH26 0x6D9F1D5EB9A1674F4C2786A588EED4DEA4922D1DF7D064736F6C PUSH4 0x43000818 STOP CALLER "},"methodIdentifiers":{"claim(uint256,address,uint256,bytes32[])":"2e7ba6ef","isClaimed(uint256)":"9e34070f","merkleRoot()":"2eb4a7ab","pause()":"8456cb59","paused()":"5c975abb","setMerkleRoot(bytes32)":"7cb64759","timelock()":"d33219b4","unpause()":"3f4ba83a"}},"storageLayout":{"storage":[{"astId":535,"contract":"contracts/refund/RefundManager.sol:RefundManager","label":"_status","offset":0,"slot":"0","type":"t_uint256"},{"astId":434,"contract":"contracts/refund/RefundManager.sol:RefundManager","label":"_paused","offset":0,"slot":"1","type":"t_bool"},{"astId":4165,"contract":"contracts/refund/RefundManager.sol:RefundManager","label":"merkleRoot","offset":0,"slot":"2","type":"t_bytes32"},{"astId":4169,"contract":"contracts/refund/RefundManager.sol:RefundManager","label":"claimedBits","offset":0,"slot":"3","type":"t_mapping(t_uint256,t_uint256)"}],"types":{"t_bool":{"encoding":"inplace","label":"bool","numberOfBytes":"1"},"t_bytes32":{"encoding":"inplace","label":"bytes32","numberOfBytes":"32"},"t_mapping(t_uint256,t_uint256)":{"encoding":"mapping","key":"t_uint256","label":"mapping(uint256 => uint256)","numberOfBytes":"32","value":"t_uint256"},"t_uint256":{"encoding":"inplace","label":"uint256","numberOfBytes":"32"}}}}}}