{"contracts/nft/BaronNFT.sol":{"BaronNFT":{"abi":[{"inputs":[{"internalType":"address","name":"admin","type":"address"}],"stateMutability":"nonpayable","type":"constructor"},{"anonymous":false,"inputs":[{"indexed":true,"internalType":"address","name":"owner","type":"address"},{"indexed":true,"internalType":"address","name":"approved","type":"address"},{"indexed":true,"internalType":"uint256","name":"tokenId","type":"uint256"}],"name":"Approval","type":"event"},{"anonymous":false,"inputs":[{"indexed":true,"internalType":"address","name":"owner","type":"address"},{"indexed":true,"internalType":"address","name":"operator","type":"address"},{"indexed":false,"internalType":"bool","name":"approved","type":"bool"}],"name":"ApprovalForAll","type":"event"},{"anonymous":false,"inputs":[],"name":"BaseURIFrozen","type":"event"},{"anonymous":false,"inputs":[{"indexed":false,"internalType":"string","name":"newBaseURI","type":"string"}],"name":"BaseURISet","type":"event"},{"anonymous":false,"inputs":[{"indexed":false,"internalType":"uint256","name":"_fromTokenId","type":"uint256"},{"indexed":false,"internalType":"uint256","name":"_toTokenId","type":"uint256"}],"name":"BatchMetadataUpdate","type":"event"},{"anonymous":false,"inputs":[{"indexed":false,"internalType":"uint256","name":"_tokenId","type":"uint256"}],"name":"MetadataUpdate","type":"event"},{"anonymous":false,"inputs":[{"indexed":true,"internalType":"bytes32","name":"role","type":"bytes32"},{"indexed":true,"internalType":"bytes32","name":"previousAdminRole","type":"bytes32"},{"indexed":true,"internalType":"bytes32","name":"newAdminRole","type":"bytes32"}],"name":"RoleAdminChanged","type":"event"},{"anonymous":false,"inputs":[{"indexed":true,"internalType":"bytes32","name":"role","type":"bytes32"},{"indexed":true,"internalType":"address","name":"account","type":"address"},{"indexed":true,"internalType":"address","name":"sender","type":"address"}],"name":"RoleGranted","type":"event"},{"anonymous":false,"inputs":[{"indexed":true,"internalType":"bytes32","name":"role","type":"bytes32"},{"indexed":true,"internalType":"address","name":"account","type":"address"},{"indexed":true,"internalType":"address","name":"sender","type":"address"}],"name":"RoleRevoked","type":"event"},{"anonymous":false,"inputs":[{"indexed":true,"internalType":"address","name":"from","type":"address"},{"indexed":true,"internalType":"address","name":"to","type":"address"},{"indexed":true,"internalType":"uint256","name":"tokenId","type":"uint256"}],"name":"Transfer","type":"event"},{"inputs":[],"name":"DEFAULT_ADMIN_ROLE","outputs":[{"internalType":"bytes32","name":"","type":"bytes32"}],"stateMutability":"view","type":"function"},{"inputs":[],"name":"MINTER_ROLE","outputs":[{"internalType":"bytes32","name":"","type":"bytes32"}],"stateMutability":"view","type":"function"},{"inputs":[{"internalType":"address","name":"to","type":"address"},{"internalType":"uint256","name":"tokenId","type":"uint256"}],"name":"approve","outputs":[],"stateMutability":"nonpayable","type":"function"},{"inputs":[{"internalType":"address","name":"owner","type":"address"}],"name":"balanceOf","outputs":[{"internalType":"uint256","name":"","type":"uint256"}],"stateMutability":"view","type":"function"},{"inputs":[],"name":"baseURIFrozen","outputs":[{"internalType":"bool","name":"","type":"bool"}],"stateMutability":"view","type":"function"},{"inputs":[],"name":"freezeBaseURI","outputs":[],"stateMutability":"nonpayable","type":"function"},{"inputs":[{"internalType":"uint256","name":"tokenId","type":"uint256"}],"name":"getApproved","outputs":[{"internalType":"address","name":"","type":"address"}],"stateMutability":"view","type":"function"},{"inputs":[{"internalType":"bytes32","name":"role","type":"bytes32"}],"name":"getRoleAdmin","outputs":[{"internalType":"bytes32","name":"","type":"bytes32"}],"stateMutability":"view","type":"function"},{"inputs":[{"internalType":"bytes32","name":"role","type":"bytes32"},{"internalType":"address","name":"account","type":"address"}],"name":"grantRole","outputs":[],"stateMutability":"nonpayable","type":"function"},{"inputs":[{"internalType":"bytes32","name":"role","type":"bytes32"},{"internalType":"address","name":"account","type":"address"}],"name":"hasRole","outputs":[{"internalType":"bool","name":"","type":"bool"}],"stateMutability":"view","type":"function"},{"inputs":[{"internalType":"address","name":"owner","type":"address"},{"internalType":"address","name":"operator","type":"address"}],"name":"isApprovedForAll","outputs":[{"internalType":"bool","name":"","type":"bool"}],"stateMutability":"view","type":"function"},{"inputs":[{"internalType":"address","name":"to","type":"address"},{"internalType":"string","name":"tokenURI_","type":"string"}],"name":"mint","outputs":[{"internalType":"uint256","name":"","type":"uint256"}],"stateMutability":"nonpayable","type":"function"},{"inputs":[],"name":"name","outputs":[{"internalType":"string","name":"","type":"string"}],"stateMutability":"view","type":"function"},{"inputs":[{"internalType":"uint256","name":"tokenId","type":"uint256"}],"name":"ownerOf","outputs":[{"internalType":"address","name":"","type":"address"}],"stateMutability":"view","type":"function"},{"inputs":[{"internalType":"bytes32","name":"role","type":"bytes32"},{"internalType":"address","name":"account","type":"address"}],"name":"renounceRole","outputs":[],"stateMutability":"nonpayable","type":"function"},{"inputs":[{"internalType":"bytes32","name":"role","type":"bytes32"},{"internalType":"address","name":"account","type":"address"}],"name":"revokeRole","outputs":[],"stateMutability":"nonpayable","type":"function"},{"inputs":[{"internalType":"address","name":"from","type":"address"},{"internalType":"address","name":"to","type":"address"},{"internalType":"uint256","name":"tokenId","type":"uint256"}],"name":"safeTransferFrom","outputs":[],"stateMutability":"nonpayable","type":"function"},{"inputs":[{"internalType":"address","name":"from","type":"address"},{"internalType":"address","name":"to","type":"address"},{"internalType":"uint256","name":"tokenId","type":"uint256"},{"internalType":"bytes","name":"data","type":"bytes"}],"name":"safeTransferFrom","outputs":[],"stateMutability":"nonpayable","type":"function"},{"inputs":[{"internalType":"address","name":"operator","type":"address"},{"internalType":"bool","name":"approved","type":"bool"}],"name":"setApprovalForAll","outputs":[],"stateMutability":"nonpayable","type":"function"},{"inputs":[{"internalType":"string","name":"newBaseURI","type":"string"}],"name":"setBaseURI","outputs":[],"stateMutability":"nonpayable","type":"function"},{"inputs":[{"internalType":"bytes4","name":"interfaceId","type":"bytes4"}],"name":"supportsInterface","outputs":[{"internalType":"bool","name":"","type":"bool"}],"stateMutability":"view","type":"function"},{"inputs":[],"name":"symbol","outputs":[{"internalType":"string","name":"","type":"string"}],"stateMutability":"view","type":"function"},{"inputs":[{"internalType":"uint256","name":"tokenId","type":"uint256"}],"name":"tokenURI","outputs":[{"internalType":"string","name":"","type":"string"}],"stateMutability":"view","type":"function"},{"inputs":[{"internalType":"address","name":"from","type":"address"},{"internalType":"address","name":"to","type":"address"},{"internalType":"uint256","name":"tokenId","type":"uint256"}],"name":"transferFrom","outputs":[],"stateMutability":"nonpayable","type":"function"}],"evm":{"bytecode":{"linkReferences":{},"object":"6080346200045757601f6200266638819003828101601f1990811685019490926001600160401b0392838711838810176200044157808392604098895283396020928391810103126200045757516001600160a01b038116929083900362000457576200006b6200045c565b94600986526810985c9bdb8813919560ba1b838701526200008b6200045c565b600381526221292760e91b8482015286519583871162000441576000968754986001998a81811c9116801562000436575b888210146200042257908186849311620003cf575b5087908683116001146200036e578a9262000362575b5050600019600383901b1c191690891b1787555b81519384116200034e5787548881811c9116801562000343575b868210146200032f579081848695949311620002d8575b508592841160011462000277575086926200026b575b5050600019600383901b1c191690851b1784555b81156200023e5782805260078152848320828452815260ff85842054161562000206575b7f9f2df0fed2c77648de5860a4cc508cd0818c85b8b8a1ab4ceeef8d981c8956a69081845260078152858420838552815260ff868520541615620001cc575b8585600855516121c990816200047d8239f35b8184526007815285842090838552528483208460ff1982541617905560008051602062002646833981519152339380a438808080620001b9565b828052600781528483208284528152848320805460ff191685179055338284600080516020620026468339815191528180a46200017a565b60649085519062461bcd60e51b825260048201526007602482015266061646d696e3d360cc1b6044820152fd5b01519050388062000142565b88885285882089959093929116885b87828210620002c15750508411620002a7575b505050811b01845562000156565b015160001960f88460031b161c1916905538808062000299565b8385015186558b9790950194938401930162000286565b90919293508888528588208480870160051c82019288881062000325575b9187968c92969594930160051c01915b828110620003165750506200012c565b8a81558796508b910162000306565b92508192620002f6565b634e487b7160e01b88526022600452602488fd5b90607f169062000115565b634e487b7160e01b87526041600452602487fd5b015190503880620000e7565b90848c9416918b8052898c20928c5b8b828210620003b857505084116200039e575b505050811b018755620000fb565b015160001960f88460031b161c1916905538808062000390565b8385015186558f979095019493840193016200037d565b909150898052878a208680850160051c8201928a861062000418575b918d91869594930160051c01915b82811062000409575050620000d1565b8c81558594508d9101620003f9565b92508192620003eb565b634e487b7160e01b8a52602260045260248afd5b90607f1690620000bc565b634e487b7160e01b600052604160045260246000fd5b600080fd5b60408051919082016001600160401b03811183821017620004415760405256fe608060408181526004918236101561001657600080fd5b600092833560e01c91826301ffc9a71461119c5750816306fdde03146110eb578163081812fc146110cb578163095ea7b314610f5d57816323b872dd14610f38578163248a9ca314610f0d5781632f2ff15d14610e6057816336568abe14610dce57816342842e0e14610d9a57816355f804b314610b625781636352211e14610b3157816370a0823114610a9b57816391d1485414610a5457816395d89b4114610969578163a217fddf1461094e578163a22cb4651461087e578163b88d4fde146107f8578163c87b56dd146107c0578163d0def5211461026e578163d539139314610233578163d547741f146101f057508063e7bc8208146101a0578063e985e9c5146101535763fb565bfd1461012d57600080fd5b3461014f578160031936011261014f5760209060ff6009541690519015158152f35b5080fd5b503461014f578060031936011261014f5760ff81602093610172611283565b61017a61129e565b6001600160a01b0391821683526005875283832091168252855220549151911615158152f35b82346101ed57806003193601126101ed576101b961179c565b600160ff1960095416176009557fcb8ee1250825b65fb9f9db82cf9039335db3185b4258fa3f81453f21741b42518180a180f35b80fd5b9190503461022f578060031936011261022f5761022c9135610227600161021561129e565b9383875260076020528620015461196a565b611a76565b80f35b8280fd5b50503461014f578160031936011261014f57602090517f9f2df0fed2c77648de5860a4cc508cd0818c85b8b8a1ab4ceeef8d981c8956a68152f35b9190503461022f578060031936011261022f57610289611283565b91602467ffffffffffffffff81358181116107bc57366023820112156107bc576102bb90369084818701359101611375565b917f9f2df0fed2c77648de5860a4cc508cd0818c85b8b8a1ab4ceeef8d981c8956a69687815260209760078952868220338352895260ff8783205416156105f7575060085496600019928389146105e657600191828a01600855885190610321826112e9565b8482526001600160a01b03811680156105a657918b6103df92818f958e60026103e49861036c61036686600052600260205260018060a01b0360406000205416151590565b15612147565b60008581526002602052604090205461038f906001600160a01b03161515610366565b838d5260038152828d2080548d019055848d52528a2080546001600160a01b03191682179055897fddf252ad1be2c89b69c2b068fc378daa952ba7f163c4a11628f55a4df523b3ef8180a4611e6d565b611b3f565b6000898152600260205260409020546001600160a01b03161561054e5788835260068a5287832096865195861161053d57505061042186546113ac565b601f81116104f7575b508892601f85116001146104965750509061045a938361048b575b50508160011b916000199060031b1c19161790565b90555b7ff8e1a15aba9398e019f0b49df1a4fde98ee17ae345cb5f6b5e2c27f5033e8ce7838251848152a151908152f35b015190503880610445565b9192909484601f1981168886528b8620955b8c898383106104e057505050106104c8575b50505050811b01905561045d565b01519060f88460031b161c19169055388080806104ba565b8686015189559097019694850194889350016104a8565b868352898320601f860160051c8101918b8710610533575b601f0160051c019082905b82811061052857505061042a565b84815501829061051a565b909150819061050f565b634e487b7160e01b84526041905282fd5b86602e6084928c8b519362461bcd60e51b85528401528201527f45524337323155524953746f726167653a2055524920736574206f66206e6f6e60448201526d32bc34b9ba32b73a103a37b5b2b760911b6064820152fd5b60648a8e86818f519362461bcd60e51b85528401528201527f4552433732313a206d696e7420746f20746865207a65726f20616464726573736044820152fd5b634e487b7160e01b83526011875282fd5b91868993879361060633612037565b918351906106138261131b565b604282528782019260603685378251156107aa5760308453825190600191600110156107985790607860218501536041915b81831161072f575050506106ef5760486106eb959385936106d3936106c4975197889376020b1b1b2b9b9a1b7b73a3937b61d1030b1b1b7bab73a1604d1b8d86015261069b8d825192839160378901910161123b565b8401917001034b99036b4b9b9b4b733903937b6329607d1b60378401525180938684019061123b565b01036028810186520184611337565b5194859462461bcd60e51b865285015283019061125e565b0390fd5b60648688878188519362461bcd60e51b85528401528201527f537472696e67733a20686578206c656e67746820696e73756666696369656e746044820152fd5b909192600f81166010811015610786576f181899199a1a9b1b9c1cb0b131b232b360811b901a61075f8587612010565b53891c92801561077457600019019190610645565b634e487b7160e01b825260118a528882fd5b634e487b7160e01b835260328b528983fd5b634e487b7160e01b8152603289528790fd5b634e487b7160e01b8152603288528690fd5b8680fd5b8284346101ed5760203660031901126101ed57506107e16107f49235611b5f565b905191829160208352602083019061125e565b0390f35b83903461014f57608036600319011261014f57610813611283565b9061081c61129e565b916044356064359367ffffffffffffffff851161087a573660238601121561087a576108576103df9486602461022c98369301359101611375565b9261086a61086584336115be565b6114ea565b610875838383611686565b611f87565b8580fd5b9190503461022f578060031936011261022f57610899611283565b906024359182151580930361094a576001600160a01b0316923384146109085750338452600560205280842083855260205280842060ff1981541660ff8416179055519081527f17307eab39ab6107e8899845ad3d59bd9653f200f220920489ca2b5937696c3160203392a380f35b6020606492519162461bcd60e51b8352820152601960248201527f4552433732313a20617070726f766520746f2063616c6c6572000000000000006044820152fd5b8480fd5b50503461014f578160031936011261014f5751908152602090f35b8284346101ed57806003193601126101ed57815191828260019360015494610990866113ac565b9182855260209687600182169182600014610a2d5750506001146109d1575b5050506107f492916109c2910385611337565b5192828493845283019061125e565b9190869350600183527fb10e2d527612073b26eecdfd717e6a320cf44b4afac2b0732d9fcbe2b7fa0cf65b828410610a1557505050820101816109c26107f46109af565b8054848a0186015288955087949093019281016109fc565b60ff19168782015293151560051b860190930193508492506109c291506107f490506109af565b90503461022f578160031936011261022f578160209360ff92610a7561129e565b90358252600786528282206001600160a01b039091168252855220549151911615158152f35b8391503461014f57602036600319011261014f576001600160a01b03610abf611283565b16908115610adc5760208480858581526003845220549051908152f35b608490602085519162461bcd60e51b8352820152602960248201527f4552433732313a2061646472657373207a65726f206973206e6f7420612076616044820152683634b21037bbb732b960b91b6064820152fd5b8284346101ed5760203660031901126101ed5750610b5160209235611598565b90516001600160a01b039091168152f35b8391503461014f576020928360031936011261022f5781359367ffffffffffffffff9283861161094a573660238701121561094a578581013593841161094a576024903682868901011161087a57610bb861179c565b60ff60095416610d715750610bce600a546113ac565b601f8111610d0f575b5084601f8511600114610c6557818697610c2c8780809681967ff9c7803e94e0d3c02900d8a90893a6d5e90dd04d32a4cfe825520f82bf9f32f69c92610c585750508160011b916000199060031b1c19161790565b600a555b855196858896875286015201848401378181018301869052601f01601f19168101030190a180f35b850101359050848d610445565b600a8652957fc65a7bb8d6351c1cf70c95a316cc6a92839c986682d98bc35f958f4883f9d2a8601f198616875b818110610cf65750918693917ff9c7803e94e0d3c02900d8a90893a6d5e90dd04d32a4cfe825520f82bf9f32f6989985809510610cda575b5050600183811b01600a55610c30565b8201830135600019600386901b60f8161c191690558980610cca565b838a018501358355988501986001909201918501610c92565b600a86527fc65a7bb8d6351c1cf70c95a316cc6a92839c986682d98bc35f958f4883f9d2a8601f860160051c810191848710610d67575b601f0160051c01905b818110610d5c5750610bd7565b868155600101610d4f565b9091508190610d46565b60066064928486519362461bcd60e51b855284015282015265333937bd32b760d11b6044820152fd5b50503461014f576103df61022c91610db1366112b4565b91925192610dbe846112e9565b86845261086a61086584336115be565b8391503461014f578260031936011261014f57610de961129e565b90336001600160a01b03831603610e05579061022c9135611a76565b608490602085519162461bcd60e51b8352820152602f60248201527f416363657373436f6e74726f6c3a2063616e206f6e6c792072656e6f756e636560448201526e103937b632b9903337b91039b2b63360891b6064820152fd5b90503461022f578160031936011261022f573590610e7c61129e565b908284526007602052610e946001828620015461196a565b828452600760209081528185206001600160a01b039093168086529290528084205460ff1615610ec2578380f35b82845260076020528084208285526020528320600160ff1982541617905533917f2f8788117e7eff1d82e926ec794901d17c78024a50270940304540a733656f0d8480a43880808380f35b90503461022f57602036600319011261022f5781602093600192358152600785522001549051908152f35b83346101ed5761022c610f4a366112b4565b91610f5861086584336115be565b611686565b90503461022f578160031936011261022f57610f77611283565b6024359290916001600160a01b0391908280610f9287611598565b1694169380851461107e5780331490811561105f575b5015610ff757848652602052842080546001600160a01b03191683179055610fcf83611598565b167f8c5be1e5ebec7d5bd14f71427d1e84f3dd0314c0f7b2291e5b200ac8c7c3b9258480a480f35b6020608492519162461bcd60e51b8352820152603d60248201527f4552433732313a20617070726f76652063616c6c6572206973206e6f7420746f60448201527f6b656e206f776e6572206f7220617070726f76656420666f7220616c6c0000006064820152fd5b90508652600560205281862033875260205260ff828720541638610fa8565b506020608492519162461bcd60e51b8352820152602160248201527f4552433732313a20617070726f76616c20746f2063757272656e74206f776e656044820152603960f91b6064820152fd5b8284346101ed5760203660031901126101ed5750610b51602092356114ac565b8284346101ed57806003193601126101ed578151918282835461110d816113ac565b9081845260209560019187600182169182600014610a2d575050600114611141575050506107f492916109c2910385611337565b91908693508280527f290decd9548b62a8d60345a988386fc84ba6bc95484008f6362f93160ef3e5635b82841061118457505050820101816109c26107f46109af565b8054848a01860152889550879490930192810161116b565b84913461022f57602036600319011261022f573563ffffffff60e01b811680910361022f5760209250637965db0b60e01b81149081156111de575b5015158152f35b632483248360e11b8114915081156111f8575b50836111d7565b6380ac58cd60e01b81149150811561122a575b8115611219575b50836111f1565b6301ffc9a760e01b14905083611212565b635b5e139f60e01b8114915061120b565b60005b83811061124e5750506000910152565b818101518382015260200161123e565b906020916112778151809281855285808601910161123b565b601f01601f1916010190565b600435906001600160a01b038216820361129957565b600080fd5b602435906001600160a01b038216820361129957565b6060906003190112611299576001600160a01b0390600435828116810361129957916024359081168103611299579060443590565b6020810190811067ffffffffffffffff82111761130557604052565b634e487b7160e01b600052604160045260246000fd5b6080810190811067ffffffffffffffff82111761130557604052565b90601f8019910116810190811067ffffffffffffffff82111761130557604052565b67ffffffffffffffff811161130557601f01601f191660200190565b92919261138182611359565b9161138f6040519384611337565b829481845281830111611299578281602093846000960137010152565b90600182811c921680156113dc575b60208310146113c657565b634e487b7160e01b600052602260045260246000fd5b91607f16916113bb565b60405190600082600a54916113fa836113ac565b808352926020906001908181169081156114885750600114611427575b505061142592500383611337565b565b915092600a6000527fc65a7bb8d6351c1cf70c95a316cc6a92839c986682d98bc35f958f4883f9d2a8936000925b82841061147057506114259450505081016020013880611417565b85548885018301529485019487945092810192611455565b9150506020925061142594915060ff191682840152151560051b8201013880611417565b6000818152600260205260409020546114cf906001600160a01b0316151561154c565b6000908152600460205260409020546001600160a01b031690565b156114f157565b60405162461bcd60e51b815260206004820152602d60248201527f4552433732313a2063616c6c6572206973206e6f7420746f6b656e206f776e6560448201526c1c881bdc88185c1c1c9bdd9959609a1b6064820152608490fd5b1561155357565b60405162461bcd60e51b815260206004820152601860248201527f4552433732313a20696e76616c696420746f6b656e20494400000000000000006044820152606490fd5b6000908152600260205260409020546001600160a01b03166115bb81151561154c565b90565b906001600160a01b0380806115d284611598565b16931691838314938415611605575b5083156115ef575b50505090565b6115fb919293506114ac565b16143880806115e9565b909350600052600560205260406000208260005260205260ff6040600020541692386115e1565b1561163357565b60405162461bcd60e51b815260206004820152602560248201527f4552433732313a207472616e736665722066726f6d20696e636f72726563742060448201526437bbb732b960d91b6064820152608490fd5b906116ae9161169484611598565b6001600160a01b039391841692849290918316841461162c565b1691821561174b57816116cb916116c486611598565b161461162c565b7fddf252ad1be2c89b69c2b068fc378daa952ba7f163c4a11628f55a4df523b3ef60008481526004602052604081206bffffffffffffffffffffffff60a01b9081815416905583825260036020526040822060001981540190558482526040822060018154019055858252600260205284604083209182541617905580a4565b60405162461bcd60e51b8152602060048201526024808201527f4552433732313a207472616e7366657220746f20746865207a65726f206164646044820152637265737360e01b6064820152608490fd5b3360009081527f6d5257204ebe7d88fd91ae87941cb2dd9d8062b64ae5a2bd2d28ec40b9fbf6df602090815260408083205490929060ff16156117de57505050565b6117e733612037565b90808451906117f58261131b565b604282528482019260603685378251156119565760308453825190600191600110156119565790607860218501536041915b8183116118e8575050506118a65760486106eb93869361188a9361187b985198899376020b1b1b2b9b9a1b7b73a3937b61d1030b1b1b7bab73a1604d1b8a86015261069b815180928c60378901910161123b565b01036028810187520185611337565b5192839262461bcd60e51b84526004840152602483019061125e565b60648486519062461bcd60e51b825280600483015260248201527f537472696e67733a20686578206c656e67746820696e73756666696369656e746044820152fd5b909192600f81166010811015611942576f181899199a1a9b1b9c1cb0b131b232b360811b901a6119188587612010565b5360041c92801561192e57600019019190611827565b634e487b7160e01b82526011600452602482fd5b634e487b7160e01b83526032600452602483fd5b634e487b7160e01b81526032600452602490fd5b60009080825260209060078252604092838120338252835260ff8482205416156119945750505050565b61199d33612037565b918451906119aa8261131b565b604282528482019260603685378251156119565760308453825190600191600110156119565790607860218501536041915b818311611a30575050506118a65760486106eb93869361188a9361187b985198899376020b1b1b2b9b9a1b7b73a3937b61d1030b1b1b7bab73a1604d1b8a86015261069b815180928c60378901910161123b565b909192600f81166010811015611942576f181899199a1a9b1b9c1cb0b131b232b360811b901a611a608587612010565b5360041c92801561192e576000190191906119dc565b906000918083526007602052604083209160018060a01b03169182845260205260ff604084205416611aa757505050565b8083526007602052604083208284526020526040832060ff1981541690557ff6391f5c32d9c69d2a47ea670b442974b53935d1edc7fd64eb21e047a839171b339380a4565b60809060208152603260208201527f4552433732313a207472616e7366657220746f206e6f6e20455243373231526560408201527131b2b4bb32b91034b6b83632b6b2b73a32b960711b60608201520190565b15611b4657565b60405162461bcd60e51b8152806106eb60048201611aec565b600081815260026020526040902054611b82906001600160a01b0316151561154c565b600081815260209060068252604090818120918051829380549482611ba6876113ac565b91828252888201936001988a600182169182600014611e4f575050600114611e11575b50611bd692500383611337565b611bde6113e6565b908151928315611e05578051611de157505050600086815260026020526040902054611c1591506001600160a01b0316151561154c565b611c1d6113e6565b805190939015611dcb5785869184977a184f03e93ff9f4daa797ed6e38ed64bf6a1f0100000000000000009081811015611dbc575b50506d04ee2d6d415b85acef810000000080841015611dae575b50662386f26fc1000080841015611d9f575b506305f5e10080841015611d90575b5061271080841015611d81575b506064831015611d71575b600a80931015611d67575b9081602160018a0199611cda611cc58c611359565b9b611cd289519d8e611337565b808d52611359565b8b8b019890601f1901368a37508a0101905b611d31575b5050505090611d25946115bb949392519583611d16889551809288808901910161123b565b8401915180938684019061123b565b01038084520182611337565b600019019083906f181899199a1a9b1b9c1cb0b131b232b360811b8282061a835304918215611d6257919082611cec565b611cf1565b9660010196611cb0565b9691606460029104920196611ca5565b60049198930492019638611c9a565b60089198930492019638611c8d565b60109198930492019638611c7e565b879198930492019638611c6c565b94985088940492503880611c52565b5092509250505190611ddc826112e9565b815290565b929750926115bb969550611d25919450611d1688915198899688808901910161123b565b97505050505050505090565b915050855282878087208888915b858310611e36575050611bd6935082010138611bc9565b8091929450548385890101520191018890888693611e1f565b60ff19168752611bd695151560051b8501019250389150611bc99050565b91929091803b15611f7e57611eba936040519081630a85bd0160e11b9384825233600483015260009687602484015260448301526080606483015281878160209a8b96608483019061125e565b03926001600160a01b03165af1849181611f3e575b50611f2d575050503d600014611f25573d611ee981611359565b90611ef76040519283611337565b81528091833d92013e5b80519182611f225760405162461bcd60e51b8152806106eb60048201611aec565b01fd5b506060611f01565b6001600160e01b0319161492509050565b9091508581813d8311611f77575b611f568183611337565b8101031261094a57516001600160e01b03198116810361094a579038611ecf565b503d611f4c565b50915050600190565b9293919290803b1561200657611fdb9460018060a01b039460405192839187630a85bd0160e11b9687855233600486015216602484015260448301526080606483015281806020998a95608483019061125e565b03916000988991165af1849181611f3e5750611f2d575050503d600014611f25573d611ee981611359565b5050915050600190565b908151811015612021570160200190565b634e487b7160e01b600052603260045260246000fd5b604051906060820182811067ffffffffffffffff82111761130557604052602a8252602082016040368237825115612021576030905381516001906001101561202157607860218401536029905b8082116120d95750506120955790565b606460405162461bcd60e51b815260206004820152602060248201527f537472696e67733a20686578206c656e67746820696e73756666696369656e746044820152fd5b9091600f81166010811015612132576f181899199a1a9b1b9c1cb0b131b232b360811b901a6121088486612010565b5360041c91801561211d576000190190612085565b60246000634e487b7160e01b81526011600452fd5b60246000634e487b7160e01b81526032600452fd5b1561214e57565b60405162461bcd60e51b815260206004820152601c60248201527f4552433732313a20746f6b656e20616c7265616479206d696e746564000000006044820152606490fdfea2646970667358221220d823a933534eb878a49e1729a7a0d1ce23a0700304bdde1253fe760a2fb922c364736f6c634300081800332f8788117e7eff1d82e926ec794901d17c78024a50270940304540a733656f0d","opcodes":"PUSH1 0x80 CALLVALUE PUSH3 0x457 JUMPI PUSH1 0x1F PUSH3 0x2666 CODESIZE DUP2 SWAP1 SUB DUP3 DUP2 ADD PUSH1 0x1F NOT SWAP1 DUP2 AND DUP6 ADD SWAP5 SWAP1 SWAP3 PUSH1 0x1 PUSH1 0x1 PUSH1 0x40 SHL SUB SWAP3 DUP4 DUP8 GT DUP4 DUP9 LT OR PUSH3 0x441 JUMPI DUP1 DUP4 SWAP3 PUSH1 0x40 SWAP9 DUP10 MSTORE DUP4 CODECOPY PUSH1 0x20 SWAP3 DUP4 SWAP2 DUP2 ADD SUB SLT PUSH3 0x457 JUMPI MLOAD PUSH1 0x1 PUSH1 0x1 PUSH1 0xA0 SHL SUB DUP2 AND SWAP3 SWAP1 DUP4 SWAP1 SUB PUSH3 0x457 JUMPI PUSH3 0x6B PUSH3 0x45C JUMP JUMPDEST SWAP5 PUSH1 0x9 DUP7 MSTORE PUSH9 0x10985C9BDB88139195 PUSH1 0xBA SHL DUP4 DUP8 ADD MSTORE PUSH3 0x8B PUSH3 0x45C JUMP JUMPDEST PUSH1 0x3 DUP2 MSTORE PUSH3 0x212927 PUSH1 0xE9 SHL DUP5 DUP3 ADD MSTORE DUP7 MLOAD SWAP6 DUP4 DUP8 GT PUSH3 0x441 JUMPI PUSH1 0x0 SWAP7 DUP8 SLOAD SWAP9 PUSH1 0x1 SWAP10 DUP11 DUP2 DUP2 SHR SWAP2 AND DUP1 ISZERO PUSH3 0x436 JUMPI JUMPDEST DUP9 DUP3 LT EQ PUSH3 0x422 JUMPI SWAP1 DUP2 DUP7 DUP5 SWAP4 GT PUSH3 0x3CF JUMPI JUMPDEST POP DUP8 SWAP1 DUP7 DUP4 GT PUSH1 0x1 EQ PUSH3 0x36E JUMPI DUP11 SWAP3 PUSH3 0x362 JUMPI JUMPDEST POP POP PUSH1 0x0 NOT PUSH1 0x3 DUP4 SWAP1 SHL SHR NOT AND SWAP1 DUP10 SHL OR DUP8 SSTORE JUMPDEST DUP2 MLOAD SWAP4 DUP5 GT PUSH3 0x34E JUMPI DUP8 SLOAD DUP9 DUP2 DUP2 SHR SWAP2 AND DUP1 ISZERO PUSH3 0x343 JUMPI JUMPDEST DUP7 DUP3 LT EQ PUSH3 0x32F JUMPI SWAP1 DUP2 DUP5 DUP7 SWAP6 SWAP5 SWAP4 GT PUSH3 0x2D8 JUMPI JUMPDEST POP DUP6 SWAP3 DUP5 GT PUSH1 0x1 EQ PUSH3 0x277 JUMPI POP DUP7 SWAP3 PUSH3 0x26B JUMPI JUMPDEST POP POP PUSH1 0x0 NOT PUSH1 0x3 DUP4 SWAP1 SHL SHR NOT AND SWAP1 DUP6 SHL OR DUP5 SSTORE JUMPDEST DUP2 ISZERO PUSH3 0x23E JUMPI DUP3 DUP1 MSTORE PUSH1 0x7 DUP2 MSTORE DUP5 DUP4 KECCAK256 DUP3 DUP5 MSTORE DUP2 MSTORE PUSH1 0xFF DUP6 DUP5 KECCAK256 SLOAD AND ISZERO PUSH3 0x206 JUMPI JUMPDEST PUSH32 0x9F2DF0FED2C77648DE5860A4CC508CD0818C85B8B8A1AB4CEEEF8D981C8956A6 SWAP1 DUP2 DUP5 MSTORE PUSH1 0x7 DUP2 MSTORE DUP6 DUP5 KECCAK256 DUP4 DUP6 MSTORE DUP2 MSTORE PUSH1 0xFF DUP7 DUP6 KECCAK256 SLOAD AND ISZERO PUSH3 0x1CC JUMPI JUMPDEST DUP6 DUP6 PUSH1 0x8 SSTORE MLOAD PUSH2 0x21C9 SWAP1 DUP2 PUSH3 0x47D DUP3 CODECOPY RETURN JUMPDEST DUP2 DUP5 MSTORE PUSH1 0x7 DUP2 MSTORE DUP6 DUP5 KECCAK256 SWAP1 DUP4 DUP6 MSTORE MSTORE DUP5 DUP4 KECCAK256 DUP5 PUSH1 0xFF NOT DUP3 SLOAD AND OR SWAP1 SSTORE PUSH1 0x0 DUP1 MLOAD PUSH1 0x20 PUSH3 0x2646 DUP4 CODECOPY DUP2 MLOAD SWAP2 MSTORE CALLER SWAP4 DUP1 LOG4 CODESIZE DUP1 DUP1 DUP1 PUSH3 0x1B9 JUMP JUMPDEST DUP3 DUP1 MSTORE PUSH1 0x7 DUP2 MSTORE DUP5 DUP4 KECCAK256 DUP3 DUP5 MSTORE DUP2 MSTORE DUP5 DUP4 KECCAK256 DUP1 SLOAD PUSH1 0xFF NOT AND DUP6 OR SWAP1 SSTORE CALLER DUP3 DUP5 PUSH1 0x0 DUP1 MLOAD PUSH1 0x20 PUSH3 0x2646 DUP4 CODECOPY DUP2 MLOAD SWAP2 MSTORE DUP2 DUP1 LOG4 PUSH3 0x17A JUMP JUMPDEST PUSH1 0x64 SWAP1 DUP6 MLOAD SWAP1 PUSH3 0x461BCD PUSH1 0xE5 SHL DUP3 MSTORE PUSH1 0x4 DUP3 ADD MSTORE PUSH1 0x7 PUSH1 0x24 DUP3 ADD MSTORE PUSH7 0x61646D696E3D3 PUSH1 0xCC SHL PUSH1 0x44 DUP3 ADD MSTORE REVERT JUMPDEST ADD MLOAD SWAP1 POP CODESIZE DUP1 PUSH3 0x142 JUMP JUMPDEST DUP9 DUP9 MSTORE DUP6 DUP9 KECCAK256 DUP10 SWAP6 SWAP1 SWAP4 SWAP3 SWAP2 AND DUP9 JUMPDEST DUP8 DUP3 DUP3 LT PUSH3 0x2C1 JUMPI POP POP DUP5 GT PUSH3 0x2A7 JUMPI JUMPDEST POP POP POP DUP2 SHL ADD DUP5 SSTORE PUSH3 0x156 JUMP JUMPDEST ADD MLOAD PUSH1 0x0 NOT PUSH1 0xF8 DUP5 PUSH1 0x3 SHL AND SHR NOT AND SWAP1 SSTORE CODESIZE DUP1 DUP1 PUSH3 0x299 JUMP JUMPDEST DUP4 DUP6 ADD MLOAD DUP7 SSTORE DUP12 SWAP8 SWAP1 SWAP6 ADD SWAP5 SWAP4 DUP5 ADD SWAP4 ADD PUSH3 0x286 JUMP JUMPDEST SWAP1 SWAP2 SWAP3 SWAP4 POP DUP9 DUP9 MSTORE DUP6 DUP9 KECCAK256 DUP5 DUP1 DUP8 ADD PUSH1 0x5 SHR DUP3 ADD SWAP3 DUP9 DUP9 LT PUSH3 0x325 JUMPI JUMPDEST SWAP2 DUP8 SWAP7 DUP13 SWAP3 SWAP7 SWAP6 SWAP5 SWAP4 ADD PUSH1 0x5 SHR ADD SWAP2 JUMPDEST DUP3 DUP2 LT PUSH3 0x316 JUMPI POP POP PUSH3 0x12C JUMP JUMPDEST DUP11 DUP2 SSTORE DUP8 SWAP7 POP DUP12 SWAP2 ADD PUSH3 0x306 JUMP JUMPDEST SWAP3 POP DUP2 SWAP3 PUSH3 0x2F6 JUMP JUMPDEST PUSH4 0x4E487B71 PUSH1 0xE0 SHL DUP9 MSTORE PUSH1 0x22 PUSH1 0x4 MSTORE PUSH1 0x24 DUP9 REVERT JUMPDEST SWAP1 PUSH1 0x7F AND SWAP1 PUSH3 0x115 JUMP JUMPDEST PUSH4 0x4E487B71 PUSH1 0xE0 SHL DUP8 MSTORE PUSH1 0x41 PUSH1 0x4 MSTORE PUSH1 0x24 DUP8 REVERT JUMPDEST ADD MLOAD SWAP1 POP CODESIZE DUP1 PUSH3 0xE7 JUMP JUMPDEST SWAP1 DUP5 DUP13 SWAP5 AND SWAP2 DUP12 DUP1 MSTORE DUP10 DUP13 KECCAK256 SWAP3 DUP13 JUMPDEST DUP12 DUP3 DUP3 LT PUSH3 0x3B8 JUMPI POP POP DUP5 GT PUSH3 0x39E JUMPI JUMPDEST POP POP POP DUP2 SHL ADD DUP8 SSTORE PUSH3 0xFB JUMP JUMPDEST ADD MLOAD PUSH1 0x0 NOT PUSH1 0xF8 DUP5 PUSH1 0x3 SHL AND SHR NOT AND SWAP1 SSTORE CODESIZE DUP1 DUP1 PUSH3 0x390 JUMP JUMPDEST DUP4 DUP6 ADD MLOAD DUP7 SSTORE DUP16 SWAP8 SWAP1 SWAP6 ADD SWAP5 SWAP4 DUP5 ADD SWAP4 ADD PUSH3 0x37D JUMP JUMPDEST SWAP1 SWAP2 POP DUP10 DUP1 MSTORE DUP8 DUP11 KECCAK256 DUP7 DUP1 DUP6 ADD PUSH1 0x5 SHR DUP3 ADD SWAP3 DUP11 DUP7 LT PUSH3 0x418 JUMPI JUMPDEST SWAP2 DUP14 SWAP2 DUP7 SWAP6 SWAP5 SWAP4 ADD PUSH1 0x5 SHR ADD SWAP2 JUMPDEST DUP3 DUP2 LT PUSH3 0x409 JUMPI POP POP PUSH3 0xD1 JUMP JUMPDEST DUP13 DUP2 SSTORE DUP6 SWAP5 POP DUP14 SWAP2 ADD PUSH3 0x3F9 JUMP JUMPDEST SWAP3 POP DUP2 SWAP3 PUSH3 0x3EB JUMP JUMPDEST PUSH4 0x4E487B71 PUSH1 0xE0 SHL DUP11 MSTORE PUSH1 0x22 PUSH1 0x4 MSTORE PUSH1 0x24 DUP11 REVERT JUMPDEST SWAP1 PUSH1 0x7F AND SWAP1 PUSH3 0xBC JUMP JUMPDEST PUSH4 0x4E487B71 PUSH1 0xE0 SHL PUSH1 0x0 MSTORE PUSH1 0x41 PUSH1 0x4 MSTORE PUSH1 0x24 PUSH1 0x0 REVERT JUMPDEST PUSH1 0x0 DUP1 REVERT JUMPDEST PUSH1 0x40 DUP1 MLOAD SWAP2 SWAP1 DUP3 ADD PUSH1 0x1 PUSH1 0x1 PUSH1 0x40 SHL SUB DUP2 GT DUP4 DUP3 LT OR PUSH3 0x441 JUMPI PUSH1 0x40 MSTORE JUMP INVALID PUSH1 0x80 PUSH1 0x40 DUP2 DUP2 MSTORE PUSH1 0x4 SWAP2 DUP3 CALLDATASIZE LT ISZERO PUSH2 0x16 JUMPI PUSH1 0x0 DUP1 REVERT JUMPDEST PUSH1 0x0 SWAP3 DUP4 CALLDATALOAD PUSH1 0xE0 SHR SWAP2 DUP3 PUSH4 0x1FFC9A7 EQ PUSH2 0x119C JUMPI POP DUP2 PUSH4 0x6FDDE03 EQ PUSH2 0x10EB JUMPI DUP2 PUSH4 0x81812FC EQ PUSH2 0x10CB JUMPI DUP2 PUSH4 0x95EA7B3 EQ PUSH2 0xF5D JUMPI DUP2 PUSH4 0x23B872DD EQ PUSH2 0xF38 JUMPI DUP2 PUSH4 0x248A9CA3 EQ PUSH2 0xF0D JUMPI DUP2 PUSH4 0x2F2FF15D EQ PUSH2 0xE60 JUMPI DUP2 PUSH4 0x36568ABE EQ PUSH2 0xDCE JUMPI DUP2 PUSH4 0x42842E0E EQ PUSH2 0xD9A JUMPI DUP2 PUSH4 0x55F804B3 EQ PUSH2 0xB62 JUMPI DUP2 PUSH4 0x6352211E EQ PUSH2 0xB31 JUMPI DUP2 PUSH4 0x70A08231 EQ PUSH2 0xA9B JUMPI DUP2 PUSH4 0x91D14854 EQ PUSH2 0xA54 JUMPI DUP2 PUSH4 0x95D89B41 EQ PUSH2 0x969 JUMPI DUP2 PUSH4 0xA217FDDF EQ PUSH2 0x94E JUMPI DUP2 PUSH4 0xA22CB465 EQ PUSH2 0x87E JUMPI DUP2 PUSH4 0xB88D4FDE EQ PUSH2 0x7F8 JUMPI DUP2 PUSH4 0xC87B56DD EQ PUSH2 0x7C0 JUMPI DUP2 PUSH4 0xD0DEF521 EQ PUSH2 0x26E JUMPI DUP2 PUSH4 0xD5391393 EQ PUSH2 0x233 JUMPI DUP2 PUSH4 0xD547741F EQ PUSH2 0x1F0 JUMPI POP DUP1 PUSH4 0xE7BC8208 EQ PUSH2 0x1A0 JUMPI DUP1 PUSH4 0xE985E9C5 EQ PUSH2 0x153 JUMPI PUSH4 0xFB565BFD EQ PUSH2 0x12D JUMPI PUSH1 0x0 DUP1 REVERT JUMPDEST CALLVALUE PUSH2 0x14F JUMPI DUP2 PUSH1 0x3 NOT CALLDATASIZE ADD SLT PUSH2 0x14F JUMPI PUSH1 0x20 SWAP1 PUSH1 0xFF PUSH1 0x9 SLOAD AND SWAP1 MLOAD SWAP1 ISZERO ISZERO DUP2 MSTORE RETURN JUMPDEST POP DUP1 REVERT JUMPDEST POP CALLVALUE PUSH2 0x14F JUMPI DUP1 PUSH1 0x3 NOT CALLDATASIZE ADD SLT PUSH2 0x14F JUMPI PUSH1 0xFF DUP2 PUSH1 0x20 SWAP4 PUSH2 0x172 PUSH2 0x1283 JUMP JUMPDEST PUSH2 0x17A PUSH2 0x129E JUMP JUMPDEST PUSH1 0x1 PUSH1 0x1 PUSH1 0xA0 SHL SUB SWAP2 DUP3 AND DUP4 MSTORE PUSH1 0x5 DUP8 MSTORE DUP4 DUP4 KECCAK256 SWAP2 AND DUP3 MSTORE DUP6 MSTORE KECCAK256 SLOAD SWAP2 MLOAD SWAP2 AND ISZERO ISZERO DUP2 MSTORE RETURN JUMPDEST DUP3 CALLVALUE PUSH2 0x1ED JUMPI DUP1 PUSH1 0x3 NOT CALLDATASIZE ADD SLT PUSH2 0x1ED JUMPI PUSH2 0x1B9 PUSH2 0x179C JUMP JUMPDEST PUSH1 0x1 PUSH1 0xFF NOT PUSH1 0x9 SLOAD AND OR PUSH1 0x9 SSTORE PUSH32 0xCB8EE1250825B65FB9F9DB82CF9039335DB3185B4258FA3F81453F21741B4251 DUP2 DUP1 LOG1 DUP1 RETURN JUMPDEST DUP1 REVERT JUMPDEST SWAP2 SWAP1 POP CALLVALUE PUSH2 0x22F JUMPI DUP1 PUSH1 0x3 NOT CALLDATASIZE ADD SLT PUSH2 0x22F JUMPI PUSH2 0x22C SWAP2 CALLDATALOAD PUSH2 0x227 PUSH1 0x1 PUSH2 0x215 PUSH2 0x129E JUMP JUMPDEST SWAP4 DUP4 DUP8 MSTORE PUSH1 0x7 PUSH1 0x20 MSTORE DUP7 KECCAK256 ADD SLOAD PUSH2 0x196A JUMP JUMPDEST PUSH2 0x1A76 JUMP JUMPDEST DUP1 RETURN JUMPDEST DUP3 DUP1 REVERT JUMPDEST POP POP CALLVALUE PUSH2 0x14F JUMPI DUP2 PUSH1 0x3 NOT CALLDATASIZE ADD SLT PUSH2 0x14F JUMPI PUSH1 0x20 SWAP1 MLOAD PUSH32 0x9F2DF0FED2C77648DE5860A4CC508CD0818C85B8B8A1AB4CEEEF8D981C8956A6 DUP2 MSTORE RETURN JUMPDEST SWAP2 SWAP1 POP CALLVALUE PUSH2 0x22F JUMPI DUP1 PUSH1 0x3 NOT CALLDATASIZE ADD SLT PUSH2 0x22F JUMPI PUSH2 0x289 PUSH2 0x1283 JUMP JUMPDEST SWAP2 PUSH1 0x24 PUSH8 0xFFFFFFFFFFFFFFFF DUP2 CALLDATALOAD DUP2 DUP2 GT PUSH2 0x7BC JUMPI CALLDATASIZE PUSH1 0x23 DUP3 ADD SLT ISZERO PUSH2 0x7BC JUMPI PUSH2 0x2BB SWAP1 CALLDATASIZE SWAP1 DUP5 DUP2 DUP8 ADD CALLDATALOAD SWAP2 ADD PUSH2 0x1375 JUMP JUMPDEST SWAP2 PUSH32 0x9F2DF0FED2C77648DE5860A4CC508CD0818C85B8B8A1AB4CEEEF8D981C8956A6 SWAP7 DUP8 DUP2 MSTORE PUSH1 0x20 SWAP8 PUSH1 0x7 DUP10 MSTORE DUP7 DUP3 KECCAK256 CALLER DUP4 MSTORE DUP10 MSTORE PUSH1 0xFF DUP8 DUP4 KECCAK256 SLOAD AND ISZERO PUSH2 0x5F7 JUMPI POP PUSH1 0x8 SLOAD SWAP7 PUSH1 0x0 NOT SWAP3 DUP4 DUP10 EQ PUSH2 0x5E6 JUMPI PUSH1 0x1 SWAP2 DUP3 DUP11 ADD PUSH1 0x8 SSTORE DUP9 MLOAD SWAP1 PUSH2 0x321 DUP3 PUSH2 0x12E9 JUMP JUMPDEST DUP5 DUP3 MSTORE PUSH1 0x1 PUSH1 0x1 PUSH1 0xA0 SHL SUB DUP2 AND DUP1 ISZERO PUSH2 0x5A6 JUMPI SWAP2 DUP12 PUSH2 0x3DF SWAP3 DUP2 DUP16 SWAP6 DUP15 PUSH1 0x2 PUSH2 0x3E4 SWAP9 PUSH2 0x36C PUSH2 0x366 DUP7 PUSH1 0x0 MSTORE PUSH1 0x2 PUSH1 0x20 MSTORE PUSH1 0x1 DUP1 PUSH1 0xA0 SHL SUB PUSH1 0x40 PUSH1 0x0 KECCAK256 SLOAD AND ISZERO ISZERO SWAP1 JUMP JUMPDEST ISZERO PUSH2 0x2147 JUMP JUMPDEST PUSH1 0x0 DUP6 DUP2 MSTORE PUSH1 0x2 PUSH1 0x20 MSTORE PUSH1 0x40 SWAP1 KECCAK256 SLOAD PUSH2 0x38F SWAP1 PUSH1 0x1 PUSH1 0x1 PUSH1 0xA0 SHL SUB AND ISZERO ISZERO PUSH2 0x366 JUMP JUMPDEST DUP4 DUP14 MSTORE PUSH1 0x3 DUP2 MSTORE DUP3 DUP14 KECCAK256 DUP1 SLOAD DUP14 ADD SWAP1 SSTORE DUP5 DUP14 MSTORE MSTORE DUP11 KECCAK256 DUP1 SLOAD PUSH1 0x1 PUSH1 0x1 PUSH1 0xA0 SHL SUB NOT AND DUP3 OR SWAP1 SSTORE DUP10 PUSH32 0xDDF252AD1BE2C89B69C2B068FC378DAA952BA7F163C4A11628F55A4DF523B3EF DUP2 DUP1 LOG4 PUSH2 0x1E6D JUMP JUMPDEST PUSH2 0x1B3F JUMP JUMPDEST PUSH1 0x0 DUP10 DUP2 MSTORE PUSH1 0x2 PUSH1 0x20 MSTORE PUSH1 0x40 SWAP1 KECCAK256 SLOAD PUSH1 0x1 PUSH1 0x1 PUSH1 0xA0 SHL SUB AND ISZERO PUSH2 0x54E JUMPI DUP9 DUP4 MSTORE PUSH1 0x6 DUP11 MSTORE DUP8 DUP4 KECCAK256 SWAP7 DUP7 MLOAD SWAP6 DUP7 GT PUSH2 0x53D JUMPI POP POP PUSH2 0x421 DUP7 SLOAD PUSH2 0x13AC JUMP JUMPDEST PUSH1 0x1F DUP2 GT PUSH2 0x4F7 JUMPI JUMPDEST POP DUP9 SWAP3 PUSH1 0x1F DUP6 GT PUSH1 0x1 EQ PUSH2 0x496 JUMPI POP POP SWAP1 PUSH2 0x45A SWAP4 DUP4 PUSH2 0x48B JUMPI JUMPDEST POP POP DUP2 PUSH1 0x1 SHL SWAP2 PUSH1 0x0 NOT SWAP1 PUSH1 0x3 SHL SHR NOT AND OR SWAP1 JUMP JUMPDEST SWAP1 SSTORE JUMPDEST PUSH32 0xF8E1A15ABA9398E019F0B49DF1A4FDE98EE17AE345CB5F6B5E2C27F5033E8CE7 DUP4 DUP3 MLOAD DUP5 DUP2 MSTORE LOG1 MLOAD SWAP1 DUP2 MSTORE RETURN JUMPDEST ADD MLOAD SWAP1 POP CODESIZE DUP1 PUSH2 0x445 JUMP JUMPDEST SWAP2 SWAP3 SWAP1 SWAP5 DUP5 PUSH1 0x1F NOT DUP2 AND DUP9 DUP7 MSTORE DUP12 DUP7 KECCAK256 SWAP6 JUMPDEST DUP13 DUP10 DUP4 DUP4 LT PUSH2 0x4E0 JUMPI POP POP POP LT PUSH2 0x4C8 JUMPI JUMPDEST POP POP POP POP DUP2 SHL ADD SWAP1 SSTORE PUSH2 0x45D JUMP JUMPDEST ADD MLOAD SWAP1 PUSH1 0xF8 DUP5 PUSH1 0x3 SHL AND SHR NOT AND SWAP1 SSTORE CODESIZE DUP1 DUP1 DUP1 PUSH2 0x4BA JUMP JUMPDEST DUP7 DUP7 ADD MLOAD DUP10 SSTORE SWAP1 SWAP8 ADD SWAP7 SWAP5 DUP6 ADD SWAP5 DUP9 SWAP4 POP ADD PUSH2 0x4A8 JUMP JUMPDEST DUP7 DUP4 MSTORE DUP10 DUP4 KECCAK256 PUSH1 0x1F DUP7 ADD PUSH1 0x5 SHR DUP2 ADD SWAP2 DUP12 DUP8 LT PUSH2 0x533 JUMPI JUMPDEST PUSH1 0x1F ADD PUSH1 0x5 SHR ADD SWAP1 DUP3 SWAP1 JUMPDEST DUP3 DUP2 LT PUSH2 0x528 JUMPI POP POP PUSH2 0x42A JUMP JUMPDEST DUP5 DUP2 SSTORE ADD DUP3 SWAP1 PUSH2 0x51A JUMP JUMPDEST SWAP1 SWAP2 POP DUP2 SWAP1 PUSH2 0x50F JUMP JUMPDEST PUSH4 0x4E487B71 PUSH1 0xE0 SHL DUP5 MSTORE PUSH1 0x41 SWAP1 MSTORE DUP3 REVERT JUMPDEST DUP7 PUSH1 0x2E PUSH1 0x84 SWAP3 DUP13 DUP12 MLOAD SWAP4 PUSH3 0x461BCD PUSH1 0xE5 SHL DUP6 MSTORE DUP5 ADD MSTORE DUP3 ADD MSTORE PUSH32 0x45524337323155524953746F726167653A2055524920736574206F66206E6F6E PUSH1 0x44 DUP3 ADD MSTORE PUSH14 0x32BC34B9BA32B73A103A37B5B2B7 PUSH1 0x91 SHL PUSH1 0x64 DUP3 ADD MSTORE REVERT JUMPDEST PUSH1 0x64 DUP11 DUP15 DUP7 DUP2 DUP16 MLOAD SWAP4 PUSH3 0x461BCD PUSH1 0xE5 SHL DUP6 MSTORE DUP5 ADD MSTORE DUP3 ADD MSTORE PUSH32 0x4552433732313A206D696E7420746F20746865207A65726F2061646472657373 PUSH1 0x44 DUP3 ADD MSTORE REVERT JUMPDEST PUSH4 0x4E487B71 PUSH1 0xE0 SHL DUP4 MSTORE PUSH1 0x11 DUP8 MSTORE DUP3 REVERT JUMPDEST SWAP2 DUP7 DUP10 SWAP4 DUP8 SWAP4 PUSH2 0x606 CALLER PUSH2 0x2037 JUMP JUMPDEST SWAP2 DUP4 MLOAD SWAP1 PUSH2 0x613 DUP3 PUSH2 0x131B JUMP JUMPDEST PUSH1 0x42 DUP3 MSTORE DUP8 DUP3 ADD SWAP3 PUSH1 0x60 CALLDATASIZE DUP6 CALLDATACOPY DUP3 MLOAD ISZERO PUSH2 0x7AA JUMPI PUSH1 0x30 DUP5 MSTORE8 DUP3 MLOAD SWAP1 PUSH1 0x1 SWAP2 PUSH1 0x1 LT ISZERO PUSH2 0x798 JUMPI SWAP1 PUSH1 0x78 PUSH1 0x21 DUP6 ADD MSTORE8 PUSH1 0x41 SWAP2 JUMPDEST DUP2 DUP4 GT PUSH2 0x72F JUMPI POP POP POP PUSH2 0x6EF JUMPI PUSH1 0x48 PUSH2 0x6EB SWAP6 SWAP4 DUP6 SWAP4 PUSH2 0x6D3 SWAP4 PUSH2 0x6C4 SWAP8 MLOAD SWAP8 DUP9 SWAP4 PUSH23 0x20B1B1B2B9B9A1B7B73A3937B61D1030B1B1B7BAB73A1 PUSH1 0x4D SHL DUP14 DUP7 ADD MSTORE PUSH2 0x69B DUP14 DUP3 MLOAD SWAP3 DUP4 SWAP2 PUSH1 0x37 DUP10 ADD SWAP2 ADD PUSH2 0x123B JUMP JUMPDEST DUP5 ADD SWAP2 PUSH17 0x1034B99036B4B9B9B4B733903937B6329 PUSH1 0x7D SHL PUSH1 0x37 DUP5 ADD MSTORE MLOAD DUP1 SWAP4 DUP7 DUP5 ADD SWAP1 PUSH2 0x123B JUMP JUMPDEST ADD SUB PUSH1 0x28 DUP2 ADD DUP7 MSTORE ADD DUP5 PUSH2 0x1337 JUMP JUMPDEST MLOAD SWAP5 DUP6 SWAP5 PUSH3 0x461BCD PUSH1 0xE5 SHL DUP7 MSTORE DUP6 ADD MSTORE DUP4 ADD SWAP1 PUSH2 0x125E JUMP JUMPDEST SUB SWAP1 REVERT JUMPDEST PUSH1 0x64 DUP7 DUP9 DUP8 DUP2 DUP9 MLOAD SWAP4 PUSH3 0x461BCD PUSH1 0xE5 SHL DUP6 MSTORE DUP5 ADD MSTORE DUP3 ADD MSTORE PUSH32 0x537472696E67733A20686578206C656E67746820696E73756666696369656E74 PUSH1 0x44 DUP3 ADD MSTORE REVERT JUMPDEST SWAP1 SWAP2 SWAP3 PUSH1 0xF DUP2 AND PUSH1 0x10 DUP2 LT ISZERO PUSH2 0x786 JUMPI PUSH16 0x181899199A1A9B1B9C1CB0B131B232B3 PUSH1 0x81 SHL SWAP1 BYTE PUSH2 0x75F DUP6 DUP8 PUSH2 0x2010 JUMP JUMPDEST MSTORE8 DUP10 SHR SWAP3 DUP1 ISZERO PUSH2 0x774 JUMPI PUSH1 0x0 NOT ADD SWAP2 SWAP1 PUSH2 0x645 JUMP JUMPDEST PUSH4 0x4E487B71 PUSH1 0xE0 SHL DUP3 MSTORE PUSH1 0x11 DUP11 MSTORE DUP9 DUP3 REVERT JUMPDEST PUSH4 0x4E487B71 PUSH1 0xE0 SHL DUP4 MSTORE PUSH1 0x32 DUP12 MSTORE DUP10 DUP4 REVERT JUMPDEST PUSH4 0x4E487B71 PUSH1 0xE0 SHL DUP2 MSTORE PUSH1 0x32 DUP10 MSTORE DUP8 SWAP1 REVERT JUMPDEST PUSH4 0x4E487B71 PUSH1 0xE0 SHL DUP2 MSTORE PUSH1 0x32 DUP9 MSTORE DUP7 SWAP1 REVERT JUMPDEST DUP7 DUP1 REVERT JUMPDEST DUP3 DUP5 CALLVALUE PUSH2 0x1ED JUMPI PUSH1 0x20 CALLDATASIZE PUSH1 0x3 NOT ADD SLT PUSH2 0x1ED JUMPI POP PUSH2 0x7E1 PUSH2 0x7F4 SWAP3 CALLDATALOAD PUSH2 0x1B5F JUMP JUMPDEST SWAP1 MLOAD SWAP2 DUP3 SWAP2 PUSH1 0x20 DUP4 MSTORE PUSH1 0x20 DUP4 ADD SWAP1 PUSH2 0x125E JUMP JUMPDEST SUB SWAP1 RETURN JUMPDEST DUP4 SWAP1 CALLVALUE PUSH2 0x14F JUMPI PUSH1 0x80 CALLDATASIZE PUSH1 0x3 NOT ADD SLT PUSH2 0x14F JUMPI PUSH2 0x813 PUSH2 0x1283 JUMP JUMPDEST SWAP1 PUSH2 0x81C PUSH2 0x129E JUMP JUMPDEST SWAP2 PUSH1 0x44 CALLDATALOAD PUSH1 0x64 CALLDATALOAD SWAP4 PUSH8 0xFFFFFFFFFFFFFFFF DUP6 GT PUSH2 0x87A JUMPI CALLDATASIZE PUSH1 0x23 DUP7 ADD SLT ISZERO PUSH2 0x87A JUMPI PUSH2 0x857 PUSH2 0x3DF SWAP5 DUP7 PUSH1 0x24 PUSH2 0x22C SWAP9 CALLDATASIZE SWAP4 ADD CALLDATALOAD SWAP2 ADD PUSH2 0x1375 JUMP JUMPDEST SWAP3 PUSH2 0x86A PUSH2 0x865 DUP5 CALLER PUSH2 0x15BE JUMP JUMPDEST PUSH2 0x14EA JUMP JUMPDEST PUSH2 0x875 DUP4 DUP4 DUP4 PUSH2 0x1686 JUMP JUMPDEST PUSH2 0x1F87 JUMP JUMPDEST DUP6 DUP1 REVERT JUMPDEST SWAP2 SWAP1 POP CALLVALUE PUSH2 0x22F JUMPI DUP1 PUSH1 0x3 NOT CALLDATASIZE ADD SLT PUSH2 0x22F JUMPI PUSH2 0x899 PUSH2 0x1283 JUMP JUMPDEST SWAP1 PUSH1 0x24 CALLDATALOAD SWAP2 DUP3 ISZERO ISZERO DUP1 SWAP4 SUB PUSH2 0x94A JUMPI PUSH1 0x1 PUSH1 0x1 PUSH1 0xA0 SHL SUB AND SWAP3 CALLER DUP5 EQ PUSH2 0x908 JUMPI POP CALLER DUP5 MSTORE PUSH1 0x5 PUSH1 0x20 MSTORE DUP1 DUP5 KECCAK256 DUP4 DUP6 MSTORE PUSH1 0x20 MSTORE DUP1 DUP5 KECCAK256 PUSH1 0xFF NOT DUP2 SLOAD AND PUSH1 0xFF DUP5 AND OR SWAP1 SSTORE MLOAD SWAP1 DUP2 MSTORE PUSH32 0x17307EAB39AB6107E8899845AD3D59BD9653F200F220920489CA2B5937696C31 PUSH1 0x20 CALLER SWAP3 LOG3 DUP1 RETURN JUMPDEST PUSH1 0x20 PUSH1 0x64 SWAP3 MLOAD SWAP2 PUSH3 0x461BCD PUSH1 0xE5 SHL DUP4 MSTORE DUP3 ADD MSTORE PUSH1 0x19 PUSH1 0x24 DUP3 ADD MSTORE PUSH32 0x4552433732313A20617070726F766520746F2063616C6C657200000000000000 PUSH1 0x44 DUP3 ADD MSTORE REVERT JUMPDEST DUP5 DUP1 REVERT JUMPDEST POP POP CALLVALUE PUSH2 0x14F JUMPI DUP2 PUSH1 0x3 NOT CALLDATASIZE ADD SLT PUSH2 0x14F JUMPI MLOAD SWAP1 DUP2 MSTORE PUSH1 0x20 SWAP1 RETURN JUMPDEST DUP3 DUP5 CALLVALUE PUSH2 0x1ED JUMPI DUP1 PUSH1 0x3 NOT CALLDATASIZE ADD SLT PUSH2 0x1ED JUMPI DUP2 MLOAD SWAP2 DUP3 DUP3 PUSH1 0x1 SWAP4 PUSH1 0x1 SLOAD SWAP5 PUSH2 0x990 DUP7 PUSH2 0x13AC JUMP JUMPDEST SWAP2 DUP3 DUP6 MSTORE PUSH1 0x20 SWAP7 DUP8 PUSH1 0x1 DUP3 AND SWAP2 DUP3 PUSH1 0x0 EQ PUSH2 0xA2D JUMPI POP POP PUSH1 0x1 EQ PUSH2 0x9D1 JUMPI JUMPDEST POP POP POP PUSH2 0x7F4 SWAP3 SWAP2 PUSH2 0x9C2 SWAP2 SUB DUP6 PUSH2 0x1337 JUMP JUMPDEST MLOAD SWAP3 DUP3 DUP5 SWAP4 DUP5 MSTORE DUP4 ADD SWAP1 PUSH2 0x125E JUMP JUMPDEST SWAP2 SWAP1 DUP7 SWAP4 POP PUSH1 0x1 DUP4 MSTORE PUSH32 0xB10E2D527612073B26EECDFD717E6A320CF44B4AFAC2B0732D9FCBE2B7FA0CF6 JUMPDEST DUP3 DUP5 LT PUSH2 0xA15 JUMPI POP POP POP DUP3 ADD ADD DUP2 PUSH2 0x9C2 PUSH2 0x7F4 PUSH2 0x9AF JUMP JUMPDEST DUP1 SLOAD DUP5 DUP11 ADD DUP7 ADD MSTORE DUP9 SWAP6 POP DUP8 SWAP5 SWAP1 SWAP4 ADD SWAP3 DUP2 ADD PUSH2 0x9FC JUMP JUMPDEST PUSH1 0xFF NOT AND DUP8 DUP3 ADD MSTORE SWAP4 ISZERO ISZERO PUSH1 0x5 SHL DUP7 ADD SWAP1 SWAP4 ADD SWAP4 POP DUP5 SWAP3 POP PUSH2 0x9C2 SWAP2 POP PUSH2 0x7F4 SWAP1 POP PUSH2 0x9AF JUMP JUMPDEST SWAP1 POP CALLVALUE PUSH2 0x22F JUMPI DUP2 PUSH1 0x3 NOT CALLDATASIZE ADD SLT PUSH2 0x22F JUMPI DUP2 PUSH1 0x20 SWAP4 PUSH1 0xFF SWAP3 PUSH2 0xA75 PUSH2 0x129E JUMP JUMPDEST SWAP1 CALLDATALOAD DUP3 MSTORE PUSH1 0x7 DUP7 MSTORE DUP3 DUP3 KECCAK256 PUSH1 0x1 PUSH1 0x1 PUSH1 0xA0 SHL SUB SWAP1 SWAP2 AND DUP3 MSTORE DUP6 MSTORE KECCAK256 SLOAD SWAP2 MLOAD SWAP2 AND ISZERO ISZERO DUP2 MSTORE RETURN JUMPDEST DUP4 SWAP2 POP CALLVALUE PUSH2 0x14F JUMPI PUSH1 0x20 CALLDATASIZE PUSH1 0x3 NOT ADD SLT PUSH2 0x14F JUMPI PUSH1 0x1 PUSH1 0x1 PUSH1 0xA0 SHL SUB PUSH2 0xABF PUSH2 0x1283 JUMP JUMPDEST AND SWAP1 DUP2 ISZERO PUSH2 0xADC JUMPI PUSH1 0x20 DUP5 DUP1 DUP6 DUP6 DUP2 MSTORE PUSH1 0x3 DUP5 MSTORE KECCAK256 SLOAD SWAP1 MLOAD SWAP1 DUP2 MSTORE RETURN JUMPDEST PUSH1 0x84 SWAP1 PUSH1 0x20 DUP6 MLOAD SWAP2 PUSH3 0x461BCD PUSH1 0xE5 SHL DUP4 MSTORE DUP3 ADD MSTORE PUSH1 0x29 PUSH1 0x24 DUP3 ADD MSTORE PUSH32 0x4552433732313A2061646472657373207A65726F206973206E6F742061207661 PUSH1 0x44 DUP3 ADD MSTORE PUSH9 0x3634B21037BBB732B9 PUSH1 0xB9 SHL PUSH1 0x64 DUP3 ADD MSTORE REVERT JUMPDEST DUP3 DUP5 CALLVALUE PUSH2 0x1ED JUMPI PUSH1 0x20 CALLDATASIZE PUSH1 0x3 NOT ADD SLT PUSH2 0x1ED JUMPI POP PUSH2 0xB51 PUSH1 0x20 SWAP3 CALLDATALOAD PUSH2 0x1598 JUMP JUMPDEST SWAP1 MLOAD PUSH1 0x1 PUSH1 0x1 PUSH1 0xA0 SHL SUB SWAP1 SWAP2 AND DUP2 MSTORE RETURN JUMPDEST DUP4 SWAP2 POP CALLVALUE PUSH2 0x14F JUMPI PUSH1 0x20 SWAP3 DUP4 PUSH1 0x3 NOT CALLDATASIZE ADD SLT PUSH2 0x22F JUMPI DUP2 CALLDATALOAD SWAP4 PUSH8 0xFFFFFFFFFFFFFFFF SWAP3 DUP4 DUP7 GT PUSH2 0x94A JUMPI CALLDATASIZE PUSH1 0x23 DUP8 ADD SLT ISZERO PUSH2 0x94A JUMPI DUP6 DUP2 ADD CALLDATALOAD SWAP4 DUP5 GT PUSH2 0x94A JUMPI PUSH1 0x24 SWAP1 CALLDATASIZE DUP3 DUP7 DUP10 ADD ADD GT PUSH2 0x87A JUMPI PUSH2 0xBB8 PUSH2 0x179C JUMP JUMPDEST PUSH1 0xFF PUSH1 0x9 SLOAD AND PUSH2 0xD71 JUMPI POP PUSH2 0xBCE PUSH1 0xA SLOAD PUSH2 0x13AC JUMP JUMPDEST PUSH1 0x1F DUP2 GT PUSH2 0xD0F JUMPI JUMPDEST POP DUP5 PUSH1 0x1F DUP6 GT PUSH1 0x1 EQ PUSH2 0xC65 JUMPI DUP2 DUP7 SWAP8 PUSH2 0xC2C DUP8 DUP1 DUP1 SWAP7 DUP2 SWAP7 PUSH32 0xF9C7803E94E0D3C02900D8A90893A6D5E90DD04D32A4CFE825520F82BF9F32F6 SWAP13 SWAP3 PUSH2 0xC58 JUMPI POP POP DUP2 PUSH1 0x1 SHL SWAP2 PUSH1 0x0 NOT SWAP1 PUSH1 0x3 SHL SHR NOT AND OR SWAP1 JUMP JUMPDEST PUSH1 0xA SSTORE JUMPDEST DUP6 MLOAD SWAP7 DUP6 DUP9 SWAP7 DUP8 MSTORE DUP7 ADD MSTORE ADD DUP5 DUP5 ADD CALLDATACOPY DUP2 DUP2 ADD DUP4 ADD DUP7 SWAP1 MSTORE PUSH1 0x1F ADD PUSH1 0x1F NOT AND DUP2 ADD SUB ADD SWAP1 LOG1 DUP1 RETURN JUMPDEST DUP6 ADD ADD CALLDATALOAD SWAP1 POP DUP5 DUP14 PUSH2 0x445 JUMP JUMPDEST PUSH1 0xA DUP7 MSTORE SWAP6 PUSH32 0xC65A7BB8D6351C1CF70C95A316CC6A92839C986682D98BC35F958F4883F9D2A8 PUSH1 0x1F NOT DUP7 AND DUP8 JUMPDEST DUP2 DUP2 LT PUSH2 0xCF6 JUMPI POP SWAP2 DUP7 SWAP4 SWAP2 PUSH32 0xF9C7803E94E0D3C02900D8A90893A6D5E90DD04D32A4CFE825520F82BF9F32F6 SWAP9 SWAP10 DUP6 DUP1 SWAP6 LT PUSH2 0xCDA JUMPI JUMPDEST POP POP PUSH1 0x1 DUP4 DUP2 SHL ADD PUSH1 0xA SSTORE PUSH2 0xC30 JUMP JUMPDEST DUP3 ADD DUP4 ADD CALLDATALOAD PUSH1 0x0 NOT PUSH1 0x3 DUP7 SWAP1 SHL PUSH1 0xF8 AND SHR NOT AND SWAP1 SSTORE DUP10 DUP1 PUSH2 0xCCA JUMP JUMPDEST DUP4 DUP11 ADD DUP6 ADD CALLDATALOAD DUP4 SSTORE SWAP9 DUP6 ADD SWAP9 PUSH1 0x1 SWAP1 SWAP3 ADD SWAP2 DUP6 ADD PUSH2 0xC92 JUMP JUMPDEST PUSH1 0xA DUP7 MSTORE PUSH32 0xC65A7BB8D6351C1CF70C95A316CC6A92839C986682D98BC35F958F4883F9D2A8 PUSH1 0x1F DUP7 ADD PUSH1 0x5 SHR DUP2 ADD SWAP2 DUP5 DUP8 LT PUSH2 0xD67 JUMPI JUMPDEST PUSH1 0x1F ADD PUSH1 0x5 SHR ADD SWAP1 JUMPDEST DUP2 DUP2 LT PUSH2 0xD5C JUMPI POP PUSH2 0xBD7 JUMP JUMPDEST DUP7 DUP2 SSTORE PUSH1 0x1 ADD PUSH2 0xD4F JUMP JUMPDEST SWAP1 SWAP2 POP DUP2 SWAP1 PUSH2 0xD46 JUMP JUMPDEST PUSH1 0x6 PUSH1 0x64 SWAP3 DUP5 DUP7 MLOAD SWAP4 PUSH3 0x461BCD PUSH1 0xE5 SHL DUP6 MSTORE DUP5 ADD MSTORE DUP3 ADD MSTORE PUSH6 0x333937BD32B7 PUSH1 0xD1 SHL PUSH1 0x44 DUP3 ADD MSTORE REVERT JUMPDEST POP POP CALLVALUE PUSH2 0x14F JUMPI PUSH2 0x3DF PUSH2 0x22C SWAP2 PUSH2 0xDB1 CALLDATASIZE PUSH2 0x12B4 JUMP JUMPDEST SWAP2 SWAP3 MLOAD SWAP3 PUSH2 0xDBE DUP5 PUSH2 0x12E9 JUMP JUMPDEST DUP7 DUP5 MSTORE PUSH2 0x86A PUSH2 0x865 DUP5 CALLER PUSH2 0x15BE JUMP JUMPDEST DUP4 SWAP2 POP CALLVALUE PUSH2 0x14F JUMPI DUP3 PUSH1 0x3 NOT CALLDATASIZE ADD SLT PUSH2 0x14F JUMPI PUSH2 0xDE9 PUSH2 0x129E JUMP JUMPDEST SWAP1 CALLER PUSH1 0x1 PUSH1 0x1 PUSH1 0xA0 SHL SUB DUP4 AND SUB PUSH2 0xE05 JUMPI SWAP1 PUSH2 0x22C SWAP2 CALLDATALOAD PUSH2 0x1A76 JUMP JUMPDEST PUSH1 0x84 SWAP1 PUSH1 0x20 DUP6 MLOAD SWAP2 PUSH3 0x461BCD PUSH1 0xE5 SHL DUP4 MSTORE DUP3 ADD MSTORE PUSH1 0x2F PUSH1 0x24 DUP3 ADD MSTORE PUSH32 0x416363657373436F6E74726F6C3A2063616E206F6E6C792072656E6F756E6365 PUSH1 0x44 DUP3 ADD MSTORE PUSH15 0x103937B632B9903337B91039B2B633 PUSH1 0x89 SHL PUSH1 0x64 DUP3 ADD MSTORE REVERT JUMPDEST SWAP1 POP CALLVALUE PUSH2 0x22F JUMPI DUP2 PUSH1 0x3 NOT CALLDATASIZE ADD SLT PUSH2 0x22F JUMPI CALLDATALOAD SWAP1 PUSH2 0xE7C PUSH2 0x129E JUMP JUMPDEST SWAP1 DUP3 DUP5 MSTORE PUSH1 0x7 PUSH1 0x20 MSTORE PUSH2 0xE94 PUSH1 0x1 DUP3 DUP7 KECCAK256 ADD SLOAD PUSH2 0x196A JUMP JUMPDEST DUP3 DUP5 MSTORE PUSH1 0x7 PUSH1 0x20 SWAP1 DUP2 MSTORE DUP2 DUP6 KECCAK256 PUSH1 0x1 PUSH1 0x1 PUSH1 0xA0 SHL SUB SWAP1 SWAP4 AND DUP1 DUP7 MSTORE SWAP3 SWAP1 MSTORE DUP1 DUP5 KECCAK256 SLOAD PUSH1 0xFF AND ISZERO PUSH2 0xEC2 JUMPI DUP4 DUP1 RETURN JUMPDEST DUP3 DUP5 MSTORE PUSH1 0x7 PUSH1 0x20 MSTORE DUP1 DUP5 KECCAK256 DUP3 DUP6 MSTORE PUSH1 0x20 MSTORE DUP4 KECCAK256 PUSH1 0x1 PUSH1 0xFF NOT DUP3 SLOAD AND OR SWAP1 SSTORE CALLER SWAP2 PUSH32 0x2F8788117E7EFF1D82E926EC794901D17C78024A50270940304540A733656F0D DUP5 DUP1 LOG4 CODESIZE DUP1 DUP1 DUP4 DUP1 RETURN JUMPDEST SWAP1 POP CALLVALUE PUSH2 0x22F JUMPI PUSH1 0x20 CALLDATASIZE PUSH1 0x3 NOT ADD SLT PUSH2 0x22F JUMPI DUP2 PUSH1 0x20 SWAP4 PUSH1 0x1 SWAP3 CALLDATALOAD DUP2 MSTORE PUSH1 0x7 DUP6 MSTORE KECCAK256 ADD SLOAD SWAP1 MLOAD SWAP1 DUP2 MSTORE RETURN JUMPDEST DUP4 CALLVALUE PUSH2 0x1ED JUMPI PUSH2 0x22C PUSH2 0xF4A CALLDATASIZE PUSH2 0x12B4 JUMP JUMPDEST SWAP2 PUSH2 0xF58 PUSH2 0x865 DUP5 CALLER PUSH2 0x15BE JUMP JUMPDEST PUSH2 0x1686 JUMP JUMPDEST SWAP1 POP CALLVALUE PUSH2 0x22F JUMPI DUP2 PUSH1 0x3 NOT CALLDATASIZE ADD SLT PUSH2 0x22F JUMPI PUSH2 0xF77 PUSH2 0x1283 JUMP JUMPDEST PUSH1 0x24 CALLDATALOAD SWAP3 SWAP1 SWAP2 PUSH1 0x1 PUSH1 0x1 PUSH1 0xA0 SHL SUB SWAP2 SWAP1 DUP3 DUP1 PUSH2 0xF92 DUP8 PUSH2 0x1598 JUMP JUMPDEST AND SWAP5 AND SWAP4 DUP1 DUP6 EQ PUSH2 0x107E JUMPI DUP1 CALLER EQ SWAP1 DUP2 ISZERO PUSH2 0x105F JUMPI JUMPDEST POP ISZERO PUSH2 0xFF7 JUMPI DUP5 DUP7 MSTORE PUSH1 0x20 MSTORE DUP5 KECCAK256 DUP1 SLOAD PUSH1 0x1 PUSH1 0x1 PUSH1 0xA0 SHL SUB NOT AND DUP4 OR SWAP1 SSTORE PUSH2 0xFCF DUP4 PUSH2 0x1598 JUMP JUMPDEST AND PUSH32 0x8C5BE1E5EBEC7D5BD14F71427D1E84F3DD0314C0F7B2291E5B200AC8C7C3B925 DUP5 DUP1 LOG4 DUP1 RETURN JUMPDEST PUSH1 0x20 PUSH1 0x84 SWAP3 MLOAD SWAP2 PUSH3 0x461BCD PUSH1 0xE5 SHL DUP4 MSTORE DUP3 ADD MSTORE PUSH1 0x3D PUSH1 0x24 DUP3 ADD MSTORE PUSH32 0x4552433732313A20617070726F76652063616C6C6572206973206E6F7420746F PUSH1 0x44 DUP3 ADD MSTORE PUSH32 0x6B656E206F776E6572206F7220617070726F76656420666F7220616C6C000000 PUSH1 0x64 DUP3 ADD MSTORE REVERT JUMPDEST SWAP1 POP DUP7 MSTORE PUSH1 0x5 PUSH1 0x20 MSTORE DUP2 DUP7 KECCAK256 CALLER DUP8 MSTORE PUSH1 0x20 MSTORE PUSH1 0xFF DUP3 DUP8 KECCAK256 SLOAD AND CODESIZE PUSH2 0xFA8 JUMP JUMPDEST POP PUSH1 0x20 PUSH1 0x84 SWAP3 MLOAD SWAP2 PUSH3 0x461BCD PUSH1 0xE5 SHL DUP4 MSTORE DUP3 ADD MSTORE PUSH1 0x21 PUSH1 0x24 DUP3 ADD MSTORE PUSH32 0x4552433732313A20617070726F76616C20746F2063757272656E74206F776E65 PUSH1 0x44 DUP3 ADD MSTORE PUSH1 0x39 PUSH1 0xF9 SHL PUSH1 0x64 DUP3 ADD MSTORE REVERT JUMPDEST DUP3 DUP5 CALLVALUE PUSH2 0x1ED JUMPI PUSH1 0x20 CALLDATASIZE PUSH1 0x3 NOT ADD SLT PUSH2 0x1ED JUMPI POP PUSH2 0xB51 PUSH1 0x20 SWAP3 CALLDATALOAD PUSH2 0x14AC JUMP JUMPDEST DUP3 DUP5 CALLVALUE PUSH2 0x1ED JUMPI DUP1 PUSH1 0x3 NOT CALLDATASIZE ADD SLT PUSH2 0x1ED JUMPI DUP2 MLOAD SWAP2 DUP3 DUP3 DUP4 SLOAD PUSH2 0x110D DUP2 PUSH2 0x13AC JUMP JUMPDEST SWAP1 DUP2 DUP5 MSTORE PUSH1 0x20 SWAP6 PUSH1 0x1 SWAP2 DUP8 PUSH1 0x1 DUP3 AND SWAP2 DUP3 PUSH1 0x0 EQ PUSH2 0xA2D JUMPI POP POP PUSH1 0x1 EQ PUSH2 0x1141 JUMPI POP POP POP PUSH2 0x7F4 SWAP3 SWAP2 PUSH2 0x9C2 SWAP2 SUB DUP6 PUSH2 0x1337 JUMP JUMPDEST SWAP2 SWAP1 DUP7 SWAP4 POP DUP3 DUP1 MSTORE PUSH32 0x290DECD9548B62A8D60345A988386FC84BA6BC95484008F6362F93160EF3E563 JUMPDEST DUP3 DUP5 LT PUSH2 0x1184 JUMPI POP POP POP DUP3 ADD ADD DUP2 PUSH2 0x9C2 PUSH2 0x7F4 PUSH2 0x9AF JUMP JUMPDEST DUP1 SLOAD DUP5 DUP11 ADD DUP7 ADD MSTORE DUP9 SWAP6 POP DUP8 SWAP5 SWAP1 SWAP4 ADD SWAP3 DUP2 ADD PUSH2 0x116B JUMP JUMPDEST DUP5 SWAP2 CALLVALUE PUSH2 0x22F JUMPI PUSH1 0x20 CALLDATASIZE PUSH1 0x3 NOT ADD SLT PUSH2 0x22F JUMPI CALLDATALOAD PUSH4 0xFFFFFFFF PUSH1 0xE0 SHL DUP2 AND DUP1 SWAP2 SUB PUSH2 0x22F JUMPI PUSH1 0x20 SWAP3 POP PUSH4 0x7965DB0B PUSH1 0xE0 SHL DUP2 EQ SWAP1 DUP2 ISZERO PUSH2 0x11DE JUMPI JUMPDEST POP ISZERO ISZERO DUP2 MSTORE RETURN JUMPDEST PUSH4 0x24832483 PUSH1 0xE1 SHL DUP2 EQ SWAP2 POP DUP2 ISZERO PUSH2 0x11F8 JUMPI JUMPDEST POP DUP4 PUSH2 0x11D7 JUMP JUMPDEST PUSH4 0x80AC58CD PUSH1 0xE0 SHL DUP2 EQ SWAP2 POP DUP2 ISZERO PUSH2 0x122A JUMPI JUMPDEST DUP2 ISZERO PUSH2 0x1219 JUMPI JUMPDEST POP DUP4 PUSH2 0x11F1 JUMP JUMPDEST PUSH4 0x1FFC9A7 PUSH1 0xE0 SHL EQ SWAP1 POP DUP4 PUSH2 0x1212 JUMP JUMPDEST PUSH4 0x5B5E139F PUSH1 0xE0 SHL DUP2 EQ SWAP2 POP PUSH2 0x120B JUMP JUMPDEST PUSH1 0x0 JUMPDEST DUP4 DUP2 LT PUSH2 0x124E JUMPI POP POP PUSH1 0x0 SWAP2 ADD MSTORE JUMP JUMPDEST DUP2 DUP2 ADD MLOAD DUP4 DUP3 ADD MSTORE PUSH1 0x20 ADD PUSH2 0x123E JUMP JUMPDEST SWAP1 PUSH1 0x20 SWAP2 PUSH2 0x1277 DUP2 MLOAD DUP1 SWAP3 DUP2 DUP6 MSTORE DUP6 DUP1 DUP7 ADD SWAP2 ADD PUSH2 0x123B JUMP JUMPDEST PUSH1 0x1F ADD PUSH1 0x1F NOT AND ADD ADD SWAP1 JUMP JUMPDEST PUSH1 0x4 CALLDATALOAD SWAP1 PUSH1 0x1 PUSH1 0x1 PUSH1 0xA0 SHL SUB DUP3 AND DUP3 SUB PUSH2 0x1299 JUMPI JUMP JUMPDEST PUSH1 0x0 DUP1 REVERT JUMPDEST PUSH1 0x24 CALLDATALOAD SWAP1 PUSH1 0x1 PUSH1 0x1 PUSH1 0xA0 SHL SUB DUP3 AND DUP3 SUB PUSH2 0x1299 JUMPI JUMP JUMPDEST PUSH1 0x60 SWAP1 PUSH1 0x3 NOT ADD SLT PUSH2 0x1299 JUMPI PUSH1 0x1 PUSH1 0x1 PUSH1 0xA0 SHL SUB SWAP1 PUSH1 0x4 CALLDATALOAD DUP3 DUP2 AND DUP2 SUB PUSH2 0x1299 JUMPI SWAP2 PUSH1 0x24 CALLDATALOAD SWAP1 DUP2 AND DUP2 SUB PUSH2 0x1299 JUMPI SWAP1 PUSH1 0x44 CALLDATALOAD SWAP1 JUMP JUMPDEST PUSH1 0x20 DUP2 ADD SWAP1 DUP2 LT PUSH8 0xFFFFFFFFFFFFFFFF DUP3 GT OR PUSH2 0x1305 JUMPI PUSH1 0x40 MSTORE JUMP JUMPDEST PUSH4 0x4E487B71 PUSH1 0xE0 SHL PUSH1 0x0 MSTORE PUSH1 0x41 PUSH1 0x4 MSTORE PUSH1 0x24 PUSH1 0x0 REVERT JUMPDEST PUSH1 0x80 DUP2 ADD SWAP1 DUP2 LT PUSH8 0xFFFFFFFFFFFFFFFF DUP3 GT OR PUSH2 0x1305 JUMPI PUSH1 0x40 MSTORE JUMP JUMPDEST SWAP1 PUSH1 0x1F DUP1 NOT SWAP2 ADD AND DUP2 ADD SWAP1 DUP2 LT PUSH8 0xFFFFFFFFFFFFFFFF DUP3 GT OR PUSH2 0x1305 JUMPI PUSH1 0x40 MSTORE JUMP JUMPDEST PUSH8 0xFFFFFFFFFFFFFFFF DUP2 GT PUSH2 0x1305 JUMPI PUSH1 0x1F ADD PUSH1 0x1F NOT AND PUSH1 0x20 ADD SWAP1 JUMP JUMPDEST SWAP3 SWAP2 SWAP3 PUSH2 0x1381 DUP3 PUSH2 0x1359 JUMP JUMPDEST SWAP2 PUSH2 0x138F PUSH1 0x40 MLOAD SWAP4 DUP5 PUSH2 0x1337 JUMP JUMPDEST DUP3 SWAP5 DUP2 DUP5 MSTORE DUP2 DUP4 ADD GT PUSH2 0x1299 JUMPI DUP3 DUP2 PUSH1 0x20 SWAP4 DUP5 PUSH1 0x0 SWAP7 ADD CALLDATACOPY ADD ADD MSTORE JUMP JUMPDEST SWAP1 PUSH1 0x1 DUP3 DUP2 SHR SWAP3 AND DUP1 ISZERO PUSH2 0x13DC JUMPI JUMPDEST PUSH1 0x20 DUP4 LT EQ PUSH2 0x13C6 JUMPI JUMP JUMPDEST PUSH4 0x4E487B71 PUSH1 0xE0 SHL PUSH1 0x0 MSTORE PUSH1 0x22 PUSH1 0x4 MSTORE PUSH1 0x24 PUSH1 0x0 REVERT JUMPDEST SWAP2 PUSH1 0x7F AND SWAP2 PUSH2 0x13BB JUMP JUMPDEST PUSH1 0x40 MLOAD SWAP1 PUSH1 0x0 DUP3 PUSH1 0xA SLOAD SWAP2 PUSH2 0x13FA DUP4 PUSH2 0x13AC JUMP JUMPDEST DUP1 DUP4 MSTORE SWAP3 PUSH1 0x20 SWAP1 PUSH1 0x1 SWAP1 DUP2 DUP2 AND SWAP1 DUP2 ISZERO PUSH2 0x1488 JUMPI POP PUSH1 0x1 EQ PUSH2 0x1427 JUMPI JUMPDEST POP POP PUSH2 0x1425 SWAP3 POP SUB DUP4 PUSH2 0x1337 JUMP JUMPDEST JUMP JUMPDEST SWAP2 POP SWAP3 PUSH1 0xA PUSH1 0x0 MSTORE PUSH32 0xC65A7BB8D6351C1CF70C95A316CC6A92839C986682D98BC35F958F4883F9D2A8 SWAP4 PUSH1 0x0 SWAP3 JUMPDEST DUP3 DUP5 LT PUSH2 0x1470 JUMPI POP PUSH2 0x1425 SWAP5 POP POP POP DUP2 ADD PUSH1 0x20 ADD CODESIZE DUP1 PUSH2 0x1417 JUMP JUMPDEST DUP6 SLOAD DUP9 DUP6 ADD DUP4 ADD MSTORE SWAP5 DUP6 ADD SWAP5 DUP8 SWAP5 POP SWAP3 DUP2 ADD SWAP3 PUSH2 0x1455 JUMP JUMPDEST SWAP2 POP POP PUSH1 0x20 SWAP3 POP PUSH2 0x1425 SWAP5 SWAP2 POP PUSH1 0xFF NOT AND DUP3 DUP5 ADD MSTORE ISZERO ISZERO PUSH1 0x5 SHL DUP3 ADD ADD CODESIZE DUP1 PUSH2 0x1417 JUMP JUMPDEST PUSH1 0x0 DUP2 DUP2 MSTORE PUSH1 0x2 PUSH1 0x20 MSTORE PUSH1 0x40 SWAP1 KECCAK256 SLOAD PUSH2 0x14CF SWAP1 PUSH1 0x1 PUSH1 0x1 PUSH1 0xA0 SHL SUB AND ISZERO ISZERO PUSH2 0x154C JUMP JUMPDEST PUSH1 0x0 SWAP1 DUP2 MSTORE PUSH1 0x4 PUSH1 0x20 MSTORE PUSH1 0x40 SWAP1 KECCAK256 SLOAD PUSH1 0x1 PUSH1 0x1 PUSH1 0xA0 SHL SUB AND SWAP1 JUMP JUMPDEST ISZERO PUSH2 0x14F1 JUMPI JUMP JUMPDEST PUSH1 0x40 MLOAD PUSH3 0x461BCD PUSH1 0xE5 SHL DUP2 MSTORE PUSH1 0x20 PUSH1 0x4 DUP3 ADD MSTORE PUSH1 0x2D PUSH1 0x24 DUP3 ADD MSTORE PUSH32 0x4552433732313A2063616C6C6572206973206E6F7420746F6B656E206F776E65 PUSH1 0x44 DUP3 ADD MSTORE PUSH13 0x1C881BDC88185C1C1C9BDD9959 PUSH1 0x9A SHL PUSH1 0x64 DUP3 ADD MSTORE PUSH1 0x84 SWAP1 REVERT JUMPDEST ISZERO PUSH2 0x1553 JUMPI JUMP JUMPDEST PUSH1 0x40 MLOAD PUSH3 0x461BCD PUSH1 0xE5 SHL DUP2 MSTORE PUSH1 0x20 PUSH1 0x4 DUP3 ADD MSTORE PUSH1 0x18 PUSH1 0x24 DUP3 ADD MSTORE PUSH32 0x4552433732313A20696E76616C696420746F6B656E2049440000000000000000 PUSH1 0x44 DUP3 ADD MSTORE PUSH1 0x64 SWAP1 REVERT JUMPDEST PUSH1 0x0 SWAP1 DUP2 MSTORE PUSH1 0x2 PUSH1 0x20 MSTORE PUSH1 0x40 SWAP1 KECCAK256 SLOAD PUSH1 0x1 PUSH1 0x1 PUSH1 0xA0 SHL SUB AND PUSH2 0x15BB DUP2 ISZERO ISZERO PUSH2 0x154C JUMP JUMPDEST SWAP1 JUMP JUMPDEST SWAP1 PUSH1 0x1 PUSH1 0x1 PUSH1 0xA0 SHL SUB DUP1 DUP1 PUSH2 0x15D2 DUP5 PUSH2 0x1598 JUMP JUMPDEST AND SWAP4 AND SWAP2 DUP4 DUP4 EQ SWAP4 DUP5 ISZERO PUSH2 0x1605 JUMPI JUMPDEST POP DUP4 ISZERO PUSH2 0x15EF JUMPI JUMPDEST POP POP POP SWAP1 JUMP JUMPDEST PUSH2 0x15FB SWAP2 SWAP3 SWAP4 POP PUSH2 0x14AC JUMP JUMPDEST AND EQ CODESIZE DUP1 DUP1 PUSH2 0x15E9 JUMP JUMPDEST SWAP1 SWAP4 POP PUSH1 0x0 MSTORE PUSH1 0x5 PUSH1 0x20 MSTORE PUSH1 0x40 PUSH1 0x0 KECCAK256 DUP3 PUSH1 0x0 MSTORE PUSH1 0x20 MSTORE PUSH1 0xFF PUSH1 0x40 PUSH1 0x0 KECCAK256 SLOAD AND SWAP3 CODESIZE PUSH2 0x15E1 JUMP JUMPDEST ISZERO PUSH2 0x1633 JUMPI JUMP JUMPDEST PUSH1 0x40 MLOAD PUSH3 0x461BCD PUSH1 0xE5 SHL DUP2 MSTORE PUSH1 0x20 PUSH1 0x4 DUP3 ADD MSTORE PUSH1 0x25 PUSH1 0x24 DUP3 ADD MSTORE PUSH32 0x4552433732313A207472616E736665722066726F6D20696E636F727265637420 PUSH1 0x44 DUP3 ADD MSTORE PUSH5 0x37BBB732B9 PUSH1 0xD9 SHL PUSH1 0x64 DUP3 ADD MSTORE PUSH1 0x84 SWAP1 REVERT JUMPDEST SWAP1 PUSH2 0x16AE SWAP2 PUSH2 0x1694 DUP5 PUSH2 0x1598 JUMP JUMPDEST PUSH1 0x1 PUSH1 0x1 PUSH1 0xA0 SHL SUB SWAP4 SWAP2 DUP5 AND SWAP3 DUP5 SWAP3 SWAP1 SWAP2 DUP4 AND DUP5 EQ PUSH2 0x162C JUMP JUMPDEST AND SWAP2 DUP3 ISZERO PUSH2 0x174B JUMPI DUP2 PUSH2 0x16CB SWAP2 PUSH2 0x16C4 DUP7 PUSH2 0x1598 JUMP JUMPDEST AND EQ PUSH2 0x162C JUMP JUMPDEST PUSH32 0xDDF252AD1BE2C89B69C2B068FC378DAA952BA7F163C4A11628F55A4DF523B3EF PUSH1 0x0 DUP5 DUP2 MSTORE PUSH1 0x4 PUSH1 0x20 MSTORE PUSH1 0x40 DUP2 KECCAK256 PUSH12 0xFFFFFFFFFFFFFFFFFFFFFFFF PUSH1 0xA0 SHL SWAP1 DUP2 DUP2 SLOAD AND SWAP1 SSTORE DUP4 DUP3 MSTORE PUSH1 0x3 PUSH1 0x20 MSTORE PUSH1 0x40 DUP3 KECCAK256 PUSH1 0x0 NOT DUP2 SLOAD ADD SWAP1 SSTORE DUP5 DUP3 MSTORE PUSH1 0x40 DUP3 KECCAK256 PUSH1 0x1 DUP2 SLOAD ADD SWAP1 SSTORE DUP6 DUP3 MSTORE PUSH1 0x2 PUSH1 0x20 MSTORE DUP5 PUSH1 0x40 DUP4 KECCAK256 SWAP2 DUP3 SLOAD AND OR SWAP1 SSTORE DUP1 LOG4 JUMP JUMPDEST PUSH1 0x40 MLOAD PUSH3 0x461BCD PUSH1 0xE5 SHL DUP2 MSTORE PUSH1 0x20 PUSH1 0x4 DUP3 ADD MSTORE PUSH1 0x24 DUP1 DUP3 ADD MSTORE PUSH32 0x4552433732313A207472616E7366657220746F20746865207A65726F20616464 PUSH1 0x44 DUP3 ADD MSTORE PUSH4 0x72657373 PUSH1 0xE0 SHL PUSH1 0x64 DUP3 ADD MSTORE PUSH1 0x84 SWAP1 REVERT JUMPDEST CALLER PUSH1 0x0 SWAP1 DUP2 MSTORE PUSH32 0x6D5257204EBE7D88FD91AE87941CB2DD9D8062B64AE5A2BD2D28EC40B9FBF6DF PUSH1 0x20 SWAP1 DUP2 MSTORE PUSH1 0x40 DUP1 DUP4 KECCAK256 SLOAD SWAP1 SWAP3 SWAP1 PUSH1 0xFF AND ISZERO PUSH2 0x17DE JUMPI POP POP POP JUMP JUMPDEST PUSH2 0x17E7 CALLER PUSH2 0x2037 JUMP JUMPDEST SWAP1 DUP1 DUP5 MLOAD SWAP1 PUSH2 0x17F5 DUP3 PUSH2 0x131B JUMP JUMPDEST PUSH1 0x42 DUP3 MSTORE DUP5 DUP3 ADD SWAP3 PUSH1 0x60 CALLDATASIZE DUP6 CALLDATACOPY DUP3 MLOAD ISZERO PUSH2 0x1956 JUMPI PUSH1 0x30 DUP5 MSTORE8 DUP3 MLOAD SWAP1 PUSH1 0x1 SWAP2 PUSH1 0x1 LT ISZERO PUSH2 0x1956 JUMPI SWAP1 PUSH1 0x78 PUSH1 0x21 DUP6 ADD MSTORE8 PUSH1 0x41 SWAP2 JUMPDEST DUP2 DUP4 GT PUSH2 0x18E8 JUMPI POP POP POP PUSH2 0x18A6 JUMPI PUSH1 0x48 PUSH2 0x6EB SWAP4 DUP7 SWAP4 PUSH2 0x188A SWAP4 PUSH2 0x187B SWAP9 MLOAD SWAP9 DUP10 SWAP4 PUSH23 0x20B1B1B2B9B9A1B7B73A3937B61D1030B1B1B7BAB73A1 PUSH1 0x4D SHL DUP11 DUP7 ADD MSTORE PUSH2 0x69B DUP2 MLOAD DUP1 SWAP3 DUP13 PUSH1 0x37 DUP10 ADD SWAP2 ADD PUSH2 0x123B JUMP JUMPDEST ADD SUB PUSH1 0x28 DUP2 ADD DUP8 MSTORE ADD DUP6 PUSH2 0x1337 JUMP JUMPDEST MLOAD SWAP3 DUP4 SWAP3 PUSH3 0x461BCD PUSH1 0xE5 SHL DUP5 MSTORE PUSH1 0x4 DUP5 ADD MSTORE PUSH1 0x24 DUP4 ADD SWAP1 PUSH2 0x125E JUMP JUMPDEST PUSH1 0x64 DUP5 DUP7 MLOAD SWAP1 PUSH3 0x461BCD PUSH1 0xE5 SHL DUP3 MSTORE DUP1 PUSH1 0x4 DUP4 ADD MSTORE PUSH1 0x24 DUP3 ADD MSTORE PUSH32 0x537472696E67733A20686578206C656E67746820696E73756666696369656E74 PUSH1 0x44 DUP3 ADD MSTORE REVERT JUMPDEST SWAP1 SWAP2 SWAP3 PUSH1 0xF DUP2 AND PUSH1 0x10 DUP2 LT ISZERO PUSH2 0x1942 JUMPI PUSH16 0x181899199A1A9B1B9C1CB0B131B232B3 PUSH1 0x81 SHL SWAP1 BYTE PUSH2 0x1918 DUP6 DUP8 PUSH2 0x2010 JUMP JUMPDEST MSTORE8 PUSH1 0x4 SHR SWAP3 DUP1 ISZERO PUSH2 0x192E JUMPI PUSH1 0x0 NOT ADD SWAP2 SWAP1 PUSH2 0x1827 JUMP JUMPDEST PUSH4 0x4E487B71 PUSH1 0xE0 SHL DUP3 MSTORE PUSH1 0x11 PUSH1 0x4 MSTORE PUSH1 0x24 DUP3 REVERT JUMPDEST PUSH4 0x4E487B71 PUSH1 0xE0 SHL DUP4 MSTORE PUSH1 0x32 PUSH1 0x4 MSTORE PUSH1 0x24 DUP4 REVERT JUMPDEST PUSH4 0x4E487B71 PUSH1 0xE0 SHL DUP2 MSTORE PUSH1 0x32 PUSH1 0x4 MSTORE PUSH1 0x24 SWAP1 REVERT JUMPDEST PUSH1 0x0 SWAP1 DUP1 DUP3 MSTORE PUSH1 0x20 SWAP1 PUSH1 0x7 DUP3 MSTORE PUSH1 0x40 SWAP3 DUP4 DUP2 KECCAK256 CALLER DUP3 MSTORE DUP4 MSTORE PUSH1 0xFF DUP5 DUP3 KECCAK256 SLOAD AND ISZERO PUSH2 0x1994 JUMPI POP POP POP POP JUMP JUMPDEST PUSH2 0x199D CALLER PUSH2 0x2037 JUMP JUMPDEST SWAP2 DUP5 MLOAD SWAP1 PUSH2 0x19AA DUP3 PUSH2 0x131B JUMP JUMPDEST PUSH1 0x42 DUP3 MSTORE DUP5 DUP3 ADD SWAP3 PUSH1 0x60 CALLDATASIZE DUP6 CALLDATACOPY DUP3 MLOAD ISZERO PUSH2 0x1956 JUMPI PUSH1 0x30 DUP5 MSTORE8 DUP3 MLOAD SWAP1 PUSH1 0x1 SWAP2 PUSH1 0x1 LT ISZERO PUSH2 0x1956 JUMPI SWAP1 PUSH1 0x78 PUSH1 0x21 DUP6 ADD MSTORE8 PUSH1 0x41 SWAP2 JUMPDEST DUP2 DUP4 GT PUSH2 0x1A30 JUMPI POP POP POP PUSH2 0x18A6 JUMPI PUSH1 0x48 PUSH2 0x6EB SWAP4 DUP7 SWAP4 PUSH2 0x188A SWAP4 PUSH2 0x187B SWAP9 MLOAD SWAP9 DUP10 SWAP4 PUSH23 0x20B1B1B2B9B9A1B7B73A3937B61D1030B1B1B7BAB73A1 PUSH1 0x4D SHL DUP11 DUP7 ADD MSTORE PUSH2 0x69B DUP2 MLOAD DUP1 SWAP3 DUP13 PUSH1 0x37 DUP10 ADD SWAP2 ADD PUSH2 0x123B JUMP JUMPDEST SWAP1 SWAP2 SWAP3 PUSH1 0xF DUP2 AND PUSH1 0x10 DUP2 LT ISZERO PUSH2 0x1942 JUMPI PUSH16 0x181899199A1A9B1B9C1CB0B131B232B3 PUSH1 0x81 SHL SWAP1 BYTE PUSH2 0x1A60 DUP6 DUP8 PUSH2 0x2010 JUMP JUMPDEST MSTORE8 PUSH1 0x4 SHR SWAP3 DUP1 ISZERO PUSH2 0x192E JUMPI PUSH1 0x0 NOT ADD SWAP2 SWAP1 PUSH2 0x19DC JUMP JUMPDEST SWAP1 PUSH1 0x0 SWAP2 DUP1 DUP4 MSTORE PUSH1 0x7 PUSH1 0x20 MSTORE PUSH1 0x40 DUP4 KECCAK256 SWAP2 PUSH1 0x1 DUP1 PUSH1 0xA0 SHL SUB AND SWAP2 DUP3 DUP5 MSTORE PUSH1 0x20 MSTORE PUSH1 0xFF PUSH1 0x40 DUP5 KECCAK256 SLOAD AND PUSH2 0x1AA7 JUMPI POP POP POP JUMP JUMPDEST DUP1 DUP4 MSTORE PUSH1 0x7 PUSH1 0x20 MSTORE PUSH1 0x40 DUP4 KECCAK256 DUP3 DUP5 MSTORE PUSH1 0x20 MSTORE PUSH1 0x40 DUP4 KECCAK256 PUSH1 0xFF NOT DUP2 SLOAD AND SWAP1 SSTORE PUSH32 0xF6391F5C32D9C69D2A47EA670B442974B53935D1EDC7FD64EB21E047A839171B CALLER SWAP4 DUP1 LOG4 JUMP JUMPDEST PUSH1 0x80 SWAP1 PUSH1 0x20 DUP2 MSTORE PUSH1 0x32 PUSH1 0x20 DUP3 ADD MSTORE PUSH32 0x4552433732313A207472616E7366657220746F206E6F6E204552433732315265 PUSH1 0x40 DUP3 ADD MSTORE PUSH18 0x31B2B4BB32B91034B6B83632B6B2B73A32B9 PUSH1 0x71 SHL PUSH1 0x60 DUP3 ADD MSTORE ADD SWAP1 JUMP JUMPDEST ISZERO PUSH2 0x1B46 JUMPI JUMP JUMPDEST PUSH1 0x40 MLOAD PUSH3 0x461BCD PUSH1 0xE5 SHL DUP2 MSTORE DUP1 PUSH2 0x6EB PUSH1 0x4 DUP3 ADD PUSH2 0x1AEC JUMP JUMPDEST PUSH1 0x0 DUP2 DUP2 MSTORE PUSH1 0x2 PUSH1 0x20 MSTORE PUSH1 0x40 SWAP1 KECCAK256 SLOAD PUSH2 0x1B82 SWAP1 PUSH1 0x1 PUSH1 0x1 PUSH1 0xA0 SHL SUB AND ISZERO ISZERO PUSH2 0x154C JUMP JUMPDEST PUSH1 0x0 DUP2 DUP2 MSTORE PUSH1 0x20 SWAP1 PUSH1 0x6 DUP3 MSTORE PUSH1 0x40 SWAP1 DUP2 DUP2 KECCAK256 SWAP2 DUP1 MLOAD DUP3 SWAP4 DUP1 SLOAD SWAP5 DUP3 PUSH2 0x1BA6 DUP8 PUSH2 0x13AC JUMP JUMPDEST SWAP2 DUP3 DUP3 MSTORE DUP9 DUP3 ADD SWAP4 PUSH1 0x1 SWAP9 DUP11 PUSH1 0x1 DUP3 AND SWAP2 DUP3 PUSH1 0x0 EQ PUSH2 0x1E4F JUMPI POP POP PUSH1 0x1 EQ PUSH2 0x1E11 JUMPI JUMPDEST POP PUSH2 0x1BD6 SWAP3 POP SUB DUP4 PUSH2 0x1337 JUMP JUMPDEST PUSH2 0x1BDE PUSH2 0x13E6 JUMP JUMPDEST SWAP1 DUP2 MLOAD SWAP3 DUP4 ISZERO PUSH2 0x1E05 JUMPI DUP1 MLOAD PUSH2 0x1DE1 JUMPI POP POP POP PUSH1 0x0 DUP7 DUP2 MSTORE PUSH1 0x2 PUSH1 0x20 MSTORE PUSH1 0x40 SWAP1 KECCAK256 SLOAD PUSH2 0x1C15 SWAP2 POP PUSH1 0x1 PUSH1 0x1 PUSH1 0xA0 SHL SUB AND ISZERO ISZERO PUSH2 0x154C JUMP JUMPDEST PUSH2 0x1C1D PUSH2 0x13E6 JUMP JUMPDEST DUP1 MLOAD SWAP1 SWAP4 SWAP1 ISZERO PUSH2 0x1DCB JUMPI DUP6 DUP7 SWAP2 DUP5 SWAP8 PUSH27 0x184F03E93FF9F4DAA797ED6E38ED64BF6A1F010000000000000000 SWAP1 DUP2 DUP2 LT ISZERO PUSH2 0x1DBC JUMPI JUMPDEST POP POP PUSH14 0x4EE2D6D415B85ACEF8100000000 DUP1 DUP5 LT ISZERO PUSH2 0x1DAE JUMPI JUMPDEST POP PUSH7 0x2386F26FC10000 DUP1 DUP5 LT ISZERO PUSH2 0x1D9F JUMPI JUMPDEST POP PUSH4 0x5F5E100 DUP1 DUP5 LT ISZERO PUSH2 0x1D90 JUMPI JUMPDEST POP PUSH2 0x2710 DUP1 DUP5 LT ISZERO PUSH2 0x1D81 JUMPI JUMPDEST POP PUSH1 0x64 DUP4 LT ISZERO PUSH2 0x1D71 JUMPI JUMPDEST PUSH1 0xA DUP1 SWAP4 LT ISZERO PUSH2 0x1D67 JUMPI JUMPDEST SWAP1 DUP2 PUSH1 0x21 PUSH1 0x1 DUP11 ADD SWAP10 PUSH2 0x1CDA PUSH2 0x1CC5 DUP13 PUSH2 0x1359 JUMP JUMPDEST SWAP12 PUSH2 0x1CD2 DUP10 MLOAD SWAP14 DUP15 PUSH2 0x1337 JUMP JUMPDEST DUP1 DUP14 MSTORE PUSH2 0x1359 JUMP JUMPDEST DUP12 DUP12 ADD SWAP9 SWAP1 PUSH1 0x1F NOT ADD CALLDATASIZE DUP11 CALLDATACOPY POP DUP11 ADD ADD SWAP1 JUMPDEST PUSH2 0x1D31 JUMPI JUMPDEST POP POP POP POP SWAP1 PUSH2 0x1D25 SWAP5 PUSH2 0x15BB SWAP5 SWAP4 SWAP3 MLOAD SWAP6 DUP4 PUSH2 0x1D16 DUP9 SWAP6 MLOAD DUP1 SWAP3 DUP9 DUP1 DUP10 ADD SWAP2 ADD PUSH2 0x123B JUMP JUMPDEST DUP5 ADD SWAP2 MLOAD DUP1 SWAP4 DUP7 DUP5 ADD SWAP1 PUSH2 0x123B JUMP JUMPDEST ADD SUB DUP1 DUP5 MSTORE ADD DUP3 PUSH2 0x1337 JUMP JUMPDEST PUSH1 0x0 NOT ADD SWAP1 DUP4 SWAP1 PUSH16 0x181899199A1A9B1B9C1CB0B131B232B3 PUSH1 0x81 SHL DUP3 DUP3 MOD BYTE DUP4 MSTORE8 DIV SWAP2 DUP3 ISZERO PUSH2 0x1D62 JUMPI SWAP2 SWAP1 DUP3 PUSH2 0x1CEC JUMP JUMPDEST PUSH2 0x1CF1 JUMP JUMPDEST SWAP7 PUSH1 0x1 ADD SWAP7 PUSH2 0x1CB0 JUMP JUMPDEST SWAP7 SWAP2 PUSH1 0x64 PUSH1 0x2 SWAP2 DIV SWAP3 ADD SWAP7 PUSH2 0x1CA5 JUMP JUMPDEST PUSH1 0x4 SWAP2 SWAP9 SWAP4 DIV SWAP3 ADD SWAP7 CODESIZE PUSH2 0x1C9A JUMP JUMPDEST PUSH1 0x8 SWAP2 SWAP9 SWAP4 DIV SWAP3 ADD SWAP7 CODESIZE PUSH2 0x1C8D JUMP JUMPDEST PUSH1 0x10 SWAP2 SWAP9 SWAP4 DIV SWAP3 ADD SWAP7 CODESIZE PUSH2 0x1C7E JUMP JUMPDEST DUP8 SWAP2 SWAP9 SWAP4 DIV SWAP3 ADD SWAP7 CODESIZE PUSH2 0x1C6C JUMP JUMPDEST SWAP5 SWAP9 POP DUP9 SWAP5 DIV SWAP3 POP CODESIZE DUP1 PUSH2 0x1C52 JUMP JUMPDEST POP SWAP3 POP SWAP3 POP POP MLOAD SWAP1 PUSH2 0x1DDC DUP3 PUSH2 0x12E9 JUMP JUMPDEST DUP2 MSTORE SWAP1 JUMP JUMPDEST SWAP3 SWAP8 POP SWAP3 PUSH2 0x15BB SWAP7 SWAP6 POP PUSH2 0x1D25 SWAP2 SWAP5 POP PUSH2 0x1D16 DUP9 SWAP2 MLOAD SWAP9 DUP10 SWAP7 DUP9 DUP1 DUP10 ADD SWAP2 ADD PUSH2 0x123B JUMP JUMPDEST SWAP8 POP POP POP POP POP POP POP POP SWAP1 JUMP JUMPDEST SWAP2 POP POP DUP6 MSTORE DUP3 DUP8 DUP1 DUP8 KECCAK256 DUP9 DUP9 SWAP2 JUMPDEST DUP6 DUP4 LT PUSH2 0x1E36 JUMPI POP POP PUSH2 0x1BD6 SWAP4 POP DUP3 ADD ADD CODESIZE PUSH2 0x1BC9 JUMP JUMPDEST DUP1 SWAP2 SWAP3 SWAP5 POP SLOAD DUP4 DUP6 DUP10 ADD ADD MSTORE ADD SWAP2 ADD DUP9 SWAP1 DUP9 DUP7 SWAP4 PUSH2 0x1E1F JUMP JUMPDEST PUSH1 0xFF NOT AND DUP8 MSTORE PUSH2 0x1BD6 SWAP6 ISZERO ISZERO PUSH1 0x5 SHL DUP6 ADD ADD SWAP3 POP CODESIZE SWAP2 POP PUSH2 0x1BC9 SWAP1 POP JUMP JUMPDEST SWAP2 SWAP3 SWAP1 SWAP2 DUP1 EXTCODESIZE ISZERO PUSH2 0x1F7E JUMPI PUSH2 0x1EBA SWAP4 PUSH1 0x40 MLOAD SWAP1 DUP2 PUSH4 0xA85BD01 PUSH1 0xE1 SHL SWAP4 DUP5 DUP3 MSTORE CALLER PUSH1 0x4 DUP4 ADD MSTORE PUSH1 0x0 SWAP7 DUP8 PUSH1 0x24 DUP5 ADD MSTORE PUSH1 0x44 DUP4 ADD MSTORE PUSH1 0x80 PUSH1 0x64 DUP4 ADD MSTORE DUP2 DUP8 DUP2 PUSH1 0x20 SWAP11 DUP12 SWAP7 PUSH1 0x84 DUP4 ADD SWAP1 PUSH2 0x125E JUMP JUMPDEST SUB SWAP3 PUSH1 0x1 PUSH1 0x1 PUSH1 0xA0 SHL SUB AND GAS CALL DUP5 SWAP2 DUP2 PUSH2 0x1F3E JUMPI JUMPDEST POP PUSH2 0x1F2D JUMPI POP POP POP RETURNDATASIZE PUSH1 0x0 EQ PUSH2 0x1F25 JUMPI RETURNDATASIZE PUSH2 0x1EE9 DUP2 PUSH2 0x1359 JUMP JUMPDEST SWAP1 PUSH2 0x1EF7 PUSH1 0x40 MLOAD SWAP3 DUP4 PUSH2 0x1337 JUMP JUMPDEST DUP2 MSTORE DUP1 SWAP2 DUP4 RETURNDATASIZE SWAP3 ADD RETURNDATACOPY JUMPDEST DUP1 MLOAD SWAP2 DUP3 PUSH2 0x1F22 JUMPI PUSH1 0x40 MLOAD PUSH3 0x461BCD PUSH1 0xE5 SHL DUP2 MSTORE DUP1 PUSH2 0x6EB PUSH1 0x4 DUP3 ADD PUSH2 0x1AEC JUMP JUMPDEST ADD REVERT JUMPDEST POP PUSH1 0x60 PUSH2 0x1F01 JUMP JUMPDEST PUSH1 0x1 PUSH1 0x1 PUSH1 0xE0 SHL SUB NOT AND EQ SWAP3 POP SWAP1 POP JUMP JUMPDEST SWAP1 SWAP2 POP DUP6 DUP2 DUP2 RETURNDATASIZE DUP4 GT PUSH2 0x1F77 JUMPI JUMPDEST PUSH2 0x1F56 DUP2 DUP4 PUSH2 0x1337 JUMP JUMPDEST DUP2 ADD SUB SLT PUSH2 0x94A JUMPI MLOAD PUSH1 0x1 PUSH1 0x1 PUSH1 0xE0 SHL SUB NOT DUP2 AND DUP2 SUB PUSH2 0x94A JUMPI SWAP1 CODESIZE PUSH2 0x1ECF JUMP JUMPDEST POP RETURNDATASIZE PUSH2 0x1F4C JUMP JUMPDEST POP SWAP2 POP POP PUSH1 0x1 SWAP1 JUMP JUMPDEST SWAP3 SWAP4 SWAP2 SWAP3 SWAP1 DUP1 EXTCODESIZE ISZERO PUSH2 0x2006 JUMPI PUSH2 0x1FDB SWAP5 PUSH1 0x1 DUP1 PUSH1 0xA0 SHL SUB SWAP5 PUSH1 0x40 MLOAD SWAP3 DUP4 SWAP2 DUP8 PUSH4 0xA85BD01 PUSH1 0xE1 SHL SWAP7 DUP8 DUP6 MSTORE CALLER PUSH1 0x4 DUP7 ADD MSTORE AND PUSH1 0x24 DUP5 ADD MSTORE PUSH1 0x44 DUP4 ADD MSTORE PUSH1 0x80 PUSH1 0x64 DUP4 ADD MSTORE DUP2 DUP1 PUSH1 0x20 SWAP10 DUP11 SWAP6 PUSH1 0x84 DUP4 ADD SWAP1 PUSH2 0x125E JUMP JUMPDEST SUB SWAP2 PUSH1 0x0 SWAP9 DUP10 SWAP2 AND GAS CALL DUP5 SWAP2 DUP2 PUSH2 0x1F3E JUMPI POP PUSH2 0x1F2D JUMPI POP POP POP RETURNDATASIZE PUSH1 0x0 EQ PUSH2 0x1F25 JUMPI RETURNDATASIZE PUSH2 0x1EE9 DUP2 PUSH2 0x1359 JUMP JUMPDEST POP POP SWAP2 POP POP PUSH1 0x1 SWAP1 JUMP JUMPDEST SWAP1 DUP2 MLOAD DUP2 LT ISZERO PUSH2 0x2021 JUMPI ADD PUSH1 0x20 ADD SWAP1 JUMP JUMPDEST PUSH4 0x4E487B71 PUSH1 0xE0 SHL PUSH1 0x0 MSTORE PUSH1 0x32 PUSH1 0x4 MSTORE PUSH1 0x24 PUSH1 0x0 REVERT JUMPDEST PUSH1 0x40 MLOAD SWAP1 PUSH1 0x60 DUP3 ADD DUP3 DUP2 LT PUSH8 0xFFFFFFFFFFFFFFFF DUP3 GT OR PUSH2 0x1305 JUMPI PUSH1 0x40 MSTORE PUSH1 0x2A DUP3 MSTORE PUSH1 0x20 DUP3 ADD PUSH1 0x40 CALLDATASIZE DUP3 CALLDATACOPY DUP3 MLOAD ISZERO PUSH2 0x2021 JUMPI PUSH1 0x30 SWAP1 MSTORE8 DUP2 MLOAD PUSH1 0x1 SWAP1 PUSH1 0x1 LT ISZERO PUSH2 0x2021 JUMPI PUSH1 0x78 PUSH1 0x21 DUP5 ADD MSTORE8 PUSH1 0x29 SWAP1 JUMPDEST DUP1 DUP3 GT PUSH2 0x20D9 JUMPI POP POP PUSH2 0x2095 JUMPI SWAP1 JUMP JUMPDEST PUSH1 0x64 PUSH1 0x40 MLOAD PUSH3 0x461BCD PUSH1 0xE5 SHL DUP2 MSTORE PUSH1 0x20 PUSH1 0x4 DUP3 ADD MSTORE PUSH1 0x20 PUSH1 0x24 DUP3 ADD MSTORE PUSH32 0x537472696E67733A20686578206C656E67746820696E73756666696369656E74 PUSH1 0x44 DUP3 ADD MSTORE REVERT JUMPDEST SWAP1 SWAP2 PUSH1 0xF DUP2 AND PUSH1 0x10 DUP2 LT ISZERO PUSH2 0x2132 JUMPI PUSH16 0x181899199A1A9B1B9C1CB0B131B232B3 PUSH1 0x81 SHL SWAP1 BYTE PUSH2 0x2108 DUP5 DUP7 PUSH2 0x2010 JUMP JUMPDEST MSTORE8 PUSH1 0x4 SHR SWAP2 DUP1 ISZERO PUSH2 0x211D JUMPI PUSH1 0x0 NOT ADD SWAP1 PUSH2 0x2085 JUMP JUMPDEST PUSH1 0x24 PUSH1 0x0 PUSH4 0x4E487B71 PUSH1 0xE0 SHL DUP2 MSTORE PUSH1 0x11 PUSH1 0x4 MSTORE REVERT JUMPDEST PUSH1 0x24 PUSH1 0x0 PUSH4 0x4E487B71 PUSH1 0xE0 SHL DUP2 MSTORE PUSH1 0x32 PUSH1 0x4 MSTORE REVERT JUMPDEST ISZERO PUSH2 0x214E JUMPI JUMP JUMPDEST PUSH1 0x40 MLOAD PUSH3 0x461BCD PUSH1 0xE5 SHL DUP2 MSTORE PUSH1 0x20 PUSH1 0x4 DUP3 ADD MSTORE PUSH1 0x1C PUSH1 0x24 DUP3 ADD MSTORE PUSH32 0x4552433732313A20746F6B656E20616C7265616479206D696E74656400000000 PUSH1 0x44 DUP3 ADD MSTORE PUSH1 0x64 SWAP1 REVERT INVALID LOG2 PUSH5 0x6970667358 0x22 SLT KECCAK256 0xD8 0x23 0xA9 CALLER MSTORE8 0x4E 0xB8 PUSH25 0xA49E1729A7A0D1CE23A0700304BDDE1253FE760A2FB922C364 PUSH20 0x6F6C634300081800332F8788117E7EFF1D82E926 0xEC PUSH26 0x4901D17C78024A50270940304540A733656F0D00000000000000 "},"methodIdentifiers":{"DEFAULT_ADMIN_ROLE()":"a217fddf","MINTER_ROLE()":"d5391393","approve(address,uint256)":"095ea7b3","balanceOf(address)":"70a08231","baseURIFrozen()":"fb565bfd","freezeBaseURI()":"e7bc8208","getApproved(uint256)":"081812fc","getRoleAdmin(bytes32)":"248a9ca3","grantRole(bytes32,address)":"2f2ff15d","hasRole(bytes32,address)":"91d14854","isApprovedForAll(address,address)":"e985e9c5","mint(address,string)":"d0def521","name()":"06fdde03","ownerOf(uint256)":"6352211e","renounceRole(bytes32,address)":"36568abe","revokeRole(bytes32,address)":"d547741f","safeTransferFrom(address,address,uint256)":"42842e0e","safeTransferFrom(address,address,uint256,bytes)":"b88d4fde","setApprovalForAll(address,bool)":"a22cb465","setBaseURI(string)":"55f804b3","supportsInterface(bytes4)":"01ffc9a7","symbol()":"95d89b41","tokenURI(uint256)":"c87b56dd","transferFrom(address,address,uint256)":"23b872dd"}},"storageLayout":{"storage":[{"astId":615,"contract":"contracts/nft/BaronNFT.sol:BaronNFT","label":"_name","offset":0,"slot":"0","type":"t_string_storage"},{"astId":617,"contract":"contracts/nft/BaronNFT.sol:BaronNFT","label":"_symbol","offset":0,"slot":"1","type":"t_string_storage"},{"astId":621,"contract":"contracts/nft/BaronNFT.sol:BaronNFT","label":"_owners","offset":0,"slot":"2","type":"t_mapping(t_uint256,t_address)"},{"astId":625,"contract":"contracts/nft/BaronNFT.sol:BaronNFT","label":"_balances","offset":0,"slot":"3","type":"t_mapping(t_address,t_uint256)"},{"astId":629,"contract":"contracts/nft/BaronNFT.sol:BaronNFT","label":"_tokenApprovals","offset":0,"slot":"4","type":"t_mapping(t_uint256,t_address)"},{"astId":635,"contract":"contracts/nft/BaronNFT.sol:BaronNFT","label":"_operatorApprovals","offset":0,"slot":"5","type":"t_mapping(t_address,t_mapping(t_address,t_bool))"},{"astId":1666,"contract":"contracts/nft/BaronNFT.sol:BaronNFT","label":"_tokenURIs","offset":0,"slot":"6","type":"t_mapping(t_uint256,t_string_storage)"},{"astId":24,"contract":"contracts/nft/BaronNFT.sol:BaronNFT","label":"_roles","offset":0,"slot":"7","type":"t_mapping(t_bytes32,t_struct(RoleData)19_storage)"},{"astId":3979,"contract":"contracts/nft/BaronNFT.sol:BaronNFT","label":"_id","offset":0,"slot":"8","type":"t_uint256"},{"astId":3981,"contract":"contracts/nft/BaronNFT.sol:BaronNFT","label":"baseURIFrozen","offset":0,"slot":"9","type":"t_bool"},{"astId":3983,"contract":"contracts/nft/BaronNFT.sol:BaronNFT","label":"_baseTokenURI","offset":0,"slot":"10","type":"t_string_storage"}],"types":{"t_address":{"encoding":"inplace","label":"address","numberOfBytes":"20"},"t_bool":{"encoding":"inplace","label":"bool","numberOfBytes":"1"},"t_bytes32":{"encoding":"inplace","label":"bytes32","numberOfBytes":"32"},"t_mapping(t_address,t_bool)":{"encoding":"mapping","key":"t_address","label":"mapping(address => bool)","numberOfBytes":"32","value":"t_bool"},"t_mapping(t_address,t_mapping(t_address,t_bool))":{"encoding":"mapping","key":"t_address","label":"mapping(address => mapping(address => bool))","numberOfBytes":"32","value":"t_mapping(t_address,t_bool)"},"t_mapping(t_address,t_uint256)":{"encoding":"mapping","key":"t_address","label":"mapping(address => uint256)","numberOfBytes":"32","value":"t_uint256"},"t_mapping(t_bytes32,t_struct(RoleData)19_storage)":{"encoding":"mapping","key":"t_bytes32","label":"mapping(bytes32 => struct AccessControl.RoleData)","numberOfBytes":"32","value":"t_struct(RoleData)19_storage"},"t_mapping(t_uint256,t_address)":{"encoding":"mapping","key":"t_uint256","label":"mapping(uint256 => address)","numberOfBytes":"32","value":"t_address"},"t_mapping(t_uint256,t_string_storage)":{"encoding":"mapping","key":"t_uint256","label":"mapping(uint256 => string)","numberOfBytes":"32","value":"t_string_storage"},"t_string_storage":{"encoding":"bytes","label":"string","numberOfBytes":"32"},"t_struct(RoleData)19_storage":{"encoding":"inplace","label":"struct AccessControl.RoleData","members":[{"astId":16,"contract":"contracts/nft/BaronNFT.sol:BaronNFT","label":"members","offset":0,"slot":"0","type":"t_mapping(t_address,t_bool)"},{"astId":18,"contract":"contracts/nft/BaronNFT.sol:BaronNFT","label":"adminRole","offset":0,"slot":"1","type":"t_bytes32"}],"numberOfBytes":"64"},"t_uint256":{"encoding":"inplace","label":"uint256","numberOfBytes":"32"}}}}}}