{
  "_format": "hh-sol-artifact-1",
  "contractName": "RefundManager",
  "sourceName": "contracts/refund/RefundManager.sol",
  "abi": [
    {
      "inputs": [
        {
          "internalType": "address",
          "name": "_timelock",
          "type": "address"
        },
        {
          "internalType": "bytes32",
          "name": "_root",
          "type": "bytes32"
        }
      ],
      "stateMutability": "nonpayable",
      "type": "constructor"
    },
    {
      "inputs": [],
      "name": "AlreadyClaimed",
      "type": "error"
    },
    {
      "inputs": [],
      "name": "BadProof",
      "type": "error"
    },
    {
      "inputs": [],
      "name": "NotTimelock",
      "type": "error"
    },
    {
      "inputs": [],
      "name": "TransferFailed",
      "type": "error"
    },
    {
      "anonymous": false,
      "inputs": [
        {
          "indexed": true,
          "internalType": "bytes32",
          "name": "root",
          "type": "bytes32"
        }
      ],
      "name": "MerkleRootUpdated",
      "type": "event"
    },
    {
      "anonymous": false,
      "inputs": [
        {
          "indexed": false,
          "internalType": "address",
          "name": "account",
          "type": "address"
        }
      ],
      "name": "Paused",
      "type": "event"
    },
    {
      "anonymous": false,
      "inputs": [
        {
          "indexed": true,
          "internalType": "uint256",
          "name": "index",
          "type": "uint256"
        },
        {
          "indexed": true,
          "internalType": "address",
          "name": "account",
          "type": "address"
        },
        {
          "indexed": false,
          "internalType": "uint256",
          "name": "amount",
          "type": "uint256"
        }
      ],
      "name": "Refunded",
      "type": "event"
    },
    {
      "anonymous": false,
      "inputs": [
        {
          "indexed": false,
          "internalType": "address",
          "name": "account",
          "type": "address"
        }
      ],
      "name": "Unpaused",
      "type": "event"
    },
    {
      "inputs": [
        {
          "internalType": "uint256",
          "name": "index",
          "type": "uint256"
        },
        {
          "internalType": "address",
          "name": "account",
          "type": "address"
        },
        {
          "internalType": "uint256",
          "name": "amount",
          "type": "uint256"
        },
        {
          "internalType": "bytes32[]",
          "name": "proof",
          "type": "bytes32[]"
        }
      ],
      "name": "claim",
      "outputs": [],
      "stateMutability": "nonpayable",
      "type": "function"
    },
    {
      "inputs": [
        {
          "internalType": "uint256",
          "name": "index",
          "type": "uint256"
        }
      ],
      "name": "isClaimed",
      "outputs": [
        {
          "internalType": "bool",
          "name": "",
          "type": "bool"
        }
      ],
      "stateMutability": "view",
      "type": "function"
    },
    {
      "inputs": [],
      "name": "merkleRoot",
      "outputs": [
        {
          "internalType": "bytes32",
          "name": "",
          "type": "bytes32"
        }
      ],
      "stateMutability": "view",
      "type": "function"
    },
    {
      "inputs": [],
      "name": "pause",
      "outputs": [],
      "stateMutability": "nonpayable",
      "type": "function"
    },
    {
      "inputs": [],
      "name": "paused",
      "outputs": [
        {
          "internalType": "bool",
          "name": "",
          "type": "bool"
        }
      ],
      "stateMutability": "view",
      "type": "function"
    },
    {
      "inputs": [
        {
          "internalType": "bytes32",
          "name": "_root",
          "type": "bytes32"
        }
      ],
      "name": "setMerkleRoot",
      "outputs": [],
      "stateMutability": "nonpayable",
      "type": "function"
    },
    {
      "inputs": [],
      "name": "timelock",
      "outputs": [
        {
          "internalType": "address",
          "name": "",
          "type": "address"
        }
      ],
      "stateMutability": "view",
      "type": "function"
    },
    {
      "inputs": [],
      "name": "unpause",
      "outputs": [],
      "stateMutability": "nonpayable",
      "type": "function"
    },
    {
      "stateMutability": "payable",
      "type": "receive"
    }
  ],
  "bytecode": "0x60a0346100ce57601f6107a138819003918201601f19168301916001600160401b038311848410176100d35780849260409485528339810103126100ce5780516001600160a01b038116918282036100ce576020015191600160005560ff19600154166001551561009c576080526002556040516106b790816100ea8239608051818181609801528181610121015281816101c301526102520152f35b60405162461bcd60e51b815260206004820152600a602482015269074696d656c6f636b3d360b41b6044820152606490fd5b600080fd5b634e487b7160e01b600052604160045260246000fdfe608080604052600436101561001d575b50361561001b57600080fd5b005b60003560e01c9081632e7ba6ef14610325575080632eb4a7ab146103075780633f4ba83a1461023f5780635c975abb1461021c5780637cb64759146101ad5780638456cb591461010e5780639e34070f146100cc5763d33219b414610082573861000f565b346100c75760003660031901126100c7576040517f00000000000000000000000000000000000000000000000000000000000000006001600160a01b03168152602090f35b600080fd5b346100c75760203660031901126100c75760206101046004358060081c6000526003602052600160ff60406000205492161b16151590565b6040519015158152f35b346100c75760003660031901126100c7577f00000000000000000000000000000000000000000000000000000000000000006001600160a01b0316330361019b5761015761063d565b600160ff198154161760015560206040513381527f62e78cea01bee320cd4e420270b5ea74000d11b0c9f74754ebdbfc544b05a258918291a16020604051338152a1005b60405163656a6d1560e11b8152600490fd5b346100c75760203660031901126100c7576004357f00000000000000000000000000000000000000000000000000000000000000006001600160a01b0316330361019b57806002557f90004c04698bc3322499a575ed3752dd4abf33e0a7294c06a787a0fe01bea941600080a2005b346100c75760003660031901126100c757602060ff600154166040519015158152f35b346100c75760003660031901126100c7577f00000000000000000000000000000000000000000000000000000000000000006001600160a01b0316330361019b5760015460ff8116156102cb5760ff191660015560206040513381527f5db9ee0a495bf2e6ff9c91a7834c1ba4fdd244a5e8aa4e537bd38aeae4b073aa918291a16020604051338152a1005b60405162461bcd60e51b815260206004820152601460248201527314185d5cd8589b194e881b9bdd081c185d5cd95960621b6044820152606490fd5b346100c75760003660031901126100c7576020600254604051908152f35b346100c75760803660031901126100c7576024356001600160a01b03811690036100c75767ffffffffffffffff606435116100c7573660236064350112156100c75767ffffffffffffffff60643560040135116100c7576005906064356004013560051b90366024836064350101116100c7576002600054146105d9575060026000556103b061063d565b6103d56004358060081c6000526003602052600160ff60406000205492161b16151590565b6105c7576040519160043560208401526bffffffffffffffffffffffff1960243560601b16604084015260443560548401526054835282608081011067ffffffffffffffff60808501111761058a57608083016040528251602084012060025492610446602082016080870161061b565b6064356004810135608087015260240160a086015b602483606435010182106105b757505050906000915b60808501518310156104b85782821b850160a0015190818110156104a557600052602052600160406000205b920191610471565b906000526020526001604060002061049d565b83036105a55760043560081c60005260036020526040600020600160ff600435161b8154179055600080808060443560018060a01b03602435165af13d156105a0573d67ffffffffffffffff811161058a5760405190610522601f8201601f19166020018361061b565b8152600060203d92013e5b156105785760405160443581526024356001600160a01b031690600435907f7ca5472b7ea78c2c0141c5a12ee6d170cf4ce8ed06be3d22c8252ddfc7a6a2c490602090a36001600055005b6040516312171d8360e31b8152600490fd5b634e487b7160e01b600052604160045260246000fd5b61052d565b604051637ca55c7760e01b8152600490fd5b813581526020918201910161045b565b604051630c8d9eab60e31b8152600490fd5b62461bcd60e51b815260206004820152601f60248201527f5265656e7472616e637947756172643a207265656e7472616e742063616c6c006044820152606490fd5b90601f8019910116810190811067ffffffffffffffff82111761058a57604052565b60ff6001541661064957565b60405162461bcd60e51b815260206004820152601060248201526f14185d5cd8589b194e881c185d5cd95960821b6044820152606490fdfea2646970667358221220073d0e6353b1bd8a29796d9f1d5eb9a1674f4c2786a588eed4dea4922d1df7d064736f6c63430008180033",
  "linkReferences": {},
  "deployedLinkReferences": {}
}