{
  "_format": "hh-sol-artifact-1",
  "contractName": "BaronTokenVotes",
  "sourceName": "contracts/token/BaronTokenVotes.sol",
  "abi": [
    {
      "inputs": [
        {
          "internalType": "address",
          "name": "admin",
          "type": "address"
        },
        {
          "internalType": "uint256",
          "name": "initialSupply",
          "type": "uint256"
        }
      ],
      "stateMutability": "nonpayable",
      "type": "constructor"
    },
    {
      "inputs": [],
      "name": "InvalidShortString",
      "type": "error"
    },
    {
      "inputs": [
        {
          "internalType": "string",
          "name": "str",
          "type": "string"
        }
      ],
      "name": "StringTooLong",
      "type": "error"
    },
    {
      "anonymous": false,
      "inputs": [
        {
          "indexed": true,
          "internalType": "address",
          "name": "owner",
          "type": "address"
        },
        {
          "indexed": true,
          "internalType": "address",
          "name": "spender",
          "type": "address"
        },
        {
          "indexed": false,
          "internalType": "uint256",
          "name": "value",
          "type": "uint256"
        }
      ],
      "name": "Approval",
      "type": "event"
    },
    {
      "anonymous": false,
      "inputs": [
        {
          "indexed": true,
          "internalType": "address",
          "name": "delegator",
          "type": "address"
        },
        {
          "indexed": true,
          "internalType": "address",
          "name": "fromDelegate",
          "type": "address"
        },
        {
          "indexed": true,
          "internalType": "address",
          "name": "toDelegate",
          "type": "address"
        }
      ],
      "name": "DelegateChanged",
      "type": "event"
    },
    {
      "anonymous": false,
      "inputs": [
        {
          "indexed": true,
          "internalType": "address",
          "name": "delegate",
          "type": "address"
        },
        {
          "indexed": false,
          "internalType": "uint256",
          "name": "previousBalance",
          "type": "uint256"
        },
        {
          "indexed": false,
          "internalType": "uint256",
          "name": "newBalance",
          "type": "uint256"
        }
      ],
      "name": "DelegateVotesChanged",
      "type": "event"
    },
    {
      "anonymous": false,
      "inputs": [],
      "name": "EIP712DomainChanged",
      "type": "event"
    },
    {
      "anonymous": false,
      "inputs": [
        {
          "indexed": false,
          "internalType": "address",
          "name": "account",
          "type": "address"
        }
      ],
      "name": "Paused",
      "type": "event"
    },
    {
      "anonymous": false,
      "inputs": [
        {
          "indexed": true,
          "internalType": "bytes32",
          "name": "role",
          "type": "bytes32"
        },
        {
          "indexed": true,
          "internalType": "bytes32",
          "name": "previousAdminRole",
          "type": "bytes32"
        },
        {
          "indexed": true,
          "internalType": "bytes32",
          "name": "newAdminRole",
          "type": "bytes32"
        }
      ],
      "name": "RoleAdminChanged",
      "type": "event"
    },
    {
      "anonymous": false,
      "inputs": [
        {
          "indexed": true,
          "internalType": "bytes32",
          "name": "role",
          "type": "bytes32"
        },
        {
          "indexed": true,
          "internalType": "address",
          "name": "account",
          "type": "address"
        },
        {
          "indexed": true,
          "internalType": "address",
          "name": "sender",
          "type": "address"
        }
      ],
      "name": "RoleGranted",
      "type": "event"
    },
    {
      "anonymous": false,
      "inputs": [
        {
          "indexed": true,
          "internalType": "bytes32",
          "name": "role",
          "type": "bytes32"
        },
        {
          "indexed": true,
          "internalType": "address",
          "name": "account",
          "type": "address"
        },
        {
          "indexed": true,
          "internalType": "address",
          "name": "sender",
          "type": "address"
        }
      ],
      "name": "RoleRevoked",
      "type": "event"
    },
    {
      "anonymous": false,
      "inputs": [
        {
          "indexed": true,
          "internalType": "address",
          "name": "from",
          "type": "address"
        },
        {
          "indexed": true,
          "internalType": "address",
          "name": "to",
          "type": "address"
        },
        {
          "indexed": false,
          "internalType": "uint256",
          "name": "value",
          "type": "uint256"
        }
      ],
      "name": "Transfer",
      "type": "event"
    },
    {
      "anonymous": false,
      "inputs": [
        {
          "indexed": false,
          "internalType": "address",
          "name": "account",
          "type": "address"
        }
      ],
      "name": "Unpaused",
      "type": "event"
    },
    {
      "inputs": [],
      "name": "CLOCK_MODE",
      "outputs": [
        {
          "internalType": "string",
          "name": "",
          "type": "string"
        }
      ],
      "stateMutability": "view",
      "type": "function"
    },
    {
      "inputs": [],
      "name": "DEFAULT_ADMIN_ROLE",
      "outputs": [
        {
          "internalType": "bytes32",
          "name": "",
          "type": "bytes32"
        }
      ],
      "stateMutability": "view",
      "type": "function"
    },
    {
      "inputs": [],
      "name": "DOMAIN_SEPARATOR",
      "outputs": [
        {
          "internalType": "bytes32",
          "name": "",
          "type": "bytes32"
        }
      ],
      "stateMutability": "view",
      "type": "function"
    },
    {
      "inputs": [],
      "name": "MINTER_ROLE",
      "outputs": [
        {
          "internalType": "bytes32",
          "name": "",
          "type": "bytes32"
        }
      ],
      "stateMutability": "view",
      "type": "function"
    },
    {
      "inputs": [],
      "name": "PAUSER_ROLE",
      "outputs": [
        {
          "internalType": "bytes32",
          "name": "",
          "type": "bytes32"
        }
      ],
      "stateMutability": "view",
      "type": "function"
    },
    {
      "inputs": [
        {
          "internalType": "address",
          "name": "owner",
          "type": "address"
        },
        {
          "internalType": "address",
          "name": "spender",
          "type": "address"
        }
      ],
      "name": "allowance",
      "outputs": [
        {
          "internalType": "uint256",
          "name": "",
          "type": "uint256"
        }
      ],
      "stateMutability": "view",
      "type": "function"
    },
    {
      "inputs": [
        {
          "internalType": "address",
          "name": "spender",
          "type": "address"
        },
        {
          "internalType": "uint256",
          "name": "amount",
          "type": "uint256"
        }
      ],
      "name": "approve",
      "outputs": [
        {
          "internalType": "bool",
          "name": "",
          "type": "bool"
        }
      ],
      "stateMutability": "nonpayable",
      "type": "function"
    },
    {
      "inputs": [
        {
          "internalType": "address",
          "name": "account",
          "type": "address"
        }
      ],
      "name": "balanceOf",
      "outputs": [
        {
          "internalType": "uint256",
          "name": "",
          "type": "uint256"
        }
      ],
      "stateMutability": "view",
      "type": "function"
    },
    {
      "inputs": [
        {
          "internalType": "address",
          "name": "account",
          "type": "address"
        },
        {
          "internalType": "uint32",
          "name": "pos",
          "type": "uint32"
        }
      ],
      "name": "checkpoints",
      "outputs": [
        {
          "components": [
            {
              "internalType": "uint32",
              "name": "fromBlock",
              "type": "uint32"
            },
            {
              "internalType": "uint224",
              "name": "votes",
              "type": "uint224"
            }
          ],
          "internalType": "struct ERC20Votes.Checkpoint",
          "name": "",
          "type": "tuple"
        }
      ],
      "stateMutability": "view",
      "type": "function"
    },
    {
      "inputs": [],
      "name": "clock",
      "outputs": [
        {
          "internalType": "uint48",
          "name": "",
          "type": "uint48"
        }
      ],
      "stateMutability": "view",
      "type": "function"
    },
    {
      "inputs": [],
      "name": "decimals",
      "outputs": [
        {
          "internalType": "uint8",
          "name": "",
          "type": "uint8"
        }
      ],
      "stateMutability": "view",
      "type": "function"
    },
    {
      "inputs": [
        {
          "internalType": "address",
          "name": "spender",
          "type": "address"
        },
        {
          "internalType": "uint256",
          "name": "subtractedValue",
          "type": "uint256"
        }
      ],
      "name": "decreaseAllowance",
      "outputs": [
        {
          "internalType": "bool",
          "name": "",
          "type": "bool"
        }
      ],
      "stateMutability": "nonpayable",
      "type": "function"
    },
    {
      "inputs": [
        {
          "internalType": "address",
          "name": "delegatee",
          "type": "address"
        }
      ],
      "name": "delegate",
      "outputs": [],
      "stateMutability": "nonpayable",
      "type": "function"
    },
    {
      "inputs": [
        {
          "internalType": "address",
          "name": "delegatee",
          "type": "address"
        },
        {
          "internalType": "uint256",
          "name": "nonce",
          "type": "uint256"
        },
        {
          "internalType": "uint256",
          "name": "expiry",
          "type": "uint256"
        },
        {
          "internalType": "uint8",
          "name": "v",
          "type": "uint8"
        },
        {
          "internalType": "bytes32",
          "name": "r",
          "type": "bytes32"
        },
        {
          "internalType": "bytes32",
          "name": "s",
          "type": "bytes32"
        }
      ],
      "name": "delegateBySig",
      "outputs": [],
      "stateMutability": "nonpayable",
      "type": "function"
    },
    {
      "inputs": [
        {
          "internalType": "address",
          "name": "account",
          "type": "address"
        }
      ],
      "name": "delegates",
      "outputs": [
        {
          "internalType": "address",
          "name": "",
          "type": "address"
        }
      ],
      "stateMutability": "view",
      "type": "function"
    },
    {
      "inputs": [],
      "name": "eip712Domain",
      "outputs": [
        {
          "internalType": "bytes1",
          "name": "fields",
          "type": "bytes1"
        },
        {
          "internalType": "string",
          "name": "name",
          "type": "string"
        },
        {
          "internalType": "string",
          "name": "version",
          "type": "string"
        },
        {
          "internalType": "uint256",
          "name": "chainId",
          "type": "uint256"
        },
        {
          "internalType": "address",
          "name": "verifyingContract",
          "type": "address"
        },
        {
          "internalType": "bytes32",
          "name": "salt",
          "type": "bytes32"
        },
        {
          "internalType": "uint256[]",
          "name": "extensions",
          "type": "uint256[]"
        }
      ],
      "stateMutability": "view",
      "type": "function"
    },
    {
      "inputs": [
        {
          "internalType": "uint256",
          "name": "timepoint",
          "type": "uint256"
        }
      ],
      "name": "getPastTotalSupply",
      "outputs": [
        {
          "internalType": "uint256",
          "name": "",
          "type": "uint256"
        }
      ],
      "stateMutability": "view",
      "type": "function"
    },
    {
      "inputs": [
        {
          "internalType": "address",
          "name": "account",
          "type": "address"
        },
        {
          "internalType": "uint256",
          "name": "timepoint",
          "type": "uint256"
        }
      ],
      "name": "getPastVotes",
      "outputs": [
        {
          "internalType": "uint256",
          "name": "",
          "type": "uint256"
        }
      ],
      "stateMutability": "view",
      "type": "function"
    },
    {
      "inputs": [
        {
          "internalType": "bytes32",
          "name": "role",
          "type": "bytes32"
        }
      ],
      "name": "getRoleAdmin",
      "outputs": [
        {
          "internalType": "bytes32",
          "name": "",
          "type": "bytes32"
        }
      ],
      "stateMutability": "view",
      "type": "function"
    },
    {
      "inputs": [
        {
          "internalType": "address",
          "name": "account",
          "type": "address"
        }
      ],
      "name": "getVotes",
      "outputs": [
        {
          "internalType": "uint256",
          "name": "",
          "type": "uint256"
        }
      ],
      "stateMutability": "view",
      "type": "function"
    },
    {
      "inputs": [
        {
          "internalType": "bytes32",
          "name": "role",
          "type": "bytes32"
        },
        {
          "internalType": "address",
          "name": "account",
          "type": "address"
        }
      ],
      "name": "grantRole",
      "outputs": [],
      "stateMutability": "nonpayable",
      "type": "function"
    },
    {
      "inputs": [
        {
          "internalType": "bytes32",
          "name": "role",
          "type": "bytes32"
        },
        {
          "internalType": "address",
          "name": "account",
          "type": "address"
        }
      ],
      "name": "hasRole",
      "outputs": [
        {
          "internalType": "bool",
          "name": "",
          "type": "bool"
        }
      ],
      "stateMutability": "view",
      "type": "function"
    },
    {
      "inputs": [
        {
          "internalType": "address",
          "name": "spender",
          "type": "address"
        },
        {
          "internalType": "uint256",
          "name": "addedValue",
          "type": "uint256"
        }
      ],
      "name": "increaseAllowance",
      "outputs": [
        {
          "internalType": "bool",
          "name": "",
          "type": "bool"
        }
      ],
      "stateMutability": "nonpayable",
      "type": "function"
    },
    {
      "inputs": [
        {
          "internalType": "address",
          "name": "to",
          "type": "address"
        },
        {
          "internalType": "uint256",
          "name": "amount",
          "type": "uint256"
        }
      ],
      "name": "mint",
      "outputs": [],
      "stateMutability": "nonpayable",
      "type": "function"
    },
    {
      "inputs": [],
      "name": "name",
      "outputs": [
        {
          "internalType": "string",
          "name": "",
          "type": "string"
        }
      ],
      "stateMutability": "view",
      "type": "function"
    },
    {
      "inputs": [
        {
          "internalType": "address",
          "name": "owner",
          "type": "address"
        }
      ],
      "name": "nonces",
      "outputs": [
        {
          "internalType": "uint256",
          "name": "",
          "type": "uint256"
        }
      ],
      "stateMutability": "view",
      "type": "function"
    },
    {
      "inputs": [
        {
          "internalType": "address",
          "name": "account",
          "type": "address"
        }
      ],
      "name": "numCheckpoints",
      "outputs": [
        {
          "internalType": "uint32",
          "name": "",
          "type": "uint32"
        }
      ],
      "stateMutability": "view",
      "type": "function"
    },
    {
      "inputs": [],
      "name": "pause",
      "outputs": [],
      "stateMutability": "nonpayable",
      "type": "function"
    },
    {
      "inputs": [],
      "name": "paused",
      "outputs": [
        {
          "internalType": "bool",
          "name": "",
          "type": "bool"
        }
      ],
      "stateMutability": "view",
      "type": "function"
    },
    {
      "inputs": [
        {
          "internalType": "address",
          "name": "owner",
          "type": "address"
        },
        {
          "internalType": "address",
          "name": "spender",
          "type": "address"
        },
        {
          "internalType": "uint256",
          "name": "value",
          "type": "uint256"
        },
        {
          "internalType": "uint256",
          "name": "deadline",
          "type": "uint256"
        },
        {
          "internalType": "uint8",
          "name": "v",
          "type": "uint8"
        },
        {
          "internalType": "bytes32",
          "name": "r",
          "type": "bytes32"
        },
        {
          "internalType": "bytes32",
          "name": "s",
          "type": "bytes32"
        }
      ],
      "name": "permit",
      "outputs": [],
      "stateMutability": "nonpayable",
      "type": "function"
    },
    {
      "inputs": [
        {
          "internalType": "bytes32",
          "name": "role",
          "type": "bytes32"
        },
        {
          "internalType": "address",
          "name": "account",
          "type": "address"
        }
      ],
      "name": "renounceRole",
      "outputs": [],
      "stateMutability": "nonpayable",
      "type": "function"
    },
    {
      "inputs": [
        {
          "internalType": "bytes32",
          "name": "role",
          "type": "bytes32"
        },
        {
          "internalType": "address",
          "name": "account",
          "type": "address"
        }
      ],
      "name": "revokeRole",
      "outputs": [],
      "stateMutability": "nonpayable",
      "type": "function"
    },
    {
      "inputs": [
        {
          "internalType": "bytes4",
          "name": "interfaceId",
          "type": "bytes4"
        }
      ],
      "name": "supportsInterface",
      "outputs": [
        {
          "internalType": "bool",
          "name": "",
          "type": "bool"
        }
      ],
      "stateMutability": "view",
      "type": "function"
    },
    {
      "inputs": [],
      "name": "symbol",
      "outputs": [
        {
          "internalType": "string",
          "name": "",
          "type": "string"
        }
      ],
      "stateMutability": "view",
      "type": "function"
    },
    {
      "inputs": [],
      "name": "totalSupply",
      "outputs": [
        {
          "internalType": "uint256",
          "name": "",
          "type": "uint256"
        }
      ],
      "stateMutability": "view",
      "type": "function"
    },
    {
      "inputs": [
        {
          "internalType": "address",
          "name": "to",
          "type": "address"
        },
        {
          "internalType": "uint256",
          "name": "amount",
          "type": "uint256"
        }
      ],
      "name": "transfer",
      "outputs": [
        {
          "internalType": "bool",
          "name": "",
          "type": "bool"
        }
      ],
      "stateMutability": "nonpayable",
      "type": "function"
    },
    {
      "inputs": [
        {
          "internalType": "address",
          "name": "from",
          "type": "address"
        },
        {
          "internalType": "address",
          "name": "to",
          "type": "address"
        },
        {
          "internalType": "uint256",
          "name": "amount",
          "type": "uint256"
        }
      ],
      "name": "transferFrom",
      "outputs": [
        {
          "internalType": "bool",
          "name": "",
          "type": "bool"
        }
      ],
      "stateMutability": "nonpayable",
      "type": "function"
    },
    {
      "inputs": [],
      "name": "unpause",
      "outputs": [],
      "stateMutability": "nonpayable",
      "type": "function"
    }
  ],
  "bytecode": "0x61016080604052346200009d576040620041de80380380916200002282620000b8565b8439126200009d57516001600160a01b03811681036200009d57610180516200004b916200019b565b604051612e7390816200132b823960805181611d48015260a05181611e03015260c05181611d12015260e05181611d9701526101005181611dbd01526101205181610d0701526101405181610d310152f35b600080fd5b634e487b7160e01b600052604160045260246000fd5b601f01601f1916610160908101906001600160401b03821190821017620000de57604052565b620000a2565b604081019081106001600160401b03821117620000de57604052565b604051906200010f82620000e4565b565b604051906200012082620000e4565b60058252565b604051906200013582620000e4565b60018252565b604051906200014a82620000e4565b600b82526a2130b937b7102a37b5b2b760a91b6020830152565b156200016c57565b60405162461bcd60e51b8152602060048201526007602482015266061646d696e3d360cc1b6044820152606490fd5b9190620001a76200013b565b92620001b26200013b565b93620001bd62000111565b90602090642120a927a760d91b82840152620001d862000126565b9180830193603160f81b8552885160018060401b038111620000de576200020c816200020660035462000380565b620003bd565b82601f8211600114620002ed578162000252939262000249926200010f9c9d600092620002e1575b50508160011b916000199060031b1c19161790565b60035562000529565b6200025d82620007c4565b610120526200026c83620008d4565b61014052815191012060e052519020610100524660a0526200028d620009e1565b6080523060c052620002a460ff19600d5416600d55565b620002ba6001600160a01b038216151562000164565b620002c58162000617565b620002d081620006aa565b620002db8162000762565b62000ab3565b01519050388062000234565b6003600052601f1982169a7fc2575a0e9e593c00f959f8c92f12db2869c3395a3b0502d05e2516446f71f85b9b60005b8181106200036857509b60019284926200025296956200010f9e9f106200034e575b505050811b0160035562000529565b015160001960f88460031b161c191690553880806200033f565b838301518e556001909d019c9286019286016200031d565b90600182811c92168015620003b2575b60208310146200039c57565b634e487b7160e01b600052602260045260246000fd5b91607f169162000390565b601f8111620003ca575050565b60009060036000526020600020906020601f850160051c830194106200040d575b601f0160051c01915b8281106200040157505050565b818155600101620003f4565b9092508290620003eb565b601f811162000425575050565b60009060046000526020600020906020601f850160051c8301941062000468575b601f0160051c01915b8281106200045c57505050565b8181556001016200044f565b909250829062000446565b601f811162000480575050565b60009060056000526020600020906020601f850160051c83019410620004c3575b601f0160051c01915b828110620004b757505050565b818155600101620004aa565b9092508290620004a1565b601f8111620004db575050565b60009060066000526020600020906020601f850160051c830194106200051e575b601f0160051c01915b8281106200051257505050565b81815560010162000505565b9092508290620004fc565b80519091906001600160401b038111620000de5762000555816200054f60045462000380565b62000418565b602080601f83116001146200058f575081906200058a9394600092620002e15750508160011b916000199060031b1c19161790565b600455565b6004600052601f198316949091907f8a35acfbc15ff81a39ae7d344fd709f28e8600b4aa8c65c6b64bfe7fe36bd19b926000905b878210620005fe575050836001959610620005e4575b505050811b01600455565b015160001960f88460031b161c19169055388080620005d9565b80600185968294968601518155019501930190620005c3565b6001600160a01b03811660009081527f13649b2456f1b42fef0f0040b3aaeabcd21a76a0f3f5defd4f583839455116e8602052604081205460ff16156200065c575050565b808052600c602090815260408083206001600160a01b038516600090815292529020805460ff1916600117905533916001600160a01b0316906000805160206200419e8339815191528180a4565b6001600160a01b03811660009081527f28716b1ac0502292c83929abc9e37796cf2f7a586c58ec02e6ceeac1b694cbc3602052604081207f9f2df0fed2c77648de5860a4cc508cd0818c85b8b8a1ab4ceeef8d981c8956a69060ff905b5416156200071457505050565b808252600c602090815260408084206001600160a01b038616600090815292529020805460ff1916600117905533926001600160a01b0316916000805160206200419e8339815191529080a4565b6001600160a01b03811660009081527fdcc67b18bee54042de2f3c322d7907db427901c7dd6b8aabe39773d1548374f5602052604081207f65d7a28e3265b37a6474929f336521b332c1681b933f6cb9f3376673440d862a9060ff9062000707565b9081516020808210600014620007e557505090620007e29062000c00565b90565b6001600160401b038211620000de576200080c826200080660055462000380565b62000473565b602090601f83116001146200084957508190620008419394600092620002e15750508160011b916000199060031b1c19161790565b60055560ff90565b6005600052601f198316949091907f036b6384b5eca791c62761152d0c79bb0604c104a5fb6f4eb0703f3154bb3db0926000905b878210620008bb575050836001959610620008a1575b505050811b0160055560ff90565b015160001960f88460031b161c1916905538808062000893565b806001859682949686015181550195019301906200087d565b9081516020808210600014620008f257505090620007e29062000c00565b6001600160401b038211620000de5762000919826200091360065462000380565b620004ce565b602090601f831160011462000956575081906200094e9394600092620002e15750508160011b916000199060031b1c19161790565b60065560ff90565b6006600052601f198316949091907ff652222313e28459528d920b65115c16c04f3efc82aaedc97be59f3f377c0d3f926000905b878210620009c8575050836001959610620009ae575b505050811b0160065560ff90565b015160001960f88460031b161c19169055388080620009a0565b806001859682949686015181550195019301906200098a565b60e051610100516040519060208201927f8b73c3c69bb8fe3d512ecc4cf759cc79239f7b179b0ffacaa9a75d522b39400f8452604083015260608201524660808201523060a082015260a0815260c0810181811060018060401b03821117620000de5760405251902090565b1562000a5557565b60405162461bcd60e51b815260206004820152603060248201527f4552433230566f7465733a20746f74616c20737570706c79207269736b73206f60448201526f766572666c6f77696e6720766f74657360801b6064820152608490fd5b6001600160a01b0381169190821562000b975760ff600d541662000b62578162000b409162000b5e9462000af362000aee8460025462000c93565b600255565b6001600160a01b038216600090815260208181526040808320805487019055518581527fddf252ad1be2c89b69c2b068fc378daa952ba7f163c4a11628f55a4df523b3ef9190a362001198565b60025462000b58906001600160e01b03101562000a4d565b62000db1565b5050565b60405162461bcd60e51b815260206004820152600d60248201526c10905493d38e881c185d5cd959609a1b6044820152606490fd5b60405162461bcd60e51b815260206004820152601f60248201527f45524332303a206d696e7420746f20746865207a65726f2061646472657373006044820152606490fd5b60208151910151906020811062000bf1575090565b6000199060200360031b1b1690565b601f81511162000c1b5762000c158162000bdc565b90511790565b6040519063305a27a960e01b82528160208060048301528251908160248401526000935b82851062000c63575050604492506000838284010152601f80199101168101030190fd5b848101820151868601604401529381019385935062000c3f565b634e487b7160e01b600052601160045260246000fd5b9190820180921162000ca157565b62000c7d565b604080519192919081016001600160401b03811182821017620000de57604052602081935463ffffffff81168352811c910152565b600b549068010000000000000000821015620000de576001820180600b5582101562000d4a57600b600052805160209182015190911b63ffffffff191663ffffffff91909116177f0175b7a638427703f0dbe7bb9bbf987a2551717b34e79f33b5b1008d1fa01db990910155565b634e487b7160e01b600052603260045260246000fd5b90815468010000000000000000811015620000de576001810180845581101562000d4a57600092835260209283902082519284015190931b63ffffffff191663ffffffff9290921691909117910155565b600b549091811591821562000ef95762000dca62000100565b60008152600060208201525b602081015162000e039062000dfb906001600160e01b03165b6001600160e01b031690565b95866200130e565b9315908162000ed2575b501562000e6a576200010f9062000e5362000e28856200112e565b600b600052917f0175b7a638427703f0dbe7bb9bbf987a2551717b34e79f33b5b1008d1fa01db80190565b9063ffffffff82549181199060201b169116179055565b506200010f62000e9362000e8d62000e8243620012a6565b65ffffffffffff1690565b620010c8565b62000ecc62000ea2856200112e565b62000ebc62000eb062000100565b63ffffffff9094168452565b6001600160e01b03166020830152565b62000cdc565b5163ffffffff16905063ffffffff62000eef62000e8243620012a6565b9116143862000e0d565b600b60005262000f317f0175b7a638427703f0dbe7bb9bbf987a2551717b34e79f33b5b1008d1fa01db8820162000ca7565b62000ca7565b62000dd6565b9091815491821592836000146200103b5762000f5262000100565b60008152600060208201525b602081015162000f849062000f7c906001600160e01b031662000def565b96876200131c565b9415908162001014575b501562000fbb5762000e536200010f9262000fa9866200112e565b92600019019060005260206000200190565b506200010f9062000fd462000e8d62000e8243620012a6565b906200100e62000fe4866200112e565b62000ffe62000ff262000100565b63ffffffff9095168552565b6001600160e01b03166020840152565b62000d60565b5163ffffffff16905063ffffffff6200103162000e8243620012a6565b9116143862000f8e565b6200105562000f2b60001983018460005260206000200190565b62000f5e565b909181549182159283600014620010a8576200107662000100565b60008152600060208201525b602081015162000f8490620010a0906001600160e01b031662000def565b96876200130e565b620010c262000f2b60001983018460005260206000200190565b62001082565b63ffffffff90818111620010da571690565b60405162461bcd60e51b815260206004820152602660248201527f53616665436173743a2076616c756520646f65736e27742066697420696e203360448201526532206269747360d01b6064820152608490fd5b6001600160e01b039081811162001143571690565b60405162461bcd60e51b815260206004820152602760248201527f53616665436173743a2076616c756520646f65736e27742066697420696e20326044820152663234206269747360c81b6064820152608490fd5b60096020527fec8156718a8372b1db44bb411437d0870f3e3790d4a08526d024ce1b0b668f6b546001600160a01b0391821660009081526040812054831693929091169081841415806200129c575b620011f3575b50505050565b8290826200125b575b505050816200120e575b8080620011ed565b6001600160a01b0382166000908152600a60205260409020600080516020620041be8339815191529162001242916200105b565b60408051928352602083019190915290a2388062001206565b600080516020620041be8339815191529160408285620012829452600a6020522062000f37565b60408051928352602083019190915290a2388181620011fc565b50821515620011e7565b65ffffffffffff90818111620012ba571690565b60405162461bcd60e51b815260206004820152602660248201527f53616665436173743a2076616c756520646f65736e27742066697420696e203460448201526538206269747360d01b6064820152608490fd5b90810180911162000ca15790565b90810390811162000ca1579056fe6080604052600436101561001257600080fd5b60003560e01c806301ffc9a71461027757806306fdde0314610272578063095ea7b31461026d57806318160ddd1461026857806323b872dd14610263578063248a9ca31461025e5780632f2ff15d14610259578063313ce567146102545780633644e5151461024f57806336568abe1461024a57806339509351146102455780633a46b1a8146102405780633f4ba83a1461023b57806340c10f19146102365780634bf5d7e914610231578063587cde1e1461022c5780635c19a95c146102275780635c975abb146102225780636fcfff451461021d57806370a08231146102185780637ecebe00146102135780638456cb591461020e57806384b0196e146102095780638e539e8c1461020457806391d14854146101ff57806391ddadf4146101fa57806395d89b41146101f55780639ab24eb0146101f0578063a217fddf146101eb578063a457c2d7146101e6578063a9059cbb146101e1578063c3cda520146101dc578063d505accf146101d7578063d5391393146101d2578063d547741f146101cd578063dd62ed3e146101c8578063e63ab1e9146101c35763f1127ed8146101be57600080fd5b611556565b61151b565b6114c3565b611484565b611449565b611303565b6111d8565b611192565b6110e4565b6110c8565b611066565b610fbe565b610f92565b610f40565b610de7565b610cec565b610c59565b610c1f565b610be5565b610b9d565b610b7a565b610b58565b610b1d565b610a6b565b610965565b6108d1565b610780565b610728565b610694565b610671565b610655565b61058c565b61055d565b610492565b610474565b610443565b61032e565b346102cd5760203660031901126102cd5760043563ffffffff60e01b81168091036102cd57602090637965db0b60e01b81149081156102bc575b506040519015158152f35b6301ffc9a760e01b149050386102b1565b600080fd5b60005b8381106102e55750506000910152565b81810151838201526020016102d5565b9060209161030e815180928185528580860191016102d2565b601f01601f1916010190565b90602061032b9281815201906102f5565b90565b346102cd57600080600319360112610414576040519080600354906103528261161b565b808552916020916001918281169081156103e7575060011461038f575b61038b8661037f818803826116c4565b6040519182918261031a565b0390f35b9350600384527fc2575a0e9e593c00f959f8c92f12db2869c3395a3b0502d05e2516446f71f85b5b8385106103d45750505050810160200161037f8261038b3861036f565b80548686018401529382019381016103b7565b905086955061038b9693506020925061037f94915060ff191682840152151560051b82010192933861036f565b80fd5b600435906001600160a01b03821682036102cd57565b602435906001600160a01b03821682036102cd57565b346102cd5760403660031901126102cd5761046961045f610417565b602435903361182e565b602060405160018152f35b346102cd5760003660031901126102cd576020600254604051908152f35b346102cd5760603660031901126102cd576104ab610417565b6104b361042d565b6001600160a01b0382166000908152600160209081526040808320338452909152902060443591905492600184016104fc575b6104f09350611a11565b60405160018152602090f35b82841061051857610513836104f09503338361182e565b6104e6565b60405162461bcd60e51b815260206004820152601d60248201527f45524332303a20696e73756666696369656e7420616c6c6f77616e63650000006044820152606490fd5b346102cd5760203660031901126102cd57600435600052600c6020526020600160406000200154604051908152f35b346102cd5760403660031901126102cd576004356105a861042d565b600091808352600c6020526105c36001604085200154611c5c565b808352600c602090815260408085206001600160a01b0385166000908152925290205460ff16156105f2578280f35b808352600c602090815260408085206001600160a01b038516600090815292529020805460ff1916600117905533916001600160a01b0316907f2f8788117e7eff1d82e926ec794901d17c78024a50270940304540a733656f0d8480a438808280f35b346102cd5760003660031901126102cd57602060405160128152f35b346102cd5760003660031901126102cd57602061068c611d0f565b604051908152f35b346102cd5760403660031901126102cd576106ad61042d565b336001600160a01b038216036106cb576106c990600435611e29565b005b60405162461bcd60e51b815260206004820152602f60248201527f416363657373436f6e74726f6c3a2063616e206f6e6c792072656e6f756e636560448201526e103937b632b9903337b91039b2b63360891b6064820152608490fd5b346102cd5760403660031901126102cd57610741610417565b3360009081526001602090815260408083206001600160a01b0385168452909152902054602435810180911161077b57610469913361182e565b6115dd565b346102cd5760403660031901126102cd57610799610417565b602435906107b865ffffffffffff6107b04361215a565b1683106116e6565b6001600160a01b03166000908152600a6020526040812080549290918360058111610880575b50905b83821061082f57505081610808575050602060005b6040516001600160e01b039091168152f35b61082361082a91602093600019019060005260206000200190565b5460201c90565b6107f6565b909261083b81856123b6565b908263ffffffff610860610856858860005260206000200190565b5463ffffffff1690565b1611156108705750925b906107e1565b935061087b906115f3565b61086a565b8061089061089692969396612276565b9061160e565b908263ffffffff6108b1610856858860005260206000200190565b1611156108c15750925b386107de565b93506108cc906115f3565b6108bb565b346102cd5760003660031901126102cd576108ea611b25565b600d5460ff8116156109295760ff1916600d557f5db9ee0a495bf2e6ff9c91a7834c1ba4fdd244a5e8aa4e537bd38aeae4b073aa6020604051338152a1005b60405162461bcd60e51b815260206004820152601460248201527314185d5cd8589b194e881b9bdd081c185d5cd95960621b6044820152606490fd5b346102cd5760403660031901126102cd5761097e610417565b602435610989611c07565b6001600160a01b038216918215610a265781610a0b916106c9946109ab6121fe565b6109bf6109ba84600254611601565b600255565b6001600160a01b038216600090815260208181526040808320805487019055518581527fddf252ad1be2c89b69c2b068fc378daa952ba7f163c4a11628f55a4df523b3ef9190a361281b565b600254610a21906001600160e01b0310156123cb565b612bd0565b60405162461bcd60e51b815260206004820152601f60248201527f45524332303a206d696e7420746f20746865207a65726f2061646472657373006044820152606490fd5b346102cd5760003660031901126102cd574365ffffffffffff610a8d4361215a565b1603610ad85761038b604051610aa28161166b565b601d81527f6d6f64653d626c6f636b6e756d6265722666726f6d3d64656661756c7400000060208201526040519182918261031a565b60405162461bcd60e51b815260206004820152601d60248201527f4552433230566f7465733a2062726f6b656e20636c6f636b206d6f64650000006044820152606490fd5b346102cd5760203660031901126102cd5760206001600160a01b0380610b41610417565b166000526009825260406000205416604051908152f35b346102cd5760203660031901126102cd576106c9610b74610417565b33611ebc565b346102cd5760003660031901126102cd57602060ff600d54166040519015158152f35b346102cd5760203660031901126102cd576001600160a01b03610bbe610417565b16600052600a6020526020610bd7604060002054611f34565b63ffffffff60405191168152f35b346102cd5760203660031901126102cd576001600160a01b03610c06610417565b1660005260006020526020604060002054604051908152f35b346102cd5760203660031901126102cd576001600160a01b03610c40610417565b1660005260076020526020604060002054604051908152f35b346102cd5760003660031901126102cd57610c72611b25565b600d5460ff8116610cb45760019060ff191617600d557f62e78cea01bee320cd4e420270b5ea74000d11b0c9f74754ebdbfc544b05a2586020604051338152a1005b60405162461bcd60e51b815260206004820152601060248201526f14185d5cd8589b194e881c185d5cd95960821b6044820152606490fd5b346102cd5760008060031936011261041457610d8a90610d2b7f0000000000000000000000000000000000000000000000000000000000000000611f99565b90610d557f000000000000000000000000000000000000000000000000000000000000000061209a565b9060405191610d638361168c565b818352610d98602091604051968796600f60f81b885260e0602089015260e08801906102f5565b9086820360408801526102f5565b904660608601523060808601528260a086015284820360c0860152602080855193848152019401925b828110610dd057505050500390f35b835185528695509381019392810192600101610dc1565b346102cd5760203660031901126102cd57600435610e1665ffffffffffff610e0e4361215a565b1682106116e6565b600b549060008260058111610ed9575b50905b828210610e76578280610e43575060405160008152602090f35b600b60005260209061082a907f0175b7a638427703f0dbe7bb9bbf987a2551717b34e79f33b5b1008d1fa01db801610823565b9091610e8281846123b6565b600b600052908263ffffffff610eb97f0175b7a638427703f0dbe7bb9bbf987a2551717b34e79f33b5b1008d1fa01db98501610856565b161115610ec95750915b90610e29565b9250610ed4906115f3565b610ec3565b80610890610ee992959395612276565b600b600052908263ffffffff610f207f0175b7a638427703f0dbe7bb9bbf987a2551717b34e79f33b5b1008d1fa01db98501610856565b161115610f305750915b38610e26565b9250610f3b906115f3565b610f2a565b346102cd5760403660031901126102cd57602060ff610f86610f6061042d565b600435600052600c845260406000209060018060a01b0316600052602052604060002090565b54166040519015158152f35b346102cd5760003660031901126102cd576020610fae4361215a565b65ffffffffffff60405191168152f35b346102cd5760008060031936011261041457604051908060045490610fe28261161b565b808552916020916001918281169081156103e7575060011461100e5761038b8661037f818803826116c4565b9350600484527f8a35acfbc15ff81a39ae7d344fd709f28e8600b4aa8c65c6b64bfe7fe36bd19b5b8385106110535750505050810160200161037f8261038b3861036f565b8054868601840152938201938101611036565b346102cd5760203660031901126102cd576001600160a01b03611087610417565b16600052600a6020526040600020805480156000146110ae57505060405160008152602090f35b6020916110bf916000190190611757565b5054811c6107f6565b346102cd5760003660031901126102cd57602060405160008152f35b346102cd5760403660031901126102cd576110fd610417565b6024359033600052600160205261112a8160406000209060018060a01b0316600052602052604060002090565b549180831061113f576104f09203903361182e565b60405162461bcd60e51b815260206004820152602560248201527f45524332303a2064656372656173656420616c6c6f77616e63652062656c6f77604482015264207a65726f60d81b6064820152608490fd5b346102cd5760403660031901126102cd576104696111ae610417565b6024359033611a11565b6064359060ff821682036102cd57565b6084359060ff821682036102cd57565b346102cd5760c03660031901126102cd576111f1610417565b604435906024356112006111b8565b928042116112be576112906112b9916106c995604051906112788261126a6020820195898b8860609194939260808201957fe48329057bfd03d55e49b547132e39cffd9c1820ad7b9d4c5307691425d15adf835260018060a01b0316602083015260408201520152565b03601f1981018452836116c4565b61128b60a43593608435935190206121c1565b6121e7565b6001600160a01b0381166000908152600760205260409020805460018101909155909214611774565b611ebc565b60405162461bcd60e51b815260206004820152601d60248201527f4552433230566f7465733a207369676e617475726520657870697265640000006044820152606490fd5b346102cd5760e03660031901126102cd5761131c610417565b61132461042d565b60443590606435926113346111c8565b93804211611404576113ec6113ff9161126a6106c9976113d96113728760018060a01b03166000526007602052604060002090815491600183019055565b604080517f6e71edae12b1b97f4d1f60370fef10105fa2faae0126114a169c64845d6126c9602082019081526001600160a01b03808c1693830193909352918b166060820152608081018c905260a081019290925260c082019590955292839060e0820190565b61128b60c4359360a435935190206121c1565b6001600160a01b038381169116146117c0565b61182e565b60405162461bcd60e51b815260206004820152601d60248201527f45524332305065726d69743a206578706972656420646561646c696e650000006044820152606490fd5b346102cd5760003660031901126102cd5760206040517f9f2df0fed2c77648de5860a4cc508cd0818c85b8b8a1ab4ceeef8d981c8956a68152f35b346102cd5760403660031901126102cd576106c96004356114a361042d565b9080600052600c6020526114be600160406000200154611c5c565b611e29565b346102cd5760403660031901126102cd5760206115126114e1610417565b6114e961042d565b6001600160a01b0391821660009081526001855260408082209290931681526020919091522090565b54604051908152f35b346102cd5760003660031901126102cd5760206040517f65d7a28e3265b37a6474929f336521b332c1681b933f6cb9f3376673440d862a8152f35b346102cd5760403660031901126102cd5761156f610417565b63ffffffff60243581811681036102cd576115b96115bf916040946000602087516115998161166b565b82815201526001600160a01b03166000908152600a602052859020611757565b5061180c565b8251815190921682526020908101516001600160e01b031690820152f35b634e487b7160e01b600052601160045260246000fd5b906001820180921161077b57565b9190820180921161077b57565b9190820391821161077b57565b90600182811c9216801561164b575b602083101461163557565b634e487b7160e01b600052602260045260246000fd5b91607f169161162a565b634e487b7160e01b600052604160045260246000fd5b6040810190811067ffffffffffffffff82111761168757604052565b611655565b6020810190811067ffffffffffffffff82111761168757604052565b60c0810190811067ffffffffffffffff82111761168757604052565b90601f8019910116810190811067ffffffffffffffff82111761168757604052565b156116ed57565b60405162461bcd60e51b815260206004820152601960248201527f4552433230566f7465733a20667574757265206c6f6f6b7570000000000000006044820152606490fd5b6040519061173f8261166b565b565b634e487b7160e01b600052603260045260246000fd5b805482101561176f5760005260206000200190600090565b611741565b1561177b57565b60405162461bcd60e51b815260206004820152601960248201527f4552433230566f7465733a20696e76616c6964206e6f6e6365000000000000006044820152606490fd5b156117c757565b60405162461bcd60e51b815260206004820152601e60248201527f45524332305065726d69743a20696e76616c6964207369676e617475726500006044820152606490fd5b906040516118198161166b565b602081935463ffffffff81168352811c910152565b6001600160a01b03808216929190831561190d5782169384156118bd57806118a77f8c5be1e5ebec7d5bd14f71427d1e84f3dd0314c0f7b2291e5b200ac8c7c3b925946118906118b89560018060a01b03166000526001602052604060002090565b9060018060a01b0316600052602052604060002090565b556040519081529081906020820190565b0390a3565b60405162461bcd60e51b815260206004820152602260248201527f45524332303a20617070726f766520746f20746865207a65726f206164647265604482015261737360f01b6064820152608490fd5b60405162461bcd60e51b8152602060048201526024808201527f45524332303a20617070726f76652066726f6d20746865207a65726f206164646044820152637265737360e01b6064820152608490fd5b1561196557565b60405162461bcd60e51b815260206004820152602360248201527f45524332303a207472616e7366657220746f20746865207a65726f206164647260448201526265737360e81b6064820152608490fd5b156119bd57565b60405162461bcd60e51b815260206004820152602660248201527f45524332303a207472616e7366657220616d6f756e7420657863656564732062604482015265616c616e636560d01b6064820152608490fd5b6001600160a01b039291908381168015611ad25761173f94831690611a3782151561195e565b611a3f6121fe565b6001600160a01b0383166000908152602081905260409020859054611a66828210156119b6565b03611a838460018060a01b03166000526000602052604060002090565b556001600160a01b0384166000908152602081815260409182902080548801905590518681527fddf252ad1be2c89b69c2b068fc378daa952ba7f163c4a11628f55a4df523b3ef9190a3612866565b60405162461bcd60e51b815260206004820152602560248201527f45524332303a207472616e736665722066726f6d20746865207a65726f206164604482015264647265737360d81b6064820152608490fd5b3360009081527fdcc67b18bee54042de2f3c322d7907db427901c7dd6b8aabe39773d1548374f5602052604090205460ff1615611b5e57565b611c036048611beb611b6f3361294a565b611bdd611b7a6129db565b6040519485937f416363657373436f6e74726f6c3a206163636f756e74200000000000000000006020860152611bba8151809260206037890191016102d2565b84017001034b99036b4b9b9b4b733903937b6329607d1b6037820152019061223f565b03601f1981018352826116c4565b60405162461bcd60e51b81529182916004830161031a565b0390fd5b3360009081527f28716b1ac0502292c83929abc9e37796cf2f7a586c58ec02e6ceeac1b694cbc3602052604090205460ff1615611c4057565b611c036048611beb611c513361294a565b611bdd611b7a612a6c565b6000818152600c6020908152604080832033845290915290205460ff1615611c815750565b611c8a3361294a565b611c92612898565b916030611c9e846128c4565b536078611caa846128d1565b5360415b60018111611ccd57611c036048611beb85611bdd88611b7a88156128ff565b90600f811690601082101561176f57611d0a916f181899199a1a9b1b9c1cb0b131b232b360811b901a611d0084876128e1565b5360041c916128f2565b611cae565b307f00000000000000000000000000000000000000000000000000000000000000006001600160a01b03161480611e00575b15611d6a577f000000000000000000000000000000000000000000000000000000000000000090565b60405160208101907f8b73c3c69bb8fe3d512ecc4cf759cc79239f7b179b0ffacaa9a75d522b39400f82527f000000000000000000000000000000000000000000000000000000000000000060408201527f000000000000000000000000000000000000000000000000000000000000000060608201524660808201523060a082015260a08152611dfa816116a8565b51902090565b507f00000000000000000000000000000000000000000000000000000000000000004614611d41565b600090808252600c60205260ff611e5584604085209060018060a01b0316600052602052604060002090565b5416611e6057505050565b808252600c602090815260408084206001600160a01b038616600090815292529020805460ff1916905533926001600160a01b0316917ff6391f5c32d9c69d2a47ea670b442974b53935d1edc7fd64eb21e047a839171b9080a4565b61173f9160018060a01b038092166000928184526009602052806040852054168092856020527f3134e8a2e6d97e929a7e54011ea5485d7d196dd5f0ba4d4ef95803e8e3fc257f60408720549660096020526040812094871694856bffffffffffffffffffffffff60a01b82541617905580a4612430565b63ffffffff90818111611f45571690565b60405162461bcd60e51b815260206004820152602660248201527f53616665436173743a2076616c756520646f65736e27742066697420696e203360448201526532206269747360d01b6064820152608490fd5b60ff8114611fd75760ff811690601f8211611fc55760405191611fbb8361166b565b8252602082015290565b604051632cd44ac360e21b8152600490fd5b50604051600554816000611fea8361161b565b808352926020906001908181169081156120765750600114612015575b505061032b925003826116c4565b91509260056000527f036b6384b5eca791c62761152d0c79bb0604c104a5fb6f4eb0703f3154bb3db0936000925b82841061205e575061032b9450505081016020013880612007565b85548785018301529485019486945092810192612043565b9150506020925061032b94915060ff191682840152151560051b8201013880612007565b60ff81146120bc5760ff811690601f8211611fc55760405191611fbb8361166b565b506040516006548160006120cf8361161b565b8083529260209060019081811690811561207657506001146120f957505061032b925003826116c4565b91509260066000527ff652222313e28459528d920b65115c16c04f3efc82aaedc97be59f3f377c0d3f936000925b828410612142575061032b9450505081016020013880612007565b85548785018301529485019486945092810192612127565b65ffffffffffff9081811161216d571690565b60405162461bcd60e51b815260206004820152602660248201527f53616665436173743a2076616c756520646f65736e27742066697420696e203460448201526538206269747360d01b6064820152608490fd5b6042906121cc611d0f565b906040519161190160f01b8352600283015260228201522090565b9161032b93916121f69361264c565b9190916126fb565b60ff600d541661220a57565b60405162461bcd60e51b815260206004820152600d60248201526c10905493d38e881c185d5cd959609a1b6044820152606490fd5b90612252602092828151948592016102d2565b0190565b8115612260570490565b634e487b7160e01b600052601260045260246000fd5b80156123b0578061234961234261233861232e61232461231a612310612306600161032b9a6000908b60801c806123a4575b508060401c80612397575b508060201c8061238a575b508060101c8061237d575b508060081c80612370575b508060041c80612363575b508060021c80612356575b50821c61234f575b811c1b6122ff818b612256565b0160011c90565b6122ff818a612256565b6122ff8189612256565b6122ff8188612256565b6122ff8187612256565b6122ff8186612256565b6122ff8185612256565b8092612256565b90612afd565b81016122f2565b60029150910190386122ea565b60049150910190386122df565b60089150910190386122d4565b60109150910190386122c9565b60209150910190386122be565b60409150910190386122b3565b915050608090386122a8565b50600090565b90808216911860011c810180911161077b5790565b156123d257565b60405162461bcd60e51b815260206004820152603060248201527f4552433230566f7465733a20746f74616c20737570706c79207269736b73206f60448201526f766572666c6f77696e6720766f74657360801b6064820152608490fd5b6001600160a01b03808316939291168084141580612643575b612454575b50505050565b806124c2575b5082612467575b8061244e565b6001600160a01b03166000908152600a602052604090207fdec2bacdd2f05b59de34da9b523dff8be42e5e38e818c82fdb0bae774387a724916124a991612d01565b60408051928352602083019190915290a2388080612461565b80600052600a6020527fdec2bacdd2f05b59de34da9b523dff8be42e5e38e818c82fdb0bae774387a724604060002080548015918260001461262057612506611732565b6000815260006020820152915b6020830151612532906001600160e01b03165b6001600160e01b031690565b9261253d8985612e23565b941590816125fd575b501561259b5761256e6125859261255c86612dba565b92600019019060005260206000200190565b9063ffffffff82549181199060201b169116179055565b604080519182526020820192909252a23861245a565b506125f8906125bf6125ba6125af4361215a565b65ffffffffffff1690565b611f34565b906125f36125cc86612dba565b6125e36125d7611732565b63ffffffff9095168552565b6001600160e01b03166020840152565b612b76565b612585565b5163ffffffff16905063ffffffff6126176125af4361215a565b91161438612546565b61263d61263860001984018360005260206000200190565b61180c565b91612513565b50821515612449565b9291907f7fffffffffffffffffffffffffffffff5d576e7357a4501ddfe92f46681b20a083116126cf5791608094939160ff602094604051948552168484015260408301526060820152600093849182805260015afa156126c25781516001600160a01b038116156126bc579190565b50600190565b50604051903d90823e3d90fd5b50505050600090600390565b600511156126e557565b634e487b7160e01b600052602160045260246000fd5b612704816126db565b8061270c5750565b612715816126db565b600181036127625760405162461bcd60e51b815260206004820152601860248201527f45434453413a20696e76616c6964207369676e617475726500000000000000006044820152606490fd5b61276b816126db565b600281036127b85760405162461bcd60e51b815260206004820152601f60248201527f45434453413a20696e76616c6964207369676e6174757265206c656e677468006044820152606490fd5b806127c46003926126db565b146127cb57565b60405162461bcd60e51b815260206004820152602260248201527f45434453413a20696e76616c6964207369676e6174757265202773272076616c604482015261756560f01b6064820152608490fd5b60096020527fec8156718a8372b1db44bb411437d0870f3e3790d4a08526d024ce1b0b668f6b546001600160a01b039182166000908152604090205461173f93929081169116612430565b6001600160a01b0390811660009081526009602052604080822054938316825290205461173f93929082169116612430565b604051906080820182811067ffffffffffffffff82111761168757604052604282526060366020840137565b80511561176f5760200190565b80516001101561176f5760210190565b90815181101561176f570160200190565b801561077b576000190190565b1561290657565b606460405162461bcd60e51b815260206004820152602060248201527f537472696e67733a20686578206c656e67746820696e73756666696369656e746044820152fd5b604051906060820182811067ffffffffffffffff82111761168757604052602a82526040366020840137603061297f836128c4565b53607861298b836128d1565b536029905b600182116129a35761032b9150156128ff565b600f811690601082101561176f576129d5916f181899199a1a9b1b9c1cb0b131b232b360811b901a611d0084866128e1565b90612990565b7f65d7a28e3265b37a6474929f336521b332c1681b933f6cb9f3376673440d862a612a04612898565b906030612a10836128c4565b536078612a1c836128d1565b536041905b60018211612a345761032b9150156128ff565b600f811690601082101561176f57612a66916f181899199a1a9b1b9c1cb0b131b232b360811b901a611d0084866128e1565b90612a21565b7f9f2df0fed2c77648de5860a4cc508cd0818c85b8b8a1ab4ceeef8d981c8956a6612a95612898565b906030612aa1836128c4565b536078612aad836128d1565b536041905b60018211612ac55761032b9150156128ff565b600f811690601082101561176f57612af7916f181899199a1a9b1b9c1cb0b131b232b360811b901a611d0084866128e1565b90612ab2565b9080821015612b0a575090565b905090565b600b5490600160401b821015611687576001820180600b5582101561176f57600b600052805160209182015190911b63ffffffff191663ffffffff91909116177f0175b7a638427703f0dbe7bb9bbf987a2551717b34e79f33b5b1008d1fa01db990910155565b8054600160401b81101561168757612b9391600182018155611757565b612bba57815160209283015190921b63ffffffff191663ffffffff92909216919091179055565b634e487b7160e01b600052600060045260246000fd5b600b5490918115918215612ccc57612be6611732565b60008152600060208201525b6020810151612c1490612c0d906001600160e01b0316612526565b9586612e30565b93159081612ca9575b5015612c5e5761173f9061256e612c3385612dba565b600b600052917f0175b7a638427703f0dbe7bb9bbf987a2551717b34e79f33b5b1008d1fa01db80190565b5061173f612c716125ba6125af4361215a565b612ca4612c7d85612dba565b612c94612c88611732565b63ffffffff9094168452565b6001600160e01b03166020830152565b612b0f565b5163ffffffff16905063ffffffff612cc36125af4361215a565b91161438612c1d565b600b600052612cfc7f0175b7a638427703f0dbe7bb9bbf987a2551717b34e79f33b5b1008d1fa01db8820161180c565b612bf2565b909181549182159283600014612d9d57612d19611732565b60008152600060208201525b6020810151612d4790612d40906001600160e01b0316612526565b9687612e30565b94159081612d7a575b5015612d665761256e61173f9261255c86612dba565b5061173f906125bf6125ba6125af4361215a565b5163ffffffff16905063ffffffff612d946125af4361215a565b91161438612d50565b612db561263860001983018460005260206000200190565b612d25565b6001600160e01b0390818111612dce571690565b60405162461bcd60e51b815260206004820152602760248201527f53616665436173743a2076616c756520646f65736e27742066697420696e20326044820152663234206269747360c81b6064820152608490fd5b90810390811161077b5790565b90810180911161077b579056fea264697066735822122099860e27237b49ae999f03cb2fa2c8cdcd82025328d36f390fc0ae7ab1d4adcd64736f6c634300081800332f8788117e7eff1d82e926ec794901d17c78024a50270940304540a733656f0ddec2bacdd2f05b59de34da9b523dff8be42e5e38e818c82fdb0bae774387a724",
  "linkReferences": {},
  "deployedLinkReferences": {}
}