{
  "_format": "hh-sol-artifact-1",
  "contractName": "SeferVerseDAO",
  "sourceName": "contracts/SeferVerseDAO.sol",
  "abi": [
    {
      "inputs": [
        {
          "internalType": "string",
          "name": "_name",
          "type": "string"
        },
        {
          "internalType": "address",
          "name": "_timelock",
          "type": "address"
        }
      ],
      "stateMutability": "nonpayable",
      "type": "constructor"
    },
    {
      "anonymous": false,
      "inputs": [
        {
          "indexed": false,
          "internalType": "string",
          "name": "oldName",
          "type": "string"
        },
        {
          "indexed": false,
          "internalType": "string",
          "name": "newName",
          "type": "string"
        }
      ],
      "name": "NameChanged",
      "type": "event"
    },
    {
      "inputs": [],
      "name": "name",
      "outputs": [
        {
          "internalType": "string",
          "name": "",
          "type": "string"
        }
      ],
      "stateMutability": "view",
      "type": "function"
    },
    {
      "inputs": [
        {
          "internalType": "string",
          "name": "_name",
          "type": "string"
        }
      ],
      "name": "setName",
      "outputs": [],
      "stateMutability": "nonpayable",
      "type": "function"
    },
    {
      "inputs": [],
      "name": "timelock",
      "outputs": [
        {
          "internalType": "address",
          "name": "",
          "type": "address"
        }
      ],
      "stateMutability": "view",
      "type": "function"
    }
  ],
  "bytecode": "0x60a06040523461024357610714803803806100198161025c565b9283398101906040818303126102435780516001600160401b039081811161024357820191601f848185011215610243578351918383116101fb57602092601f199561006a8588868501160161025c565b97828952858383010111610243579084929160005b82811061024857505060009088018301520151946001600160a01b03861680870361024357156102115780519384116101fb57600054926001938481811c911680156101f1575b828210146101db57838111610195575b5080928511600114610130575083945090839291600094610125575b50501b916000199060031b1c1916176000555b608052604051610492908161028282396080518181816056015260d80152f35b0151925038806100f2565b9294849081166000805284600020946000905b8883831061017b5750505010610162575b505050811b01600055610105565b015160001960f88460031b161c19169055388080610154565b858701518855909601959485019487935090810190610143565b60008052816000208480880160051c8201928489106101d2575b0160051c019085905b8281106101c65750506100d6565b600081550185906101b8565b925081926101af565b634e487b7160e01b600052602260045260246000fd5b90607f16906100c6565b634e487b7160e01b600052604160045260246000fd5b60405162461bcd60e51b815260048101849052600a602482015269074696d656c6f636b3d360b41b6044820152606490fd5b600080fd5b8181018501518a820186015286940161007f565b6040519190601f01601f191682016001600160401b038111838210176101fb5760405256fe60806040818152600436101561001457600080fd5b600091823560e01c90816306fdde03146102ca57508063c47f0027146100895763d33219b41461004357600080fd5b34610085578160031936011261008557517f00000000000000000000000000000000000000000000000000000000000000006001600160a01b03168152602090f35b5080fd5b5090346102c7576020806003193601126100855767ffffffffffffffff906004358281116102c357366023820112156102c35780600401359283116102c357602491368385840101116102bf577f00000000000000000000000000000000000000000000000000000000000000006001600160a01b0316330361028e5761011686519680885287016103a8565b95808703828201528487528484840183890137858286890101527f6c20b91d1723b78732eba64ff11ebd7966a6e4af568a00fa4f6b72c20f58b02a601f8601918381601f199a8b861601030190a161016e865461036e565b90601f8211610238575b50508495601f85116001146101b95750509383948394936101ac575b5050508160011b916000199060031b1c191617815580f35b0101359050388080610194565b8416957f290decd9548b62a8d60345a988386fc84ba6bc95484008f6362f93160ef3e563939186905b88821061021e575050846001969710610202575b50505050811b01815580f35b60001960f88660031b161c1992010135169055388080806101f6565b8060018497868395968901013581550196019201906101e2565b7f290decd9548b62a8d60345a988386fc84ba6bc95484008f6362f93160ef3e5639060051c810191838710610284575b601f0160051c01905b8181101561017857868155600101610271565b9091508190610268565b606490600c8488519262461bcd60e51b845260048401528201526b4e6f742074696d656c6f636b60a01b6044820152fd5b8480fd5b8380fd5b80fd5b90503461036a578260031936011261036a57601f199081601f826102ed816103a8565b03011681019381851067ffffffffffffffff86111761035657918491928285526020906020845284519182602086015281955b83871061033e5750508394508582601f949501015201168101030190f35b86810182015189880189015295810195889550610320565b634e487b7160e01b81526041600452602490fd5b8280fd5b90600182811c9216801561039e575b602083101461038857565b634e487b7160e01b600052602260045260246000fd5b91607f169161037d565b90600091600054906103b98261036e565b8082529160209060019081811690811561043757506001146103dc575b50505050565b92939450600080527f290decd9548b62a8d60345a988386fc84ba6bc95484008f6362f93160ef3e563926000935b8585106104245750505060209250010190388080806103d6565b805485850184015293820193810161040a565b92505050602093945060ff929192191683830152151560051b010190388080806103d656fea264697066735822122051c302fdbc6fe2e853d0485a208cd701bfbb85bb7b7304d2682c7ca25cf4792464736f6c63430008180033",
  "linkReferences": {},
  "deployedLinkReferences": {}
}