{
  "_format": "hh-sol-artifact-1",
  "contractName": "SeferVerseDAO",
  "sourceName": "contracts/SeferVerseDAO.sol",
  "abi": [
    {
      "inputs": [
        {
          "internalType": "string",
          "name": "_name",
          "type": "string"
        }
      ],
      "stateMutability": "nonpayable",
      "type": "constructor"
    },
    {
      "anonymous": false,
      "inputs": [
        {
          "indexed": false,
          "internalType": "string",
          "name": "oldName",
          "type": "string"
        },
        {
          "indexed": false,
          "internalType": "string",
          "name": "newName",
          "type": "string"
        }
      ],
      "name": "NameChanged",
      "type": "event"
    },
    {
      "anonymous": false,
      "inputs": [
        {
          "indexed": true,
          "internalType": "address",
          "name": "previousOwner",
          "type": "address"
        },
        {
          "indexed": true,
          "internalType": "address",
          "name": "newOwner",
          "type": "address"
        }
      ],
      "name": "OwnershipTransferred",
      "type": "event"
    },
    {
      "inputs": [],
      "name": "name",
      "outputs": [
        {
          "internalType": "string",
          "name": "",
          "type": "string"
        }
      ],
      "stateMutability": "view",
      "type": "function"
    },
    {
      "inputs": [],
      "name": "owner",
      "outputs": [
        {
          "internalType": "address",
          "name": "",
          "type": "address"
        }
      ],
      "stateMutability": "view",
      "type": "function"
    },
    {
      "inputs": [
        {
          "internalType": "string",
          "name": "_name",
          "type": "string"
        }
      ],
      "name": "setName",
      "outputs": [],
      "stateMutability": "nonpayable",
      "type": "function"
    },
    {
      "inputs": [
        {
          "internalType": "address",
          "name": "newOwner",
          "type": "address"
        }
      ],
      "name": "transferOwnership",
      "outputs": [],
      "stateMutability": "nonpayable",
      "type": "function"
    }
  ],
  "bytecode": "0x60806040523480156200001157600080fd5b506040516200111b3803806200111b833981810160405281019062000037919062000224565b8060009081620000489190620004c0565b5033600160006101000a81548173ffffffffffffffffffffffffffffffffffffffff021916908373ffffffffffffffffffffffffffffffffffffffff16021790555050620005a7565b6000604051905090565b600080fd5b600080fd5b600080fd5b600080fd5b6000601f19601f8301169050919050565b7f4e487b7100000000000000000000000000000000000000000000000000000000600052604160045260246000fd5b620000fa82620000af565b810181811067ffffffffffffffff821117156200011c576200011b620000c0565b5b80604052505050565b60006200013162000091565b90506200013f8282620000ef565b919050565b600067ffffffffffffffff821115620001625762000161620000c0565b5b6200016d82620000af565b9050602081019050919050565b60005b838110156200019a5780820151818401526020810190506200017d565b60008484015250505050565b6000620001bd620001b78462000144565b62000125565b905082815260208101848484011115620001dc57620001db620000aa565b5b620001e98482856200017a565b509392505050565b600082601f830112620002095762000208620000a5565b5b81516200021b848260208601620001a6565b91505092915050565b6000602082840312156200023d576200023c6200009b565b5b600082015167ffffffffffffffff8111156200025e576200025d620000a0565b5b6200026c84828501620001f1565b91505092915050565b600081519050919050565b7f4e487b7100000000000000000000000000000000000000000000000000000000600052602260045260246000fd5b60006002820490506001821680620002c857607f821691505b602082108103620002de57620002dd62000280565b5b50919050565b60008190508160005260206000209050919050565b60006020601f8301049050919050565b600082821b905092915050565b600060088302620003487fffffffffffffffffffffffffffffffffffffffffffffffffffffffffffffffff8262000309565b62000354868362000309565b95508019841693508086168417925050509392505050565b6000819050919050565b6000819050919050565b6000620003a16200039b62000395846200036c565b62000376565b6200036c565b9050919050565b6000819050919050565b620003bd8362000380565b620003d5620003cc82620003a8565b84845462000316565b825550505050565b600090565b620003ec620003dd565b620003f9818484620003b2565b505050565b5b81811015620004215762000415600082620003e2565b600181019050620003ff565b5050565b601f82111562000470576200043a81620002e4565b6200044584620002f9565b8101602085101562000455578190505b6200046d6200046485620002f9565b830182620003fe565b50505b505050565b600082821c905092915050565b6000620004956000198460080262000475565b1980831691505092915050565b6000620004b0838362000482565b9150826002028217905092915050565b620004cb8262000275565b67ffffffffffffffff811115620004e757620004e6620000c0565b5b620004f38254620002af565b6200050082828562000425565b600060209050601f83116001811462000538576000841562000523578287015190505b6200052f8582620004a2565b8655506200059f565b601f1984166200054886620002e4565b60005b8281101562000572578489015182556001820191506020850194506020810190506200054b565b868310156200059257848901516200058e601f89168262000482565b8355505b6001600288020188555050505b505050505050565b610b6480620005b76000396000f3fe608060405234801561001057600080fd5b506004361061004c5760003560e01c806306fdde03146100515780638da5cb5b1461006f578063c47f00271461008d578063f2fde38b146100a9575b600080fd5b6100596100c5565b60405161006691906104aa565b60405180910390f35b610077610153565b604051610084919061050d565b60405180910390f35b6100a760048036038101906100a29190610597565b610179565b005b6100c360048036038101906100be9190610610565b61025b565b005b600080546100d29061066c565b80601f01602080910402602001604051908101604052809291908181526020018280546100fe9061066c565b801561014b5780601f106101205761010080835404028352916020019161014b565b820191906000526020600020905b81548152906001019060200180831161012e57829003601f168201915b505050505081565b600160009054906101000a900473ffffffffffffffffffffffffffffffffffffffff1681565b600160009054906101000a900473ffffffffffffffffffffffffffffffffffffffff1673ffffffffffffffffffffffffffffffffffffffff163373ffffffffffffffffffffffffffffffffffffffff1614610209576040517f08c379a0000000000000000000000000000000000000000000000000000000008152600401610200906106e9565b60405180910390fd5b7f6c20b91d1723b78732eba64ff11ebd7966a6e4af568a00fa4f6b72c20f58b02a6000838360405161023d939291906107de565b60405180910390a18181600091826102569291906109f2565b505050565b600160009054906101000a900473ffffffffffffffffffffffffffffffffffffffff1673ffffffffffffffffffffffffffffffffffffffff163373ffffffffffffffffffffffffffffffffffffffff16146102eb576040517f08c379a00000000000000000000000000000000000000000000000000000000081526004016102e2906106e9565b60405180910390fd5b600073ffffffffffffffffffffffffffffffffffffffff168173ffffffffffffffffffffffffffffffffffffffff160361035a576040517f08c379a000000000000000000000000000000000000000000000000000000000815260040161035190610b0e565b60405180910390fd5b8073ffffffffffffffffffffffffffffffffffffffff16600160009054906101000a900473ffffffffffffffffffffffffffffffffffffffff1673ffffffffffffffffffffffffffffffffffffffff167f8be0079c531659141344cd1fd0a4f28419497f9722a3daafe3b4186f6b6457e060405160405180910390a380600160006101000a81548173ffffffffffffffffffffffffffffffffffffffff021916908373ffffffffffffffffffffffffffffffffffffffff16021790555050565b600081519050919050565b600082825260208201905092915050565b60005b83811015610454578082015181840152602081019050610439565b60008484015250505050565b6000601f19601f8301169050919050565b600061047c8261041a565b6104868185610425565b9350610496818560208601610436565b61049f81610460565b840191505092915050565b600060208201905081810360008301526104c48184610471565b905092915050565b600073ffffffffffffffffffffffffffffffffffffffff82169050919050565b60006104f7826104cc565b9050919050565b610507816104ec565b82525050565b600060208201905061052260008301846104fe565b92915050565b600080fd5b600080fd5b600080fd5b600080fd5b600080fd5b60008083601f84011261055757610556610532565b5b8235905067ffffffffffffffff81111561057457610573610537565b5b6020830191508360018202830111156105905761058f61053c565b5b9250929050565b600080602083850312156105ae576105ad610528565b5b600083013567ffffffffffffffff8111156105cc576105cb61052d565b5b6105d885828601610541565b92509250509250929050565b6105ed816104ec565b81146105f857600080fd5b50565b60008135905061060a816105e4565b92915050565b60006020828403121561062657610625610528565b5b6000610634848285016105fb565b91505092915050565b7f4e487b7100000000000000000000000000000000000000000000000000000000600052602260045260246000fd5b6000600282049050600182168061068457607f821691505b6020821081036106975761069661063d565b5b50919050565b7f4e6f74206f776e65720000000000000000000000000000000000000000000000600082015250565b60006106d3600983610425565b91506106de8261069d565b602082019050919050565b60006020820190508181036000830152610702816106c6565b9050919050565b60008190508160005260206000209050919050565b6000815461072b8161066c565b6107358186610425565b94506001821660008114610750576001811461076657610799565b60ff198316865281151560200286019350610799565b61076f85610709565b60005b8381101561079157815481890152600182019150602081019050610772565b808801955050505b50505092915050565b82818337600083830152505050565b60006107bd8385610425565b93506107ca8385846107a2565b6107d383610460565b840190509392505050565b600060408201905081810360008301526107f8818661071e565b9050818103602083015261080d8184866107b1565b9050949350505050565b600082905092915050565b7f4e487b7100000000000000000000000000000000000000000000000000000000600052604160045260246000fd5b60006020601f8301049050919050565b600082821b905092915050565b60006008830261089e7fffffffffffffffffffffffffffffffffffffffffffffffffffffffffffffffff82610861565b6108a88683610861565b95508019841693508086168417925050509392505050565b6000819050919050565b6000819050919050565b60006108ef6108ea6108e5846108c0565b6108ca565b6108c0565b9050919050565b6000819050919050565b610909836108d4565b61091d610915826108f6565b84845461086e565b825550505050565b600090565b610932610925565b61093d818484610900565b505050565b5b818110156109615761095660008261092a565b600181019050610943565b5050565b601f8211156109a65761097781610709565b61098084610851565b8101602085101561098f578190505b6109a361099b85610851565b830182610942565b50505b505050565b600082821c905092915050565b60006109c9600019846008026109ab565b1980831691505092915050565b60006109e283836109b8565b9150826002028217905092915050565b6109fc8383610817565b67ffffffffffffffff811115610a1557610a14610822565b5b610a1f825461066c565b610a2a828285610965565b6000601f831160018114610a595760008415610a47578287013590505b610a5185826109d6565b865550610ab9565b601f198416610a6786610709565b60005b82811015610a8f57848901358255600182019150602085019450602081019050610a6a565b86831015610aac5784890135610aa8601f8916826109b8565b8355505b6001600288020188555050505b50505050505050565b7f5a65726f20616464720000000000000000000000000000000000000000000000600082015250565b6000610af8600983610425565b9150610b0382610ac2565b602082019050919050565b60006020820190508181036000830152610b2781610aeb565b905091905056fea264697066735822122000ce3fb985c6c9db1e2c256c2877778dcbb1db8bf6a3988039d6c22976cde9ff64736f6c63430008140033",
  "linkReferences": {},
  "deployedLinkReferences": {}
}