{
  "_format": "hh-sol-artifact-1",
  "contractName": "SeferVerseDAO",
  "sourceName": "contracts/SeferVerseDAO.sol",
  "abi": [
    {
      "inputs": [
        {
          "internalType": "string",
          "name": "_name",
          "type": "string"
        }
      ],
      "stateMutability": "nonpayable",
      "type": "constructor"
    },
    {
      "anonymous": false,
      "inputs": [
        {
          "indexed": false,
          "internalType": "string",
          "name": "oldName",
          "type": "string"
        },
        {
          "indexed": false,
          "internalType": "string",
          "name": "newName",
          "type": "string"
        }
      ],
      "name": "NameChanged",
      "type": "event"
    },
    {
      "anonymous": false,
      "inputs": [
        {
          "indexed": true,
          "internalType": "address",
          "name": "previousOwner",
          "type": "address"
        },
        {
          "indexed": true,
          "internalType": "address",
          "name": "newOwner",
          "type": "address"
        }
      ],
      "name": "OwnershipTransferred",
      "type": "event"
    },
    {
      "inputs": [],
      "name": "name",
      "outputs": [
        {
          "internalType": "string",
          "name": "",
          "type": "string"
        }
      ],
      "stateMutability": "view",
      "type": "function"
    },
    {
      "inputs": [],
      "name": "owner",
      "outputs": [
        {
          "internalType": "address",
          "name": "",
          "type": "address"
        }
      ],
      "stateMutability": "view",
      "type": "function"
    },
    {
      "inputs": [
        {
          "internalType": "string",
          "name": "_name",
          "type": "string"
        }
      ],
      "name": "setName",
      "outputs": [],
      "stateMutability": "nonpayable",
      "type": "function"
    },
    {
      "inputs": [
        {
          "internalType": "address",
          "name": "newOwner",
          "type": "address"
        }
      ],
      "name": "transferOwnership",
      "outputs": [],
      "stateMutability": "nonpayable",
      "type": "function"
    }
  ],
  "bytecode": "0x608060405234610200576107528038038061001981610205565b92833981019060209081818403126102005780516001600160401b0391828211610200570191601f908482850112156102005783518381116101d657601f199461006882850187168401610205565b9682885283838301011161020057829060005b8381106101ec5750506000918701015284519283116101d657600054936001948581811c911680156101cc575b838210146101b657838111610170575b5081928411600114610110575050819293600092610105575b5050600019600383901b1c191690821b176000555b80546001600160a01b03191633179055604051610527908161022b8239f35b0151905038806100d1565b6000808052828120918516969193925b87821061015957505083859610610140575b505050811b016000556100e6565b015160001960f88460031b161c19169055388080610132565b808785968294968601518155019501930190610120565b60008052826000208480870160051c8201928588106101ad575b0160051c019086905b8281106101a15750506100b8565b60008155018690610193565b9250819261018a565b634e487b7160e01b600052602260045260246000fd5b90607f16906100a8565b634e487b7160e01b600052604160045260246000fd5b81810183015189820184015284920161007b565b600080fd5b6040519190601f01601f191682016001600160401b038111838210176101d65760405256fe6080604081815260048036101561001557600080fd5b600092833560e01c90816306fdde0314610329575080638da5cb5b146102fc578063c47f0027146101005763f2fde38b1461004f57600080fd5b346100fc5760203660031901126100fc576001600160a01b038135818116939192908490036100f8576001549283169161008a8333146104b9565b84156100c957505082907f8be0079c531659141344cd1fd0a4f28419497f9722a3daafe3b4186f6b6457e08580a36001600160a01b0319161760015580f35b906020606492519162461bcd60e51b835282015260096024820152682d32b9379030b2323960b91b6044820152fd5b8480fd5b8280fd5b50346100fc57602091826003193601126102f857813567ffffffffffffffff928382116102f457366023830112156102f4578101359283116100f857602436602485840101116102f45760019461016160018060a01b0387541633146104b9565b6101718451948086528501610405565b9380850382820152858552856024850183870137878287870101527f6c20b91d1723b78732eba64ff11ebd7966a6e4af568a00fa4f6b72c20f58b02a601f8701918381601f199889861601030190a16101ca88546103cb565b90601f8211610297575b50508693601f8611600114610215575050509282939183928694610207575b50501b916000199060031b1c191617815580f35b0160240135925038806101f3565b7f290decd9548b62a8d60345a988386fc84ba6bc95484008f6362f93160ef3e563949286929183169189915b8984841061027b57505050501061025e575b505050811b01815580f35b0160240135600019600384901b60f8161c19169055388080610253565b8787018201358955909701969481019488945091810191610241565b7f290decd9548b62a8d60345a988386fc84ba6bc95484008f6362f93160ef3e5639060051c8101918388106102ea575b601f0160051c019087905b8281106102df57506101d4565b8981550187906102d2565b90915081906102c7565b8580fd5b8380fd5b50503461032557816003193601126103255760015490516001600160a01b039091168152602090f35b5080fd5b8385849234610325578160031936011261032557601f199182601f8361034e81610405565b03011682019482861067ffffffffffffffff8711176103b85750918491928285526020906020845284519182602086015281955b8387106103a05750508394508582601f949501015201168101030190f35b86810182015189880189015295810195889550610382565b634e487b7160e01b825260419052602490fd5b90600182811c921680156103fb575b60208310146103e557565b634e487b7160e01b600052602260045260246000fd5b91607f16916103da565b9060009160005490610416826103cb565b808252916020906001908181169081156104945750600114610439575b50505050565b92939450600080527f290decd9548b62a8d60345a988386fc84ba6bc95484008f6362f93160ef3e563926000935b858510610481575050506020925001019038808080610433565b8054858501840152938201938101610467565b92505050602093945060ff929192191683830152151560051b01019038808080610433565b156104c057565b60405162461bcd60e51b81526020600482015260096024820152682737ba1037bbb732b960b91b6044820152606490fdfea2646970667358221220230ef60f85312726d05b2796d0b18c697cdb78a776e886f8c95935282d8d06c964736f6c63430008180033",
  "linkReferences": {},
  "deployedLinkReferences": {}
}