{
  "_format": "hh-sol-artifact-1",
  "contractName": "MyContract",
  "sourceName": "contracts/MyContract.sol",
  "abi": [
    {
      "inputs": [],
      "name": "message",
      "outputs": [
        {
          "internalType": "string",
          "name": "",
          "type": "string"
        }
      ],
      "stateMutability": "view",
      "type": "function"
    },
    {
      "inputs": [
        {
          "internalType": "string",
          "name": "_msg",
          "type": "string"
        }
      ],
      "name": "setMessage",
      "outputs": [],
      "stateMutability": "nonpayable",
      "type": "function"
    }
  ],
  "bytecode": "0x608080604052346100a95760008054600190600181811c9116801561009f575b602082101461008b57601f8111610062575b50507f48656c6c6f205365666572566572736521000000000000000000000000000022905561037590816100af8239f35b828052601f60208420910160051c8101905b8181106100815750610031565b8381558201610074565b634e487b7160e01b83526022600452602483fd5b90607f169061001f565b600080fdfe604060808152600436101561001357600080fd5b600090813560e01c8063368b8772146101745763e21f37ce1461003557600080fd5b34610170578160031936011261017057805190829183549361005685610305565b938483526020809660019060018116908160001461015157506001146100fc575b505082939450601f801994859203011682019482861067ffffffffffffffff8711176100e85785929391838652818452845191828186015281955b8387106100d05750508394508582601f949501015201168101030190f35b868101820151898801890152958101958895506100b2565b634e487b7160e01b82526041600452602482fd5b83805290915082907f290decd9548b62a8d60345a988386fc84ba6bc95484008f6362f93160ef3e5635b87831061013e57509495508594508301018538610077565b8054868401850152918301918101610126565b60ff191683870152509495869550151560051b84010190508538610077565b5080fd5b82346103025760209060206003193601126103025767ffffffffffffffff6004358181116102fe57366023820112156102fe5780600401359182116102fe5760249036602484830101116102fa576101cc8454610305565b601f811161029b575b508391601f84116001146102145750838394955092610206575b50508160011b916000199060031b1c191617815580f35b6024925001013583806101ef565b91947f290decd9548b62a8d60345a988386fc84ba6bc95484008f6362f93160ef3e56392601f1985169186915b83831061027f5750505094836001959610610262575b505050811b01815580f35b0160240135600019600384901b60f8161c19169055838080610257565b908060018a978483969c89010135815501960198019190610241565b7f290decd9548b62a8d60345a988386fc84ba6bc95484008f6362f93160ef3e563601f850160051c810191602086106102f0575b601f0160051c01905b8181106102e557506101d5565b8581556001016102d8565b90915081906102cf565b8380fd5b8280fd5b80fd5b90600182811c92168015610335575b602083101461031f57565b634e487b7160e01b600052602260045260246000fd5b91607f169161031456fea26469706673582212209ae181746f9a73cb86e1e52f283e89cdb2bb526265f8637d07c1bba9066b158e64736f6c63430008180033",
  "linkReferences": {},
  "deployedLinkReferences": {}
}