{
  "_format": "hh-sol-artifact-1",
  "contractName": "SeferVerse",
  "sourceName": "contracts/SeferVerse.sol",
  "abi": [
    {
      "inputs": [
        {
          "internalType": "string",
          "name": "_name",
          "type": "string"
        }
      ],
      "stateMutability": "nonpayable",
      "type": "constructor"
    },
    {
      "inputs": [],
      "name": "name",
      "outputs": [
        {
          "internalType": "string",
          "name": "",
          "type": "string"
        }
      ],
      "stateMutability": "view",
      "type": "function"
    },
    {
      "inputs": [],
      "name": "owner",
      "outputs": [
        {
          "internalType": "address",
          "name": "",
          "type": "address"
        }
      ],
      "stateMutability": "view",
      "type": "function"
    }
  ],
  "bytecode": "0x6080604052346102005761042c8038038061001981610205565b92833981019060209081818403126102005780516001600160401b0391828211610200570191601f908482850112156102005783518381116101d657601f199461006882850187168401610205565b9682885283838301011161020057829060005b8381106101ec5750506000918701015284519283116101d657600054936001948581811c911680156101cc575b838210146101b657838111610170575b5081928411600114610110575050819293600092610105575b5050600019600383901b1c191690821b176000555b80546001600160a01b03191633179055604051610201908161022b8239f35b0151905038806100d1565b6000808052828120918516969193925b87821061015957505083859610610140575b505050811b016000556100e6565b015160001960f88460031b161c19169055388080610132565b808785968294968601518155019501930190610120565b60008052826000208480870160051c8201928588106101ad575b0160051c019086905b8281106101a15750506100b8565b60008155018690610193565b9250819261018a565b634e487b7160e01b600052602260045260246000fd5b90607f16906100a8565b634e487b7160e01b600052604160045260246000fd5b81810183015189820184015284920161007b565b600080fd5b6040519190601f01601f191682016001600160401b038111838210176101d65760405256fe60806040818152600436101561001457600080fd5b600091823560e01c90816306fdde03146100635750638da5cb5b1461003857600080fd5b3461005f578160031936011261005f5760015490516001600160a01b039091168152602090f35b5080fd5b919050346101c757826003193601126101c75782918354936001938560011c94600187169687156101bd575b60209788881081146101a957878652889291811561018a5750600114610135575b505082939450601f801994859203011682019482861067ffffffffffffffff8711176101215785929391838652818452845191828186015281955b8387106101095750508394508582601f949501015201168101030190f35b868101820151898801890152958101958895506100eb565b634e487b7160e01b82526041600452602482fd5b83805290915082907f290decd9548b62a8d60345a988386fc84ba6bc95484008f6362f93160ef3e5635b878310610177575094955085945083010185386100b0565b805486840185015291830191810161015f565b60ff191683870152509495869550151560051b840101905085386100b0565b634e487b7160e01b85526022600452602485fd5b95607f169561008f565b8280fdfea2646970667358221220b702daa0ff9e42d712e940f446ac591808239191adb0b1ff8f727c1ba982461c64736f6c63430008180033",
  "linkReferences": {},
  "deployedLinkReferences": {}
}